{
  "contractName": "Auction",
  "abi": [
    {
      "anonymous": false,
      "inputs": [
        {
          "indexed": false,
          "internalType": "uint256",
          "name": "tokenId",
          "type": "uint256"
        },
        {
          "indexed": true,
          "internalType": "address",
          "name": "sender",
          "type": "address"
        },
        {
          "indexed": false,
          "internalType": "uint256",
          "name": "amount",
          "type": "uint256"
        }
      ],
      "name": "Bid",
      "type": "event"
    },
    {
      "anonymous": false,
      "inputs": [
        {
          "indexed": false,
          "internalType": "uint256",
          "name": "tokenId",
          "type": "uint256"
        },
        {
          "indexed": false,
          "internalType": "address",
          "name": "highestBidder",
          "type": "address"
        },
        {
          "indexed": false,
          "internalType": "uint256",
          "name": "highestBid",
          "type": "uint256"
        }
      ],
      "name": "End",
      "type": "event"
    },
    {
      "anonymous": false,
      "inputs": [
        {
          "indexed": false,
          "internalType": "uint256",
          "name": "tokenId",
          "type": "uint256"
        }
      ],
      "name": "Start",
      "type": "event"
    },
    {
      "anonymous": false,
      "inputs": [
        {
          "indexed": false,
          "internalType": "uint256",
          "name": "tokenId",
          "type": "uint256"
        },
        {
          "indexed": true,
          "internalType": "address",
          "name": "bidder",
          "type": "address"
        },
        {
          "indexed": false,
          "internalType": "uint256",
          "name": "amount",
          "type": "uint256"
        }
      ],
      "name": "Withdraw",
      "type": "event"
    },
    {
      "inputs": [
        {
          "internalType": "uint256",
          "name": "",
          "type": "uint256"
        }
      ],
      "name": "auctionPurchaseToken",
      "outputs": [
        {
          "internalType": "address",
          "name": "",
          "type": "address"
        }
      ],
      "stateMutability": "view",
      "type": "function"
    },
    {
      "inputs": [
        {
          "internalType": "uint256",
          "name": "",
          "type": "uint256"
        },
        {
          "internalType": "address",
          "name": "",
          "type": "address"
        }
      ],
      "name": "bids",
      "outputs": [
        {
          "internalType": "uint256",
          "name": "",
          "type": "uint256"
        }
      ],
      "stateMutability": "view",
      "type": "function"
    },
    {
      "inputs": [
        {
          "internalType": "uint256",
          "name": "",
          "type": "uint256"
        }
      ],
      "name": "endAt",
      "outputs": [
        {
          "internalType": "uint256",
          "name": "",
          "type": "uint256"
        }
      ],
      "stateMutability": "view",
      "type": "function"
    },
    {
      "inputs": [
        {
          "internalType": "uint256",
          "name": "",
          "type": "uint256"
        }
      ],
      "name": "ended",
      "outputs": [
        {
          "internalType": "bool",
          "name": "",
          "type": "bool"
        }
      ],
      "stateMutability": "view",
      "type": "function"
    },
    {
      "inputs": [
        {
          "internalType": "uint256",
          "name": "",
          "type": "uint256"
        }
      ],
      "name": "highestBid",
      "outputs": [
        {
          "internalType": "uint256",
          "name": "",
          "type": "uint256"
        }
      ],
      "stateMutability": "view",
      "type": "function"
    },
    {
      "inputs": [
        {
          "internalType": "uint256",
          "name": "",
          "type": "uint256"
        }
      ],
      "name": "highestBidder",
      "outputs": [
        {
          "internalType": "address",
          "name": "",
          "type": "address"
        }
      ],
      "stateMutability": "view",
      "type": "function"
    },
    {
      "inputs": [
        {
          "internalType": "uint256",
          "name": "",
          "type": "uint256"
        }
      ],
      "name": "seller",
      "outputs": [
        {
          "internalType": "address",
          "name": "",
          "type": "address"
        }
      ],
      "stateMutability": "view",
      "type": "function"
    },
    {
      "inputs": [
        {
          "internalType": "uint256",
          "name": "",
          "type": "uint256"
        }
      ],
      "name": "started",
      "outputs": [
        {
          "internalType": "bool",
          "name": "",
          "type": "bool"
        }
      ],
      "stateMutability": "view",
      "type": "function"
    },
    {
      "inputs": [
        {
          "internalType": "uint256",
          "name": "_nftId",
          "type": "uint256"
        },
        {
          "internalType": "uint256",
          "name": "startingBid",
          "type": "uint256"
        },
        {
          "internalType": "uint256",
          "name": "auctionPeriodInDays",
          "type": "uint256"
        },
        {
          "internalType": "address",
          "name": "_token",
          "type": "address"
        },
        {
          "internalType": "address",
          "name": "caller",
          "type": "address"
        }
      ],
      "name": "start",
      "outputs": [],
      "stateMutability": "nonpayable",
      "type": "function"
    },
    {
      "inputs": [
        {
          "internalType": "uint256",
          "name": "_nftId",
          "type": "uint256"
        },
        {
          "internalType": "uint256",
          "name": "amount",
          "type": "uint256"
        },
        {
          "internalType": "address",
          "name": "caller",
          "type": "address"
        },
        {
          "internalType": "uint256",
          "name": "maticValue",
          "type": "uint256"
        }
      ],
      "name": "bid",
      "outputs": [],
      "stateMutability": "nonpayable",
      "type": "function"
    },
    {
      "inputs": [
        {
          "internalType": "uint256",
          "name": "tokenId",
          "type": "uint256"
        },
        {
          "internalType": "address",
          "name": "bidder",
          "type": "address"
        },
        {
          "internalType": "address",
          "name": "signer",
          "type": "address"
        },
        {
          "internalType": "uint256",
          "name": "platformCommission",
          "type": "uint256"
        },
        {
          "internalType": "address payable",
          "name": "admin",
          "type": "address"
        }
      ],
      "name": "end",
      "outputs": [],
      "stateMutability": "nonpayable",
      "type": "function"
    },
    {
      "inputs": [
        {
          "internalType": "uint256",
          "name": "_nftId",
          "type": "uint256"
        }
      ],
      "name": "withdraw",
      "outputs": [],
      "stateMutability": "nonpayable",
      "type": "function"
    }
  ],
  "bytecode": "0x608060405234801561001057600080fd5b50612b4e806100206000396000f3fe608060405234801561001057600080fd5b50600436106100b45760003560e01c80638183d744116100715780638183d7441461019d578063861a3689146101cd578063aacdfe6f146101fd578063b14c63c51461022d578063ee8090551461025d578063f7d1a6ed14610279576100b4565b80630dff4e93146100b95780631f89ef13146100d55780632e1a7d4d146101055780633f1ffcec14610121578063451df52e14610151578063481eb28414610181575b600080fd5b6100d360048036038101906100ce9190612008565b6102a9565b005b6100ef60048036038101906100ea9190611ea0565b61045f565b6040516100fc91906123ad565b60405180910390f35b61011f600480360381019061011a9190611ea0565b61047f565b005b61013b60048036038101906101369190611ef2565b61079c565b604051610148919061256a565b60405180910390f35b61016b60048036038101906101669190611ea0565b6107c1565b60405161017891906122e0565b60405180910390f35b61019b60048036038101906101969190611fa5565b6107f4565b005b6101b760048036038101906101b29190611ea0565b610c18565b6040516101c4919061256a565b60405180910390f35b6101e760048036038101906101e29190611ea0565b610c30565b6040516101f491906123ad565b60405180910390f35b61021760048036038101906102129190611ea0565b610c50565b60405161022491906122e0565b60405180910390f35b61024760048036038101906102429190611ea0565b610c83565b604051610254919061256a565b60405180910390f35b61027760048036038101906102729190611f2e565b610c9b565b005b610293600480360381019061028e9190611ea0565b611ae5565b6040516102a091906122e0565b60405180910390f35b6001600086815260200190815260200160002060009054906101000a900460ff161561030a576040517f08c379a00000000000000000000000000000000000000000000000000000000081526004016103019061244a565b60405180910390fd5b8060008087815260200190815260200160002060006101000a81548173ffffffffffffffffffffffffffffffffffffffff021916908373ffffffffffffffffffffffffffffffffffffffff160217905550836004600087815260200190815260200160002081905550600180600087815260200190815260200160002060006101000a81548160ff02191690831515021790555062015180836103ad919061269e565b426103b89190612617565b6003600087815260200190815260200160002081905550816007600087815260200190815260200160002060006101000a81548173ffffffffffffffffffffffffffffffffffffffff021916908373ffffffffffffffffffffffffffffffffffffffff1602179055507ff06a29c94c6f4edc1085072972d9441f7603e81c8535a308f214285d0653c85085604051610450919061256a565b60405180910390a15050505050565b60016020528060005260406000206000915054906101000a900460ff1681565b6002600082815260200190815260200160002060009054906101000a900460ff166104df576040517f08c379a00000000000000000000000000000000000000000000000000000000081526004016104d6906124aa565b60405180910390fd5b60006006600083815260200190815260200160002060003373ffffffffffffffffffffffffffffffffffffffff1673ffffffffffffffffffffffffffffffffffffffff16815260200190815260200160002054905060008111610577576040517f08c379a000000000000000000000000000000000000000000000000000000000815260040161056e906124ea565b60405180910390fd5b60006006600084815260200190815260200160002060003373ffffffffffffffffffffffffffffffffffffffff1673ffffffffffffffffffffffffffffffffffffffff16815260200190815260200160002081905550600073ffffffffffffffffffffffffffffffffffffffff166007600084815260200190815260200160002060009054906101000a900473ffffffffffffffffffffffffffffffffffffffff1673ffffffffffffffffffffffffffffffffffffffff16146107005760006007600084815260200190815260200160002060009054906101000a900473ffffffffffffffffffffffffffffffffffffffff1690508073ffffffffffffffffffffffffffffffffffffffff1663a9059cbb33846040518363ffffffff1660e01b81526004016106a7929190612384565b602060405180830381600087803b1580156106c157600080fd5b505af11580156106d5573d6000803e3d6000fd5b505050506040513d601f19601f820116820180604052508101906106f99190611e77565b5050610748565b3373ffffffffffffffffffffffffffffffffffffffff166108fc829081150290604051600060405180830381858888f19350505050158015610746573d6000803e3d6000fd5b505b3373ffffffffffffffffffffffffffffffffffffffff167f9da6493a92039daf47d1f2d7a782299c5994c6323eb1e972f69c432089ec52bf83836040516107909291906125bc565b60405180910390a25050565b6006602052816000526040600020602052806000526040600020600091509150505481565b60056020528060005260406000206000915054906101000a900473ffffffffffffffffffffffffffffffffffffffff1681565b60008073ffffffffffffffffffffffffffffffffffffffff166007600087815260200190815260200160002060009054906101000a900473ffffffffffffffffffffffffffffffffffffffff1673ffffffffffffffffffffffffffffffffffffffff16141561091557816006600087815260200190815260200160002060008573ffffffffffffffffffffffffffffffffffffffff1673ffffffffffffffffffffffffffffffffffffffff168152602001908152602001600020546108b99190612617565b905060046000868152602001908152602001600020548111610910576040517f08c379a0000000000000000000000000000000000000000000000000000000008152600401610907906123ea565b60405180910390fd5b610b02565b60006007600087815260200190815260200160002060009054906101000a900473ffffffffffffffffffffffffffffffffffffffff16905060008173ffffffffffffffffffffffffffffffffffffffff1663dd62ed3e86306040518363ffffffff1660e01b815260040161098a929190612324565b60206040518083038186803b1580156109a257600080fd5b505afa1580156109b6573d6000803e3d6000fd5b505050506040513d601f19601f820116820180604052508101906109da9190611ec9565b905085811015610a1f576040517f08c379a0000000000000000000000000000000000000000000000000000000008152600401610a169061254a565b60405180910390fd5b856006600089815260200190815260200160002060008773ffffffffffffffffffffffffffffffffffffffff1673ffffffffffffffffffffffffffffffffffffffff16815260200190815260200160002054610a7b9190612617565b925060046000888152602001908152602001600020548311610ad2576040517f08c379a0000000000000000000000000000000000000000000000000000000008152600401610ac9906123ea565b60405180910390fd5b610aff8530888573ffffffffffffffffffffffffffffffffffffffff16611b18909392919063ffffffff16565b50505b806006600087815260200190815260200160002060008573ffffffffffffffffffffffffffffffffffffffff1673ffffffffffffffffffffffffffffffffffffffff16815260200190815260200160002081905550806004600087815260200190815260200160002081905550826005600087815260200190815260200160002060006101000a81548173ffffffffffffffffffffffffffffffffffffffff021916908373ffffffffffffffffffffffffffffffffffffffff1602179055508273ffffffffffffffffffffffffffffffffffffffff167fdcd726e11f8b5e160f00290f0fe3a1abb547474e53a8e7a8f49a85e7b1ca31998683604051610c099291906125bc565b60405180910390a25050505050565b60036020528060005260406000206000915090505481565b60026020528060005260406000206000915054906101000a900460ff1681565b60006020528060005260406000206000915054906101000a900473ffffffffffffffffffffffffffffffffffffffff1681565b60046020528060005260406000206000915090505481565b6001600086815260200190815260200160002060009054906101000a900460ff16610cfb576040517f08c379a0000000000000000000000000000000000000000000000000000000008152600401610cf29061248a565b60405180910390fd5b6003600086815260200190815260200160002054421015610d51576040517f08c379a0000000000000000000000000000000000000000000000000000000008152600401610d489061242a565b60405180910390fd5b6002600086815260200190815260200160002060009054906101000a900460ff1615610db2576040517f08c379a0000000000000000000000000000000000000000000000000000000008152600401610da99061252a565b60405180910390fd5b60006006600087815260200190815260200160002060008673ffffffffffffffffffffffffffffffffffffffff1673ffffffffffffffffffffffffffffffffffffffff168152602001908152602001600020541180610e3d5750600073ffffffffffffffffffffffffffffffffffffffff168473ffffffffffffffffffffffffffffffffffffffff16145b610e7c576040517f08c379a0000000000000000000000000000000000000000000000000000000008152600401610e739061240a565b60405180910390fd5b60016002600087815260200190815260200160002060006101000a81548160ff021916908315150217905550600073ffffffffffffffffffffffffffffffffffffffff168473ffffffffffffffffffffffffffffffffffffffff1614158015610f455750600073ffffffffffffffffffffffffffffffffffffffff166007600087815260200190815260200160002060009054906101000a900473ffffffffffffffffffffffffffffffffffffffff1673ffffffffffffffffffffffffffffffffffffffff1614155b1561126b57600060646006600088815260200190815260200160002060008773ffffffffffffffffffffffffffffffffffffffff1673ffffffffffffffffffffffffffffffffffffffff1681526020019081526020016000205484610faa919061269e565b610fb4919061266d565b9050600060646006600089815260200190815260200160002060008873ffffffffffffffffffffffffffffffffffffffff1673ffffffffffffffffffffffffffffffffffffffff1681526020019081526020016000205485606461101891906126f8565b611022919061269e565b61102c919061266d565b905060006007600089815260200190815260200160002060009054906101000a900473ffffffffffffffffffffffffffffffffffffffff1690508073ffffffffffffffffffffffffffffffffffffffff1663a9059cbb85856040518363ffffffff1660e01b81526004016110a19291906122fb565b602060405180830381600087803b1580156110bb57600080fd5b505af11580156110cf573d6000803e3d6000fd5b505050506040513d601f19601f820116820180604052508101906110f39190611e77565b508073ffffffffffffffffffffffffffffffffffffffff1663a9059cbb87846040518363ffffffff1660e01b815260040161112f929190612384565b602060405180830381600087803b15801561114957600080fd5b505af115801561115d573d6000803e3d6000fd5b505050506040513d601f19601f820116820180604052508101906111819190611e77565b506000600660008a815260200190815260200160002060008973ffffffffffffffffffffffffffffffffffffffff1673ffffffffffffffffffffffffffffffffffffffff168152602001908152602001600020819055507fad71bc980e1f9155e488acf543cc5276beae185d612505ea3eaff929e4fe37f08888600660008c815260200190815260200160002060008b73ffffffffffffffffffffffffffffffffffffffff1673ffffffffffffffffffffffffffffffffffffffff1681526020019081526020016000205460405161125b93929190612585565b60405180910390a1505050611ade565b600073ffffffffffffffffffffffffffffffffffffffff168473ffffffffffffffffffffffffffffffffffffffff161480156113075750600073ffffffffffffffffffffffffffffffffffffffff166007600087815260200190815260200160002060009054906101000a900473ffffffffffffffffffffffffffffffffffffffff1673ffffffffffffffffffffffffffffffffffffffff1614155b156115dc576000606460046000888152602001908152602001600020548461132f919061269e565b611339919061266d565b905060006064600460008981526020019081526020016000205485606461136091906126f8565b61136a919061269e565b611374919061266d565b905060006007600089815260200190815260200160002060009054906101000a900473ffffffffffffffffffffffffffffffffffffffff1690508073ffffffffffffffffffffffffffffffffffffffff1663a9059cbb85856040518363ffffffff1660e01b81526004016113e99291906122fb565b602060405180830381600087803b15801561140357600080fd5b505af1158015611417573d6000803e3d6000fd5b505050506040513d601f19601f8201168201806040525081019061143b9190611e77565b508073ffffffffffffffffffffffffffffffffffffffff1663a9059cbb87846040518363ffffffff1660e01b8152600401611477929190612384565b602060405180830381600087803b15801561149157600080fd5b505af11580156114a5573d6000803e3d6000fd5b505050506040513d601f19601f820116820180604052508101906114c99190611e77565b506000600660008a81526020019081526020016000206000600560008c815260200190815260200160002060009054906101000a900473ffffffffffffffffffffffffffffffffffffffff1673ffffffffffffffffffffffffffffffffffffffff1673ffffffffffffffffffffffffffffffffffffffff168152602001908152602001600020819055507fad71bc980e1f9155e488acf543cc5276beae185d612505ea3eaff929e4fe37f088600560008b815260200190815260200160002060009054906101000a900473ffffffffffffffffffffffffffffffffffffffff16600460008c8152602001908152602001600020546040516115cc93929190612585565b60405180910390a1505050611add565b600073ffffffffffffffffffffffffffffffffffffffff168473ffffffffffffffffffffffffffffffffffffffff16141580156116785750600073ffffffffffffffffffffffffffffffffffffffff166007600087815260200190815260200160002060009054906101000a900473ffffffffffffffffffffffffffffffffffffffff1673ffffffffffffffffffffffffffffffffffffffff16145b156118d757600060646006600088815260200190815260200160002060008773ffffffffffffffffffffffffffffffffffffffff1673ffffffffffffffffffffffffffffffffffffffff16815260200190815260200160002054846116dd919061269e565b6116e7919061266d565b9050600060646006600089815260200190815260200160002060008873ffffffffffffffffffffffffffffffffffffffff1673ffffffffffffffffffffffffffffffffffffffff1681526020019081526020016000205485606461174b91906126f8565b611755919061269e565b61175f919061266d565b90508273ffffffffffffffffffffffffffffffffffffffff166108fc839081150290604051600060405180830381858888f193505050501580156117a7573d6000803e3d6000fd5b508473ffffffffffffffffffffffffffffffffffffffff166108fc829081150290604051600060405180830381858888f193505050501580156117ee573d6000803e3d6000fd5b5060006006600089815260200190815260200160002060008873ffffffffffffffffffffffffffffffffffffffff1673ffffffffffffffffffffffffffffffffffffffff168152602001908152602001600020819055507fad71bc980e1f9155e488acf543cc5276beae185d612505ea3eaff929e4fe37f08787600660008b815260200190815260200160002060008a73ffffffffffffffffffffffffffffffffffffffff1673ffffffffffffffffffffffffffffffffffffffff168152602001908152602001600020546040516118c893929190612585565b60405180910390a15050611adc565b600060646004600088815260200190815260200160002054846118fa919061269e565b611904919061266d565b905060006064600460008981526020019081526020016000205485606461192b91906126f8565b611935919061269e565b61193f919061266d565b90508273ffffffffffffffffffffffffffffffffffffffff166108fc839081150290604051600060405180830381858888f19350505050158015611987573d6000803e3d6000fd5b508473ffffffffffffffffffffffffffffffffffffffff166108fc829081150290604051600060405180830381858888f193505050501580156119ce573d6000803e3d6000fd5b506000600660008981526020019081526020016000206000600560008b815260200190815260200160002060009054906101000a900473ffffffffffffffffffffffffffffffffffffffff1673ffffffffffffffffffffffffffffffffffffffff1673ffffffffffffffffffffffffffffffffffffffff168152602001908152602001600020819055507fad71bc980e1f9155e488acf543cc5276beae185d612505ea3eaff929e4fe37f087600560008a815260200190815260200160002060009054906101000a900473ffffffffffffffffffffffffffffffffffffffff16600460008b815260200190815260200160002054604051611ad193929190612585565b60405180910390a150505b5b5b5050505050565b60076020528060005260406000206000915054906101000a900473ffffffffffffffffffffffffffffffffffffffff1681565b611b9b846323b872dd60e01b858585604051602401611b399392919061234d565b604051602081830303815290604052907bffffffffffffffffffffffffffffffffffffffffffffffffffffffff19166020820180517bffffffffffffffffffffffffffffffffffffffffffffffffffffffff8381831617835250505050611ba1565b50505050565b6000611c03826040518060400160405280602081526020017f5361666545524332303a206c6f772d6c6576656c2063616c6c206661696c65648152508573ffffffffffffffffffffffffffffffffffffffff16611c689092919063ffffffff16565b9050600081511115611c635780806020019051810190611c239190611e77565b611c62576040517f08c379a0000000000000000000000000000000000000000000000000000000008152600401611c599061250a565b60405180910390fd5b5b505050565b6060611c778484600085611c80565b90509392505050565b606082471015611cc5576040517f08c379a0000000000000000000000000000000000000000000000000000000008152600401611cbc9061246a565b60405180910390fd5b611cce85611d94565b611d0d576040517f08c379a0000000000000000000000000000000000000000000000000000000008152600401611d04906124ca565b60405180910390fd5b6000808673ffffffffffffffffffffffffffffffffffffffff168587604051611d3691906122c9565b60006040518083038185875af1925050503d8060008114611d73576040519150601f19603f3d011682016040523d82523d6000602084013e611d78565b606091505b5091509150611d88828286611da7565b92505050949350505050565b600080823b905060008111915050919050565b60608315611db757829050611e07565b600083511115611dca5782518084602001fd5b816040517f08c379a0000000000000000000000000000000000000000000000000000000008152600401611dfe91906123c8565b60405180910390fd5b9392505050565b600081359050611e1d81612abc565b92915050565b600081359050611e3281612ad3565b92915050565b600081519050611e4781612aea565b92915050565b600081359050611e5c81612b01565b92915050565b600081519050611e7181612b01565b92915050565b600060208284031215611e8957600080fd5b6000611e9784828501611e38565b91505092915050565b600060208284031215611eb257600080fd5b6000611ec084828501611e4d565b91505092915050565b600060208284031215611edb57600080fd5b6000611ee984828501611e62565b91505092915050565b60008060408385031215611f0557600080fd5b6000611f1385828601611e4d565b9250506020611f2485828601611e0e565b9150509250929050565b600080600080600060a08688031215611f4657600080fd5b6000611f5488828901611e4d565b9550506020611f6588828901611e0e565b9450506040611f7688828901611e0e565b9350506060611f8788828901611e4d565b9250506080611f9888828901611e23565b9150509295509295909350565b60008060008060808587031215611fbb57600080fd5b6000611fc987828801611e4d565b9450506020611fda87828801611e4d565b9350506040611feb87828801611e0e565b9250506060611ffc87828801611e4d565b91505092959194509250565b600080600080600060a0868803121561202057600080fd5b600061202e88828901611e4d565b955050602061203f88828901611e4d565b945050604061205088828901611e4d565b935050606061206188828901611e0e565b925050608061207288828901611e0e565b9150509295509295909350565b61208881612786565b82525050565b6120978161272c565b82525050565b6120a681612750565b82525050565b60006120b7826125e5565b6120c181856125fb565b93506120d18185602086016127bc565b80840191505092915050565b60006120e8826125f0565b6120f28185612606565b93506121028185602086016127bc565b61210b8161284d565b840191505092915050565b6000612123602783612606565b915061212e8261285e565b604082019050919050565b6000612146601083612606565b9150612151826128ad565b602082019050919050565b6000612169601983612606565b9150612174826128d6565b602082019050919050565b600061218c601083612606565b9150612197826128ff565b602082019050919050565b60006121af602683612606565b91506121ba82612928565b604082019050919050565b60006121d2601883612606565b91506121dd82612977565b602082019050919050565b60006121f5601683612606565b9150612200826129a0565b602082019050919050565b6000612218601d83612606565b9150612223826129c9565b602082019050919050565b600061223b600c83612606565b9150612246826129f2565b602082019050919050565b600061225e602a83612606565b915061226982612a1b565b604082019050919050565b6000612281601683612606565b915061228c82612a6a565b602082019050919050565b60006122a4601783612606565b91506122af82612a93565b602082019050919050565b6122c38161277c565b82525050565b60006122d582846120ac565b915081905092915050565b60006020820190506122f5600083018461208e565b92915050565b6000604082019050612310600083018561207f565b61231d60208301846122ba565b9392505050565b6000604082019050612339600083018561208e565b612346602083018461208e565b9392505050565b6000606082019050612362600083018661208e565b61236f602083018561208e565b61237c60408301846122ba565b949350505050565b6000604082019050612399600083018561208e565b6123a660208301846122ba565b9392505050565b60006020820190506123c2600083018461209d565b92915050565b600060208201905081810360008301526123e281846120dd565b905092915050565b6000602082019050818103600083015261240381612116565b9050919050565b6000602082019050818103600083015261242381612139565b9050919050565b600060208201905081810360008301526124438161215c565b9050919050565b600060208201905081810360008301526124638161217f565b9050919050565b60006020820190508181036000830152612483816121a2565b9050919050565b600060208201905081810360008301526124a3816121c5565b9050919050565b600060208201905081810360008301526124c3816121e8565b9050919050565b600060208201905081810360008301526124e38161220b565b9050919050565b600060208201905081810360008301526125038161222e565b9050919050565b6000602082019050818103600083015261252381612251565b9050919050565b6000602082019050818103600083015261254381612274565b9050919050565b6000602082019050818103600083015261256381612297565b9050919050565b600060208201905061257f60008301846122ba565b92915050565b600060608201905061259a60008301866122ba565b6125a7602083018561208e565b6125b460408301846122ba565b949350505050565b60006040820190506125d160008301856122ba565b6125de60208301846122ba565b9392505050565b600081519050919050565b600081519050919050565b600081905092915050565b600082825260208201905092915050565b60006126228261277c565b915061262d8361277c565b9250827fffffffffffffffffffffffffffffffffffffffffffffffffffffffffffffffff03821115612662576126616127ef565b5b828201905092915050565b60006126788261277c565b91506126838361277c565b9250826126935761269261281e565b5b828204905092915050565b60006126a98261277c565b91506126b48361277c565b9250817fffffffffffffffffffffffffffffffffffffffffffffffffffffffffffffffff04831182151516156126ed576126ec6127ef565b5b828202905092915050565b60006127038261277c565b915061270e8361277c565b925082821015612721576127206127ef565b5b828203905092915050565b60006127378261275c565b9050919050565b60006127498261275c565b9050919050565b60008115159050919050565b600073ffffffffffffffffffffffffffffffffffffffff82169050919050565b6000819050919050565b600061279182612798565b9050919050565b60006127a3826127aa565b9050919050565b60006127b58261275c565b9050919050565b60005b838110156127da5780820151818401526020810190506127bf565b838111156127e9576000848401525b50505050565b7f4e487b7100000000000000000000000000000000000000000000000000000000600052601160045260246000fd5b7f4e487b7100000000000000000000000000000000000000000000000000000000600052601260045260246000fd5b6000601f19601f8301169050919050565b7f6269642076616c7565206d757374206265206d6f7265207468616e206869676860008201527f6573742062696400000000000000000000000000000000000000000000000000602082015250565b7f426964646572206e6f7420666f756e6400000000000000000000000000000000600082015250565b7f41756374696f6e206973207374696c6c206f6e676f696e672100000000000000600082015250565b7f416c726561647920737461727465642100000000000000000000000000000000600082015250565b7f416464726573733a20696e73756666696369656e742062616c616e636520666f60008201527f722063616c6c0000000000000000000000000000000000000000000000000000602082015250565b7f596f75206e65656420746f207374617274206669727374210000000000000000600082015250565b7f41756374696f6e206e6f7420656e646564207965742100000000000000000000600082015250565b7f416464726573733a2063616c6c20746f206e6f6e2d636f6e7472616374000000600082015250565b7f5a65726f2062616c616e63650000000000000000000000000000000000000000600082015250565b7f5361666545524332303a204552433230206f7065726174696f6e20646964206e60008201527f6f74207375636365656400000000000000000000000000000000000000000000602082015250565b7f41756374696f6e20616c726561647920656e6465642100000000000000000000600082015250565b7f496e76616c696420746f6b656e20616c6c6f77616e6365000000000000000000600082015250565b612ac58161272c565b8114612ad057600080fd5b50565b612adc8161273e565b8114612ae757600080fd5b50565b612af381612750565b8114612afe57600080fd5b50565b612b0a8161277c565b8114612b1557600080fd5b5056fea2646970667358221220a93c7e1e2fdd5d01daff6eeff35bc48cf449b0409ada0a887cc21efd3bf0e06164736f6c63430008040033",
  "immutableReferences": {},
  "source": "// SPDX-License-Identifier: MIT\r\npragma solidity ^0.8.0;\r\n\r\nimport \"@openzeppelin/contracts/token/ERC20/utils/SafeERC20.sol\";\r\n\r\ncontract Auction {\r\n    using SafeERC20 for IERC20;\r\n    mapping(uint256 => address) public seller;\r\n    mapping(uint256 => bool) public started;\r\n    mapping(uint256 => bool) public ended;\r\n    mapping(uint256 => uint256) public endAt;\r\n    mapping(uint256 => uint256) public highestBid;\r\n    mapping(uint256 => address) public highestBidder;\r\n    mapping(uint256 => mapping(address => uint256)) public bids;\r\n    mapping(uint256 => address) public auctionPurchaseToken;\r\n\r\n    event Start(uint256 tokenId);\r\n    event Bid(uint256 tokenId, address indexed sender, uint256 amount);\r\n    event Withdraw(uint256 tokenId, address indexed bidder, uint256 amount);\r\n    event End(uint256 tokenId, address highestBidder, uint256 highestBid);\r\n\r\n    function start(\r\n        uint256 _nftId,\r\n        uint256 startingBid,\r\n        uint256 auctionPeriodInDays,\r\n        address _token,\r\n        address caller\r\n    ) public {\r\n        require(!started[_nftId], \"Already started!\");\r\n        seller[_nftId] = caller;\r\n        highestBid[_nftId] = startingBid;\r\n        started[_nftId] = true;\r\n        endAt[_nftId] = block.timestamp + (auctionPeriodInDays * 1 days);\r\n        auctionPurchaseToken[_nftId] = _token;\r\n        emit Start(_nftId);\r\n    }\r\n\r\n    function bid(\r\n        uint256 _nftId,\r\n        uint256 amount,\r\n        address caller,\r\n        uint256 maticValue\r\n    ) public {\r\n        uint256 currentBid;\r\n\r\n        if (auctionPurchaseToken[_nftId] == address(0)) {\r\n            currentBid = bids[_nftId][caller] + maticValue;\r\n            require(\r\n                currentBid > highestBid[_nftId],\r\n                \"bid value must be more than highest bid\"\r\n            );\r\n        } else {\r\n            IERC20 paymentToken = IERC20(auctionPurchaseToken[_nftId]);\r\n            uint256 allowToPayAmount = paymentToken.allowance(\r\n                caller,\r\n                address(this)\r\n            );\r\n            require(allowToPayAmount >= amount, \"Invalid token allowance\");\r\n\r\n            currentBid = bids[_nftId][caller] + amount;\r\n            require(\r\n                currentBid > highestBid[_nftId],\r\n                \"bid value must be more than highest bid\"\r\n            );\r\n            // Transfer bid\r\n            paymentToken.safeTransferFrom(caller, address(this), amount);\r\n        }\r\n\r\n        bids[_nftId][caller] = currentBid;\r\n        highestBid[_nftId] = currentBid;\r\n        highestBidder[_nftId] = caller;\r\n        emit Bid(_nftId, caller, currentBid);\r\n    }\r\n\r\n    function end(\r\n        uint256 tokenId,\r\n        address bidder,\r\n        address signer,\r\n        uint256 platformCommission,\r\n        address payable admin\r\n    ) public {\r\n        require(started[tokenId], \"You need to start first!\");\r\n        require(block.timestamp >= endAt[tokenId], \"Auction is still ongoing!\");\r\n        require(!ended[tokenId], \"Auction already ended!\");\r\n        require(\r\n            bids[tokenId][bidder] > 0 || bidder == address(0),\r\n            \"Bidder not found\"\r\n        );\r\n\r\n        // nft.transfer(highestBidder, _nftId); //Transfering the NFT to the winner.\r\n\r\n        //     (bool sent, bytes memory data) = seller.call{value: highestBid}(\"\"); // Paying the seller.\r\n        //     require(sent, \"Could not pay seller!\");\r\n\r\n        ended[tokenId] = true;\r\n        // setApprovalForAll(address(this), true); //grant transaction permission to marketplace\r\n        // IERC721(address(this)).transferFrom(seller, address(this), _tokenId);\r\n\r\n        if (\r\n            bidder != address(0) && auctionPurchaseToken[tokenId] != address(0)\r\n        ) {\r\n            uint256 commission = (platformCommission * bids[tokenId][bidder]) /\r\n                100;\r\n            uint256 sellerShare = ((100 - platformCommission) *\r\n                bids[tokenId][bidder]) / 100;\r\n\r\n            IERC20 paymentToken = IERC20(auctionPurchaseToken[tokenId]);\r\n            paymentToken.transfer(admin, commission);\r\n            paymentToken.transfer(signer, sellerShare);\r\n\r\n            bids[tokenId][bidder] = 0;\r\n\r\n            emit End(tokenId, bidder, bids[tokenId][bidder]);\r\n        } else if (\r\n            bidder == address(0) && auctionPurchaseToken[tokenId] != address(0)\r\n        ) {\r\n            uint256 commission = (platformCommission * highestBid[tokenId]) /\r\n                100;\r\n            uint256 sellerShare = ((100 - platformCommission) *\r\n                highestBid[tokenId]) / 100;\r\n\r\n            IERC20 paymentToken = IERC20(auctionPurchaseToken[tokenId]);\r\n            paymentToken.transfer(admin, commission);\r\n            paymentToken.transfer(signer, sellerShare);\r\n            // admin.transfer(commission);\r\n            // payable(signer).transfer(sellerShare);\r\n            bids[tokenId][highestBidder[tokenId]] = 0;\r\n\r\n            emit End(tokenId, highestBidder[tokenId], highestBid[tokenId]);\r\n        } else if (\r\n            bidder != address(0) && auctionPurchaseToken[tokenId] == address(0)\r\n        ) {\r\n            uint256 commission = (platformCommission * bids[tokenId][bidder]) /\r\n                100;\r\n            uint256 sellerShare = ((100 - platformCommission) *\r\n                bids[tokenId][bidder]) / 100;\r\n\r\n            admin.transfer(commission);\r\n            payable(signer).transfer(sellerShare);\r\n\r\n            bids[tokenId][bidder] = 0;\r\n\r\n            emit End(tokenId, bidder, bids[tokenId][bidder]);\r\n        } else {\r\n            uint256 commission = (platformCommission * highestBid[tokenId]) /\r\n                100;\r\n            uint256 sellerShare = ((100 - platformCommission) *\r\n                highestBid[tokenId]) / 100;\r\n\r\n            admin.transfer(commission);\r\n            payable(signer).transfer(sellerShare);\r\n\r\n            bids[tokenId][highestBidder[tokenId]] = 0;\r\n\r\n            emit End(tokenId, highestBidder[tokenId], highestBid[tokenId]);\r\n        }\r\n\r\n        //_transferBuy(voucher.minPrice, marketItemId, msg.sender);\r\n    }\r\n\r\n    function withdraw(uint256 _nftId) public {\r\n        require(ended[_nftId], \"Auction not ended yet!\");\r\n        uint256 bal = bids[_nftId][msg.sender];\r\n        require(bal > 0, \"Zero balance\");\r\n        bids[_nftId][msg.sender] = 0;\r\n\r\n        if (auctionPurchaseToken[_nftId] != address(0)) {\r\n            IERC20 paymentToken = IERC20(auctionPurchaseToken[_nftId]);\r\n            paymentToken.transfer(msg.sender, bal);\r\n        } else {\r\n            payable(msg.sender).transfer(bal);\r\n        }\r\n\r\n        emit Withdraw(_nftId, msg.sender, bal);\r\n    }\r\n}\r\n",
  "sourcePath": "D:\\Desktop\\immense\\crypto\\defi application\\test (NFT marketplace)\\NFT game\\src\\contracts\\Auctions.sol",
  "compiler": {
    "name": "solc",
    "version": "0.8.4+commit.c7e474f2.Emscripten.clang"
  },
  "schemaVersion": "3.4.7",
  "updatedAt": "2022-05-30T12:37:27.224Z",
  "devdoc": {
    "kind": "dev",
    "methods": {},
    "version": 1
  },
  "userdoc": {
    "kind": "user",
    "methods": {},
    "version": 1
  }
}