{
  "contractName": "BoxHub",
  "abi": [
    {
      "inputs": [],
      "stateMutability": "nonpayable",
      "type": "constructor"
    },
    {
      "anonymous": false,
      "inputs": [
        {
          "indexed": true,
          "internalType": "uint256",
          "name": "boxId",
          "type": "uint256"
        },
        {
          "indexed": true,
          "internalType": "address",
          "name": "buyer",
          "type": "address"
        },
        {
          "indexed": false,
          "internalType": "uint256",
          "name": "boxType",
          "type": "uint256"
        },
        {
          "indexed": false,
          "internalType": "uint256",
          "name": "price",
          "type": "uint256"
        },
        {
          "indexed": false,
          "internalType": "address",
          "name": "paymentToken",
          "type": "address"
        }
      ],
      "name": "BoxPaid",
      "type": "event"
    },
    {
      "anonymous": false,
      "inputs": [
        {
          "indexed": true,
          "internalType": "address",
          "name": "previousOwner",
          "type": "address"
        },
        {
          "indexed": true,
          "internalType": "address",
          "name": "newOwner",
          "type": "address"
        }
      ],
      "name": "OwnershipTransferred",
      "type": "event"
    },
    {
      "inputs": [
        {
          "internalType": "bytes32",
          "name": "_messageHash",
          "type": "bytes32"
        }
      ],
      "name": "getEthSignedMessageHash",
      "outputs": [
        {
          "internalType": "bytes32",
          "name": "",
          "type": "bytes32"
        }
      ],
      "stateMutability": "pure",
      "type": "function"
    },
    {
      "inputs": [],
      "name": "owner",
      "outputs": [
        {
          "internalType": "address",
          "name": "",
          "type": "address"
        }
      ],
      "stateMutability": "view",
      "type": "function"
    },
    {
      "inputs": [],
      "name": "paymentReceivedAddress",
      "outputs": [
        {
          "internalType": "address",
          "name": "",
          "type": "address"
        }
      ],
      "stateMutability": "view",
      "type": "function"
    },
    {
      "inputs": [
        {
          "internalType": "bytes32",
          "name": "_ethSignedMessageHash",
          "type": "bytes32"
        },
        {
          "internalType": "bytes",
          "name": "_signature",
          "type": "bytes"
        }
      ],
      "name": "recoverSigner",
      "outputs": [
        {
          "internalType": "address",
          "name": "",
          "type": "address"
        }
      ],
      "stateMutability": "pure",
      "type": "function"
    },
    {
      "inputs": [],
      "name": "renounceOwnership",
      "outputs": [],
      "stateMutability": "nonpayable",
      "type": "function"
    },
    {
      "inputs": [
        {
          "internalType": "bytes",
          "name": "sig",
          "type": "bytes"
        }
      ],
      "name": "splitSignature",
      "outputs": [
        {
          "internalType": "bytes32",
          "name": "r",
          "type": "bytes32"
        },
        {
          "internalType": "bytes32",
          "name": "s",
          "type": "bytes32"
        },
        {
          "internalType": "uint8",
          "name": "v",
          "type": "uint8"
        }
      ],
      "stateMutability": "pure",
      "type": "function"
    },
    {
      "inputs": [
        {
          "internalType": "address",
          "name": "newOwner",
          "type": "address"
        }
      ],
      "name": "transferOwnership",
      "outputs": [],
      "stateMutability": "nonpayable",
      "type": "function"
    },
    {
      "inputs": [
        {
          "internalType": "address",
          "name": "_paymentReceivedAddress",
          "type": "address"
        }
      ],
      "name": "setPaymentReceivedAddress",
      "outputs": [],
      "stateMutability": "nonpayable",
      "type": "function"
    },
    {
      "inputs": [
        {
          "internalType": "uint256",
          "name": "boxId",
          "type": "uint256"
        },
        {
          "internalType": "uint256",
          "name": "_type",
          "type": "uint256"
        },
        {
          "internalType": "address",
          "name": "userAddress",
          "type": "address"
        },
        {
          "internalType": "uint256",
          "name": "price",
          "type": "uint256"
        },
        {
          "internalType": "address",
          "name": "paymentErc20",
          "type": "address"
        },
        {
          "internalType": "bytes",
          "name": "signature",
          "type": "bytes"
        }
      ],
      "name": "buyBoxWithSignature",
      "outputs": [],
      "stateMutability": "nonpayable",
      "type": "function"
    },
    {
      "inputs": [
        {
          "internalType": "uint256",
          "name": "_boxType",
          "type": "uint256"
        },
        {
          "internalType": "uint256",
          "name": "_price",
          "type": "uint256"
        }
      ],
      "name": "getMessageHash",
      "outputs": [
        {
          "internalType": "bytes32",
          "name": "",
          "type": "bytes32"
        }
      ],
      "stateMutability": "pure",
      "type": "function"
    }
  ],
  "bytecode": "0x608060405234801561001057600080fd5b5061002d61002261007360201b60201c565b61007b60201b60201c565b33600160006101000a81548173ffffffffffffffffffffffffffffffffffffffff021916908373ffffffffffffffffffffffffffffffffffffffff16021790555061013f565b600033905090565b60008060009054906101000a900473ffffffffffffffffffffffffffffffffffffffff169050816000806101000a81548173ffffffffffffffffffffffffffffffffffffffff021916908373ffffffffffffffffffffffffffffffffffffffff1602179055508173ffffffffffffffffffffffffffffffffffffffff168173ffffffffffffffffffffffffffffffffffffffff167f8be0079c531659141344cd1fd0a4f28419497f9722a3daafe3b4186f6b6457e060405160405180910390a35050565b611b6e8061014e6000396000f3fe608060405234801561001057600080fd5b506004361061009e5760003560e01c80638da5cb5b116100665780638da5cb5b1461013357806397aba7f914610151578063a7bb580314610181578063f2fde38b146101b3578063fa540801146101cf5761009e565b806312905ef9146100a357806340508820146100c157806348af22a7146100dd578063715018a6146100f9578063734e630814610103575b600080fd5b6100ab6101ff565b6040516100b89190611362565b60405180910390f35b6100db60048036038101906100d69190610fda565b610225565b005b6100f760048036038101906100f29190610e65565b6105cc565b005b61010161068c565b005b61011d60048036038101906101189190610f9e565b610714565b60405161012a91906113dd565b60405180910390f35b61013b610747565b6040516101489190611362565b60405180910390f35b61016b60048036038101906101669190610ee0565b610770565b6040516101789190611362565b60405180910390f35b61019b60048036038101906101969190610f34565b6107df565b6040516101aa939291906113f8565b60405180910390f35b6101cd60048036038101906101c89190610e65565b610847565b005b6101e960048036038101906101e49190610eb7565b61093f565b6040516101f691906113dd565b60405180910390f35b600160009054906101000a900473ffffffffffffffffffffffffffffffffffffffff1681565b61022d61096f565b73ffffffffffffffffffffffffffffffffffffffff1661024b610747565b73ffffffffffffffffffffffffffffffffffffffff16146102a1576040517f08c379a000000000000000000000000000000000000000000000000000000000815260040161029890611536565b60405180910390fd5b6102aa85610977565b156102ea576040517f08c379a00000000000000000000000000000000000000000000000000000000081526004016102e1906114f6565b60405180910390fd5b6005861061032d576040517f08c379a000000000000000000000000000000000000000000000000000000000815260040161032490611516565b60405180910390fd5b60008411610370576040517f08c379a000000000000000000000000000000000000000000000000000000000815260040161036790611556565b60405180910390fd5b600061037c8786610714565b905060006103898261093f565b90508673ffffffffffffffffffffffffffffffffffffffff166103f08286868080601f016020809104026020016040519081016040528093929190818152602001838380828437600081840152601f19601f82011690508083019250505050505050610770565b73ffffffffffffffffffffffffffffffffffffffff1614610446576040517f08c379a000000000000000000000000000000000000000000000000000000000815260040161043d90611576565b60405180910390fd5b600085905060008173ffffffffffffffffffffffffffffffffffffffff1663dd62ed3e8a306040518363ffffffff1660e01b815260040161048892919061137d565b60206040518083038186803b1580156104a057600080fd5b505afa1580156104b4573d6000803e3d6000fd5b505050506040513d601f19601f820116820180604052508101906104d89190610f75565b90508781101561051d576040517f08c379a0000000000000000000000000000000000000000000000000000000008152600401610514906114b6565b60405180910390fd5b61056c89600160009054906101000a900473ffffffffffffffffffffffffffffffffffffffff168a8573ffffffffffffffffffffffffffffffffffffffff16610990909392919063ffffffff16565b8873ffffffffffffffffffffffffffffffffffffffff168b7fca6b6b3332a4ca1d36cc620c337ce38fd836db6ca17453b0184db31a5119f3378c8b8b6040516105b7939291906115f6565b60405180910390a35050505050505050505050565b6105d461096f565b73ffffffffffffffffffffffffffffffffffffffff166105f2610747565b73ffffffffffffffffffffffffffffffffffffffff1614610648576040517f08c379a000000000000000000000000000000000000000000000000000000000815260040161063f90611536565b60405180910390fd5b80600160006101000a81548173ffffffffffffffffffffffffffffffffffffffff021916908373ffffffffffffffffffffffffffffffffffffffff16021790555050565b61069461096f565b73ffffffffffffffffffffffffffffffffffffffff166106b2610747565b73ffffffffffffffffffffffffffffffffffffffff1614610708576040517f08c379a00000000000000000000000000000000000000000000000000000000081526004016106ff90611536565b60405180910390fd5b6107126000610a19565b565b60008282604051602001610729929190611336565b60405160208183030381529060405280519060200120905092915050565b60008060009054906101000a900473ffffffffffffffffffffffffffffffffffffffff16905090565b60008060008061077f856107df565b925092509250600186828585604051600081526020016040526040516107a8949392919061142f565b6020604051602081039080840390855afa1580156107ca573d6000803e3d6000fd5b50505060206040510351935050505092915050565b60008060006041845114610828576040517f08c379a000000000000000000000000000000000000000000000000000000000815260040161081f906115b6565b60405180910390fd5b6020840151925060408401519150606084015160001a90509193909250565b61084f61096f565b73ffffffffffffffffffffffffffffffffffffffff1661086d610747565b73ffffffffffffffffffffffffffffffffffffffff16146108c3576040517f08c379a00000000000000000000000000000000000000000000000000000000081526004016108ba90611536565b60405180910390fd5b600073ffffffffffffffffffffffffffffffffffffffff168173ffffffffffffffffffffffffffffffffffffffff161415610933576040517f08c379a000000000000000000000000000000000000000000000000000000000815260040161092a90611496565b60405180910390fd5b61093c81610a19565b50565b6000816040516020016109529190611310565b604051602081830303815290604052805190602001209050919050565b600033905090565b600080823b905060008163ffffffff1611915050919050565b610a13846323b872dd60e01b8585856040516024016109b1939291906113a6565b604051602081830303815290604052907bffffffffffffffffffffffffffffffffffffffffffffffffffffffff19166020820180517bffffffffffffffffffffffffffffffffffffffffffffffffffffffff8381831617835250505050610add565b50505050565b60008060009054906101000a900473ffffffffffffffffffffffffffffffffffffffff169050816000806101000a81548173ffffffffffffffffffffffffffffffffffffffff021916908373ffffffffffffffffffffffffffffffffffffffff1602179055508173ffffffffffffffffffffffffffffffffffffffff168173ffffffffffffffffffffffffffffffffffffffff167f8be0079c531659141344cd1fd0a4f28419497f9722a3daafe3b4186f6b6457e060405160405180910390a35050565b6000610b3f826040518060400160405280602081526020017f5361666545524332303a206c6f772d6c6576656c2063616c6c206661696c65648152508573ffffffffffffffffffffffffffffffffffffffff16610ba49092919063ffffffff16565b9050600081511115610b9f5780806020019051810190610b5f9190610e8e565b610b9e576040517f08c379a0000000000000000000000000000000000000000000000000000000008152600401610b95906115d6565b60405180910390fd5b5b505050565b6060610bb38484600085610bbc565b90509392505050565b606082471015610c01576040517f08c379a0000000000000000000000000000000000000000000000000000000008152600401610bf8906114d6565b60405180910390fd5b610c0a85610cd0565b610c49576040517f08c379a0000000000000000000000000000000000000000000000000000000008152600401610c4090611596565b60405180910390fd5b6000808673ffffffffffffffffffffffffffffffffffffffff168587604051610c7291906112f9565b60006040518083038185875af1925050503d8060008114610caf576040519150601f19603f3d011682016040523d82523d6000602084013e610cb4565b606091505b5091509150610cc4828286610ce3565b92505050949350505050565b600080823b905060008111915050919050565b60608315610cf357829050610d43565b600083511115610d065782518084602001fd5b816040517f08c379a0000000000000000000000000000000000000000000000000000000008152600401610d3a9190611474565b60405180910390fd5b9392505050565b6000610d5d610d5884611652565b61162d565b905082815260208101848484011115610d7557600080fd5b610d8084828561171f565b509392505050565b600081359050610d9781611adc565b92915050565b600081519050610dac81611af3565b92915050565b600081359050610dc181611b0a565b92915050565b60008083601f840112610dd957600080fd5b8235905067ffffffffffffffff811115610df257600080fd5b602083019150836001820283011115610e0a57600080fd5b9250929050565b600082601f830112610e2257600080fd5b8135610e32848260208601610d4a565b91505092915050565b600081359050610e4a81611b21565b92915050565b600081519050610e5f81611b21565b92915050565b600060208284031215610e7757600080fd5b6000610e8584828501610d88565b91505092915050565b600060208284031215610ea057600080fd5b6000610eae84828501610d9d565b91505092915050565b600060208284031215610ec957600080fd5b6000610ed784828501610db2565b91505092915050565b60008060408385031215610ef357600080fd5b6000610f0185828601610db2565b925050602083013567ffffffffffffffff811115610f1e57600080fd5b610f2a85828601610e11565b9150509250929050565b600060208284031215610f4657600080fd5b600082013567ffffffffffffffff811115610f6057600080fd5b610f6c84828501610e11565b91505092915050565b600060208284031215610f8757600080fd5b6000610f9584828501610e50565b91505092915050565b60008060408385031215610fb157600080fd5b6000610fbf85828601610e3b565b9250506020610fd085828601610e3b565b9150509250929050565b600080600080600080600060c0888a031215610ff557600080fd5b60006110038a828b01610e3b565b97505060206110148a828b01610e3b565b96505060406110258a828b01610d88565b95505060606110368a828b01610e3b565b94505060806110478a828b01610d88565b93505060a088013567ffffffffffffffff81111561106457600080fd5b6110708a828b01610dc7565b925092505092959891949750929550565b61108a816116c0565b82525050565b611099816116de565b82525050565b6110b06110ab826116de565b611792565b82525050565b60006110c182611683565b6110cb8185611699565b93506110db81856020860161172e565b80840191505092915050565b60006110f28261168e565b6110fc81856116a4565b935061110c81856020860161172e565b611115816117d5565b840191505092915050565b600061112d601c836116b5565b9150611138826117e6565b601c82019050919050565b60006111506026836116a4565b915061115b8261180f565b604082019050919050565b60006111736023836116a4565b915061117e8261185e565b604082019050919050565b60006111966026836116a4565b91506111a1826118ad565b604082019050919050565b60006111b96033836116a4565b91506111c4826118fc565b604082019050919050565b60006111dc601c836116a4565b91506111e78261194b565b602082019050919050565b60006111ff6020836116a4565b915061120a82611974565b602082019050919050565b60006112226022836116a4565b915061122d8261199d565b604082019050919050565b60006112456023836116a4565b9150611250826119ec565b604082019050919050565b6000611268601d836116a4565b915061127382611a3b565b602082019050919050565b600061128b6018836116a4565b915061129682611a64565b602082019050919050565b60006112ae602a836116a4565b91506112b982611a8d565b604082019050919050565b6112cd81611708565b82525050565b6112e46112df82611708565b61179c565b82525050565b6112f381611712565b82525050565b600061130582846110b6565b915081905092915050565b600061131b82611120565b9150611327828461109f565b60208201915081905092915050565b600061134282856112d3565b60208201915061135282846112d3565b6020820191508190509392505050565b60006020820190506113776000830184611081565b92915050565b60006040820190506113926000830185611081565b61139f6020830184611081565b9392505050565b60006060820190506113bb6000830186611081565b6113c86020830185611081565b6113d560408301846112c4565b949350505050565b60006020820190506113f26000830184611090565b92915050565b600060608201905061140d6000830186611090565b61141a6020830185611090565b61142760408301846112ea565b949350505050565b60006080820190506114446000830187611090565b61145160208301866112ea565b61145e6040830185611090565b61146b6060830184611090565b95945050505050565b6000602082019050818103600083015261148e81846110e7565b905092915050565b600060208201905081810360008301526114af81611143565b9050919050565b600060208201905081810360008301526114cf81611166565b9050919050565b600060208201905081810360008301526114ef81611189565b9050919050565b6000602082019050818103600083015261150f816111ac565b9050919050565b6000602082019050818103600083015261152f816111cf565b9050919050565b6000602082019050818103600083015261154f816111f2565b9050919050565b6000602082019050818103600083015261156f81611215565b9050919050565b6000602082019050818103600083015261158f81611238565b9050919050565b600060208201905081810360008301526115af8161125b565b9050919050565b600060208201905081810360008301526115cf8161127e565b9050919050565b600060208201905081810360008301526115ef816112a1565b9050919050565b600060608201905061160b60008301866112c4565b61161860208301856112c4565b6116256040830184611081565b949350505050565b6000611637611648565b90506116438282611761565b919050565b6000604051905090565b600067ffffffffffffffff82111561166d5761166c6117a6565b5b611676826117d5565b9050602081019050919050565b600081519050919050565b600081519050919050565b600081905092915050565b600082825260208201905092915050565b600081905092915050565b60006116cb826116e8565b9050919050565b60008115159050919050565b6000819050919050565b600073ffffffffffffffffffffffffffffffffffffffff82169050919050565b6000819050919050565b600060ff82169050919050565b82818337600083830152505050565b60005b8381101561174c578082015181840152602081019050611731565b8381111561175b576000848401525b50505050565b61176a826117d5565b810181811067ffffffffffffffff82111715611789576117886117a6565b5b80604052505050565b6000819050919050565b6000819050919050565b7f4e487b7100000000000000000000000000000000000000000000000000000000600052604160045260246000fd5b6000601f19601f8301169050919050565b7f19457468657265756d205369676e6564204d6573736167653a0a333200000000600082015250565b7f4f776e61626c653a206e6577206f776e657220697320746865207a65726f206160008201527f6464726573730000000000000000000000000000000000000000000000000000602082015250565b7f426f785061796d656e743a20496e76616c696420746f6b656e20616c6c6f776160008201527f6e63650000000000000000000000000000000000000000000000000000000000602082015250565b7f416464726573733a20696e73756666696369656e742062616c616e636520666f60008201527f722063616c6c0000000000000000000000000000000000000000000000000000602082015250565b7f426f785061796d656e743a204f6e6c792075736572206164647265737320697360008201527f20616c6c6f77656420746f2062757920626f7800000000000000000000000000602082015250565b7f426f785061796d656e743a20496e76616c696420626f78207479706500000000600082015250565b7f4f776e61626c653a2063616c6c6572206973206e6f7420746865206f776e6572600082015250565b7f426f785061796d656e743a20496e76616c6964207061796d656e7420616d6f7560008201527f6e74000000000000000000000000000000000000000000000000000000000000602082015250565b7f426f785061796d656e743a20696e76616c6964206275796572207369676e617460008201527f7572650000000000000000000000000000000000000000000000000000000000602082015250565b7f416464726573733a2063616c6c20746f206e6f6e2d636f6e7472616374000000600082015250565b7f696e76616c6964207369676e6174757265206c656e6774680000000000000000600082015250565b7f5361666545524332303a204552433230206f7065726174696f6e20646964206e60008201527f6f74207375636365656400000000000000000000000000000000000000000000602082015250565b611ae5816116c0565b8114611af057600080fd5b50565b611afc816116d2565b8114611b0757600080fd5b50565b611b13816116de565b8114611b1e57600080fd5b50565b611b2a81611708565b8114611b3557600080fd5b5056fea2646970667358221220f13d82b09a21ec28a8ffec593bca386cbf62bb41092d3d8abd215a6720645fd164736f6c63430008040033",
  "immutableReferences": {},
  "source": "// SPDX-License-Identifier: MIT\r\npragma solidity ^0.8.0;\r\n\r\nimport \"@openzeppelin/contracts/token/ERC20/IERC20.sol\";\r\nimport \"@openzeppelin/contracts/token/ERC20/utils/SafeERC20.sol\";\r\nimport \"@openzeppelin/contracts/access/Ownable.sol\";\r\nimport \"./HasSignature.sol\";\r\n\r\ncontract BoxHub is Ownable, HasSignature {\r\n    using SafeERC20 for IERC20;\r\n\r\n    event BoxPaid(\r\n        uint256 indexed boxId,\r\n        address indexed buyer,\r\n        uint256 boxType,\r\n        uint256 price,\r\n        address paymentToken\r\n    );\r\n\r\n    address public paymentReceivedAddress;\r\n\r\n    constructor() {\r\n        paymentReceivedAddress = msg.sender;\r\n    }\r\n\r\n    function setPaymentReceivedAddress(address _paymentReceivedAddress)\r\n        public\r\n        onlyOwner\r\n    {\r\n        paymentReceivedAddress = _paymentReceivedAddress;\r\n    }\r\n\r\n    /**\r\n     * @dev  box payment buy function\r\n     */\r\n    function buyBoxWithSignature(\r\n        uint256 boxId,\r\n        uint256 _type,\r\n        address userAddress,\r\n        uint256 price,\r\n        address paymentErc20,\r\n        bytes calldata signature\r\n    )\r\n        external\r\n        // bytes calldata signature\r\n        onlyOwner\r\n    {\r\n        require(\r\n            !isContract(userAddress),\r\n            \"BoxPayment: Only user address is allowed to buy box\"\r\n        );\r\n        require(_type < 5, \"BoxPayment: Invalid box type\");\r\n        require(price > 0, \"BoxPayment: Invalid payment amount\");\r\n        bytes32 criteriaMessageHash = getMessageHash(_type, price);\r\n\r\n        bytes32 ethSignedMessageHash = getEthSignedMessageHash(\r\n            criteriaMessageHash\r\n        );\r\n\r\n        require(\r\n            recoverSigner(ethSignedMessageHash, signature) == userAddress,\r\n            \"BoxPayment: invalid buyer signature\"\r\n        );\r\n\r\n        IERC20 paymentToken = IERC20(paymentErc20);\r\n        uint256 allowToPayAmount = paymentToken.allowance(\r\n            userAddress,\r\n            address(this)\r\n        );\r\n        require(\r\n            allowToPayAmount >= price,\r\n            \"BoxPayment: Invalid token allowance\"\r\n        );\r\n        // Transfer payment\r\n        paymentToken.safeTransferFrom(\r\n            userAddress,\r\n            paymentReceivedAddress,\r\n            price\r\n        );\r\n        // Emit payment event\r\n        emit BoxPaid(boxId, userAddress, _type, price, paymentErc20);\r\n    }\r\n\r\n    function getMessageHash(uint256 _boxType, uint256 _price)\r\n        public\r\n        pure\r\n        returns (bytes32)\r\n    {\r\n        return keccak256(abi.encodePacked(_boxType, _price));\r\n    }\r\n\r\n    /**\r\n     * @dev Identify an address is user address or contract address\r\n     */\r\n    function isContract(address _address) private view returns (bool) {\r\n        uint32 size;\r\n        assembly {\r\n            size := extcodesize(_address)\r\n        }\r\n        return (size > 0);\r\n    }\r\n}\r\n",
  "sourcePath": "D:\\Desktop\\immense\\crypto\\defi application\\test (NFT marketplace)\\NFT game\\src\\contracts\\BuyBox.sol",
  "compiler": {
    "name": "solc",
    "version": "0.8.4+commit.c7e474f2.Emscripten.clang"
  },
  "schemaVersion": "3.4.7",
  "updatedAt": "2022-05-30T12:37:27.305Z",
  "devdoc": {
    "kind": "dev",
    "methods": {
      "buyBoxWithSignature(uint256,uint256,address,uint256,address,bytes)": {
        "details": "box payment buy function"
      },
      "owner()": {
        "details": "Returns the address of the current owner."
      },
      "renounceOwnership()": {
        "details": "Leaves the contract without owner. It will not be possible to call `onlyOwner` functions anymore. Can only be called by the current owner. NOTE: Renouncing ownership will leave the contract without an owner, thereby removing any functionality that is only available to the owner."
      },
      "transferOwnership(address)": {
        "details": "Transfers ownership of the contract to a new account (`newOwner`). Can only be called by the current owner."
      }
    },
    "version": 1
  },
  "userdoc": {
    "kind": "user",
    "methods": {},
    "version": 1
  }
}