{
  "contractName": "ERC20Token",
  "abi": [
    {
      "inputs": [],
      "stateMutability": "nonpayable",
      "type": "constructor"
    },
    {
      "anonymous": false,
      "inputs": [
        {
          "indexed": true,
          "internalType": "address",
          "name": "owner",
          "type": "address"
        },
        {
          "indexed": true,
          "internalType": "address",
          "name": "spender",
          "type": "address"
        },
        {
          "indexed": false,
          "internalType": "uint256",
          "name": "value",
          "type": "uint256"
        }
      ],
      "name": "Approval",
      "type": "event"
    },
    {
      "anonymous": false,
      "inputs": [
        {
          "indexed": true,
          "internalType": "address",
          "name": "previousOwner",
          "type": "address"
        },
        {
          "indexed": true,
          "internalType": "address",
          "name": "newOwner",
          "type": "address"
        }
      ],
      "name": "OwnershipTransferred",
      "type": "event"
    },
    {
      "anonymous": false,
      "inputs": [
        {
          "indexed": true,
          "internalType": "address",
          "name": "from",
          "type": "address"
        },
        {
          "indexed": true,
          "internalType": "address",
          "name": "to",
          "type": "address"
        },
        {
          "indexed": false,
          "internalType": "uint256",
          "name": "value",
          "type": "uint256"
        }
      ],
      "name": "Transfer",
      "type": "event"
    },
    {
      "inputs": [],
      "name": "owner",
      "outputs": [
        {
          "internalType": "address",
          "name": "",
          "type": "address"
        }
      ],
      "stateMutability": "view",
      "type": "function",
      "constant": true
    },
    {
      "inputs": [],
      "name": "getOwner",
      "outputs": [
        {
          "internalType": "address",
          "name": "",
          "type": "address"
        }
      ],
      "stateMutability": "view",
      "type": "function",
      "constant": true
    },
    {
      "inputs": [],
      "name": "decimals",
      "outputs": [
        {
          "internalType": "uint8",
          "name": "",
          "type": "uint8"
        }
      ],
      "stateMutability": "view",
      "type": "function",
      "constant": true
    },
    {
      "inputs": [],
      "name": "symbol",
      "outputs": [
        {
          "internalType": "string",
          "name": "",
          "type": "string"
        }
      ],
      "stateMutability": "view",
      "type": "function",
      "constant": true
    },
    {
      "inputs": [],
      "name": "name",
      "outputs": [
        {
          "internalType": "string",
          "name": "",
          "type": "string"
        }
      ],
      "stateMutability": "view",
      "type": "function",
      "constant": true
    },
    {
      "inputs": [],
      "name": "totalSupply",
      "outputs": [
        {
          "internalType": "uint256",
          "name": "",
          "type": "uint256"
        }
      ],
      "stateMutability": "view",
      "type": "function",
      "constant": true
    },
    {
      "inputs": [
        {
          "internalType": "address",
          "name": "account",
          "type": "address"
        }
      ],
      "name": "balanceOf",
      "outputs": [
        {
          "internalType": "uint256",
          "name": "",
          "type": "uint256"
        }
      ],
      "stateMutability": "view",
      "type": "function",
      "constant": true
    },
    {
      "inputs": [
        {
          "internalType": "address",
          "name": "recipient",
          "type": "address"
        },
        {
          "internalType": "uint256",
          "name": "amount",
          "type": "uint256"
        }
      ],
      "name": "transfer",
      "outputs": [
        {
          "internalType": "bool",
          "name": "",
          "type": "bool"
        }
      ],
      "stateMutability": "nonpayable",
      "type": "function"
    },
    {
      "inputs": [
        {
          "internalType": "address",
          "name": "owner",
          "type": "address"
        },
        {
          "internalType": "address",
          "name": "spender",
          "type": "address"
        }
      ],
      "name": "allowance",
      "outputs": [
        {
          "internalType": "uint256",
          "name": "",
          "type": "uint256"
        }
      ],
      "stateMutability": "view",
      "type": "function",
      "constant": true
    },
    {
      "inputs": [
        {
          "internalType": "address",
          "name": "spender",
          "type": "address"
        },
        {
          "internalType": "uint256",
          "name": "amount",
          "type": "uint256"
        }
      ],
      "name": "approve",
      "outputs": [
        {
          "internalType": "bool",
          "name": "",
          "type": "bool"
        }
      ],
      "stateMutability": "nonpayable",
      "type": "function"
    },
    {
      "inputs": [
        {
          "internalType": "address",
          "name": "sender",
          "type": "address"
        },
        {
          "internalType": "address",
          "name": "recipient",
          "type": "address"
        },
        {
          "internalType": "uint256",
          "name": "amount",
          "type": "uint256"
        }
      ],
      "name": "transferFrom",
      "outputs": [
        {
          "internalType": "bool",
          "name": "",
          "type": "bool"
        }
      ],
      "stateMutability": "nonpayable",
      "type": "function"
    },
    {
      "inputs": [
        {
          "internalType": "address",
          "name": "spender",
          "type": "address"
        },
        {
          "internalType": "uint256",
          "name": "addedValue",
          "type": "uint256"
        }
      ],
      "name": "increaseAllowance",
      "outputs": [
        {
          "internalType": "bool",
          "name": "",
          "type": "bool"
        }
      ],
      "stateMutability": "nonpayable",
      "type": "function"
    },
    {
      "inputs": [
        {
          "internalType": "address",
          "name": "spender",
          "type": "address"
        },
        {
          "internalType": "uint256",
          "name": "subtractedValue",
          "type": "uint256"
        }
      ],
      "name": "decreaseAllowance",
      "outputs": [
        {
          "internalType": "bool",
          "name": "",
          "type": "bool"
        }
      ],
      "stateMutability": "nonpayable",
      "type": "function"
    },
    {
      "inputs": [
        {
          "internalType": "address",
          "name": "newAdmin",
          "type": "address"
        }
      ],
      "name": "_transferOwnership",
      "outputs": [],
      "stateMutability": "nonpayable",
      "type": "function"
    },
    {
      "inputs": [
        {
          "internalType": "uint256",
          "name": "amount",
          "type": "uint256"
        }
      ],
      "name": "mint",
      "outputs": [
        {
          "internalType": "bool",
          "name": "",
          "type": "bool"
        }
      ],
      "stateMutability": "nonpayable",
      "type": "function"
    },
    {
      "inputs": [
        {
          "internalType": "address",
          "name": "account",
          "type": "address"
        },
        {
          "internalType": "uint256",
          "name": "amount",
          "type": "uint256"
        }
      ],
      "name": "_burn",
      "outputs": [
        {
          "internalType": "uint256",
          "name": "",
          "type": "uint256"
        }
      ],
      "stateMutability": "nonpayable",
      "type": "function"
    }
  ],
  "bytecode": "0x60806040523480156200001157600080fd5b506000620000246200028360201b60201c565b9050806000806101000a81548173ffffffffffffffffffffffffffffffffffffffff021916908373ffffffffffffffffffffffffffffffffffffffff1602179055508073ffffffffffffffffffffffffffffffffffffffff16600073ffffffffffffffffffffffffffffffffffffffff167f8be0079c531659141344cd1fd0a4f28419497f9722a3daafe3b4186f6b6457e060405160405180910390a3506040518060400160405280600381526020017f4d4f480000000000000000000000000000000000000000000000000000000000815250600690805190602001906200010f9291906200028b565b506040518060400160405280600381526020017f4d4f480000000000000000000000000000000000000000000000000000000000815250600790805190602001906200015d9291906200028b565b506012600560006101000a81548160ff021916908360ff1602179055506a19a4815e0ad0c67f000000600481905550600454600260003373ffffffffffffffffffffffffffffffffffffffff1673ffffffffffffffffffffffffffffffffffffffff1681526020019081526020016000208190555033600160006101000a81548173ffffffffffffffffffffffffffffffffffffffff021916908373ffffffffffffffffffffffffffffffffffffffff1602179055503373ffffffffffffffffffffffffffffffffffffffff16600073ffffffffffffffffffffffffffffffffffffffff167fddf252ad1be2c89b69c2b068fc378daa952ba7f163c4a11628f55a4df523b3ef6004546040516200027591906200034c565b60405180910390a3620003d8565b600033905090565b828054620002999062000373565b90600052602060002090601f016020900481019282620002bd576000855562000309565b82601f10620002d857805160ff191683800117855562000309565b8280016001018555821562000309579182015b8281111562000308578251825591602001919060010190620002eb565b5b5090506200031891906200031c565b5090565b5b80821115620003375760008160009055506001016200031d565b5090565b620003468162000369565b82525050565b60006020820190506200036360008301846200033b565b92915050565b6000819050919050565b600060028204905060018216806200038c57607f821691505b60208210811415620003a357620003a2620003a9565b5b50919050565b7f4e487b7100000000000000000000000000000000000000000000000000000000600052602260045260246000fd5b611b5280620003e86000396000f3fe608060405234801561001057600080fd5b50600436106101005760003560e01c8063893d20e811610097578063a457c2d711610066578063a457c2d7146102d9578063a9059cbb14610309578063d29d44ee14610339578063dd62ed3e1461035557610100565b8063893d20e81461024f5780638da5cb5b1461026d57806395d89b411461028b578063a0712d68146102a957610100565b8063313ce567116100d3578063313ce567146101a157806339509351146101bf5780636161eb18146101ef57806370a082311461021f57610100565b806306fdde0314610105578063095ea7b31461012357806318160ddd1461015357806323b872dd14610171575b600080fd5b61010d610385565b60405161011a919061160a565b60405180910390f35b61013d60048036038101906101389190611428565b610417565b60405161014a91906115ef565b60405180910390f35b61015b610435565b60405161016891906116ec565b60405180910390f35b61018b600480360381019061018691906113d9565b61043f565b60405161019891906115ef565b60405180910390f35b6101a9610518565b6040516101b69190611707565b60405180910390f35b6101d960048036038101906101d49190611428565b61052f565b6040516101e691906115ef565b60405180910390f35b61020960048036038101906102049190611428565b6105e2565b60405161021691906116ec565b60405180910390f35b61023960048036038101906102349190611374565b6107f6565b60405161024691906116ec565b60405180910390f35b61025761083f565b60405161026491906115d4565b60405180910390f35b61027561084e565b60405161028291906115d4565b60405180910390f35b610293610877565b6040516102a0919061160a565b60405180910390f35b6102c360048036038101906102be9190611464565b610909565b6040516102d091906115ef565b60405180910390f35b6102f360048036038101906102ee9190611428565b6109b5565b60405161030091906115ef565b60405180910390f35b610323600480360381019061031e9190611428565b610a82565b60405161033091906115ef565b60405180910390f35b610353600480360381019061034e9190611374565b610aa0565b005b61036f600480360381019061036a919061139d565b610c60565b60405161037c91906116ec565b60405180910390f35b60606007805461039490611850565b80601f01602080910402602001604051908101604052809291908181526020018280546103c090611850565b801561040d5780601f106103e25761010080835404028352916020019161040d565b820191906000526020600020905b8154815290600101906020018083116103f057829003601f168201915b5050505050905090565b600061042b610424610ce7565b8484610cef565b6001905092915050565b6000600454905090565b600061044c848484610eba565b61050d84610458610ce7565b61050885604051806060016040528060288152602001611ad060289139600360008b73ffffffffffffffffffffffffffffffffffffffff1673ffffffffffffffffffffffffffffffffffffffff16815260200190815260200160002060006104be610ce7565b73ffffffffffffffffffffffffffffffffffffffff1673ffffffffffffffffffffffffffffffffffffffff168152602001908152602001600020546110b49092919063ffffffff16565b610cef565b600190509392505050565b6000600560009054906101000a900460ff16905090565b60006105d861053c610ce7565b846105d3856003600061054d610ce7565b73ffffffffffffffffffffffffffffffffffffffff1673ffffffffffffffffffffffffffffffffffffffff16815260200190815260200160002060008973ffffffffffffffffffffffffffffffffffffffff1673ffffffffffffffffffffffffffffffffffffffff1681526020019081526020016000205461111890919063ffffffff16565b610cef565b6001905092915050565b6000600160009054906101000a900473ffffffffffffffffffffffffffffffffffffffff1673ffffffffffffffffffffffffffffffffffffffff163373ffffffffffffffffffffffffffffffffffffffff1614610674576040517f08c379a000000000000000000000000000000000000000000000000000000000815260040161066b9061162c565b60405180910390fd5b81600260003373ffffffffffffffffffffffffffffffffffffffff1673ffffffffffffffffffffffffffffffffffffffff1681526020019081526020016000205410156106c057600080fd5b61072c82604051806060016040528060228152602001611a8860229139600260008773ffffffffffffffffffffffffffffffffffffffff1673ffffffffffffffffffffffffffffffffffffffff168152602001908152602001600020546110b49092919063ffffffff16565b600260008573ffffffffffffffffffffffffffffffffffffffff1673ffffffffffffffffffffffffffffffffffffffff168152602001908152602001600020819055506107848260045461117690919063ffffffff16565b600481905550600073ffffffffffffffffffffffffffffffffffffffff168373ffffffffffffffffffffffffffffffffffffffff167fddf252ad1be2c89b69c2b068fc378daa952ba7f163c4a11628f55a4df523b3ef846040516107e891906116ec565b60405180910390a392915050565b6000600260008373ffffffffffffffffffffffffffffffffffffffff1673ffffffffffffffffffffffffffffffffffffffff168152602001908152602001600020549050919050565b600061084961084e565b905090565b60008060009054906101000a900473ffffffffffffffffffffffffffffffffffffffff16905090565b60606006805461088690611850565b80601f01602080910402602001604051908101604052809291908181526020018280546108b290611850565b80156108ff5780601f106108d4576101008083540402835291602001916108ff565b820191906000526020600020905b8154815290600101906020018083116108e257829003601f168201915b5050505050905090565b6000600160009054906101000a900473ffffffffffffffffffffffffffffffffffffffff1673ffffffffffffffffffffffffffffffffffffffff163373ffffffffffffffffffffffffffffffffffffffff161461099b576040517f08c379a00000000000000000000000000000000000000000000000000000000081526004016109929061162c565b60405180910390fd5b6109ac6109a6610ce7565b836111c0565b60019050919050565b6000610a786109c2610ce7565b84610a7385604051806060016040528060258152602001611af860259139600360006109ec610ce7565b73ffffffffffffffffffffffffffffffffffffffff1673ffffffffffffffffffffffffffffffffffffffff16815260200190815260200160002060008a73ffffffffffffffffffffffffffffffffffffffff1673ffffffffffffffffffffffffffffffffffffffff168152602001908152602001600020546110b49092919063ffffffff16565b610cef565b6001905092915050565b6000610a96610a8f610ce7565b8484610eba565b6001905092915050565b600160009054906101000a900473ffffffffffffffffffffffffffffffffffffffff1673ffffffffffffffffffffffffffffffffffffffff163373ffffffffffffffffffffffffffffffffffffffff1614610b30576040517f08c379a0000000000000000000000000000000000000000000000000000000008152600401610b279061162c565b60405180910390fd5b600073ffffffffffffffffffffffffffffffffffffffff168173ffffffffffffffffffffffffffffffffffffffff161415610ba0576040517f08c379a0000000000000000000000000000000000000000000000000000000008152600401610b979061164c565b60405180910390fd5b8073ffffffffffffffffffffffffffffffffffffffff16600160009054906101000a900473ffffffffffffffffffffffffffffffffffffffff1673ffffffffffffffffffffffffffffffffffffffff167f8be0079c531659141344cd1fd0a4f28419497f9722a3daafe3b4186f6b6457e060405160405180910390a380600160006101000a81548173ffffffffffffffffffffffffffffffffffffffff021916908373ffffffffffffffffffffffffffffffffffffffff16021790555050565b6000600360008473ffffffffffffffffffffffffffffffffffffffff1673ffffffffffffffffffffffffffffffffffffffff16815260200190815260200160002060008373ffffffffffffffffffffffffffffffffffffffff1673ffffffffffffffffffffffffffffffffffffffff16815260200190815260200160002054905092915050565b600033905090565b600073ffffffffffffffffffffffffffffffffffffffff168373ffffffffffffffffffffffffffffffffffffffff161415610d5f576040517f08c379a0000000000000000000000000000000000000000000000000000000008152600401610d56906116ac565b60405180910390fd5b600073ffffffffffffffffffffffffffffffffffffffff168273ffffffffffffffffffffffffffffffffffffffff161415610dcf576040517f08c379a0000000000000000000000000000000000000000000000000000000008152600401610dc69061166c565b60405180910390fd5b80600360008573ffffffffffffffffffffffffffffffffffffffff1673ffffffffffffffffffffffffffffffffffffffff16815260200190815260200160002060008473ffffffffffffffffffffffffffffffffffffffff1673ffffffffffffffffffffffffffffffffffffffff168152602001908152602001600020819055508173ffffffffffffffffffffffffffffffffffffffff168373ffffffffffffffffffffffffffffffffffffffff167f8c5be1e5ebec7d5bd14f71427d1e84f3dd0314c0f7b2291e5b200ac8c7c3b92583604051610ead91906116ec565b60405180910390a3505050565b600260008473ffffffffffffffffffffffffffffffffffffffff1673ffffffffffffffffffffffffffffffffffffffff16815260200190815260200160002054811115610f0657600080fd5b610f7281604051806060016040528060268152602001611aaa60269139600260008773ffffffffffffffffffffffffffffffffffffffff1673ffffffffffffffffffffffffffffffffffffffff168152602001908152602001600020546110b49092919063ffffffff16565b600260008573ffffffffffffffffffffffffffffffffffffffff1673ffffffffffffffffffffffffffffffffffffffff1681526020019081526020016000208190555061100781600260008573ffffffffffffffffffffffffffffffffffffffff1673ffffffffffffffffffffffffffffffffffffffff1681526020019081526020016000205461111890919063ffffffff16565b600260008473ffffffffffffffffffffffffffffffffffffffff1673ffffffffffffffffffffffffffffffffffffffff168152602001908152602001600020819055508173ffffffffffffffffffffffffffffffffffffffff168373ffffffffffffffffffffffffffffffffffffffff167fddf252ad1be2c89b69c2b068fc378daa952ba7f163c4a11628f55a4df523b3ef836040516110a791906116ec565b60405180910390a3505050565b60008383111582906110fc576040517f08c379a00000000000000000000000000000000000000000000000000000000081526004016110f3919061160a565b60405180910390fd5b506000838561110b9190611794565b9050809150509392505050565b6000808284611127919061173e565b90508381101561116c576040517f08c379a00000000000000000000000000000000000000000000000000000000081526004016111639061168c565b60405180910390fd5b8091505092915050565b60006111b883836040518060400160405280601e81526020017f536166654d6174683a207375627472616374696f6e206f766572666c6f7700008152506110b4565b905092915050565b600073ffffffffffffffffffffffffffffffffffffffff168273ffffffffffffffffffffffffffffffffffffffff161415611230576040517f08c379a0000000000000000000000000000000000000000000000000000000008152600401611227906116cc565b60405180910390fd5b6112458160045461111890919063ffffffff16565b60048190555061129d81600260008573ffffffffffffffffffffffffffffffffffffffff1673ffffffffffffffffffffffffffffffffffffffff1681526020019081526020016000205461111890919063ffffffff16565b600260008473ffffffffffffffffffffffffffffffffffffffff1673ffffffffffffffffffffffffffffffffffffffff168152602001908152602001600020819055508173ffffffffffffffffffffffffffffffffffffffff16600073ffffffffffffffffffffffffffffffffffffffff167fddf252ad1be2c89b69c2b068fc378daa952ba7f163c4a11628f55a4df523b3ef8360405161133e91906116ec565b60405180910390a35050565b60008135905061135981611a59565b92915050565b60008135905061136e81611a70565b92915050565b60006020828403121561138657600080fd5b60006113948482850161134a565b91505092915050565b600080604083850312156113b057600080fd5b60006113be8582860161134a565b92505060206113cf8582860161134a565b9150509250929050565b6000806000606084860312156113ee57600080fd5b60006113fc8682870161134a565b935050602061140d8682870161134a565b925050604061141e8682870161135f565b9150509250925092565b6000806040838503121561143b57600080fd5b60006114498582860161134a565b925050602061145a8582860161135f565b9150509250929050565b60006020828403121561147657600080fd5b60006114848482850161135f565b91505092915050565b611496816117c8565b82525050565b6114a5816117da565b82525050565b60006114b682611722565b6114c0818561172d565b93506114d081856020860161181d565b6114d9816118e0565b840191505092915050565b60006114f160208361172d565b91506114fc826118f1565b602082019050919050565b600061151460268361172d565b915061151f8261191a565b604082019050919050565b600061153760228361172d565b915061154282611969565b604082019050919050565b600061155a601b8361172d565b9150611565826119b8565b602082019050919050565b600061157d60248361172d565b9150611588826119e1565b604082019050919050565b60006115a0601f8361172d565b91506115ab82611a30565b602082019050919050565b6115bf81611806565b82525050565b6115ce81611810565b82525050565b60006020820190506115e9600083018461148d565b92915050565b6000602082019050611604600083018461149c565b92915050565b6000602082019050818103600083015261162481846114ab565b905092915050565b60006020820190508181036000830152611645816114e4565b9050919050565b6000602082019050818103600083015261166581611507565b9050919050565b600060208201905081810360008301526116858161152a565b9050919050565b600060208201905081810360008301526116a58161154d565b9050919050565b600060208201905081810360008301526116c581611570565b9050919050565b600060208201905081810360008301526116e581611593565b9050919050565b600060208201905061170160008301846115b6565b92915050565b600060208201905061171c60008301846115c5565b92915050565b600081519050919050565b600082825260208201905092915050565b600061174982611806565b915061175483611806565b9250827fffffffffffffffffffffffffffffffffffffffffffffffffffffffffffffffff0382111561178957611788611882565b5b828201905092915050565b600061179f82611806565b91506117aa83611806565b9250828210156117bd576117bc611882565b5b828203905092915050565b60006117d3826117e6565b9050919050565b60008115159050919050565b600073ffffffffffffffffffffffffffffffffffffffff82169050919050565b6000819050919050565b600060ff82169050919050565b60005b8381101561183b578082015181840152602081019050611820565b8381111561184a576000848401525b50505050565b6000600282049050600182168061186857607f821691505b6020821081141561187c5761187b6118b1565b5b50919050565b7f4e487b7100000000000000000000000000000000000000000000000000000000600052601160045260246000fd5b7f4e487b7100000000000000000000000000000000000000000000000000000000600052602260045260246000fd5b6000601f19601f8301169050919050565b7f4f6e6c792061646d696e2063616e2072756e20746869732066756e6374696f6e600082015250565b7f4f776e61626c653a206e6577206f776e657220697320746865207a65726f206160008201527f6464726573730000000000000000000000000000000000000000000000000000602082015250565b7f45524332303a20617070726f766520746f20746865207a65726f20616464726560008201527f7373000000000000000000000000000000000000000000000000000000000000602082015250565b7f536166654d6174683a206164646974696f6e206f766572666c6f770000000000600082015250565b7f45524332303a20617070726f76652066726f6d20746865207a65726f2061646460008201527f7265737300000000000000000000000000000000000000000000000000000000602082015250565b7f45524332303a206d696e7420746f20746865207a65726f206164647265737300600082015250565b611a62816117c8565b8114611a6d57600080fd5b50565b611a7981611806565b8114611a8457600080fd5b5056fe45524332303a206275726e20616d6f756e7420657863656564732062616c616e636545524332303a207472616e7366657220616d6f756e7420657863656564732062616c616e636545524332303a207472616e7366657220616d6f756e74206578636565647320616c6c6f77616e636545524332303a2064656372656173656420616c6c6f77616e63652062656c6f77207a65726fa2646970667358221220f1a6ccd03ca7ea2ee6582e4191f5f19c35d1dfe512701bbe6c5c14277b87734a64736f6c63430008040033",
  "immutableReferences": {},
  "source": "// SPDX-License-Identifier: MIT\npragma solidity ^0.8.0;\n\ninterface IERC20 {\n    function totalSupply() external view returns (uint256);\n\n    function decimals() external view returns (uint8);\n\n    function symbol() external view returns (string memory);\n\n    function name() external view returns (string memory);\n\n    function getOwner() external view returns (address);\n\n    function balanceOf(address account) external view returns (uint256);\n\n    function transfer(address recipient, uint256 amount)\n        external\n        returns (bool);\n\n    function allowance(address _owner, address spender)\n        external\n        view\n        returns (uint256);\n\n    function approve(address spender, uint256 amount) external returns (bool);\n\n    function transferFrom(\n        address sender,\n        address recipient,\n        uint256 amount\n    ) external returns (bool);\n\n    event Transfer(address indexed from, address indexed to, uint256 value);\n\n    event Approval(\n        address indexed owner,\n        address indexed spender,\n        uint256 value\n    );\n}\n\ncontract Context {\n    function _msgSender() internal view returns (address) {\n        return msg.sender;\n    }\n\n    function _msgData() internal view returns (bytes memory) {\n        this; // silence state mutability warning without generating bytecode - see https://github.com/ethereum/solidity/issues/2691\n        return msg.data;\n    }\n}\n\nlibrary SafeMath {\n    function add(uint256 a, uint256 b) internal pure returns (uint256) {\n        uint256 c = a + b;\n        require(c >= a, \"SafeMath: addition overflow\");\n\n        return c;\n    }\n\n    function sub(uint256 a, uint256 b) internal pure returns (uint256) {\n        return sub(a, b, \"SafeMath: subtraction overflow\");\n    }\n\n    function sub(\n        uint256 a,\n        uint256 b,\n        string memory errorMessage\n    ) internal pure returns (uint256) {\n        require(b <= a, errorMessage);\n        uint256 c = a - b;\n\n        return c;\n    }\n}\n\ncontract Ownable is Context {\n    address private _owner;\n    address admin;\n\n    event OwnershipTransferred(\n        address indexed previousOwner,\n        address indexed newOwner\n    );\n\n    /**\n     * @dev Initializes the contract setting the deployer as the initial owner.\n     */\n    constructor() {\n        address msgSender = _msgSender();\n        _owner = msgSender;\n        emit OwnershipTransferred(address(0), msgSender);\n    }\n\n    function owner() public view returns (address) {\n        return _owner;\n    }\n\n    modifier onlyOwner() {\n        require(_owner == _msgSender(), \"Ownable: caller is not the owner\");\n        _;\n    }\n}\n\ncontract ERC20Token is Context, IERC20, Ownable {\n    using SafeMath for uint256;\n\n    mapping(address => uint256) private _balances;\n\n    mapping(address => mapping(address => uint256)) private _allowances;\n\n    uint256 private _totalSupply;\n    uint8 private _decimals;\n    string private _symbol;\n    string private _name;\n\n    constructor() {\n        _symbol = \"MOH\";\n        _name = \"MOH\";\n        _decimals = 18;\n        _totalSupply = 31000000000000000000000000;\n        _balances[msg.sender] = _totalSupply;\n        admin = msg.sender;\n\n        emit Transfer(address(0), msg.sender, _totalSupply);\n    }\n\n    function getOwner() external view override returns (address) {\n        return owner();\n    }\n\n    function decimals() external view override returns (uint8) {\n        return _decimals;\n    }\n\n    /**\n     * @dev Returns the token symbol.\n     */\n    function symbol() external view override returns (string memory) {\n        return _symbol;\n    }\n\n    function name() external view override returns (string memory) {\n        return _name;\n    }\n\n    function totalSupply() external view override returns (uint256) {\n        return _totalSupply;\n    }\n\n    function balanceOf(address account)\n        external\n        view\n        override\n        returns (uint256)\n    {\n        return _balances[account];\n    }\n\n    function transfer(address recipient, uint256 amount)\n        external\n        override\n        returns (bool)\n    {\n        _transfer(_msgSender(), recipient, amount);\n        return true;\n    }\n\n    function allowance(address owner, address spender)\n        external\n        view\n        override\n        returns (uint256)\n    {\n        return _allowances[owner][spender];\n    }\n\n    function approve(address spender, uint256 amount)\n        external\n        override\n        returns (bool)\n    {\n        _approve(_msgSender(), spender, amount);\n\n        return true;\n    }\n\n    function transferFrom(\n        address sender,\n        address recipient,\n        uint256 amount\n    ) external override returns (bool) {\n        _transfer(sender, recipient, amount);\n        _approve(\n            sender,\n            _msgSender(),\n            _allowances[sender][_msgSender()].sub(\n                amount,\n                \"ERC20: transfer amount exceeds allowance\"\n            )\n        );\n        return true;\n    }\n\n    function increaseAllowance(address spender, uint256 addedValue)\n        public\n        returns (bool)\n    {\n        _approve(\n            _msgSender(),\n            spender,\n            _allowances[_msgSender()][spender].add(addedValue)\n        );\n        return true;\n    }\n\n    function decreaseAllowance(address spender, uint256 subtractedValue)\n        public\n        returns (bool)\n    {\n        _approve(\n            _msgSender(),\n            spender,\n            _allowances[_msgSender()][spender].sub(\n                subtractedValue,\n                \"ERC20: decreased allowance below zero\"\n            )\n        );\n        return true;\n    }\n\n    modifier onlyAdmin() {\n        require(msg.sender == admin, \"Only admin can run this function\");\n        _;\n    }\n\n    function _transferOwnership(address newAdmin) public onlyAdmin {\n        require(\n            newAdmin != address(0),\n            \"Ownable: new owner is the zero address\"\n        );\n        emit OwnershipTransferred(admin, newAdmin);\n        admin = newAdmin;\n    }\n\n    function mint(uint256 amount) public onlyAdmin returns (bool) {\n        _mint(_msgSender(), amount);\n        return true;\n    }\n\n    function _transfer(\n        address sender,\n        address recipient,\n        uint256 amount\n    ) internal {\n        require(amount <= _balances[sender]);\n        _balances[sender] = _balances[sender].sub(\n            amount,\n            \"ERC20: transfer amount exceeds balance\"\n        );\n        _balances[recipient] = _balances[recipient].add(amount);\n        emit Transfer(sender, recipient, amount);\n    }\n\n    function _mint(address account, uint256 amount) internal {\n        require(account != address(0), \"ERC20: mint to the zero address\");\n\n        _totalSupply = _totalSupply.add(amount);\n        _balances[account] = _balances[account].add(amount);\n        emit Transfer(address(0), account, amount);\n    }\n\n    function _burn(address account, uint256 amount)\n        public\n        onlyAdmin\n        returns (uint256)\n    {\n        require(_balances[msg.sender] >= amount);\n\n        _balances[account] = _balances[account].sub(\n            amount,\n            \"ERC20: burn amount exceeds balance\"\n        );\n        _totalSupply = _totalSupply.sub(amount);\n        emit Transfer(account, address(0), amount);\n    }\n\n    function _approve(\n        address owner,\n        address spender,\n        uint256 amount\n    ) internal {\n        require(owner != address(0), \"ERC20: approve from the zero address\");\n        require(spender != address(0), \"ERC20: approve to the zero address\");\n\n        _allowances[owner][spender] = amount;\n        emit Approval(owner, spender, amount);\n    }\n\n    function _burnFrom(address account, uint256 amount) internal {\n        _burn(account, amount);\n        _approve(\n            account,\n            _msgSender(),\n            _allowances[account][_msgSender()].sub(\n                amount,\n                \"ERC20: burn amount exceeds allowance\"\n            )\n        );\n    }\n}\n",
  "sourcePath": "D:\\Desktop\\immense\\crypto\\defi application\\test (NFT marketplace)\\NFT game\\src\\contracts\\moh.sol",
  "compiler": {
    "name": "solc",
    "version": "0.8.4+commit.c7e474f2.Emscripten.clang"
  },
  "schemaVersion": "3.4.7",
  "updatedAt": "2022-05-30T12:40:44.934Z",
  "networkType": "ethereum",
  "devdoc": {
    "kind": "dev",
    "methods": {
      "symbol()": {
        "details": "Returns the token symbol."
      }
    },
    "version": 1
  },
  "userdoc": {
    "kind": "user",
    "methods": {},
    "version": 1
  }
}