{
  "contractName": "MinterFactory",
  "abi": [
    {
      "anonymous": false,
      "inputs": [
        {
          "indexed": true,
          "internalType": "address",
          "name": "previousOwner",
          "type": "address"
        },
        {
          "indexed": true,
          "internalType": "address",
          "name": "newOwner",
          "type": "address"
        }
      ],
      "name": "OwnershipTransferred",
      "type": "event"
    },
    {
      "anonymous": false,
      "inputs": [
        {
          "indexed": false,
          "internalType": "address",
          "name": "contractAddress",
          "type": "address"
        },
        {
          "indexed": false,
          "internalType": "address",
          "name": "to",
          "type": "address"
        },
        {
          "indexed": true,
          "internalType": "uint256",
          "name": "tokenId",
          "type": "uint256"
        }
      ],
      "name": "TokenMinted",
      "type": "event"
    },
    {
      "inputs": [],
      "name": "erc721",
      "outputs": [
        {
          "internalType": "contract IMintableERC721",
          "name": "",
          "type": "address"
        }
      ],
      "stateMutability": "view",
      "type": "function"
    },
    {
      "inputs": [],
      "name": "owner",
      "outputs": [
        {
          "internalType": "address",
          "name": "",
          "type": "address"
        }
      ],
      "stateMutability": "view",
      "type": "function"
    },
    {
      "inputs": [],
      "name": "publicMintAllowed",
      "outputs": [
        {
          "internalType": "bool",
          "name": "",
          "type": "bool"
        }
      ],
      "stateMutability": "view",
      "type": "function"
    },
    {
      "inputs": [],
      "name": "renounceOwnership",
      "outputs": [],
      "stateMutability": "nonpayable",
      "type": "function"
    },
    {
      "inputs": [
        {
          "internalType": "address",
          "name": "newOwner",
          "type": "address"
        }
      ],
      "name": "transferOwnership",
      "outputs": [],
      "stateMutability": "nonpayable",
      "type": "function"
    },
    {
      "inputs": [
        {
          "internalType": "address",
          "name": "_erc721",
          "type": "address"
        }
      ],
      "name": "init",
      "outputs": [],
      "stateMutability": "nonpayable",
      "type": "function"
    },
    {
      "inputs": [
        {
          "internalType": "address",
          "name": "to",
          "type": "address"
        },
        {
          "internalType": "uint256",
          "name": "tokenId",
          "type": "uint256"
        }
      ],
      "name": "mintTo",
      "outputs": [],
      "stateMutability": "nonpayable",
      "type": "function"
    },
    {
      "inputs": [],
      "name": "allowPublicMint",
      "outputs": [],
      "stateMutability": "nonpayable",
      "type": "function"
    }
  ],
  "bytecode": "0x608060405234801561001057600080fd5b5061002d61002261003260201b60201c565b61003a60201b60201c565b6100fe565b600033905090565b60008060009054906101000a900473ffffffffffffffffffffffffffffffffffffffff169050816000806101000a81548173ffffffffffffffffffffffffffffffffffffffff021916908373ffffffffffffffffffffffffffffffffffffffff1602179055508173ffffffffffffffffffffffffffffffffffffffff168173ffffffffffffffffffffffffffffffffffffffff167f8be0079c531659141344cd1fd0a4f28419497f9722a3daafe3b4186f6b6457e060405160405180910390a35050565b610b898061010d6000396000f3fe608060405234801561001057600080fd5b50600436106100885760003560e01c80638da5cb5b1161005b5780638da5cb5b146100ed5780639edcc3101461010b578063bca6ce6414610115578063f2fde38b1461013357610088565b806319ab453c1461008d578063449a52f8146100a9578063715018a6146100c5578063818eed6e146100cf575b600080fd5b6100a760048036038101906100a291906107d4565b61014f565b005b6100c360048036038101906100be91906107fd565b6102f4565b005b6100cd610440565b005b6100d76104c8565b6040516100e4919061094b565b60405180910390f35b6100f56104db565b60405161010291906108de565b60405180910390f35b610113610504565b005b61011d61059c565b60405161012a9190610966565b60405180910390f35b61014d600480360381019061014891906107d4565b6105c2565b005b600060159054906101000a900460ff1661017957600060149054906101000a900460ff1615610182565b6101816106ba565b5b6101c1576040517f08c379a00000000000000000000000000000000000000000000000000000000081526004016101b8906109a1565b60405180910390fd5b60008060159054906101000a900460ff161590508015610212576001600060156101000a81548160ff0219169083151502179055506001600060146101000a81548160ff0219169083151502179055505b61021a6106cb565b73ffffffffffffffffffffffffffffffffffffffff166102386104db565b73ffffffffffffffffffffffffffffffffffffffff161461028e576040517f08c379a0000000000000000000000000000000000000000000000000000000008152600401610285906109c1565b60405180910390fd5b81600160006101000a81548173ffffffffffffffffffffffffffffffffffffffff021916908373ffffffffffffffffffffffffffffffffffffffff16021790555080156102f05760008060156101000a81548160ff0219169083151502179055505b5050565b600160149054906101000a900460ff168061034857506103126104db565b73ffffffffffffffffffffffffffffffffffffffff166103306106cb565b73ffffffffffffffffffffffffffffffffffffffff16145b61035157600080fd5b600160009054906101000a900473ffffffffffffffffffffffffffffffffffffffff1673ffffffffffffffffffffffffffffffffffffffff166340c10f1983836040518363ffffffff1660e01b81526004016103ae929190610922565b600060405180830381600087803b1580156103c857600080fd5b505af11580156103dc573d6000803e3d6000fd5b50505050807fdf1b2b09e9800d31c599375056be9f9e4eb37f078102643600c4e149714efaad600160009054906101000a900473ffffffffffffffffffffffffffffffffffffffff16846040516104349291906108f9565b60405180910390a25050565b6104486106cb565b73ffffffffffffffffffffffffffffffffffffffff166104666104db565b73ffffffffffffffffffffffffffffffffffffffff16146104bc576040517f08c379a00000000000000000000000000000000000000000000000000000000081526004016104b3906109c1565b60405180910390fd5b6104c660006106d3565b565b600160149054906101000a900460ff1681565b60008060009054906101000a900473ffffffffffffffffffffffffffffffffffffffff16905090565b61050c6106cb565b73ffffffffffffffffffffffffffffffffffffffff1661052a6104db565b73ffffffffffffffffffffffffffffffffffffffff1614610580576040517f08c379a0000000000000000000000000000000000000000000000000000000008152600401610577906109c1565b60405180910390fd5b60018060146101000a81548160ff021916908315150217905550565b600160009054906101000a900473ffffffffffffffffffffffffffffffffffffffff1681565b6105ca6106cb565b73ffffffffffffffffffffffffffffffffffffffff166105e86104db565b73ffffffffffffffffffffffffffffffffffffffff161461063e576040517f08c379a0000000000000000000000000000000000000000000000000000000008152600401610635906109c1565b60405180910390fd5b600073ffffffffffffffffffffffffffffffffffffffff168173ffffffffffffffffffffffffffffffffffffffff1614156106ae576040517f08c379a00000000000000000000000000000000000000000000000000000000081526004016106a590610981565b60405180910390fd5b6106b7816106d3565b50565b60006106c530610797565b15905090565b600033905090565b60008060009054906101000a900473ffffffffffffffffffffffffffffffffffffffff169050816000806101000a81548173ffffffffffffffffffffffffffffffffffffffff021916908373ffffffffffffffffffffffffffffffffffffffff1602179055508173ffffffffffffffffffffffffffffffffffffffff168173ffffffffffffffffffffffffffffffffffffffff167f8be0079c531659141344cd1fd0a4f28419497f9722a3daafe3b4186f6b6457e060405160405180910390a35050565b600080823b905060008111915050919050565b6000813590506107b981610b25565b92915050565b6000813590506107ce81610b3c565b92915050565b6000602082840312156107e657600080fd5b60006107f4848285016107aa565b91505092915050565b6000806040838503121561081057600080fd5b600061081e858286016107aa565b925050602061082f858286016107bf565b9150509250929050565b610842816109f2565b82525050565b61085181610a04565b82525050565b61086081610a3a565b82525050565b60006108736026836109e1565b915061087e82610a5e565b604082019050919050565b6000610896602e836109e1565b91506108a182610aad565b604082019050919050565b60006108b96020836109e1565b91506108c482610afc565b602082019050919050565b6108d881610a30565b82525050565b60006020820190506108f36000830184610839565b92915050565b600060408201905061090e6000830185610839565b61091b6020830184610839565b9392505050565b60006040820190506109376000830185610839565b61094460208301846108cf565b9392505050565b60006020820190506109606000830184610848565b92915050565b600060208201905061097b6000830184610857565b92915050565b6000602082019050818103600083015261099a81610866565b9050919050565b600060208201905081810360008301526109ba81610889565b9050919050565b600060208201905081810360008301526109da816108ac565b9050919050565b600082825260208201905092915050565b60006109fd82610a10565b9050919050565b60008115159050919050565b600073ffffffffffffffffffffffffffffffffffffffff82169050919050565b6000819050919050565b6000610a4582610a4c565b9050919050565b6000610a5782610a10565b9050919050565b7f4f776e61626c653a206e6577206f776e657220697320746865207a65726f206160008201527f6464726573730000000000000000000000000000000000000000000000000000602082015250565b7f496e697469616c697a61626c653a20636f6e747261637420697320616c72656160008201527f647920696e697469616c697a6564000000000000000000000000000000000000602082015250565b7f4f776e61626c653a2063616c6c6572206973206e6f7420746865206f776e6572600082015250565b610b2e816109f2565b8114610b3957600080fd5b50565b610b4581610a30565b8114610b5057600080fd5b5056fea264697066735822122003c6677f8a5352cdb39b76215c7542c30580e71231aac67069eb41e44e17ffb764736f6c63430008040033",
  "immutableReferences": {},
  "source": "// SPDX-License-Identifier: MIT\r\npragma solidity ^0.8.0;\r\nimport \"@openzeppelin/contracts/access/Ownable.sol\";\r\nimport \"@openzeppelin/contracts/proxy/utils/Initializable.sol\";\r\nimport \"@openzeppelin/contracts/token/ERC721/IERC721.sol\";\r\n\r\ninterface IMintableERC721 is IERC721 {\r\n    function mint(address to, uint256 tokenId) external;\r\n}\r\n\r\ncontract MinterFactory is Ownable, Initializable {\r\n    // NFT contract\r\n    IMintableERC721 public erc721;\r\n    bool public publicMintAllowed;\r\n\r\n    event TokenMinted(\r\n        address contractAddress,\r\n        address to,\r\n        uint256 indexed tokenId\r\n    );\r\n\r\n    function init(address _erc721) external initializer onlyOwner {\r\n        erc721 = IMintableERC721(_erc721);\r\n    }\r\n\r\n    /**\r\n     * @dev mint function to distribute thetan NFT to user\r\n     */\r\n    function mintTo(address to, uint256 tokenId) external {\r\n        require(publicMintAllowed || _msgSender() == owner());\r\n        erc721.mint(to, tokenId);\r\n        emit TokenMinted(address(erc721), to, tokenId);\r\n    }\r\n\r\n    /**\r\n     * @dev function to allow user mint items\r\n     */\r\n    function allowPublicMint() public onlyOwner {\r\n        publicMintAllowed = true;\r\n    }\r\n}\r\n",
  "sourcePath": "D:/Desktop/immense/crypto/defi application/test (NFT marketplace)/NFT game/src/contracts/MinterFactory.sol",
  "compiler": {
    "name": "solc",
    "version": "0.8.4+commit.c7e474f2.Emscripten.clang"
  },
  "schemaVersion": "3.2.3",
  "updatedAt": "2022-05-12T12:27:53.899Z",
  "devdoc": {
    "kind": "dev",
    "methods": {
      "allowPublicMint()": {
        "details": "function to allow user mint items"
      },
      "mintTo(address,uint256)": {
        "details": "mint function to distribute thetan NFT to user"
      },
      "owner()": {
        "details": "Returns the address of the current owner."
      },
      "renounceOwnership()": {
        "details": "Leaves the contract without owner. It will not be possible to call `onlyOwner` functions anymore. Can only be called by the current owner. NOTE: Renouncing ownership will leave the contract without an owner, thereby removing any functionality that is only available to the owner."
      },
      "transferOwnership(address)": {
        "details": "Transfers ownership of the contract to a new account (`newOwner`). Can only be called by the current owner."
      }
    },
    "version": 1
  },
  "userdoc": {
    "kind": "user",
    "methods": {},
    "version": 1
  }
}