{
  "contractName": "NFT2",
  "abi": [
    {
      "inputs": [
        {
          "internalType": "address",
          "name": "marketplaceAddress",
          "type": "address"
        }
      ],
      "stateMutability": "nonpayable",
      "type": "constructor"
    },
    {
      "anonymous": false,
      "inputs": [
        {
          "indexed": true,
          "internalType": "address",
          "name": "owner",
          "type": "address"
        },
        {
          "indexed": true,
          "internalType": "address",
          "name": "approved",
          "type": "address"
        },
        {
          "indexed": true,
          "internalType": "uint256",
          "name": "tokenId",
          "type": "uint256"
        }
      ],
      "name": "Approval",
      "type": "event"
    },
    {
      "anonymous": false,
      "inputs": [
        {
          "indexed": true,
          "internalType": "address",
          "name": "owner",
          "type": "address"
        },
        {
          "indexed": true,
          "internalType": "address",
          "name": "operator",
          "type": "address"
        },
        {
          "indexed": false,
          "internalType": "bool",
          "name": "approved",
          "type": "bool"
        }
      ],
      "name": "ApprovalForAll",
      "type": "event"
    },
    {
      "anonymous": false,
      "inputs": [
        {
          "indexed": true,
          "internalType": "address",
          "name": "from",
          "type": "address"
        },
        {
          "indexed": true,
          "internalType": "address",
          "name": "to",
          "type": "address"
        },
        {
          "indexed": true,
          "internalType": "uint256",
          "name": "tokenId",
          "type": "uint256"
        }
      ],
      "name": "Transfer",
      "type": "event"
    },
    {
      "inputs": [],
      "name": "admin",
      "outputs": [
        {
          "internalType": "address",
          "name": "",
          "type": "address"
        }
      ],
      "stateMutability": "view",
      "type": "function"
    },
    {
      "inputs": [
        {
          "internalType": "address",
          "name": "to",
          "type": "address"
        },
        {
          "internalType": "uint256",
          "name": "tokenId",
          "type": "uint256"
        }
      ],
      "name": "approve",
      "outputs": [],
      "stateMutability": "nonpayable",
      "type": "function"
    },
    {
      "inputs": [
        {
          "internalType": "address",
          "name": "owner",
          "type": "address"
        }
      ],
      "name": "balanceOf",
      "outputs": [
        {
          "internalType": "uint256",
          "name": "",
          "type": "uint256"
        }
      ],
      "stateMutability": "view",
      "type": "function"
    },
    {
      "inputs": [
        {
          "internalType": "uint256",
          "name": "tokenId",
          "type": "uint256"
        }
      ],
      "name": "getApproved",
      "outputs": [
        {
          "internalType": "address",
          "name": "",
          "type": "address"
        }
      ],
      "stateMutability": "view",
      "type": "function"
    },
    {
      "inputs": [
        {
          "internalType": "address",
          "name": "owner",
          "type": "address"
        },
        {
          "internalType": "address",
          "name": "operator",
          "type": "address"
        }
      ],
      "name": "isApprovedForAll",
      "outputs": [
        {
          "internalType": "bool",
          "name": "",
          "type": "bool"
        }
      ],
      "stateMutability": "view",
      "type": "function"
    },
    {
      "inputs": [],
      "name": "name",
      "outputs": [
        {
          "internalType": "string",
          "name": "",
          "type": "string"
        }
      ],
      "stateMutability": "view",
      "type": "function"
    },
    {
      "inputs": [
        {
          "internalType": "uint256",
          "name": "tokenId",
          "type": "uint256"
        }
      ],
      "name": "ownerOf",
      "outputs": [
        {
          "internalType": "address",
          "name": "",
          "type": "address"
        }
      ],
      "stateMutability": "view",
      "type": "function"
    },
    {
      "inputs": [],
      "name": "publicMintAllowed",
      "outputs": [
        {
          "internalType": "bool",
          "name": "",
          "type": "bool"
        }
      ],
      "stateMutability": "view",
      "type": "function"
    },
    {
      "inputs": [
        {
          "internalType": "address",
          "name": "from",
          "type": "address"
        },
        {
          "internalType": "address",
          "name": "to",
          "type": "address"
        },
        {
          "internalType": "uint256",
          "name": "tokenId",
          "type": "uint256"
        }
      ],
      "name": "safeTransferFrom",
      "outputs": [],
      "stateMutability": "nonpayable",
      "type": "function"
    },
    {
      "inputs": [
        {
          "internalType": "address",
          "name": "from",
          "type": "address"
        },
        {
          "internalType": "address",
          "name": "to",
          "type": "address"
        },
        {
          "internalType": "uint256",
          "name": "tokenId",
          "type": "uint256"
        },
        {
          "internalType": "bytes",
          "name": "_data",
          "type": "bytes"
        }
      ],
      "name": "safeTransferFrom",
      "outputs": [],
      "stateMutability": "nonpayable",
      "type": "function"
    },
    {
      "inputs": [
        {
          "internalType": "address",
          "name": "operator",
          "type": "address"
        },
        {
          "internalType": "bool",
          "name": "approved",
          "type": "bool"
        }
      ],
      "name": "setApprovalForAll",
      "outputs": [],
      "stateMutability": "nonpayable",
      "type": "function"
    },
    {
      "inputs": [
        {
          "internalType": "bytes4",
          "name": "interfaceId",
          "type": "bytes4"
        }
      ],
      "name": "supportsInterface",
      "outputs": [
        {
          "internalType": "bool",
          "name": "",
          "type": "bool"
        }
      ],
      "stateMutability": "view",
      "type": "function"
    },
    {
      "inputs": [],
      "name": "symbol",
      "outputs": [
        {
          "internalType": "string",
          "name": "",
          "type": "string"
        }
      ],
      "stateMutability": "view",
      "type": "function"
    },
    {
      "inputs": [
        {
          "internalType": "uint256",
          "name": "tokenId",
          "type": "uint256"
        }
      ],
      "name": "tokenURI",
      "outputs": [
        {
          "internalType": "string",
          "name": "",
          "type": "string"
        }
      ],
      "stateMutability": "view",
      "type": "function"
    },
    {
      "inputs": [
        {
          "internalType": "address",
          "name": "from",
          "type": "address"
        },
        {
          "internalType": "address",
          "name": "to",
          "type": "address"
        },
        {
          "internalType": "uint256",
          "name": "tokenId",
          "type": "uint256"
        }
      ],
      "name": "transferFrom",
      "outputs": [],
      "stateMutability": "nonpayable",
      "type": "function"
    },
    {
      "inputs": [
        {
          "internalType": "address",
          "name": "_to",
          "type": "address"
        },
        {
          "internalType": "uint256",
          "name": "_tokenId",
          "type": "uint256"
        },
        {
          "internalType": "string",
          "name": "tokenUri",
          "type": "string"
        }
      ],
      "name": "createToken",
      "outputs": [
        {
          "internalType": "uint256",
          "name": "",
          "type": "uint256"
        }
      ],
      "stateMutability": "nonpayable",
      "type": "function"
    },
    {
      "inputs": [
        {
          "internalType": "uint256",
          "name": "tokenId",
          "type": "uint256"
        },
        {
          "internalType": "string",
          "name": "tokenUri",
          "type": "string"
        }
      ],
      "name": "setTokenURI",
      "outputs": [],
      "stateMutability": "nonpayable",
      "type": "function"
    },
    {
      "inputs": [
        {
          "internalType": "uint256",
          "name": "tokenId",
          "type": "uint256"
        }
      ],
      "name": "burn",
      "outputs": [],
      "stateMutability": "nonpayable",
      "type": "function"
    },
    {
      "inputs": [
        {
          "internalType": "address",
          "name": "_admin",
          "type": "address"
        }
      ],
      "name": "updateAdmin",
      "outputs": [],
      "stateMutability": "nonpayable",
      "type": "function"
    },
    {
      "inputs": [],
      "name": "allowPublicMint",
      "outputs": [],
      "stateMutability": "nonpayable",
      "type": "function"
    }
  ],
  "bytecode": "0x60806040523480156200001157600080fd5b506040516200346438038062003464833981810160405281019062000037919062000227565b6040518060400160405280600e81526020017f4f70656e53656120546f6b656e730000000000000000000000000000000000008152506040518060400160405280600381526020017f4f535400000000000000000000000000000000000000000000000000000000008152508160009080519060200190620000bb92919062000160565b508060019080519060200190620000d492919062000160565b50505080600760006101000a81548173ffffffffffffffffffffffffffffffffffffffff021916908373ffffffffffffffffffffffffffffffffffffffff16021790555033600860006101000a81548173ffffffffffffffffffffffffffffffffffffffff021916908373ffffffffffffffffffffffffffffffffffffffff1602179055505062000306565b8280546200016e9062000287565b90600052602060002090601f016020900481019282620001925760008555620001de565b82601f10620001ad57805160ff1916838001178555620001de565b82800160010185558215620001de579182015b82811115620001dd578251825591602001919060010190620001c0565b5b509050620001ed9190620001f1565b5090565b5b808211156200020c576000816000905550600101620001f2565b5090565b6000815190506200022181620002ec565b92915050565b6000602082840312156200023a57600080fd5b60006200024a8482850162000210565b91505092915050565b6000620002608262000267565b9050919050565b600073ffffffffffffffffffffffffffffffffffffffff82169050919050565b60006002820490506001821680620002a057607f821691505b60208210811415620002b757620002b6620002bd565b5b50919050565b7f4e487b7100000000000000000000000000000000000000000000000000000000600052602260045260246000fd5b620002f78162000253565b81146200030357600080fd5b50565b61314e80620003166000396000f3fe608060405234801561001057600080fd5b506004361061012c5760003560e01c806370a08231116100ad578063b88d4fde11610071578063b88d4fde1461032d578063c87b56dd14610349578063e2f273bd14610379578063e985e9c514610395578063f851a440146103c55761012c565b806370a082311461029b578063818eed6e146102cb57806395d89b41146102e95780639edcc31014610307578063a22cb465146103115761012c565b806323b872dd116100f457806323b872dd146101e757806342842e0e1461020357806342966c681461021f5780635c21bc2c1461023b5780636352211e1461026b5761012c565b806301ffc9a71461013157806306fdde0314610161578063081812fc1461017f578063095ea7b3146101af578063162094c4146101cb575b600080fd5b61014b6004803603810190610146919061213b565b6103e3565b60405161015891906125b8565b60405180910390f35b6101696104c5565b60405161017691906125d3565b60405180910390f35b6101996004803603810190610194919061218d565b610557565b6040516101a69190612551565b60405180910390f35b6101c960048036038101906101c49190612098565b6105dc565b005b6101e560048036038101906101e091906121b6565b6106f4565b005b61020160048036038101906101fc9190611f92565b610744565b005b61021d60048036038101906102189190611f92565b6107a4565b005b6102396004803603810190610234919061218d565b6107c4565b005b610255600480360381019061025091906120d4565b610812565b6040516102629190612815565b60405180910390f35b6102856004803603810190610280919061218d565b6108a3565b6040516102929190612551565b60405180910390f35b6102b560048036038101906102b09190611f2d565b610955565b6040516102c29190612815565b60405180910390f35b6102d3610a0d565b6040516102e091906125b8565b60405180910390f35b6102f1610a20565b6040516102fe91906125d3565b60405180910390f35b61030f610ab2565b005b61032b6004803603810190610326919061205c565b610b5f565b005b61034760048036038101906103429190611fe1565b610b75565b005b610363600480360381019061035e919061218d565b610bd7565b60405161037091906125d3565b60405180910390f35b610393600480360381019061038e9190611f2d565b610d29565b005b6103af60048036038101906103aa9190611f56565b610dfd565b6040516103bc91906125b8565b60405180910390f35b6103cd610e91565b6040516103da9190612551565b60405180910390f35b60007f80ac58cd000000000000000000000000000000000000000000000000000000007bffffffffffffffffffffffffffffffffffffffffffffffffffffffff1916827bffffffffffffffffffffffffffffffffffffffffffffffffffffffff191614806104ae57507f5b5e139f000000000000000000000000000000000000000000000000000000007bffffffffffffffffffffffffffffffffffffffffffffffffffffffff1916827bffffffffffffffffffffffffffffffffffffffffffffffffffffffff1916145b806104be57506104bd82610eb7565b5b9050919050565b6060600080546104d490612a6b565b80601f016020809104026020016040519081016040528092919081815260200182805461050090612a6b565b801561054d5780601f106105225761010080835404028352916020019161054d565b820191906000526020600020905b81548152906001019060200180831161053057829003601f168201915b5050505050905090565b600061056282610f21565b6105a1576040517f08c379a000000000000000000000000000000000000000000000000000000000815260040161059890612775565b60405180910390fd5b6004600083815260200190815260200160002060009054906101000a900473ffffffffffffffffffffffffffffffffffffffff169050919050565b60006105e7826108a3565b90508073ffffffffffffffffffffffffffffffffffffffff168373ffffffffffffffffffffffffffffffffffffffff161415610658576040517f08c379a000000000000000000000000000000000000000000000000000000000815260040161064f906127d5565b60405180910390fd5b8073ffffffffffffffffffffffffffffffffffffffff16610677610f8d565b73ffffffffffffffffffffffffffffffffffffffff1614806106a657506106a5816106a0610f8d565b610dfd565b5b6106e5576040517f08c379a00000000000000000000000000000000000000000000000000000000081526004016106dc906126b5565b60405180910390fd5b6106ef8383610f95565b505050565b816106fe816108a3565b73ffffffffffffffffffffffffffffffffffffffff163373ffffffffffffffffffffffffffffffffffffffff161461073557600080fd5b61073f838361104e565b505050565b61075561074f610f8d565b826110c2565b610794576040517f08c379a000000000000000000000000000000000000000000000000000000000815260040161078b906127f5565b60405180910390fd5b61079f8383836111a0565b505050565b6107bf83838360405180602001604052806000815250610b75565b505050565b806107ce816108a3565b73ffffffffffffffffffffffffffffffffffffffff163373ffffffffffffffffffffffffffffffffffffffff161461080557600080fd5b61080e826113fc565b5050565b6000600860149054906101000a900460ff168061087c5750600860009054906101000a900473ffffffffffffffffffffffffffffffffffffffff1673ffffffffffffffffffffffffffffffffffffffff163373ffffffffffffffffffffffffffffffffffffffff16145b61088557600080fd5b61088f848461144f565b610899838361104e565b8290509392505050565b6000806002600084815260200190815260200160002060009054906101000a900473ffffffffffffffffffffffffffffffffffffffff169050600073ffffffffffffffffffffffffffffffffffffffff168173ffffffffffffffffffffffffffffffffffffffff16141561094c576040517f08c379a0000000000000000000000000000000000000000000000000000000008152600401610943906126f5565b60405180910390fd5b80915050919050565b60008073ffffffffffffffffffffffffffffffffffffffff168273ffffffffffffffffffffffffffffffffffffffff1614156109c6576040517f08c379a00000000000000000000000000000000000000000000000000000000081526004016109bd906126d5565b60405180910390fd5b600360008373ffffffffffffffffffffffffffffffffffffffff1673ffffffffffffffffffffffffffffffffffffffff168152602001908152602001600020549050919050565b600860149054906101000a900460ff1681565b606060018054610a2f90612a6b565b80601f0160208091040260200160405190810160405280929190818152602001828054610a5b90612a6b565b8015610aa85780601f10610a7d57610100808354040283529160200191610aa8565b820191906000526020600020905b815481529060010190602001808311610a8b57829003601f168201915b5050505050905090565b600860009054906101000a900473ffffffffffffffffffffffffffffffffffffffff1673ffffffffffffffffffffffffffffffffffffffff163373ffffffffffffffffffffffffffffffffffffffff1614610b42576040517f08c379a0000000000000000000000000000000000000000000000000000000008152600401610b3990612695565b60405180910390fd5b6001600860146101000a81548160ff021916908315150217905550565b610b71610b6a610f8d565b838361161d565b5050565b610b86610b80610f8d565b836110c2565b610bc5576040517f08c379a0000000000000000000000000000000000000000000000000000000008152600401610bbc906127f5565b60405180910390fd5b610bd18484848461178a565b50505050565b6060610be282610f21565b610c21576040517f08c379a0000000000000000000000000000000000000000000000000000000008152600401610c1890612755565b60405180910390fd5b6000600660008481526020019081526020016000208054610c4190612a6b565b80601f0160208091040260200160405190810160405280929190818152602001828054610c6d90612a6b565b8015610cba5780601f10610c8f57610100808354040283529160200191610cba565b820191906000526020600020905b815481529060010190602001808311610c9d57829003601f168201915b505050505090506000610ccb6117e6565b9050600081511415610ce1578192505050610d24565b600082511115610d16578082604051602001610cfe92919061252d565b60405160208183030381529060405292505050610d24565b610d1f846117fd565b925050505b919050565b600860009054906101000a900473ffffffffffffffffffffffffffffffffffffffff1673ffffffffffffffffffffffffffffffffffffffff163373ffffffffffffffffffffffffffffffffffffffff1614610db9576040517f08c379a0000000000000000000000000000000000000000000000000000000008152600401610db090612695565b60405180910390fd5b80600860006101000a81548173ffffffffffffffffffffffffffffffffffffffff021916908373ffffffffffffffffffffffffffffffffffffffff16021790555050565b6000600560008473ffffffffffffffffffffffffffffffffffffffff1673ffffffffffffffffffffffffffffffffffffffff16815260200190815260200160002060008373ffffffffffffffffffffffffffffffffffffffff1673ffffffffffffffffffffffffffffffffffffffff16815260200190815260200160002060009054906101000a900460ff16905092915050565b600860009054906101000a900473ffffffffffffffffffffffffffffffffffffffff1681565b60007f01ffc9a7000000000000000000000000000000000000000000000000000000007bffffffffffffffffffffffffffffffffffffffffffffffffffffffff1916827bffffffffffffffffffffffffffffffffffffffffffffffffffffffff1916149050919050565b60008073ffffffffffffffffffffffffffffffffffffffff166002600084815260200190815260200160002060009054906101000a900473ffffffffffffffffffffffffffffffffffffffff1673ffffffffffffffffffffffffffffffffffffffff1614159050919050565b600033905090565b816004600083815260200190815260200160002060006101000a81548173ffffffffffffffffffffffffffffffffffffffff021916908373ffffffffffffffffffffffffffffffffffffffff160217905550808273ffffffffffffffffffffffffffffffffffffffff16611008836108a3565b73ffffffffffffffffffffffffffffffffffffffff167f8c5be1e5ebec7d5bd14f71427d1e84f3dd0314c0f7b2291e5b200ac8c7c3b92560405160405180910390a45050565b61105782610f21565b611096576040517f08c379a000000000000000000000000000000000000000000000000000000000815260040161108d90612715565b60405180910390fd5b806006600084815260200190815260200160002090805190602001906110bd929190611d11565b505050565b60006110cd82610f21565b61110c576040517f08c379a000000000000000000000000000000000000000000000000000000000815260040161110390612675565b60405180910390fd5b6000611117836108a3565b90508073ffffffffffffffffffffffffffffffffffffffff168473ffffffffffffffffffffffffffffffffffffffff16148061118657508373ffffffffffffffffffffffffffffffffffffffff1661116e84610557565b73ffffffffffffffffffffffffffffffffffffffff16145b8061119757506111968185610dfd565b5b91505092915050565b8273ffffffffffffffffffffffffffffffffffffffff166111c0826108a3565b73ffffffffffffffffffffffffffffffffffffffff1614611216576040517f08c379a000000000000000000000000000000000000000000000000000000000815260040161120d90612795565b60405180910390fd5b600073ffffffffffffffffffffffffffffffffffffffff168273ffffffffffffffffffffffffffffffffffffffff161415611286576040517f08c379a000000000000000000000000000000000000000000000000000000000815260040161127d90612635565b60405180910390fd5b6112918383836118a4565b61129c600082610f95565b6001600360008573ffffffffffffffffffffffffffffffffffffffff1673ffffffffffffffffffffffffffffffffffffffff16815260200190815260200160002060008282546112ec9190612981565b925050819055506001600360008473ffffffffffffffffffffffffffffffffffffffff1673ffffffffffffffffffffffffffffffffffffffff168152602001908152602001600020600082825461134391906128fa565b92505081905550816002600083815260200190815260200160002060006101000a81548173ffffffffffffffffffffffffffffffffffffffff021916908373ffffffffffffffffffffffffffffffffffffffff160217905550808273ffffffffffffffffffffffffffffffffffffffff168473ffffffffffffffffffffffffffffffffffffffff167fddf252ad1be2c89b69c2b068fc378daa952ba7f163c4a11628f55a4df523b3ef60405160405180910390a4505050565b611405816118a9565b600060066000838152602001908152602001600020805461142590612a6b565b90501461144c5760066000828152602001908152602001600020600061144b9190611d97565b5b50565b600073ffffffffffffffffffffffffffffffffffffffff168273ffffffffffffffffffffffffffffffffffffffff1614156114bf576040517f08c379a00000000000000000000000000000000000000000000000000000000081526004016114b690612735565b60405180910390fd5b6114c881610f21565b15611508576040517f08c379a00000000000000000000000000000000000000000000000000000000081526004016114ff90612615565b60405180910390fd5b611514600083836118a4565b6001600360008473ffffffffffffffffffffffffffffffffffffffff1673ffffffffffffffffffffffffffffffffffffffff168152602001908152602001600020600082825461156491906128fa565b92505081905550816002600083815260200190815260200160002060006101000a81548173ffffffffffffffffffffffffffffffffffffffff021916908373ffffffffffffffffffffffffffffffffffffffff160217905550808273ffffffffffffffffffffffffffffffffffffffff16600073ffffffffffffffffffffffffffffffffffffffff167fddf252ad1be2c89b69c2b068fc378daa952ba7f163c4a11628f55a4df523b3ef60405160405180910390a45050565b8173ffffffffffffffffffffffffffffffffffffffff168373ffffffffffffffffffffffffffffffffffffffff16141561168c576040517f08c379a000000000000000000000000000000000000000000000000000000000815260040161168390612655565b60405180910390fd5b80600560008573ffffffffffffffffffffffffffffffffffffffff1673ffffffffffffffffffffffffffffffffffffffff16815260200190815260200160002060008473ffffffffffffffffffffffffffffffffffffffff1673ffffffffffffffffffffffffffffffffffffffff16815260200190815260200160002060006101000a81548160ff0219169083151502179055508173ffffffffffffffffffffffffffffffffffffffff168373ffffffffffffffffffffffffffffffffffffffff167f17307eab39ab6107e8899845ad3d59bd9653f200f220920489ca2b5937696c318360405161177d91906125b8565b60405180910390a3505050565b6117958484846111a0565b6117a1848484846119ba565b6117e0576040517f08c379a00000000000000000000000000000000000000000000000000000000081526004016117d7906125f5565b60405180910390fd5b50505050565b606060405180602001604052806000815250905090565b606061180882610f21565b611847576040517f08c379a000000000000000000000000000000000000000000000000000000000815260040161183e906127b5565b60405180910390fd5b60006118516117e6565b90506000815111611871576040518060200160405280600081525061189c565b8061187b84611b51565b60405160200161188c92919061252d565b6040516020818303038152906040525b915050919050565b505050565b60006118b4826108a3565b90506118c2816000846118a4565b6118cd600083610f95565b6001600360008373ffffffffffffffffffffffffffffffffffffffff1673ffffffffffffffffffffffffffffffffffffffff168152602001908152602001600020600082825461191d9190612981565b925050819055506002600083815260200190815260200160002060006101000a81549073ffffffffffffffffffffffffffffffffffffffff021916905581600073ffffffffffffffffffffffffffffffffffffffff168273ffffffffffffffffffffffffffffffffffffffff167fddf252ad1be2c89b69c2b068fc378daa952ba7f163c4a11628f55a4df523b3ef60405160405180910390a45050565b60006119db8473ffffffffffffffffffffffffffffffffffffffff16611cfe565b15611b44578373ffffffffffffffffffffffffffffffffffffffff1663150b7a02611a04610f8d565b8786866040518563ffffffff1660e01b8152600401611a26949392919061256c565b602060405180830381600087803b158015611a4057600080fd5b505af1925050508015611a7157506040513d601f19601f82011682018060405250810190611a6e9190612164565b60015b611af4573d8060008114611aa1576040519150601f19603f3d011682016040523d82523d6000602084013e611aa6565b606091505b50600081511415611aec576040517f08c379a0000000000000000000000000000000000000000000000000000000008152600401611ae3906125f5565b60405180910390fd5b805181602001fd5b63150b7a0260e01b7bffffffffffffffffffffffffffffffffffffffffffffffffffffffff1916817bffffffffffffffffffffffffffffffffffffffffffffffffffffffff191614915050611b49565b600190505b949350505050565b60606000821415611b99576040518060400160405280600181526020017f30000000000000000000000000000000000000000000000000000000000000008152509050611cf9565b600082905060005b60008214611bcb578080611bb490612ace565b915050600a82611bc49190612950565b9150611ba1565b60008167ffffffffffffffff811115611c0d577f4e487b7100000000000000000000000000000000000000000000000000000000600052604160045260246000fd5b6040519080825280601f01601f191660200182016040528015611c3f5781602001600182028036833780820191505090505b5090505b60008514611cf257600182611c589190612981565b9150600a85611c679190612b17565b6030611c7391906128fa565b60f81b818381518110611caf577f4e487b7100000000000000000000000000000000000000000000000000000000600052603260045260246000fd5b60200101907effffffffffffffffffffffffffffffffffffffffffffffffffffffffffffff1916908160001a905350600a85611ceb9190612950565b9450611c43565b8093505050505b919050565b600080823b905060008111915050919050565b828054611d1d90612a6b565b90600052602060002090601f016020900481019282611d3f5760008555611d86565b82601f10611d5857805160ff1916838001178555611d86565b82800160010185558215611d86579182015b82811115611d85578251825591602001919060010190611d6a565b5b509050611d939190611dd7565b5090565b508054611da390612a6b565b6000825580601f10611db55750611dd4565b601f016020900490600052602060002090810190611dd39190611dd7565b5b50565b5b80821115611df0576000816000905550600101611dd8565b5090565b6000611e07611e0284612855565b612830565b905082815260208101848484011115611e1f57600080fd5b611e2a848285612a29565b509392505050565b6000611e45611e4084612886565b612830565b905082815260208101848484011115611e5d57600080fd5b611e68848285612a29565b509392505050565b600081359050611e7f816130bc565b92915050565b600081359050611e94816130d3565b92915050565b600081359050611ea9816130ea565b92915050565b600081519050611ebe816130ea565b92915050565b600082601f830112611ed557600080fd5b8135611ee5848260208601611df4565b91505092915050565b600082601f830112611eff57600080fd5b8135611f0f848260208601611e32565b91505092915050565b600081359050611f2781613101565b92915050565b600060208284031215611f3f57600080fd5b6000611f4d84828501611e70565b91505092915050565b60008060408385031215611f6957600080fd5b6000611f7785828601611e70565b9250506020611f8885828601611e70565b9150509250929050565b600080600060608486031215611fa757600080fd5b6000611fb586828701611e70565b9350506020611fc686828701611e70565b9250506040611fd786828701611f18565b9150509250925092565b60008060008060808587031215611ff757600080fd5b600061200587828801611e70565b945050602061201687828801611e70565b935050604061202787828801611f18565b925050606085013567ffffffffffffffff81111561204457600080fd5b61205087828801611ec4565b91505092959194509250565b6000806040838503121561206f57600080fd5b600061207d85828601611e70565b925050602061208e85828601611e85565b9150509250929050565b600080604083850312156120ab57600080fd5b60006120b985828601611e70565b92505060206120ca85828601611f18565b9150509250929050565b6000806000606084860312156120e957600080fd5b60006120f786828701611e70565b935050602061210886828701611f18565b925050604084013567ffffffffffffffff81111561212557600080fd5b61213186828701611eee565b9150509250925092565b60006020828403121561214d57600080fd5b600061215b84828501611e9a565b91505092915050565b60006020828403121561217657600080fd5b600061218484828501611eaf565b91505092915050565b60006020828403121561219f57600080fd5b60006121ad84828501611f18565b91505092915050565b600080604083850312156121c957600080fd5b60006121d785828601611f18565b925050602083013567ffffffffffffffff8111156121f457600080fd5b61220085828601611eee565b9150509250929050565b612213816129b5565b82525050565b612222816129c7565b82525050565b6000612233826128b7565b61223d81856128cd565b935061224d818560208601612a38565b61225681612c04565b840191505092915050565b600061226c826128c2565b61227681856128de565b9350612286818560208601612a38565b61228f81612c04565b840191505092915050565b60006122a5826128c2565b6122af81856128ef565b93506122bf818560208601612a38565b80840191505092915050565b60006122d86032836128de565b91506122e382612c15565b604082019050919050565b60006122fb601c836128de565b915061230682612c64565b602082019050919050565b600061231e6024836128de565b915061232982612c8d565b604082019050919050565b60006123416019836128de565b915061234c82612cdc565b602082019050919050565b6000612364602c836128de565b915061236f82612d05565b604082019050919050565b6000612387601a836128de565b915061239282612d54565b602082019050919050565b60006123aa6038836128de565b91506123b582612d7d565b604082019050919050565b60006123cd602a836128de565b91506123d882612dcc565b604082019050919050565b60006123f06029836128de565b91506123fb82612e1b565b604082019050919050565b6000612413602e836128de565b915061241e82612e6a565b604082019050919050565b60006124366020836128de565b915061244182612eb9565b602082019050919050565b60006124596031836128de565b915061246482612ee2565b604082019050919050565b600061247c602c836128de565b915061248782612f31565b604082019050919050565b600061249f6029836128de565b91506124aa82612f80565b604082019050919050565b60006124c2602f836128de565b91506124cd82612fcf565b604082019050919050565b60006124e56021836128de565b91506124f08261301e565b604082019050919050565b60006125086031836128de565b91506125138261306d565b604082019050919050565b61252781612a1f565b82525050565b6000612539828561229a565b9150612545828461229a565b91508190509392505050565b6000602082019050612566600083018461220a565b92915050565b6000608082019050612581600083018761220a565b61258e602083018661220a565b61259b604083018561251e565b81810360608301526125ad8184612228565b905095945050505050565b60006020820190506125cd6000830184612219565b92915050565b600060208201905081810360008301526125ed8184612261565b905092915050565b6000602082019050818103600083015261260e816122cb565b9050919050565b6000602082019050818103600083015261262e816122ee565b9050919050565b6000602082019050818103600083015261264e81612311565b9050919050565b6000602082019050818103600083015261266e81612334565b9050919050565b6000602082019050818103600083015261268e81612357565b9050919050565b600060208201905081810360008301526126ae8161237a565b9050919050565b600060208201905081810360008301526126ce8161239d565b9050919050565b600060208201905081810360008301526126ee816123c0565b9050919050565b6000602082019050818103600083015261270e816123e3565b9050919050565b6000602082019050818103600083015261272e81612406565b9050919050565b6000602082019050818103600083015261274e81612429565b9050919050565b6000602082019050818103600083015261276e8161244c565b9050919050565b6000602082019050818103600083015261278e8161246f565b9050919050565b600060208201905081810360008301526127ae81612492565b9050919050565b600060208201905081810360008301526127ce816124b5565b9050919050565b600060208201905081810360008301526127ee816124d8565b9050919050565b6000602082019050818103600083015261280e816124fb565b9050919050565b600060208201905061282a600083018461251e565b92915050565b600061283a61284b565b90506128468282612a9d565b919050565b6000604051905090565b600067ffffffffffffffff8211156128705761286f612bd5565b5b61287982612c04565b9050602081019050919050565b600067ffffffffffffffff8211156128a1576128a0612bd5565b5b6128aa82612c04565b9050602081019050919050565b600081519050919050565b600081519050919050565b600082825260208201905092915050565b600082825260208201905092915050565b600081905092915050565b600061290582612a1f565b915061291083612a1f565b9250827fffffffffffffffffffffffffffffffffffffffffffffffffffffffffffffffff0382111561294557612944612b48565b5b828201905092915050565b600061295b82612a1f565b915061296683612a1f565b92508261297657612975612b77565b5b828204905092915050565b600061298c82612a1f565b915061299783612a1f565b9250828210156129aa576129a9612b48565b5b828203905092915050565b60006129c0826129ff565b9050919050565b60008115159050919050565b60007fffffffff0000000000000000000000000000000000000000000000000000000082169050919050565b600073ffffffffffffffffffffffffffffffffffffffff82169050919050565b6000819050919050565b82818337600083830152505050565b60005b83811015612a56578082015181840152602081019050612a3b565b83811115612a65576000848401525b50505050565b60006002820490506001821680612a8357607f821691505b60208210811415612a9757612a96612ba6565b5b50919050565b612aa682612c04565b810181811067ffffffffffffffff82111715612ac557612ac4612bd5565b5b80604052505050565b6000612ad982612a1f565b91507fffffffffffffffffffffffffffffffffffffffffffffffffffffffffffffffff821415612b0c57612b0b612b48565b5b600182019050919050565b6000612b2282612a1f565b9150612b2d83612a1f565b925082612b3d57612b3c612b77565b5b828206905092915050565b7f4e487b7100000000000000000000000000000000000000000000000000000000600052601160045260246000fd5b7f4e487b7100000000000000000000000000000000000000000000000000000000600052601260045260246000fd5b7f4e487b7100000000000000000000000000000000000000000000000000000000600052602260045260246000fd5b7f4e487b7100000000000000000000000000000000000000000000000000000000600052604160045260246000fd5b6000601f19601f8301169050919050565b7f4552433732313a207472616e7366657220746f206e6f6e20455243373231526560008201527f63656976657220696d706c656d656e7465720000000000000000000000000000602082015250565b7f4552433732313a20746f6b656e20616c7265616479206d696e74656400000000600082015250565b7f4552433732313a207472616e7366657220746f20746865207a65726f2061646460008201527f7265737300000000000000000000000000000000000000000000000000000000602082015250565b7f4552433732313a20617070726f766520746f2063616c6c657200000000000000600082015250565b7f4552433732313a206f70657261746f7220717565727920666f72206e6f6e657860008201527f697374656e7420746f6b656e0000000000000000000000000000000000000000602082015250565b7f4f6e6c792061646d696e2063616e206163636573732074686973000000000000600082015250565b7f4552433732313a20617070726f76652063616c6c6572206973206e6f74206f7760008201527f6e6572206e6f7220617070726f76656420666f7220616c6c0000000000000000602082015250565b7f4552433732313a2062616c616e636520717565727920666f7220746865207a6560008201527f726f206164647265737300000000000000000000000000000000000000000000602082015250565b7f4552433732313a206f776e657220717565727920666f72206e6f6e657869737460008201527f656e7420746f6b656e0000000000000000000000000000000000000000000000602082015250565b7f45524337323155524953746f726167653a2055524920736574206f66206e6f6e60008201527f6578697374656e7420746f6b656e000000000000000000000000000000000000602082015250565b7f4552433732313a206d696e7420746f20746865207a65726f2061646472657373600082015250565b7f45524337323155524953746f726167653a2055524920717565727920666f722060008201527f6e6f6e6578697374656e7420746f6b656e000000000000000000000000000000602082015250565b7f4552433732313a20617070726f76656420717565727920666f72206e6f6e657860008201527f697374656e7420746f6b656e0000000000000000000000000000000000000000602082015250565b7f4552433732313a207472616e73666572206f6620746f6b656e2074686174206960008201527f73206e6f74206f776e0000000000000000000000000000000000000000000000602082015250565b7f4552433732314d657461646174613a2055524920717565727920666f72206e6f60008201527f6e6578697374656e7420746f6b656e0000000000000000000000000000000000602082015250565b7f4552433732313a20617070726f76616c20746f2063757272656e74206f776e6560008201527f7200000000000000000000000000000000000000000000000000000000000000602082015250565b7f4552433732313a207472616e736665722063616c6c6572206973206e6f74206f60008201527f776e6572206e6f7220617070726f766564000000000000000000000000000000602082015250565b6130c5816129b5565b81146130d057600080fd5b50565b6130dc816129c7565b81146130e757600080fd5b50565b6130f3816129d3565b81146130fe57600080fd5b50565b61310a81612a1f565b811461311557600080fd5b5056fea2646970667358221220b224500f4e6db5da8f275d83fa2b71bdd1516420f258af9fee9a5c0f97f60aa664736f6c63430008040033",
  "immutableReferences": {},
  "source": "//SPDX-License-Identifier: MIT\r\npragma solidity ^0.8.0;\r\n\r\nimport \"@openzeppelin/contracts/token/ERC721/ERC721.sol\";\r\nimport \"@openzeppelin/contracts/token/ERC721/extensions/ERC721URIStorage.sol\";\r\nimport \"@openzeppelin/contracts/utils/Counters.sol\";\r\n\r\ncontract NFT2 is ERC721URIStorage {\r\n    //auto-increment field for each token\r\n    // using Counters for Counters.Counter;\r\n\r\n    // Counters.Counter private _tokenIds;\r\n\r\n    address contractAddress;\r\n    address public admin;\r\n    bool public publicMintAllowed;\r\n\r\n    constructor(address marketplaceAddress) ERC721(\"OpenSea Tokens\", \"OST\") {\r\n        contractAddress = marketplaceAddress;\r\n        admin = msg.sender;\r\n    }\r\n\r\n    ///@notice only admin modifier\r\n    modifier onlyAdmin() {\r\n        require(msg.sender == admin, \"Only admin can access this\");\r\n        _;\r\n    }\r\n\r\n    ///@notice only owner modifier\r\n    modifier onlyOwner(uint256 tokenId) {\r\n        require(msg.sender == ownerOf(tokenId));\r\n        _;\r\n    }\r\n\r\n    /// @notice create a new token\r\n    /// @param tokenUri : token URI\r\n    function createToken(\r\n        address _to,\r\n        uint256 _tokenId,\r\n        string memory tokenUri\r\n    ) public returns (uint256) {\r\n        require(publicMintAllowed || msg.sender == admin);\r\n\r\n        _mint(_to, _tokenId); //mint the token to the box holder's address\r\n        _setTokenURI(_tokenId, tokenUri); //generate the URI\r\n\r\n        //return token ID\r\n        return _tokenId;\r\n    }\r\n\r\n    // function setApprovalsForAll(\r\n    //     address operator,\r\n    //     bool approved,\r\n    //     uint256 tokenId\r\n    // ) public onlyOwner(tokenId) {\r\n    //     setApprovalForAll(operator, approved);\r\n    // }\r\n\r\n    function setTokenURI(uint256 tokenId, string memory tokenUri)\r\n        public\r\n        onlyOwner(tokenId)\r\n    {\r\n        _setTokenURI(tokenId, tokenUri);\r\n    }\r\n\r\n    function burn(uint256 tokenId) public onlyOwner(tokenId) {\r\n        _burn(tokenId);\r\n    }\r\n\r\n    function updateAdmin(address _admin) public onlyAdmin {\r\n        admin = _admin;\r\n    }\r\n\r\n    function allowPublicMint() public onlyAdmin {\r\n        publicMintAllowed = true;\r\n    }\r\n}\r\n",
  "sourcePath": "D:/Desktop/immense/crypto/defi application/test (NFT marketplace)/NFT game/src/contracts/NFT2.sol",
  "compiler": {
    "name": "solc",
    "version": "0.8.4+commit.c7e474f2.Emscripten.clang"
  },
  "schemaVersion": "3.4.7",
  "updatedAt": "2022-05-30T12:40:43.187Z",
  "networkType": "ethereum",
  "devdoc": {
    "kind": "dev",
    "methods": {
      "approve(address,uint256)": {
        "details": "See {IERC721-approve}."
      },
      "balanceOf(address)": {
        "details": "See {IERC721-balanceOf}."
      },
      "createToken(address,uint256,string)": {
        "params": {
          "tokenUri": ": token URI"
        }
      },
      "getApproved(uint256)": {
        "details": "See {IERC721-getApproved}."
      },
      "isApprovedForAll(address,address)": {
        "details": "See {IERC721-isApprovedForAll}."
      },
      "name()": {
        "details": "See {IERC721Metadata-name}."
      },
      "ownerOf(uint256)": {
        "details": "See {IERC721-ownerOf}."
      },
      "safeTransferFrom(address,address,uint256)": {
        "details": "See {IERC721-safeTransferFrom}."
      },
      "safeTransferFrom(address,address,uint256,bytes)": {
        "details": "See {IERC721-safeTransferFrom}."
      },
      "setApprovalForAll(address,bool)": {
        "details": "See {IERC721-setApprovalForAll}."
      },
      "supportsInterface(bytes4)": {
        "details": "See {IERC165-supportsInterface}."
      },
      "symbol()": {
        "details": "See {IERC721Metadata-symbol}."
      },
      "tokenURI(uint256)": {
        "details": "See {IERC721Metadata-tokenURI}."
      },
      "transferFrom(address,address,uint256)": {
        "details": "See {IERC721-transferFrom}."
      }
    },
    "version": 1
  },
  "userdoc": {
    "kind": "user",
    "methods": {
      "createToken(address,uint256,string)": {
        "notice": "create a new token"
      }
    },
    "version": 1
  }
}