{
  "contractName": "NFT8",
  "abi": [
    {
      "inputs": [],
      "stateMutability": "nonpayable",
      "type": "constructor"
    },
    {
      "anonymous": false,
      "inputs": [
        {
          "indexed": true,
          "internalType": "address",
          "name": "owner",
          "type": "address"
        },
        {
          "indexed": true,
          "internalType": "address",
          "name": "approved",
          "type": "address"
        },
        {
          "indexed": true,
          "internalType": "uint256",
          "name": "tokenId",
          "type": "uint256"
        }
      ],
      "name": "Approval",
      "type": "event"
    },
    {
      "anonymous": false,
      "inputs": [
        {
          "indexed": true,
          "internalType": "address",
          "name": "owner",
          "type": "address"
        },
        {
          "indexed": true,
          "internalType": "address",
          "name": "operator",
          "type": "address"
        },
        {
          "indexed": false,
          "internalType": "bool",
          "name": "approved",
          "type": "bool"
        }
      ],
      "name": "ApprovalForAll",
      "type": "event"
    },
    {
      "anonymous": false,
      "inputs": [
        {
          "indexed": false,
          "internalType": "uint256",
          "name": "tokenId",
          "type": "uint256"
        },
        {
          "indexed": true,
          "internalType": "address",
          "name": "sender",
          "type": "address"
        },
        {
          "indexed": false,
          "internalType": "uint256",
          "name": "amount",
          "type": "uint256"
        }
      ],
      "name": "Bid",
      "type": "event"
    },
    {
      "anonymous": false,
      "inputs": [
        {
          "indexed": false,
          "internalType": "uint256",
          "name": "tokenId",
          "type": "uint256"
        },
        {
          "indexed": false,
          "internalType": "address",
          "name": "highestBidder",
          "type": "address"
        },
        {
          "indexed": false,
          "internalType": "uint256",
          "name": "highestBid",
          "type": "uint256"
        }
      ],
      "name": "End",
      "type": "event"
    },
    {
      "anonymous": false,
      "inputs": [
        {
          "indexed": true,
          "internalType": "uint256",
          "name": "marketItemId",
          "type": "uint256"
        },
        {
          "indexed": true,
          "internalType": "uint256",
          "name": "tokenId",
          "type": "uint256"
        },
        {
          "indexed": false,
          "internalType": "uint256",
          "name": "price",
          "type": "uint256"
        },
        {
          "indexed": false,
          "internalType": "uint256",
          "name": "royalty",
          "type": "uint256"
        },
        {
          "indexed": false,
          "internalType": "address",
          "name": "creator",
          "type": "address"
        },
        {
          "indexed": false,
          "internalType": "address",
          "name": "seller",
          "type": "address"
        },
        {
          "indexed": false,
          "internalType": "address",
          "name": "owner",
          "type": "address"
        }
      ],
      "name": "MarketItemCreated",
      "type": "event"
    },
    {
      "anonymous": false,
      "inputs": [
        {
          "indexed": true,
          "internalType": "uint256",
          "name": "marketItemId",
          "type": "uint256"
        },
        {
          "indexed": false,
          "internalType": "address",
          "name": "seller",
          "type": "address"
        },
        {
          "indexed": false,
          "internalType": "address",
          "name": "owner",
          "type": "address"
        },
        {
          "indexed": false,
          "internalType": "uint256",
          "name": "price",
          "type": "uint256"
        }
      ],
      "name": "MarketItemResell",
      "type": "event"
    },
    {
      "anonymous": false,
      "inputs": [
        {
          "indexed": false,
          "internalType": "uint256",
          "name": "tokenId",
          "type": "uint256"
        }
      ],
      "name": "Start",
      "type": "event"
    },
    {
      "anonymous": false,
      "inputs": [
        {
          "indexed": true,
          "internalType": "address",
          "name": "from",
          "type": "address"
        },
        {
          "indexed": true,
          "internalType": "address",
          "name": "to",
          "type": "address"
        },
        {
          "indexed": true,
          "internalType": "uint256",
          "name": "tokenId",
          "type": "uint256"
        }
      ],
      "name": "Transfer",
      "type": "event"
    },
    {
      "anonymous": false,
      "inputs": [
        {
          "indexed": false,
          "internalType": "uint256",
          "name": "tokenId",
          "type": "uint256"
        },
        {
          "indexed": true,
          "internalType": "address",
          "name": "bidder",
          "type": "address"
        },
        {
          "indexed": false,
          "internalType": "uint256",
          "name": "amount",
          "type": "uint256"
        }
      ],
      "name": "Withdraw",
      "type": "event"
    },
    {
      "inputs": [],
      "name": "admin",
      "outputs": [
        {
          "internalType": "address payable",
          "name": "",
          "type": "address"
        }
      ],
      "stateMutability": "view",
      "type": "function"
    },
    {
      "inputs": [
        {
          "internalType": "uint256",
          "name": "",
          "type": "uint256"
        }
      ],
      "name": "allMarketItems",
      "outputs": [
        {
          "internalType": "uint256",
          "name": "marketItemId",
          "type": "uint256"
        },
        {
          "internalType": "uint256",
          "name": "tokenId",
          "type": "uint256"
        },
        {
          "internalType": "uint256",
          "name": "royalty",
          "type": "uint256"
        },
        {
          "internalType": "address payable",
          "name": "creator",
          "type": "address"
        },
        {
          "internalType": "address payable",
          "name": "seller",
          "type": "address"
        },
        {
          "internalType": "address payable",
          "name": "owner",
          "type": "address"
        },
        {
          "internalType": "contract IERC20",
          "name": "token",
          "type": "address"
        }
      ],
      "stateMutability": "view",
      "type": "function"
    },
    {
      "inputs": [
        {
          "internalType": "address",
          "name": "to",
          "type": "address"
        },
        {
          "internalType": "uint256",
          "name": "tokenId",
          "type": "uint256"
        }
      ],
      "name": "approve",
      "outputs": [],
      "stateMutability": "nonpayable",
      "type": "function"
    },
    {
      "inputs": [
        {
          "internalType": "uint256",
          "name": "",
          "type": "uint256"
        }
      ],
      "name": "auctionPurchaseToken",
      "outputs": [
        {
          "internalType": "address",
          "name": "",
          "type": "address"
        }
      ],
      "stateMutability": "view",
      "type": "function"
    },
    {
      "inputs": [
        {
          "internalType": "address",
          "name": "owner",
          "type": "address"
        }
      ],
      "name": "balanceOf",
      "outputs": [
        {
          "internalType": "uint256",
          "name": "",
          "type": "uint256"
        }
      ],
      "stateMutability": "view",
      "type": "function"
    },
    {
      "inputs": [
        {
          "internalType": "uint256",
          "name": "",
          "type": "uint256"
        },
        {
          "internalType": "address",
          "name": "",
          "type": "address"
        }
      ],
      "name": "bids",
      "outputs": [
        {
          "internalType": "uint256",
          "name": "",
          "type": "uint256"
        }
      ],
      "stateMutability": "view",
      "type": "function"
    },
    {
      "inputs": [
        {
          "internalType": "uint256",
          "name": "",
          "type": "uint256"
        }
      ],
      "name": "endAt",
      "outputs": [
        {
          "internalType": "uint256",
          "name": "",
          "type": "uint256"
        }
      ],
      "stateMutability": "view",
      "type": "function"
    },
    {
      "inputs": [
        {
          "internalType": "uint256",
          "name": "",
          "type": "uint256"
        }
      ],
      "name": "ended",
      "outputs": [
        {
          "internalType": "bool",
          "name": "",
          "type": "bool"
        }
      ],
      "stateMutability": "view",
      "type": "function"
    },
    {
      "inputs": [
        {
          "internalType": "uint256",
          "name": "tokenId",
          "type": "uint256"
        }
      ],
      "name": "getApproved",
      "outputs": [
        {
          "internalType": "address",
          "name": "",
          "type": "address"
        }
      ],
      "stateMutability": "view",
      "type": "function"
    },
    {
      "inputs": [
        {
          "internalType": "uint256",
          "name": "",
          "type": "uint256"
        }
      ],
      "name": "highestBid",
      "outputs": [
        {
          "internalType": "uint256",
          "name": "",
          "type": "uint256"
        }
      ],
      "stateMutability": "view",
      "type": "function"
    },
    {
      "inputs": [
        {
          "internalType": "uint256",
          "name": "",
          "type": "uint256"
        }
      ],
      "name": "highestBidder",
      "outputs": [
        {
          "internalType": "address",
          "name": "",
          "type": "address"
        }
      ],
      "stateMutability": "view",
      "type": "function"
    },
    {
      "inputs": [
        {
          "internalType": "address",
          "name": "owner",
          "type": "address"
        },
        {
          "internalType": "address",
          "name": "operator",
          "type": "address"
        }
      ],
      "name": "isApprovedForAll",
      "outputs": [
        {
          "internalType": "bool",
          "name": "",
          "type": "bool"
        }
      ],
      "stateMutability": "view",
      "type": "function"
    },
    {
      "inputs": [],
      "name": "name",
      "outputs": [
        {
          "internalType": "string",
          "name": "",
          "type": "string"
        }
      ],
      "stateMutability": "view",
      "type": "function"
    },
    {
      "inputs": [
        {
          "internalType": "uint256",
          "name": "tokenId",
          "type": "uint256"
        }
      ],
      "name": "ownerOf",
      "outputs": [
        {
          "internalType": "address",
          "name": "",
          "type": "address"
        }
      ],
      "stateMutability": "view",
      "type": "function"
    },
    {
      "inputs": [],
      "name": "platformCommission",
      "outputs": [
        {
          "internalType": "uint256",
          "name": "",
          "type": "uint256"
        }
      ],
      "stateMutability": "view",
      "type": "function"
    },
    {
      "inputs": [
        {
          "internalType": "address",
          "name": "from",
          "type": "address"
        },
        {
          "internalType": "address",
          "name": "to",
          "type": "address"
        },
        {
          "internalType": "uint256",
          "name": "tokenId",
          "type": "uint256"
        }
      ],
      "name": "safeTransferFrom",
      "outputs": [],
      "stateMutability": "nonpayable",
      "type": "function"
    },
    {
      "inputs": [
        {
          "internalType": "address",
          "name": "from",
          "type": "address"
        },
        {
          "internalType": "address",
          "name": "to",
          "type": "address"
        },
        {
          "internalType": "uint256",
          "name": "tokenId",
          "type": "uint256"
        },
        {
          "internalType": "bytes",
          "name": "_data",
          "type": "bytes"
        }
      ],
      "name": "safeTransferFrom",
      "outputs": [],
      "stateMutability": "nonpayable",
      "type": "function"
    },
    {
      "inputs": [
        {
          "internalType": "uint256",
          "name": "",
          "type": "uint256"
        }
      ],
      "name": "seller",
      "outputs": [
        {
          "internalType": "address",
          "name": "",
          "type": "address"
        }
      ],
      "stateMutability": "view",
      "type": "function"
    },
    {
      "inputs": [
        {
          "internalType": "address",
          "name": "operator",
          "type": "address"
        },
        {
          "internalType": "bool",
          "name": "approved",
          "type": "bool"
        }
      ],
      "name": "setApprovalForAll",
      "outputs": [],
      "stateMutability": "nonpayable",
      "type": "function"
    },
    {
      "inputs": [
        {
          "internalType": "uint256",
          "name": "",
          "type": "uint256"
        }
      ],
      "name": "started",
      "outputs": [
        {
          "internalType": "bool",
          "name": "",
          "type": "bool"
        }
      ],
      "stateMutability": "view",
      "type": "function"
    },
    {
      "inputs": [
        {
          "internalType": "bytes4",
          "name": "interfaceId",
          "type": "bytes4"
        }
      ],
      "name": "supportsInterface",
      "outputs": [
        {
          "internalType": "bool",
          "name": "",
          "type": "bool"
        }
      ],
      "stateMutability": "view",
      "type": "function"
    },
    {
      "inputs": [],
      "name": "symbol",
      "outputs": [
        {
          "internalType": "string",
          "name": "",
          "type": "string"
        }
      ],
      "stateMutability": "view",
      "type": "function"
    },
    {
      "inputs": [
        {
          "internalType": "uint256",
          "name": "tokenId",
          "type": "uint256"
        }
      ],
      "name": "tokenURI",
      "outputs": [
        {
          "internalType": "string",
          "name": "",
          "type": "string"
        }
      ],
      "stateMutability": "view",
      "type": "function"
    },
    {
      "inputs": [
        {
          "internalType": "address",
          "name": "from",
          "type": "address"
        },
        {
          "internalType": "address",
          "name": "to",
          "type": "address"
        },
        {
          "internalType": "uint256",
          "name": "tokenId",
          "type": "uint256"
        }
      ],
      "name": "transferFrom",
      "outputs": [],
      "stateMutability": "nonpayable",
      "type": "function"
    },
    {
      "inputs": [
        {
          "internalType": "uint256",
          "name": "_platformCommission",
          "type": "uint256"
        }
      ],
      "name": "updatePlatformCommision",
      "outputs": [],
      "stateMutability": "nonpayable",
      "type": "function"
    },
    {
      "inputs": [
        {
          "internalType": "address",
          "name": "_admin",
          "type": "address"
        }
      ],
      "name": "updateAdmin",
      "outputs": [],
      "stateMutability": "nonpayable",
      "type": "function"
    },
    {
      "inputs": [
        {
          "components": [
            {
              "internalType": "uint256",
              "name": "tokenId",
              "type": "uint256"
            },
            {
              "internalType": "uint256",
              "name": "minPrice",
              "type": "uint256"
            },
            {
              "internalType": "string",
              "name": "uri",
              "type": "string"
            },
            {
              "internalType": "bytes",
              "name": "signature",
              "type": "bytes"
            }
          ],
          "internalType": "struct NFT8.NFTVoucher",
          "name": "voucher",
          "type": "tuple"
        },
        {
          "internalType": "uint256",
          "name": "_royalty",
          "type": "uint256"
        }
      ],
      "name": "createAndBuyToken",
      "outputs": [
        {
          "internalType": "uint256",
          "name": "",
          "type": "uint256"
        }
      ],
      "stateMutability": "payable",
      "type": "function"
    },
    {
      "inputs": [
        {
          "components": [
            {
              "internalType": "uint256",
              "name": "tokenId",
              "type": "uint256"
            },
            {
              "internalType": "uint256",
              "name": "minPrice",
              "type": "uint256"
            },
            {
              "internalType": "string",
              "name": "uri",
              "type": "string"
            },
            {
              "internalType": "bytes",
              "name": "signature",
              "type": "bytes"
            }
          ],
          "internalType": "struct NFT8.NFTVoucher",
          "name": "voucher",
          "type": "tuple"
        },
        {
          "internalType": "uint256",
          "name": "_royalty",
          "type": "uint256"
        },
        {
          "internalType": "contract IERC20",
          "name": "_token",
          "type": "address"
        }
      ],
      "name": "createAndBuyTokenWETH",
      "outputs": [
        {
          "internalType": "uint256",
          "name": "",
          "type": "uint256"
        }
      ],
      "stateMutability": "payable",
      "type": "function"
    },
    {
      "inputs": [
        {
          "internalType": "uint256",
          "name": "_marketItemId",
          "type": "uint256"
        },
        {
          "components": [
            {
              "internalType": "uint256",
              "name": "tokenId",
              "type": "uint256"
            },
            {
              "internalType": "uint256",
              "name": "minPrice",
              "type": "uint256"
            },
            {
              "internalType": "string",
              "name": "uri",
              "type": "string"
            },
            {
              "internalType": "bytes",
              "name": "signature",
              "type": "bytes"
            }
          ],
          "internalType": "struct NFT8.NFTVoucher",
          "name": "voucher",
          "type": "tuple"
        }
      ],
      "name": "secondaryBuyToken",
      "outputs": [],
      "stateMutability": "payable",
      "type": "function"
    },
    {
      "inputs": [
        {
          "internalType": "uint256",
          "name": "_marketItemId",
          "type": "uint256"
        },
        {
          "components": [
            {
              "internalType": "uint256",
              "name": "tokenId",
              "type": "uint256"
            },
            {
              "internalType": "uint256",
              "name": "minPrice",
              "type": "uint256"
            },
            {
              "internalType": "string",
              "name": "uri",
              "type": "string"
            },
            {
              "internalType": "bytes",
              "name": "signature",
              "type": "bytes"
            }
          ],
          "internalType": "struct NFT8.NFTVoucher",
          "name": "voucher",
          "type": "tuple"
        }
      ],
      "name": "secondaryBuyTokenWETH",
      "outputs": [],
      "stateMutability": "payable",
      "type": "function"
    },
    {
      "inputs": [
        {
          "internalType": "uint256",
          "name": "tokenId",
          "type": "uint256"
        },
        {
          "internalType": "string",
          "name": "_tokenURI",
          "type": "string"
        }
      ],
      "name": "setTokenURI",
      "outputs": [],
      "stateMutability": "nonpayable",
      "type": "function"
    },
    {
      "inputs": [
        {
          "internalType": "uint256",
          "name": "tokenId",
          "type": "uint256"
        }
      ],
      "name": "burn",
      "outputs": [],
      "stateMutability": "nonpayable",
      "type": "function"
    },
    {
      "inputs": [],
      "name": "getChainID",
      "outputs": [
        {
          "internalType": "uint256",
          "name": "",
          "type": "uint256"
        }
      ],
      "stateMutability": "view",
      "type": "function"
    },
    {
      "inputs": [
        {
          "internalType": "uint256",
          "name": "_nftId",
          "type": "uint256"
        },
        {
          "internalType": "uint256",
          "name": "startingBid",
          "type": "uint256"
        },
        {
          "internalType": "uint256",
          "name": "auctionPeriodInDays",
          "type": "uint256"
        },
        {
          "internalType": "address",
          "name": "_token",
          "type": "address"
        }
      ],
      "name": "start",
      "outputs": [],
      "stateMutability": "nonpayable",
      "type": "function"
    },
    {
      "inputs": [
        {
          "internalType": "uint256",
          "name": "_nftId",
          "type": "uint256"
        },
        {
          "internalType": "uint256",
          "name": "amount",
          "type": "uint256"
        }
      ],
      "name": "bid",
      "outputs": [],
      "stateMutability": "payable",
      "type": "function"
    },
    {
      "inputs": [
        {
          "components": [
            {
              "internalType": "uint256",
              "name": "tokenId",
              "type": "uint256"
            },
            {
              "internalType": "uint256",
              "name": "minPrice",
              "type": "uint256"
            },
            {
              "internalType": "string",
              "name": "uri",
              "type": "string"
            },
            {
              "internalType": "bytes",
              "name": "signature",
              "type": "bytes"
            }
          ],
          "internalType": "struct NFT8.NFTVoucher",
          "name": "voucher",
          "type": "tuple"
        },
        {
          "internalType": "address",
          "name": "bidder",
          "type": "address"
        }
      ],
      "name": "end",
      "outputs": [],
      "stateMutability": "nonpayable",
      "type": "function"
    },
    {
      "inputs": [
        {
          "internalType": "uint256",
          "name": "_nftId",
          "type": "uint256"
        }
      ],
      "name": "withdraw",
      "outputs": [],
      "stateMutability": "payable",
      "type": "function"
    }
  ],
  "bytecode": "0x6101406040523480156200001257600080fd5b506040518060400160405280600f81526020017f4c617a794e46542d566f756368657200000000000000000000000000000000008152506040518060400160405280600181526020017f31000000000000000000000000000000000000000000000000000000000000008152506040518060400160405280600e81526020017f4f70656e53656120546f6b656e730000000000000000000000000000000000008152506040518060400160405280600381526020017f4f535400000000000000000000000000000000000000000000000000000000008152508160009080519060200190620001039291906200025f565b5080600190805190602001906200011c9291906200025f565b50505060008280519060200120905060008280519060200120905060007f8b73c3c69bb8fe3d512ecc4cf759cc79239f7b179b0ffacaa9a75d522b39400f90508260e081815250508161010081815250504660a08181525050620001888184846200022360201b60201c565b608081815250503073ffffffffffffffffffffffffffffffffffffffff1660c08173ffffffffffffffffffffffffffffffffffffffff1660601b81525050806101208181525050505050505033600860006101000a81548173ffffffffffffffffffffffffffffffffffffffff021916908373ffffffffffffffffffffffffffffffffffffffff16021790555060026009819055506200044c565b600083838346306040516020016200024095949392919062000342565b6040516020818303038152906040528051906020012090509392505050565b8280546200026d90620003e7565b90600052602060002090601f016020900481019282620002915760008555620002dd565b82601f10620002ac57805160ff1916838001178555620002dd565b82800160010185558215620002dd579182015b82811115620002dc578251825591602001919060010190620002bf565b5b509050620002ec9190620002f0565b5090565b5b808211156200030b576000816000905550600101620002f1565b5090565b6200031a816200039f565b82525050565b6200032b81620003b3565b82525050565b6200033c81620003dd565b82525050565b600060a08201905062000359600083018862000320565b62000368602083018762000320565b62000377604083018662000320565b62000386606083018562000331565b6200039560808301846200030f565b9695505050505050565b6000620003ac82620003bd565b9050919050565b6000819050919050565b600073ffffffffffffffffffffffffffffffffffffffff82169050919050565b6000819050919050565b600060028204905060018216806200040057607f821691505b602082108114156200041757620004166200041d565b5b50919050565b7f4e487b7100000000000000000000000000000000000000000000000000000000600052602260045260246000fd5b60805160a05160c05160601c60e05161010051610120516187dc6200049f6000396000615b6501526000615ba701526000615b8601526000615abb01526000615b1101526000615b3a01526187dc6000f3fe60806040526004361061021a5760003560e01c8063694e91b811610123578063aacdfe6f116100ab578063e2f273bd1161006f578063e2f273bd1461082b578063e985e9c514610854578063f7d1a6ed14610891578063f851a440146108ce578063fedd23c9146108f95761021a565b8063aacdfe6f1461072f578063b14c63c51461076c578063b88d4fde146107a9578063c87b56dd146107d2578063dfb649491461080f5761021a565b8063861a3689116100f2578063861a36891461062b57806386aa6bfd1461066857806395d89b41146106985780639fc963d1146106c3578063a22cb465146107065761021a565b8063694e91b81461055d5780636bcaccfa1461058857806370a08231146105b15780638183d744146105ee5761021a565b806333f0f512116101a6578063451df52e11610175578063451df52e1461046c57806351ef708a146104a9578063564b81ef146104d9578063598647f8146105045780636352211e146105205761021a565b806333f0f512146103c15780633f1ffcec146103dd57806342842e0e1461041a57806342966c68146104435761021a565b8063162094c4116101ed578063162094c4146102ed5780631b5f95c4146103165780631f89ef131461033f57806323b872dd1461037c5780632e1a7d4d146103a55761021a565b806301ffc9a71461021f57806306fdde031461025c578063081812fc14610287578063095ea7b3146102c4575b600080fd5b34801561022b57600080fd5b506102466004803603810190610241919061635a565b610922565b6040516102539190616fb8565b60405180910390f35b34801561026857600080fd5b50610271610a04565b60405161027e91906170b0565b60405180910390f35b34801561029357600080fd5b506102ae60048036038101906102a991906164bb565b610a96565b6040516102bb9190616e84565b60405180910390f35b3480156102d057600080fd5b506102eb60048036038101906102e691906162f5565b610b1b565b005b3480156102f957600080fd5b50610314600480360381019061030f9190616549565b610c33565b005b34801561032257600080fd5b5061033d600480360381019061033891906163ac565b610c83565b005b34801561034b57600080fd5b50610366600480360381019061036191906164bb565b611e23565b6040516103739190616fb8565b60405180910390f35b34801561038857600080fd5b506103a3600480360381019061039e91906161ef565b611e43565b005b6103bf60048036038101906103ba91906164bb565b611ea3565b005b6103db60048036038101906103d6919061659d565b6121c0565b005b3480156103e957600080fd5b5061040460048036038101906103ff919061650d565b61245b565b6040516104119190617612565b60405180910390f35b34801561042657600080fd5b50610441600480360381019061043c91906161ef565b612480565b005b34801561044f57600080fd5b5061046a600480360381019061046591906164bb565b6124a0565b005b34801561047857600080fd5b50610493600480360381019061048e91906164bb565b6124ee565b6040516104a09190616e84565b60405180910390f35b6104c360048036038101906104be9190616454565b612521565b6040516104d09190617612565b60405180910390f35b3480156104e557600080fd5b506104ee61287a565b6040516104fb9190617612565b60405180910390f35b61051e600480360381019061051991906165f1565b612887565b005b34801561052c57600080fd5b50610547600480360381019061054291906164bb565b612e00565b6040516105549190616e84565b60405180910390f35b34801561056957600080fd5b50610572612eb2565b60405161057f9190617612565b60405180910390f35b34801561059457600080fd5b506105af60048036038101906105aa919061662d565b612eb8565b005b3480156105bd57600080fd5b506105d860048036038101906105d3919061618a565b61306f565b6040516105e59190617612565b60405180910390f35b3480156105fa57600080fd5b50610615600480360381019061061091906164bb565b613127565b6040516106229190617612565b60405180910390f35b34801561063757600080fd5b50610652600480360381019061064d91906164bb565b61313f565b60405161065f9190616fb8565b60405180910390f35b610682600480360381019061067d9190616400565b61315f565b60405161068f9190617612565b60405180910390f35b3480156106a457600080fd5b506106ad6134fb565b6040516106ba91906170b0565b60405180910390f35b3480156106cf57600080fd5b506106ea60048036038101906106e591906164bb565b61358d565b6040516106fd97969594939291906176e0565b60405180910390f35b34801561071257600080fd5b5061072d600480360381019061072891906162b9565b61364f565b005b34801561073b57600080fd5b50610756600480360381019061075191906164bb565b613665565b6040516107639190616e84565b60405180910390f35b34801561077857600080fd5b50610793600480360381019061078e91906164bb565b613698565b6040516107a09190617612565b60405180910390f35b3480156107b557600080fd5b506107d060048036038101906107cb919061623e565b6136b0565b005b3480156107de57600080fd5b506107f960048036038101906107f491906164bb565b613712565b60405161080691906170b0565b60405180910390f35b6108296004803603810190610824919061659d565b613864565b005b34801561083757600080fd5b50610852600480360381019061084d919061618a565b613b42565b005b34801561086057600080fd5b5061087b600480360381019061087691906161b3565b613c16565b6040516108889190616fb8565b60405180910390f35b34801561089d57600080fd5b506108b860048036038101906108b391906164bb565b613caa565b6040516108c59190616e84565b60405180910390f35b3480156108da57600080fd5b506108e3613cdd565b6040516108f09190616e9f565b60405180910390f35b34801561090557600080fd5b50610920600480360381019061091b91906164bb565b613d03565b005b60007f80ac58cd000000000000000000000000000000000000000000000000000000007bffffffffffffffffffffffffffffffffffffffffffffffffffffffff1916827bffffffffffffffffffffffffffffffffffffffffffffffffffffffff191614806109ed57507f5b5e139f000000000000000000000000000000000000000000000000000000007bffffffffffffffffffffffffffffffffffffffffffffffffffffffff1916827bffffffffffffffffffffffffffffffffffffffffffffffffffffffff1916145b806109fd57506109fc82613d9d565b5b9050919050565b606060008054610a1390617b32565b80601f0160208091040260200160405190810160405280929190818152602001828054610a3f90617b32565b8015610a8c5780601f10610a6157610100808354040283529160200191610a8c565b820191906000526020600020905b815481529060010190602001808311610a6f57829003601f168201915b5050505050905090565b6000610aa182613e07565b610ae0576040517f08c379a0000000000000000000000000000000000000000000000000000000008152600401610ad790617432565b60405180910390fd5b6004600083815260200190815260200160002060009054906101000a900473ffffffffffffffffffffffffffffffffffffffff169050919050565b6000610b2682612e00565b90508073ffffffffffffffffffffffffffffffffffffffff168373ffffffffffffffffffffffffffffffffffffffff161415610b97576040517f08c379a0000000000000000000000000000000000000000000000000000000008152600401610b8e906174b2565b60405180910390fd5b8073ffffffffffffffffffffffffffffffffffffffff16610bb6613e73565b73ffffffffffffffffffffffffffffffffffffffff161480610be55750610be481610bdf613e73565b613c16565b5b610c24576040517f08c379a0000000000000000000000000000000000000000000000000000000008152600401610c1b90617312565b60405180910390fd5b610c2e8383613e7b565b505050565b81610c3d81612e00565b73ffffffffffffffffffffffffffffffffffffffff163373ffffffffffffffffffffffffffffffffffffffff1614610c7457600080fd5b610c7e8383610c33565b505050565b600b60008360000135815260200190815260200160002060009054906101000a900460ff16610ce7576040517f08c379a0000000000000000000000000000000000000000000000000000000008152600401610cde906173b2565b60405180910390fd5b600d60008360000135815260200190815260200160002054421015610d41576040517f08c379a0000000000000000000000000000000000000000000000000000000008152600401610d38906171b2565b60405180910390fd5b600c60008360000135815260200190815260200160002060009054906101000a900460ff1615610da6576040517f08c379a0000000000000000000000000000000000000000000000000000000008152600401610d9d906175b2565b60405180910390fd5b6000610db183613f34565b90508073ffffffffffffffffffffffffffffffffffffffff16600a60008560000135815260200190815260200160002060009054906101000a900473ffffffffffffffffffffffffffffffffffffffff1673ffffffffffffffffffffffffffffffffffffffff1614610e58576040517f08c379a0000000000000000000000000000000000000000000000000000000008152600401610e4f90617272565b60405180910390fd5b3373ffffffffffffffffffffffffffffffffffffffff168173ffffffffffffffffffffffffffffffffffffffff1614610ec6576040517f08c379a0000000000000000000000000000000000000000000000000000000008152600401610ebd90617372565b60405180910390fd5b6000601060008560000135815260200190815260200160002060008473ffffffffffffffffffffffffffffffffffffffff1673ffffffffffffffffffffffffffffffffffffffff168152602001908152602001600020541180610f555750600073ffffffffffffffffffffffffffffffffffffffff168273ffffffffffffffffffffffffffffffffffffffff16145b610f94576040517f08c379a0000000000000000000000000000000000000000000000000000000008152600401610f8b90617152565b60405180910390fd5b6001600c60008560000135815260200190815260200160002060006101000a81548160ff021916908315150217905550610fd2818460000135613fa6565b6110328360000135848060400190610fea91906177a6565b8080601f016020809104026020016040519081016040528093929190818152602001838380828437600081840152601f19601f82011690508083019250505050505050614174565b600073ffffffffffffffffffffffffffffffffffffffff168273ffffffffffffffffffffffffffffffffffffffff16141580156110d35750600073ffffffffffffffffffffffffffffffffffffffff16601160008560000135815260200190815260200160002060009054906101000a900473ffffffffffffffffffffffffffffffffffffffff1673ffffffffffffffffffffffffffffffffffffffff1614155b156114465760006064601060008660000135815260200190815260200160002060008573ffffffffffffffffffffffffffffffffffffffff1673ffffffffffffffffffffffffffffffffffffffff1681526020019081526020016000205460095461113e9190617959565b6111489190617928565b905060006064601060008760000135815260200190815260200160002060008673ffffffffffffffffffffffffffffffffffffffff1673ffffffffffffffffffffffffffffffffffffffff1681526020019081526020016000205460095460646111b291906179b3565b6111bc9190617959565b6111c69190617928565b90506000601160008760000135815260200190815260200160002060009054906101000a900473ffffffffffffffffffffffffffffffffffffffff1690508073ffffffffffffffffffffffffffffffffffffffff1663a9059cbb600860009054906101000a900473ffffffffffffffffffffffffffffffffffffffff16856040518363ffffffff1660e01b8152600401611261929190616eba565b602060405180830381600087803b15801561127b57600080fd5b505af115801561128f573d6000803e3d6000fd5b505050506040513d601f19601f820116820180604052508101906112b39190616331565b508073ffffffffffffffffffffffffffffffffffffffff1663a9059cbb85846040518363ffffffff1660e01b81526004016112ef929190616f8f565b602060405180830381600087803b15801561130957600080fd5b505af115801561131d573d6000803e3d6000fd5b505050506040513d601f19601f820116820180604052508101906113419190616331565b506000601060008860000135815260200190815260200160002060008773ffffffffffffffffffffffffffffffffffffffff1673ffffffffffffffffffffffffffffffffffffffff168152602001908152602001600020819055506113ab848688600001356141e8565b7fad71bc980e1f9155e488acf543cc5276beae185d612505ea3eaff929e4fe37f0866000013586601060008a60000135815260200190815260200160002060008973ffffffffffffffffffffffffffffffffffffffff1673ffffffffffffffffffffffffffffffffffffffff168152602001908152602001600020546040516114369392919061762d565b60405180910390a1505050611e1e565b600073ffffffffffffffffffffffffffffffffffffffff168273ffffffffffffffffffffffffffffffffffffffff161480156114e65750600073ffffffffffffffffffffffffffffffffffffffff16601160008560000135815260200190815260200160002060009054906101000a900473ffffffffffffffffffffffffffffffffffffffff1673ffffffffffffffffffffffffffffffffffffffff1614155b156118475760006064600e600086600001358152602001908152602001600020546009546115149190617959565b61151e9190617928565b905060006064600e60008760000135815260200190815260200160002054600954606461154b91906179b3565b6115559190617959565b61155f9190617928565b90506000601160008760000135815260200190815260200160002060009054906101000a900473ffffffffffffffffffffffffffffffffffffffff1690508073ffffffffffffffffffffffffffffffffffffffff1663a9059cbb600860009054906101000a900473ffffffffffffffffffffffffffffffffffffffff16856040518363ffffffff1660e01b81526004016115fa929190616eba565b602060405180830381600087803b15801561161457600080fd5b505af1158015611628573d6000803e3d6000fd5b505050506040513d601f19601f8201168201806040525081019061164c9190616331565b508073ffffffffffffffffffffffffffffffffffffffff1663a9059cbb85846040518363ffffffff1660e01b8152600401611688929190616f8f565b602060405180830381600087803b1580156116a257600080fd5b505af11580156116b6573d6000803e3d6000fd5b505050506040513d601f19601f820116820180604052508101906116da9190616331565b50600060106000886000013581526020019081526020016000206000600f60008a60000135815260200190815260200160002060009054906101000a900473ffffffffffffffffffffffffffffffffffffffff1673ffffffffffffffffffffffffffffffffffffffff1673ffffffffffffffffffffffffffffffffffffffff168152602001908152602001600020819055506117b284600f60008960000135815260200190815260200160002060009054906101000a900473ffffffffffffffffffffffffffffffffffffffff1688600001356141e8565b7fad71bc980e1f9155e488acf543cc5276beae185d612505ea3eaff929e4fe37f08660000135600f60008960000135815260200190815260200160002060009054906101000a900473ffffffffffffffffffffffffffffffffffffffff16600e60008a600001358152602001908152602001600020546040516118379392919061762d565b60405180910390a1505050611e1d565b600073ffffffffffffffffffffffffffffffffffffffff168273ffffffffffffffffffffffffffffffffffffffff16141580156118e75750600073ffffffffffffffffffffffffffffffffffffffff16601160008560000135815260200190815260200160002060009054906101000a900473ffffffffffffffffffffffffffffffffffffffff1673ffffffffffffffffffffffffffffffffffffffff16145b15611b8f5760006064601060008660000135815260200190815260200160002060008573ffffffffffffffffffffffffffffffffffffffff1673ffffffffffffffffffffffffffffffffffffffff168152602001908152602001600020546009546119529190617959565b61195c9190617928565b905060006064601060008760000135815260200190815260200160002060008673ffffffffffffffffffffffffffffffffffffffff1673ffffffffffffffffffffffffffffffffffffffff1681526020019081526020016000205460095460646119c691906179b3565b6119d09190617959565b6119da9190617928565b9050600860009054906101000a900473ffffffffffffffffffffffffffffffffffffffff1673ffffffffffffffffffffffffffffffffffffffff166108fc839081150290604051600060405180830381858888f19350505050158015611a44573d6000803e3d6000fd5b508273ffffffffffffffffffffffffffffffffffffffff166108fc829081150290604051600060405180830381858888f19350505050158015611a8b573d6000803e3d6000fd5b506000601060008760000135815260200190815260200160002060008673ffffffffffffffffffffffffffffffffffffffff1673ffffffffffffffffffffffffffffffffffffffff16815260200190815260200160002081905550611af5838587600001356141e8565b7fad71bc980e1f9155e488acf543cc5276beae185d612505ea3eaff929e4fe37f0856000013585601060008960000135815260200190815260200160002060008873ffffffffffffffffffffffffffffffffffffffff1673ffffffffffffffffffffffffffffffffffffffff16815260200190815260200160002054604051611b809392919061762d565b60405180910390a15050611e1c565b60006064600e60008660000135815260200190815260200160002054600954611bb89190617959565b611bc29190617928565b905060006064600e600087600001358152602001908152602001600020546009546064611bef91906179b3565b611bf99190617959565b611c039190617928565b9050600860009054906101000a900473ffffffffffffffffffffffffffffffffffffffff1673ffffffffffffffffffffffffffffffffffffffff166108fc839081150290604051600060405180830381858888f19350505050158015611c6d573d6000803e3d6000fd5b508273ffffffffffffffffffffffffffffffffffffffff166108fc829081150290604051600060405180830381858888f19350505050158015611cb4573d6000803e3d6000fd5b50600060106000876000013581526020019081526020016000206000600f60008960000135815260200190815260200160002060009054906101000a900473ffffffffffffffffffffffffffffffffffffffff1673ffffffffffffffffffffffffffffffffffffffff1673ffffffffffffffffffffffffffffffffffffffff16815260200190815260200160002081905550611d8c83600f60008860000135815260200190815260200160002060009054906101000a900473ffffffffffffffffffffffffffffffffffffffff1687600001356141e8565b7fad71bc980e1f9155e488acf543cc5276beae185d612505ea3eaff929e4fe37f08560000135600f60008860000135815260200190815260200160002060009054906101000a900473ffffffffffffffffffffffffffffffffffffffff16600e60008960000135815260200190815260200160002054604051611e119392919061762d565b60405180910390a150505b5b5b505050565b600b6020528060005260406000206000915054906101000a900460ff1681565b611e54611e4e613e73565b82614444565b611e93576040517f08c379a0000000000000000000000000000000000000000000000000000000008152600401611e8a906174f2565b60405180910390fd5b611e9e8383836141e8565b505050565b600c600082815260200190815260200160002060009054906101000a900460ff16611f03576040517f08c379a0000000000000000000000000000000000000000000000000000000008152600401611efa90617492565b60405180910390fd5b60006010600083815260200190815260200160002060003373ffffffffffffffffffffffffffffffffffffffff1673ffffffffffffffffffffffffffffffffffffffff16815260200190815260200160002054905060008111611f9b576040517f08c379a0000000000000000000000000000000000000000000000000000000008152600401611f9290617572565b60405180910390fd5b60006010600084815260200190815260200160002060003373ffffffffffffffffffffffffffffffffffffffff1673ffffffffffffffffffffffffffffffffffffffff16815260200190815260200160002081905550600073ffffffffffffffffffffffffffffffffffffffff166011600084815260200190815260200160002060009054906101000a900473ffffffffffffffffffffffffffffffffffffffff1673ffffffffffffffffffffffffffffffffffffffff16146121245760006011600084815260200190815260200160002060009054906101000a900473ffffffffffffffffffffffffffffffffffffffff1690508073ffffffffffffffffffffffffffffffffffffffff1663a9059cbb33846040518363ffffffff1660e01b81526004016120cb929190616f8f565b602060405180830381600087803b1580156120e557600080fd5b505af11580156120f9573d6000803e3d6000fd5b505050506040513d601f19601f8201168201806040525081019061211d9190616331565b505061216c565b3373ffffffffffffffffffffffffffffffffffffffff166108fc829081150290604051600060405180830381858888f1935050505015801561216a573d6000803e3d6000fd5b505b3373ffffffffffffffffffffffffffffffffffffffff167f9da6493a92039daf47d1f2d7a782299c5994c6323eb1e972f69c432089ec52bf83836040516121b4929190617664565b60405180910390a25050565b60006121cb82613f34565b90508073ffffffffffffffffffffffffffffffffffffffff163373ffffffffffffffffffffffffffffffffffffffff16141561223c576040517f08c379a000000000000000000000000000000000000000000000000000000000815260040161223390617532565b60405180910390fd5b6012600084815260200190815260200160002060050160009054906101000a900473ffffffffffffffffffffffffffffffffffffffff1673ffffffffffffffffffffffffffffffffffffffff168173ffffffffffffffffffffffffffffffffffffffff16146122e0576040517f08c379a00000000000000000000000000000000000000000000000000000000081526004016122d790617552565b60405180910390fd5b816000013560126000858152602001908152602001600020600101541461233c576040517f08c379a000000000000000000000000000000000000000000000000000000000815260040161233390617112565b60405180910390fd5b806012600085815260200190815260200160002060040160006101000a81548173ffffffffffffffffffffffffffffffffffffffff021916908373ffffffffffffffffffffffffffffffffffffffff160217905550336012600085815260200190815260200160002060050160006101000a81548173ffffffffffffffffffffffffffffffffffffffff021916908373ffffffffffffffffffffffffffffffffffffffff160217905550612407813360126000878152602001908152602001600020600101546141e8565b61241682602001358433614522565b827f43fd502c2b3ccce9ab96e3398308b712eb7ff697a75a2afe87316bdf94af0efe8233856020013560405161244e93929190616f0c565b60405180910390a2505050565b6010602052816000526040600020602052806000526040600020600091509150505481565b61249b838383604051806020016040528060008152506136b0565b505050565b806124aa81612e00565b73ffffffffffffffffffffffffffffffffffffffff163373ffffffffffffffffffffffffffffffffffffffff16146124e157600080fd5b6124ea82614958565b5050565b600f6020528060005260406000206000915054906101000a900473ffffffffffffffffffffffffffffffffffffffff1681565b60008061252d85613f34565b90508073ffffffffffffffffffffffffffffffffffffffff163373ffffffffffffffffffffffffffffffffffffffff16141561259e576040517f08c379a000000000000000000000000000000000000000000000000000000000815260040161259590617532565b60405180910390fd5b6125a860076149ab565b60006125b460076149c1565b90506040518060e00160405280828152602001876000013581526020018681526020018373ffffffffffffffffffffffffffffffffffffffff1681526020018373ffffffffffffffffffffffffffffffffffffffff1681526020013373ffffffffffffffffffffffffffffffffffffffff1681526020018573ffffffffffffffffffffffffffffffffffffffff168152506012600083815260200190815260200160002060008201518160000155602082015181600101556040820151816002015560608201518160030160006101000a81548173ffffffffffffffffffffffffffffffffffffffff021916908373ffffffffffffffffffffffffffffffffffffffff16021790555060808201518160040160006101000a81548173ffffffffffffffffffffffffffffffffffffffff021916908373ffffffffffffffffffffffffffffffffffffffff16021790555060a08201518160050160006101000a81548173ffffffffffffffffffffffffffffffffffffffff021916908373ffffffffffffffffffffffffffffffffffffffff16021790555060c08201518160060160006101000a81548173ffffffffffffffffffffffffffffffffffffffff021916908373ffffffffffffffffffffffffffffffffffffffff1602179055509050506127a3828760000135613fa6565b61280386600001358780604001906127bb91906177a6565b8080601f016020809104026020016040519081016040528093929190818152602001838380828437600081840152601f19601f82011690508083019250505050505050614174565b612812823388600001356141e8565b612821866020013582336149cf565b8560000135817f707ba65071f3941b3650c9f76a3a53a37f79ffd8277eb654eae8b8a83eb4a02b88602001358886873360405161286295949392919061768d565b60405180910390a38560000135925050509392505050565b6000804690508091505090565b600b600083815260200190815260200160002060009054906101000a900460ff166128e7576040517f08c379a00000000000000000000000000000000000000000000000000000000081526004016128de906174d2565b60405180910390fd5b600d600083815260200190815260200160002054421061293c576040517f08c379a000000000000000000000000000000000000000000000000000000000815260040161293390617252565b60405180910390fd5b600a600083815260200190815260200160002060009054906101000a900473ffffffffffffffffffffffffffffffffffffffff1673ffffffffffffffffffffffffffffffffffffffff163373ffffffffffffffffffffffffffffffffffffffff1614156129de576040517f08c379a00000000000000000000000000000000000000000000000000000000081526004016129d5906171d2565b60405180910390fd5b60008073ffffffffffffffffffffffffffffffffffffffff166011600085815260200190815260200160002060009054906101000a900473ffffffffffffffffffffffffffffffffffffffff1673ffffffffffffffffffffffffffffffffffffffff161415612aff57346010600085815260200190815260200160002060003373ffffffffffffffffffffffffffffffffffffffff1673ffffffffffffffffffffffffffffffffffffffff16815260200190815260200160002054612aa391906178d2565b9050600e6000848152602001908152602001600020548111612afa576040517f08c379a0000000000000000000000000000000000000000000000000000000008152600401612af1906170f2565b60405180910390fd5b612cec565b60006011600085815260200190815260200160002060009054906101000a900473ffffffffffffffffffffffffffffffffffffffff16905060008173ffffffffffffffffffffffffffffffffffffffff1663dd62ed3e33306040518363ffffffff1660e01b8152600401612b74929190616ee3565b60206040518083038186803b158015612b8c57600080fd5b505afa158015612ba0573d6000803e3d6000fd5b505050506040513d601f19601f82011682018060405250810190612bc491906164e4565b905083811015612c09576040517f08c379a0000000000000000000000000000000000000000000000000000000008152600401612c00906175f2565b60405180910390fd5b836010600087815260200190815260200160002060003373ffffffffffffffffffffffffffffffffffffffff1673ffffffffffffffffffffffffffffffffffffffff16815260200190815260200160002054612c6591906178d2565b9250600e6000868152602001908152602001600020548311612cbc576040517f08c379a0000000000000000000000000000000000000000000000000000000008152600401612cb3906170f2565b60405180910390fd5b612ce93330868573ffffffffffffffffffffffffffffffffffffffff16614dbb909392919063ffffffff16565b50505b806010600085815260200190815260200160002060003373ffffffffffffffffffffffffffffffffffffffff1673ffffffffffffffffffffffffffffffffffffffff1681526020019081526020016000208190555080600e60008581526020019081526020016000208190555033600f600085815260200190815260200160002060006101000a81548173ffffffffffffffffffffffffffffffffffffffff021916908373ffffffffffffffffffffffffffffffffffffffff1602179055503373ffffffffffffffffffffffffffffffffffffffff167fdcd726e11f8b5e160f00290f0fe3a1abb547474e53a8e7a8f49a85e7b1ca31998483604051612df3929190617664565b60405180910390a2505050565b6000806002600084815260200190815260200160002060009054906101000a900473ffffffffffffffffffffffffffffffffffffffff169050600073ffffffffffffffffffffffffffffffffffffffff168173ffffffffffffffffffffffffffffffffffffffff161415612ea9576040517f08c379a0000000000000000000000000000000000000000000000000000000008152600401612ea090617352565b60405180910390fd5b80915050919050565b60095481565b600b600085815260200190815260200160002060009054906101000a900460ff1615612f19576040517f08c379a0000000000000000000000000000000000000000000000000000000008152600401612f10906171f2565b60405180910390fd5b33600a600086815260200190815260200160002060006101000a81548173ffffffffffffffffffffffffffffffffffffffff021916908373ffffffffffffffffffffffffffffffffffffffff16021790555082600e6000868152602001908152602001600020819055506001600b600086815260200190815260200160002060006101000a81548160ff0219169083151502179055506201518082612fbe9190617959565b42612fc991906178d2565b600d600086815260200190815260200160002081905550806011600086815260200190815260200160002060006101000a81548173ffffffffffffffffffffffffffffffffffffffff021916908373ffffffffffffffffffffffffffffffffffffffff1602179055507ff06a29c94c6f4edc1085072972d9441f7603e81c8535a308f214285d0653c850846040516130619190617612565b60405180910390a150505050565b60008073ffffffffffffffffffffffffffffffffffffffff168273ffffffffffffffffffffffffffffffffffffffff1614156130e0576040517f08c379a00000000000000000000000000000000000000000000000000000000081526004016130d790617332565b60405180910390fd5b600360008373ffffffffffffffffffffffffffffffffffffffff1673ffffffffffffffffffffffffffffffffffffffff168152602001908152602001600020549050919050565b600d6020528060005260406000206000915090505481565b600c6020528060005260406000206000915054906101000a900460ff1681565b60008061316b84613f34565b90508073ffffffffffffffffffffffffffffffffffffffff163373ffffffffffffffffffffffffffffffffffffffff1614156131dc576040517f08c379a00000000000000000000000000000000000000000000000000000000081526004016131d390617532565b60405180910390fd5b8360200135341015613223576040517f08c379a000000000000000000000000000000000000000000000000000000000815260040161321a906175d2565b60405180910390fd5b61322d60076149ab565b600061323960076149c1565b90506040518060e00160405280828152602001866000013581526020018581526020018373ffffffffffffffffffffffffffffffffffffffff1681526020018373ffffffffffffffffffffffffffffffffffffffff1681526020013373ffffffffffffffffffffffffffffffffffffffff168152602001600073ffffffffffffffffffffffffffffffffffffffff168152506012600083815260200190815260200160002060008201518160000155602082015181600101556040820151816002015560608201518160030160006101000a81548173ffffffffffffffffffffffffffffffffffffffff021916908373ffffffffffffffffffffffffffffffffffffffff16021790555060808201518160040160006101000a81548173ffffffffffffffffffffffffffffffffffffffff021916908373ffffffffffffffffffffffffffffffffffffffff16021790555060a08201518160050160006101000a81548173ffffffffffffffffffffffffffffffffffffffff021916908373ffffffffffffffffffffffffffffffffffffffff16021790555060c08201518160060160006101000a81548173ffffffffffffffffffffffffffffffffffffffff021916908373ffffffffffffffffffffffffffffffffffffffff160217905550905050613429828660000135613fa6565b613489856000013586806040019061344191906177a6565b8080601f016020809104026020016040519081016040528093929190818152602001838380828437600081840152601f19601f82011690508083019250505050505050614174565b613498823387600001356141e8565b6134a33482336149cf565b8460000135817f707ba65071f3941b3650c9f76a3a53a37f79ffd8277eb654eae8b8a83eb4a02b8760200135878687336040516134e495949392919061768d565b60405180910390a384600001359250505092915050565b60606001805461350a90617b32565b80601f016020809104026020016040519081016040528092919081815260200182805461353690617b32565b80156135835780601f1061355857610100808354040283529160200191613583565b820191906000526020600020905b81548152906001019060200180831161356657829003601f168201915b5050505050905090565b60126020528060005260406000206000915090508060000154908060010154908060020154908060030160009054906101000a900473ffffffffffffffffffffffffffffffffffffffff16908060040160009054906101000a900473ffffffffffffffffffffffffffffffffffffffff16908060050160009054906101000a900473ffffffffffffffffffffffffffffffffffffffff16908060060160009054906101000a900473ffffffffffffffffffffffffffffffffffffffff16905087565b61366161365a613e73565b8383614e44565b5050565b600a6020528060005260406000206000915054906101000a900473ffffffffffffffffffffffffffffffffffffffff1681565b600e6020528060005260406000206000915090505481565b6136c16136bb613e73565b83614444565b613700576040517f08c379a00000000000000000000000000000000000000000000000000000000081526004016136f7906174f2565b60405180910390fd5b61370c84848484614fb1565b50505050565b606061371d82613e07565b61375c576040517f08c379a000000000000000000000000000000000000000000000000000000000815260040161375390617412565b60405180910390fd5b600060066000848152602001908152602001600020805461377c90617b32565b80601f01602080910402602001604051908101604052809291908181526020018280546137a890617b32565b80156137f55780601f106137ca576101008083540402835291602001916137f5565b820191906000526020600020905b8154815290600101906020018083116137d857829003601f168201915b50505050509050600061380661500d565b905060008151141561381c57819250505061385f565b600082511115613851578082604051602001613839929190616e29565b6040516020818303038152906040529250505061385f565b61385a84615024565b925050505b919050565b600061386f82613f34565b90508073ffffffffffffffffffffffffffffffffffffffff163373ffffffffffffffffffffffffffffffffffffffff1614156138e0576040517f08c379a00000000000000000000000000000000000000000000000000000000081526004016138d790617532565b60405180910390fd5b6012600084815260200190815260200160002060050160009054906101000a900473ffffffffffffffffffffffffffffffffffffffff1673ffffffffffffffffffffffffffffffffffffffff168173ffffffffffffffffffffffffffffffffffffffff1614613984576040517f08c379a000000000000000000000000000000000000000000000000000000000815260040161397b90617552565b60405180910390fd5b81600001356012600085815260200190815260200160002060010154146139e0576040517f08c379a00000000000000000000000000000000000000000000000000000000081526004016139d790617112565b60405180910390fd5b8160200135341015613a27576040517f08c379a0000000000000000000000000000000000000000000000000000000008152600401613a1e906175d2565b60405180910390fd5b806012600085815260200190815260200160002060040160006101000a81548173ffffffffffffffffffffffffffffffffffffffff021916908373ffffffffffffffffffffffffffffffffffffffff160217905550336012600085815260200190815260200160002060050160006101000a81548173ffffffffffffffffffffffffffffffffffffffff021916908373ffffffffffffffffffffffffffffffffffffffff160217905550613af2813360126000878152602001908152602001600020600101546141e8565b613afd348433614522565b827f43fd502c2b3ccce9ab96e3398308b712eb7ff697a75a2afe87316bdf94af0efe82338560200135604051613b3593929190616f0c565b60405180910390a2505050565b600860009054906101000a900473ffffffffffffffffffffffffffffffffffffffff1673ffffffffffffffffffffffffffffffffffffffff163373ffffffffffffffffffffffffffffffffffffffff1614613bd2576040517f08c379a0000000000000000000000000000000000000000000000000000000008152600401613bc9906172f2565b60405180910390fd5b80600860006101000a81548173ffffffffffffffffffffffffffffffffffffffff021916908373ffffffffffffffffffffffffffffffffffffffff16021790555050565b6000600560008473ffffffffffffffffffffffffffffffffffffffff1673ffffffffffffffffffffffffffffffffffffffff16815260200190815260200160002060008373ffffffffffffffffffffffffffffffffffffffff1673ffffffffffffffffffffffffffffffffffffffff16815260200190815260200160002060009054906101000a900460ff16905092915050565b60116020528060005260406000206000915054906101000a900473ffffffffffffffffffffffffffffffffffffffff1681565b600860009054906101000a900473ffffffffffffffffffffffffffffffffffffffff1681565b600860009054906101000a900473ffffffffffffffffffffffffffffffffffffffff1673ffffffffffffffffffffffffffffffffffffffff163373ffffffffffffffffffffffffffffffffffffffff1614613d93576040517f08c379a0000000000000000000000000000000000000000000000000000000008152600401613d8a906172f2565b60405180910390fd5b8060098190555050565b60007f01ffc9a7000000000000000000000000000000000000000000000000000000007bffffffffffffffffffffffffffffffffffffffffffffffffffffffff1916827bffffffffffffffffffffffffffffffffffffffffffffffffffffffff1916149050919050565b60008073ffffffffffffffffffffffffffffffffffffffff166002600084815260200190815260200160002060009054906101000a900473ffffffffffffffffffffffffffffffffffffffff1673ffffffffffffffffffffffffffffffffffffffff1614159050919050565b600033905090565b816004600083815260200190815260200160002060006101000a81548173ffffffffffffffffffffffffffffffffffffffff021916908373ffffffffffffffffffffffffffffffffffffffff160217905550808273ffffffffffffffffffffffffffffffffffffffff16613eee83612e00565b73ffffffffffffffffffffffffffffffffffffffff167f8c5be1e5ebec7d5bd14f71427d1e84f3dd0314c0f7b2291e5b200ac8c7c3b92560405160405180910390a45050565b600080613f40836150cb565b9050613f9e81848060600190613f56919061774f565b8080601f016020809104026020016040519081016040528093929190818152602001838380828437600081840152601f19601f82011690508083019250505050505050615156565b915050919050565b600073ffffffffffffffffffffffffffffffffffffffff168273ffffffffffffffffffffffffffffffffffffffff161415614016576040517f08c379a000000000000000000000000000000000000000000000000000000000815260040161400d906173f2565b60405180910390fd5b61401f81613e07565b1561405f576040517f08c379a000000000000000000000000000000000000000000000000000000000815260040161405690617192565b60405180910390fd5b61406b6000838361517d565b6001600360008473ffffffffffffffffffffffffffffffffffffffff1673ffffffffffffffffffffffffffffffffffffffff16815260200190815260200160002060008282546140bb91906178d2565b92505081905550816002600083815260200190815260200160002060006101000a81548173ffffffffffffffffffffffffffffffffffffffff021916908373ffffffffffffffffffffffffffffffffffffffff160217905550808273ffffffffffffffffffffffffffffffffffffffff16600073ffffffffffffffffffffffffffffffffffffffff167fddf252ad1be2c89b69c2b068fc378daa952ba7f163c4a11628f55a4df523b3ef60405160405180910390a45050565b61417d82613e07565b6141bc576040517f08c379a00000000000000000000000000000000000000000000000000000000081526004016141b390617392565b60405180910390fd5b806006600084815260200190815260200160002090805190602001906141e3929190615f14565b505050565b8273ffffffffffffffffffffffffffffffffffffffff1661420882612e00565b73ffffffffffffffffffffffffffffffffffffffff161461425e576040517f08c379a000000000000000000000000000000000000000000000000000000000815260040161425590617452565b60405180910390fd5b600073ffffffffffffffffffffffffffffffffffffffff168273ffffffffffffffffffffffffffffffffffffffff1614156142ce576040517f08c379a00000000000000000000000000000000000000000000000000000000081526004016142c590617212565b60405180910390fd5b6142d983838361517d565b6142e4600082613e7b565b6001600360008573ffffffffffffffffffffffffffffffffffffffff1673ffffffffffffffffffffffffffffffffffffffff168152602001908152602001600020600082825461433491906179b3565b925050819055506001600360008473ffffffffffffffffffffffffffffffffffffffff1673ffffffffffffffffffffffffffffffffffffffff168152602001908152602001600020600082825461438b91906178d2565b92505081905550816002600083815260200190815260200160002060006101000a81548173ffffffffffffffffffffffffffffffffffffffff021916908373ffffffffffffffffffffffffffffffffffffffff160217905550808273ffffffffffffffffffffffffffffffffffffffff168473ffffffffffffffffffffffffffffffffffffffff167fddf252ad1be2c89b69c2b068fc378daa952ba7f163c4a11628f55a4df523b3ef60405160405180910390a4505050565b600061444f82613e07565b61448e576040517f08c379a0000000000000000000000000000000000000000000000000000000008152600401614485906172d2565b60405180910390fd5b600061449983612e00565b90508073ffffffffffffffffffffffffffffffffffffffff168473ffffffffffffffffffffffffffffffffffffffff16148061450857508373ffffffffffffffffffffffffffffffffffffffff166144f084610a96565b73ffffffffffffffffffffffffffffffffffffffff16145b8061451957506145188185613c16565b5b91505092915050565b600060648460126000868152602001908152602001600020600201546145489190617959565b6145529190617928565b905060006064856012600087815260200190815260200160002060020154606461457c91906179b3565b6145869190617959565b6145909190617928565b9050600073ffffffffffffffffffffffffffffffffffffffff166012600086815260200190815260200160002060060160009054906101000a900473ffffffffffffffffffffffffffffffffffffffff1673ffffffffffffffffffffffffffffffffffffffff1614156146fc576012600085815260200190815260200160002060030160009054906101000a900473ffffffffffffffffffffffffffffffffffffffff1673ffffffffffffffffffffffffffffffffffffffff166108fc839081150290604051600060405180830381858888f19350505050158015614679573d6000803e3d6000fd5b506012600085815260200190815260200160002060040160009054906101000a900473ffffffffffffffffffffffffffffffffffffffff1673ffffffffffffffffffffffffffffffffffffffff166108fc829081150290604051600060405180830381858888f193505050501580156146f6573d6000803e3d6000fd5b50614951565b60006012600086815260200190815260200160002060060160009054906101000a900473ffffffffffffffffffffffffffffffffffffffff1690508073ffffffffffffffffffffffffffffffffffffffff166323b872dd8530896040518463ffffffff1660e01b815260040161477493929190616f0c565b602060405180830381600087803b15801561478e57600080fd5b505af11580156147a2573d6000803e3d6000fd5b505050506040513d601f19601f820116820180604052508101906147c69190616331565b508073ffffffffffffffffffffffffffffffffffffffff1663a9059cbb6012600088815260200190815260200160002060030160009054906101000a900473ffffffffffffffffffffffffffffffffffffffff16856040518363ffffffff1660e01b8152600401614838929190616eba565b602060405180830381600087803b15801561485257600080fd5b505af1158015614866573d6000803e3d6000fd5b505050506040513d601f19601f8201168201806040525081019061488a9190616331565b508073ffffffffffffffffffffffffffffffffffffffff1663a9059cbb6012600088815260200190815260200160002060040160009054906101000a900473ffffffffffffffffffffffffffffffffffffffff16846040518363ffffffff1660e01b81526004016148fc929190616eba565b602060405180830381600087803b15801561491657600080fd5b505af115801561492a573d6000803e3d6000fd5b505050506040513d601f19601f8201168201806040525081019061494e9190616331565b50505b5050505050565b61496181615182565b600060066000838152602001908152602001600020805461498190617b32565b9050146149a8576006600082815260200190815260200160002060006149a79190615f9a565b5b50565b6001816000016000828254019250508190555050565b600081600001549050919050565b600083905060006064826009546149e69190617959565b6149f09190617928565b905060006064836009546064614a0691906179b3565b614a109190617959565b614a1a9190617928565b9050600073ffffffffffffffffffffffffffffffffffffffff166012600087815260200190815260200160002060060160009054906101000a900473ffffffffffffffffffffffffffffffffffffffff1673ffffffffffffffffffffffffffffffffffffffff161415614b7257600860009054906101000a900473ffffffffffffffffffffffffffffffffffffffff1673ffffffffffffffffffffffffffffffffffffffff166108fc839081150290604051600060405180830381858888f19350505050158015614aef573d6000803e3d6000fd5b506012600086815260200190815260200160002060040160009054906101000a900473ffffffffffffffffffffffffffffffffffffffff1673ffffffffffffffffffffffffffffffffffffffff166108fc829081150290604051600060405180830381858888f19350505050158015614b6c573d6000803e3d6000fd5b50614db3565b60006012600087815260200190815260200160002060060160009054906101000a900473ffffffffffffffffffffffffffffffffffffffff1690508073ffffffffffffffffffffffffffffffffffffffff166323b872dd8630876040518463ffffffff1660e01b8152600401614bea93929190616f0c565b602060405180830381600087803b158015614c0457600080fd5b505af1158015614c18573d6000803e3d6000fd5b505050506040513d601f19601f82011682018060405250810190614c3c9190616331565b508073ffffffffffffffffffffffffffffffffffffffff1663a9059cbb600860009054906101000a900473ffffffffffffffffffffffffffffffffffffffff16856040518363ffffffff1660e01b8152600401614c9a929190616eba565b602060405180830381600087803b158015614cb457600080fd5b505af1158015614cc8573d6000803e3d6000fd5b505050506040513d601f19601f82011682018060405250810190614cec9190616331565b508073ffffffffffffffffffffffffffffffffffffffff1663a9059cbb6012600089815260200190815260200160002060040160009054906101000a900473ffffffffffffffffffffffffffffffffffffffff16846040518363ffffffff1660e01b8152600401614d5e929190616eba565b602060405180830381600087803b158015614d7857600080fd5b505af1158015614d8c573d6000803e3d6000fd5b505050506040513d601f19601f82011682018060405250810190614db09190616331565b50505b505050505050565b614e3e846323b872dd60e01b858585604051602401614ddc93929190616f0c565b604051602081830303815290604052907bffffffffffffffffffffffffffffffffffffffffffffffffffffffff19166020820180517bffffffffffffffffffffffffffffffffffffffffffffffffffffffff8381831617835250505050615293565b50505050565b8173ffffffffffffffffffffffffffffffffffffffff168373ffffffffffffffffffffffffffffffffffffffff161415614eb3576040517f08c379a0000000000000000000000000000000000000000000000000000000008152600401614eaa90617232565b60405180910390fd5b80600560008573ffffffffffffffffffffffffffffffffffffffff1673ffffffffffffffffffffffffffffffffffffffff16815260200190815260200160002060008473ffffffffffffffffffffffffffffffffffffffff1673ffffffffffffffffffffffffffffffffffffffff16815260200190815260200160002060006101000a81548160ff0219169083151502179055508173ffffffffffffffffffffffffffffffffffffffff168373ffffffffffffffffffffffffffffffffffffffff167f17307eab39ab6107e8899845ad3d59bd9653f200f220920489ca2b5937696c3183604051614fa49190616fb8565b60405180910390a3505050565b614fbc8484846141e8565b614fc88484848461535a565b615007576040517f08c379a0000000000000000000000000000000000000000000000000000000008152600401614ffe90617172565b60405180910390fd5b50505050565b606060405180602001604052806000815250905090565b606061502f82613e07565b61506e576040517f08c379a000000000000000000000000000000000000000000000000000000000815260040161506590617472565b60405180910390fd5b600061507861500d565b9050600081511161509857604051806020016040528060008152506150c3565b806150a2846154f1565b6040516020016150b3929190616e29565b6040516020818303038152906040525b915050919050565b600061514f7f6316f9ddd4d59a364f3b95c26bab9d392c3380ace0fff15e91ed76f0d8bcd15a8360000135846020013585806040019061510b91906177a6565b604051615119929190616df9565b60405180910390206040516020016151349493929190617026565b6040516020818303038152906040528051906020012061569e565b9050919050565b600080600061516585856156b8565b915091506151728161573b565b819250505092915050565b505050565b600061518d82612e00565b905061519b8160008461517d565b6151a6600083613e7b565b6001600360008373ffffffffffffffffffffffffffffffffffffffff1673ffffffffffffffffffffffffffffffffffffffff16815260200190815260200160002060008282546151f691906179b3565b925050819055506002600083815260200190815260200160002060006101000a81549073ffffffffffffffffffffffffffffffffffffffff021916905581600073ffffffffffffffffffffffffffffffffffffffff168273ffffffffffffffffffffffffffffffffffffffff167fddf252ad1be2c89b69c2b068fc378daa952ba7f163c4a11628f55a4df523b3ef60405160405180910390a45050565b60006152f5826040518060400160405280602081526020017f5361666545524332303a206c6f772d6c6576656c2063616c6c206661696c65648152508573ffffffffffffffffffffffffffffffffffffffff16615a8c9092919063ffffffff16565b905060008151111561535557808060200190518101906153159190616331565b615354576040517f08c379a000000000000000000000000000000000000000000000000000000000815260040161534b90617592565b60405180910390fd5b5b505050565b600061537b8473ffffffffffffffffffffffffffffffffffffffff16615aa4565b156154e4578373ffffffffffffffffffffffffffffffffffffffff1663150b7a026153a4613e73565b8786866040518563ffffffff1660e01b81526004016153c69493929190616f43565b602060405180830381600087803b1580156153e057600080fd5b505af192505050801561541157506040513d601f19601f8201168201806040525081019061540e9190616383565b60015b615494573d8060008114615441576040519150601f19603f3d011682016040523d82523d6000602084013e615446565b606091505b5060008151141561548c576040517f08c379a000000000000000000000000000000000000000000000000000000000815260040161548390617172565b60405180910390fd5b805181602001fd5b63150b7a0260e01b7bffffffffffffffffffffffffffffffffffffffffffffffffffffffff1916817bffffffffffffffffffffffffffffffffffffffffffffffffffffffff1916149150506154e9565b600190505b949350505050565b60606000821415615539576040518060400160405280600181526020017f30000000000000000000000000000000000000000000000000000000000000008152509050615699565b600082905060005b6000821461556b57808061555490617b95565b915050600a826155649190617928565b9150615541565b60008167ffffffffffffffff8111156155ad577f4e487b7100000000000000000000000000000000000000000000000000000000600052604160045260246000fd5b6040519080825280601f01601f1916602001820160405280156155df5781602001600182028036833780820191505090505b5090505b60008514615692576001826155f891906179b3565b9150600a856156079190617be8565b603061561391906178d2565b60f81b81838151811061564f577f4e487b7100000000000000000000000000000000000000000000000000000000600052603260045260246000fd5b60200101907effffffffffffffffffffffffffffffffffffffffffffffffffffffffffffff1916908160001a905350600a8561568b9190617928565b94506155e3565b8093505050505b919050565b60006156b16156ab615ab7565b83615bd1565b9050919050565b6000806041835114156156fa5760008060006020860151925060408601519150606086015160001a90506156ee87828585615c04565b94509450505050615734565b60408351141561572b576000806020850151915060408501519050615720868383615d11565b935093505050615734565b60006002915091505b9250929050565b60006004811115615775577f4e487b7100000000000000000000000000000000000000000000000000000000600052602160045260246000fd5b8160048111156157ae577f4e487b7100000000000000000000000000000000000000000000000000000000600052602160045260246000fd5b14156157b957615a89565b600160048111156157f3577f4e487b7100000000000000000000000000000000000000000000000000000000600052602160045260246000fd5b81600481111561582c577f4e487b7100000000000000000000000000000000000000000000000000000000600052602160045260246000fd5b141561586d576040517f08c379a0000000000000000000000000000000000000000000000000000000008152600401615864906170d2565b60405180910390fd5b600260048111156158a7577f4e487b7100000000000000000000000000000000000000000000000000000000600052602160045260246000fd5b8160048111156158e0577f4e487b7100000000000000000000000000000000000000000000000000000000600052602160045260246000fd5b1415615921576040517f08c379a000000000000000000000000000000000000000000000000000000000815260040161591890617132565b60405180910390fd5b6003600481111561595b577f4e487b7100000000000000000000000000000000000000000000000000000000600052602160045260246000fd5b816004811115615994577f4e487b7100000000000000000000000000000000000000000000000000000000600052602160045260246000fd5b14156159d5576040517f08c379a00000000000000000000000000000000000000000000000000000000081526004016159cc90617292565b60405180910390fd5b600480811115615a0e577f4e487b7100000000000000000000000000000000000000000000000000000000600052602160045260246000fd5b816004811115615a47577f4e487b7100000000000000000000000000000000000000000000000000000000600052602160045260246000fd5b1415615a88576040517f08c379a0000000000000000000000000000000000000000000000000000000008152600401615a7f906173d2565b60405180910390fd5b5b50565b6060615a9b8484600085615d5f565b90509392505050565b600080823b905060008111915050919050565b60007f000000000000000000000000000000000000000000000000000000000000000073ffffffffffffffffffffffffffffffffffffffff163073ffffffffffffffffffffffffffffffffffffffff16148015615b3357507f000000000000000000000000000000000000000000000000000000000000000046145b15615b60577f00000000000000000000000000000000000000000000000000000000000000009050615bce565b615bcb7f00000000000000000000000000000000000000000000000000000000000000007f00000000000000000000000000000000000000000000000000000000000000007f0000000000000000000000000000000000000000000000000000000000000000615e73565b90505b90565b60008282604051602001615be6929190616e4d565b60405160208183030381529060405280519060200120905092915050565b6000807f7fffffffffffffffffffffffffffffff5d576e7357a4501ddfe92f46681b20a08360001c1115615c3f576000600391509150615d08565b601b8560ff1614158015615c575750601c8560ff1614155b15615c69576000600491509150615d08565b600060018787878760405160008152602001604052604051615c8e949392919061706b565b6020604051602081039080840390855afa158015615cb0573d6000803e3d6000fd5b505050602060405103519050600073ffffffffffffffffffffffffffffffffffffffff168173ffffffffffffffffffffffffffffffffffffffff161415615cff57600060019250925050615d08565b80600092509250505b94509492505050565b6000806000807f7fffffffffffffffffffffffffffffffffffffffffffffffffffffffffffffff85169150601b8560ff1c019050615d5187828885615c04565b935093505050935093915050565b606082471015615da4576040517f08c379a0000000000000000000000000000000000000000000000000000000008152600401615d9b906172b2565b60405180910390fd5b615dad85615aa4565b615dec576040517f08c379a0000000000000000000000000000000000000000000000000000000008152600401615de390617512565b60405180910390fd5b6000808673ffffffffffffffffffffffffffffffffffffffff168587604051615e159190616e12565b60006040518083038185875af1925050503d8060008114615e52576040519150601f19603f3d011682016040523d82523d6000602084013e615e57565b606091505b5091509150615e67828286615ead565b92505050949350505050565b60008383834630604051602001615e8e959493929190616fd3565b6040516020818303038152906040528051906020012090509392505050565b60608315615ebd57829050615f0d565b600083511115615ed05782518084602001fd5b816040517f08c379a0000000000000000000000000000000000000000000000000000000008152600401615f0491906170b0565b60405180910390fd5b9392505050565b828054615f2090617b32565b90600052602060002090601f016020900481019282615f425760008555615f89565b82601f10615f5b57805160ff1916838001178555615f89565b82800160010185558215615f89579182015b82811115615f88578251825591602001919060010190615f6d565b5b509050615f969190615fda565b5090565b508054615fa690617b32565b6000825580601f10615fb85750615fd7565b601f016020900490600052602060002090810190615fd69190615fda565b5b50565b5b80821115615ff3576000816000905550600101615fdb565b5090565b600061600a61600584617822565b6177fd565b90508281526020810184848401111561602257600080fd5b61602d848285617af0565b509392505050565b600061604861604384617853565b6177fd565b90508281526020810184848401111561606057600080fd5b61606b848285617af0565b509392505050565b60008135905061608281618733565b92915050565b6000813590506160978161874a565b92915050565b6000815190506160ac8161874a565b92915050565b6000813590506160c181618761565b92915050565b6000815190506160d681618761565b92915050565b600082601f8301126160ed57600080fd5b81356160fd848260208601615ff7565b91505092915050565b60008135905061611581618778565b92915050565b600082601f83011261612c57600080fd5b813561613c848260208601616035565b91505092915050565b60006080828403121561615757600080fd5b81905092915050565b60008135905061616f8161878f565b92915050565b6000815190506161848161878f565b92915050565b60006020828403121561619c57600080fd5b60006161aa84828501616073565b91505092915050565b600080604083850312156161c657600080fd5b60006161d485828601616073565b92505060206161e585828601616073565b9150509250929050565b60008060006060848603121561620457600080fd5b600061621286828701616073565b935050602061622386828701616073565b925050604061623486828701616160565b9150509250925092565b6000806000806080858703121561625457600080fd5b600061626287828801616073565b945050602061627387828801616073565b935050604061628487828801616160565b925050606085013567ffffffffffffffff8111156162a157600080fd5b6162ad878288016160dc565b91505092959194509250565b600080604083850312156162cc57600080fd5b60006162da85828601616073565b92505060206162eb85828601616088565b9150509250929050565b6000806040838503121561630857600080fd5b600061631685828601616073565b925050602061632785828601616160565b9150509250929050565b60006020828403121561634357600080fd5b60006163518482850161609d565b91505092915050565b60006020828403121561636c57600080fd5b600061637a848285016160b2565b91505092915050565b60006020828403121561639557600080fd5b60006163a3848285016160c7565b91505092915050565b600080604083850312156163bf57600080fd5b600083013567ffffffffffffffff8111156163d957600080fd5b6163e585828601616145565b92505060206163f685828601616073565b9150509250929050565b6000806040838503121561641357600080fd5b600083013567ffffffffffffffff81111561642d57600080fd5b61643985828601616145565b925050602061644a85828601616160565b9150509250929050565b60008060006060848603121561646957600080fd5b600084013567ffffffffffffffff81111561648357600080fd5b61648f86828701616145565b93505060206164a086828701616160565b92505060406164b186828701616106565b9150509250925092565b6000602082840312156164cd57600080fd5b60006164db84828501616160565b91505092915050565b6000602082840312156164f657600080fd5b600061650484828501616175565b91505092915050565b6000806040838503121561652057600080fd5b600061652e85828601616160565b925050602061653f85828601616073565b9150509250929050565b6000806040838503121561655c57600080fd5b600061656a85828601616160565b925050602083013567ffffffffffffffff81111561658757600080fd5b6165938582860161611b565b9150509250929050565b600080604083850312156165b057600080fd5b60006165be85828601616160565b925050602083013567ffffffffffffffff8111156165db57600080fd5b6165e785828601616145565b9150509250929050565b6000806040838503121561660457600080fd5b600061661285828601616160565b925050602061662385828601616160565b9150509250929050565b6000806000806080858703121561664357600080fd5b600061665187828801616160565b945050602061666287828801616160565b935050604061667387828801616160565b925050606061668487828801616073565b91505092959194509250565b61669981617a96565b82525050565b6166a8816179f9565b82525050565b6166b7816179e7565b82525050565b6166c681617a0b565b82525050565b6166d581617a17565b82525050565b6166ec6166e782617a17565b617bde565b82525050565b60006166fe83856178ab565b935061670b838584617af0565b82840190509392505050565b600061672282617884565b61672c818561789a565b935061673c818560208601617aff565b61674581617cd5565b840191505092915050565b600061675b82617884565b61676581856178ab565b9350616775818560208601617aff565b80840191505092915050565b61678a81617aa8565b82525050565b600061679b8261788f565b6167a581856178b6565b93506167b5818560208601617aff565b6167be81617cd5565b840191505092915050565b60006167d48261788f565b6167de81856178c7565b93506167ee818560208601617aff565b80840191505092915050565b60006168076018836178b6565b915061681282617ce6565b602082019050919050565b600061682a6027836178b6565b915061683582617d0f565b604082019050919050565b600061684d603b836178b6565b915061685882617d5e565b604082019050919050565b6000616870601f836178b6565b915061687b82617dad565b602082019050919050565b60006168936010836178b6565b915061689e82617dd6565b602082019050919050565b60006168b66032836178b6565b91506168c182617dff565b604082019050919050565b60006168d9601c836178b6565b91506168e482617e4e565b602082019050919050565b60006168fc6019836178b6565b915061690782617e77565b602082019050919050565b600061691f6002836178c7565b915061692a82617ea0565b600282019050919050565b6000616942602d836178b6565b915061694d82617ec9565b604082019050919050565b60006169656010836178b6565b915061697082617f18565b602082019050919050565b60006169886024836178b6565b915061699382617f41565b604082019050919050565b60006169ab6019836178b6565b91506169b682617f90565b602082019050919050565b60006169ce6006836178b6565b91506169d982617fb9565b602082019050919050565b60006169f16011836178b6565b91506169fc82617fe2565b602082019050919050565b6000616a146022836178b6565b9150616a1f8261800b565b604082019050919050565b6000616a376026836178b6565b9150616a428261805a565b604082019050919050565b6000616a5a602c836178b6565b9150616a65826180a9565b604082019050919050565b6000616a7d601a836178b6565b9150616a88826180f8565b602082019050919050565b6000616aa06038836178b6565b9150616aab82618121565b604082019050919050565b6000616ac3602a836178b6565b9150616ace82618170565b604082019050919050565b6000616ae66029836178b6565b9150616af1826181bf565b604082019050919050565b6000616b096022836178b6565b9150616b148261820e565b604082019050919050565b6000616b2c602e836178b6565b9150616b378261825d565b604082019050919050565b6000616b4f6018836178b6565b9150616b5a826182ac565b602082019050919050565b6000616b726022836178b6565b9150616b7d826182d5565b604082019050919050565b6000616b956020836178b6565b9150616ba082618324565b602082019050919050565b6000616bb86031836178b6565b9150616bc38261834d565b604082019050919050565b6000616bdb602c836178b6565b9150616be68261839c565b604082019050919050565b6000616bfe6029836178b6565b9150616c09826183eb565b604082019050919050565b6000616c21602f836178b6565b9150616c2c8261843a565b604082019050919050565b6000616c446016836178b6565b9150616c4f82618489565b602082019050919050565b6000616c676021836178b6565b9150616c72826184b2565b604082019050919050565b6000616c8a600c836178b6565b9150616c9582618501565b602082019050919050565b6000616cad6031836178b6565b9150616cb88261852a565b604082019050919050565b6000616cd0601d836178b6565b9150616cdb82618579565b602082019050919050565b6000616cf36022836178b6565b9150616cfe826185a2565b604082019050919050565b6000616d16601f836178b6565b9150616d21826185f1565b602082019050919050565b6000616d39600c836178b6565b9150616d448261861a565b602082019050919050565b6000616d5c602a836178b6565b9150616d6782618643565b604082019050919050565b6000616d7f6016836178b6565b9150616d8a82618692565b602082019050919050565b6000616da2602d836178b6565b9150616dad826186bb565b604082019050919050565b6000616dc56017836178b6565b9150616dd08261870a565b602082019050919050565b616de481617a7f565b82525050565b616df381617a89565b82525050565b6000616e068284866166f2565b91508190509392505050565b6000616e1e8284616750565b915081905092915050565b6000616e3582856167c9565b9150616e4182846167c9565b91508190509392505050565b6000616e5882616912565b9150616e6482856166db565b602082019150616e7482846166db565b6020820191508190509392505050565b6000602082019050616e9960008301846166ae565b92915050565b6000602082019050616eb4600083018461669f565b92915050565b6000604082019050616ecf6000830185616690565b616edc6020830184616ddb565b9392505050565b6000604082019050616ef860008301856166ae565b616f0560208301846166ae565b9392505050565b6000606082019050616f2160008301866166ae565b616f2e60208301856166ae565b616f3b6040830184616ddb565b949350505050565b6000608082019050616f5860008301876166ae565b616f6560208301866166ae565b616f726040830185616ddb565b8181036060830152616f848184616717565b905095945050505050565b6000604082019050616fa460008301856166ae565b616fb16020830184616ddb565b9392505050565b6000602082019050616fcd60008301846166bd565b92915050565b600060a082019050616fe860008301886166cc565b616ff560208301876166cc565b61700260408301866166cc565b61700f6060830185616ddb565b61701c60808301846166ae565b9695505050505050565b600060808201905061703b60008301876166cc565b6170486020830186616ddb565b6170556040830185616ddb565b61706260608301846166cc565b95945050505050565b600060808201905061708060008301876166cc565b61708d6020830186616dea565b61709a60408301856166cc565b6170a760608301846166cc565b95945050505050565b600060208201905081810360008301526170ca8184616790565b905092915050565b600060208201905081810360008301526170eb816167fa565b9050919050565b6000602082019050818103600083015261710b8161681d565b9050919050565b6000602082019050818103600083015261712b81616840565b9050919050565b6000602082019050818103600083015261714b81616863565b9050919050565b6000602082019050818103600083015261716b81616886565b9050919050565b6000602082019050818103600083015261718b816168a9565b9050919050565b600060208201905081810360008301526171ab816168cc565b9050919050565b600060208201905081810360008301526171cb816168ef565b9050919050565b600060208201905081810360008301526171eb81616935565b9050919050565b6000602082019050818103600083015261720b81616958565b9050919050565b6000602082019050818103600083015261722b8161697b565b9050919050565b6000602082019050818103600083015261724b8161699e565b9050919050565b6000602082019050818103600083015261726b816169c1565b9050919050565b6000602082019050818103600083015261728b816169e4565b9050919050565b600060208201905081810360008301526172ab81616a07565b9050919050565b600060208201905081810360008301526172cb81616a2a565b9050919050565b600060208201905081810360008301526172eb81616a4d565b9050919050565b6000602082019050818103600083015261730b81616a70565b9050919050565b6000602082019050818103600083015261732b81616a93565b9050919050565b6000602082019050818103600083015261734b81616ab6565b9050919050565b6000602082019050818103600083015261736b81616ad9565b9050919050565b6000602082019050818103600083015261738b81616afc565b9050919050565b600060208201905081810360008301526173ab81616b1f565b9050919050565b600060208201905081810360008301526173cb81616b42565b9050919050565b600060208201905081810360008301526173eb81616b65565b9050919050565b6000602082019050818103600083015261740b81616b88565b9050919050565b6000602082019050818103600083015261742b81616bab565b9050919050565b6000602082019050818103600083015261744b81616bce565b9050919050565b6000602082019050818103600083015261746b81616bf1565b9050919050565b6000602082019050818103600083015261748b81616c14565b9050919050565b600060208201905081810360008301526174ab81616c37565b9050919050565b600060208201905081810360008301526174cb81616c5a565b9050919050565b600060208201905081810360008301526174eb81616c7d565b9050919050565b6000602082019050818103600083015261750b81616ca0565b9050919050565b6000602082019050818103600083015261752b81616cc3565b9050919050565b6000602082019050818103600083015261754b81616ce6565b9050919050565b6000602082019050818103600083015261756b81616d09565b9050919050565b6000602082019050818103600083015261758b81616d2c565b9050919050565b600060208201905081810360008301526175ab81616d4f565b9050919050565b600060208201905081810360008301526175cb81616d72565b9050919050565b600060208201905081810360008301526175eb81616d95565b9050919050565b6000602082019050818103600083015261760b81616db8565b9050919050565b60006020820190506176276000830184616ddb565b92915050565b60006060820190506176426000830186616ddb565b61764f60208301856166ae565b61765c6040830184616ddb565b949350505050565b60006040820190506176796000830185616ddb565b6176866020830184616ddb565b9392505050565b600060a0820190506176a26000830188616ddb565b6176af6020830187616ddb565b6176bc60408301866166ae565b6176c960608301856166ae565b6176d660808301846166ae565b9695505050505050565b600060e0820190506176f5600083018a616ddb565b6177026020830189616ddb565b61770f6040830188616ddb565b61771c606083018761669f565b617729608083018661669f565b61773660a083018561669f565b61774360c0830184616781565b98975050505050505050565b6000808335600160200384360303811261776857600080fd5b80840192508235915067ffffffffffffffff82111561778657600080fd5b60208301925060018202360383131561779e57600080fd5b509250929050565b600080833560016020038436030381126177bf57600080fd5b80840192508235915067ffffffffffffffff8211156177dd57600080fd5b6020830192506001820236038313156177f557600080fd5b509250929050565b6000617807617818565b90506178138282617b64565b919050565b6000604051905090565b600067ffffffffffffffff82111561783d5761783c617ca6565b5b61784682617cd5565b9050602081019050919050565b600067ffffffffffffffff82111561786e5761786d617ca6565b5b61787782617cd5565b9050602081019050919050565b600081519050919050565b600081519050919050565b600082825260208201905092915050565b600081905092915050565b600082825260208201905092915050565b600081905092915050565b60006178dd82617a7f565b91506178e883617a7f565b9250827fffffffffffffffffffffffffffffffffffffffffffffffffffffffffffffffff0382111561791d5761791c617c19565b5b828201905092915050565b600061793382617a7f565b915061793e83617a7f565b92508261794e5761794d617c48565b5b828204905092915050565b600061796482617a7f565b915061796f83617a7f565b9250817fffffffffffffffffffffffffffffffffffffffffffffffffffffffffffffffff04831182151516156179a8576179a7617c19565b5b828202905092915050565b60006179be82617a7f565b91506179c983617a7f565b9250828210156179dc576179db617c19565b5b828203905092915050565b60006179f282617a5f565b9050919050565b6000617a0482617a5f565b9050919050565b60008115159050919050565b6000819050919050565b60007fffffffff0000000000000000000000000000000000000000000000000000000082169050919050565b6000617a58826179e7565b9050919050565b600073ffffffffffffffffffffffffffffffffffffffff82169050919050565b6000819050919050565b600060ff82169050919050565b6000617aa182617acc565b9050919050565b6000617ab382617aba565b9050919050565b6000617ac582617a5f565b9050919050565b6000617ad782617ade565b9050919050565b6000617ae982617a5f565b9050919050565b82818337600083830152505050565b60005b83811015617b1d578082015181840152602081019050617b02565b83811115617b2c576000848401525b50505050565b60006002820490506001821680617b4a57607f821691505b60208210811415617b5e57617b5d617c77565b5b50919050565b617b6d82617cd5565b810181811067ffffffffffffffff82111715617b8c57617b8b617ca6565b5b80604052505050565b6000617ba082617a7f565b91507fffffffffffffffffffffffffffffffffffffffffffffffffffffffffffffffff821415617bd357617bd2617c19565b5b600182019050919050565b6000819050919050565b6000617bf382617a7f565b9150617bfe83617a7f565b925082617c0e57617c0d617c48565b5b828206905092915050565b7f4e487b7100000000000000000000000000000000000000000000000000000000600052601160045260246000fd5b7f4e487b7100000000000000000000000000000000000000000000000000000000600052601260045260246000fd5b7f4e487b7100000000000000000000000000000000000000000000000000000000600052602260045260246000fd5b7f4e487b7100000000000000000000000000000000000000000000000000000000600052604160045260246000fd5b6000601f19601f8301169050919050565b7f45434453413a20696e76616c6964207369676e61747572650000000000000000600082015250565b7f6269642076616c7565206d757374206265206d6f7265207468616e206869676860008201527f6573742062696400000000000000000000000000000000000000000000000000602082015250565b7f566f7563686572277320746f6b656e496420616e64206d61726b65746974656d60008201527f277320746f6b656e496420617265206e6f74206d61746368696e670000000000602082015250565b7f45434453413a20696e76616c6964207369676e6174757265206c656e67746800600082015250565b7f426964646572206e6f7420666f756e6400000000000000000000000000000000600082015250565b7f4552433732313a207472616e7366657220746f206e6f6e20455243373231526560008201527f63656976657220696d706c656d656e7465720000000000000000000000000000602082015250565b7f4552433732313a20746f6b656e20616c7265616479206d696e74656400000000600082015250565b7f41756374696f6e206973207374696c6c206f6e676f696e672100000000000000600082015250565b7f1901000000000000000000000000000000000000000000000000000000000000600082015250565b7f53656c6c65727320617265206e6f7420616c6c6f77656420746f2063616c6c2060008201527f746869732066756e6374696f6e00000000000000000000000000000000000000602082015250565b7f416c726561647920737461727465642100000000000000000000000000000000600082015250565b7f4552433732313a207472616e7366657220746f20746865207a65726f2061646460008201527f7265737300000000000000000000000000000000000000000000000000000000602082015250565b7f4552433732313a20617070726f766520746f2063616c6c657200000000000000600082015250565b7f456e646564210000000000000000000000000000000000000000000000000000600082015250565b7f496e76616c6964207369676e6174757265000000000000000000000000000000600082015250565b7f45434453413a20696e76616c6964207369676e6174757265202773272076616c60008201527f7565000000000000000000000000000000000000000000000000000000000000602082015250565b7f416464726573733a20696e73756666696369656e742062616c616e636520666f60008201527f722063616c6c0000000000000000000000000000000000000000000000000000602082015250565b7f4552433732313a206f70657261746f7220717565727920666f72206e6f6e657860008201527f697374656e7420746f6b656e0000000000000000000000000000000000000000602082015250565b7f4f6e6c792061646d696e2063616e206163636573732074686973000000000000600082015250565b7f4552433732313a20617070726f76652063616c6c6572206973206e6f74206f7760008201527f6e6572206e6f7220617070726f76656420666f7220616c6c0000000000000000602082015250565b7f4552433732313a2062616c616e636520717565727920666f7220746865207a6560008201527f726f206164647265737300000000000000000000000000000000000000000000602082015250565b7f4552433732313a206f776e657220717565727920666f72206e6f6e657869737460008201527f656e7420746f6b656e0000000000000000000000000000000000000000000000602082015250565b7f4f6e6c7920612063726561746f722063616e20656e642074686520617563746960008201527f6f6e000000000000000000000000000000000000000000000000000000000000602082015250565b7f45524337323155524953746f726167653a2055524920736574206f66206e6f6e60008201527f6578697374656e7420746f6b656e000000000000000000000000000000000000602082015250565b7f596f75206e65656420746f207374617274206669727374210000000000000000600082015250565b7f45434453413a20696e76616c6964207369676e6174757265202776272076616c60008201527f7565000000000000000000000000000000000000000000000000000000000000602082015250565b7f4552433732313a206d696e7420746f20746865207a65726f2061646472657373600082015250565b7f45524337323155524953746f726167653a2055524920717565727920666f722060008201527f6e6f6e6578697374656e7420746f6b656e000000000000000000000000000000602082015250565b7f4552433732313a20617070726f76656420717565727920666f72206e6f6e657860008201527f697374656e7420746f6b656e0000000000000000000000000000000000000000602082015250565b7f4552433732313a207472616e73666572206f6620746f6b656e2074686174206960008201527f73206e6f74206f776e0000000000000000000000000000000000000000000000602082015250565b7f4552433732314d657461646174613a2055524920717565727920666f72206e6f60008201527f6e6578697374656e7420746f6b656e0000000000000000000000000000000000602082015250565b7f41756374696f6e206e6f7420656e646564207965742100000000000000000000600082015250565b7f4552433732313a20617070726f76616c20746f2063757272656e74206f776e6560008201527f7200000000000000000000000000000000000000000000000000000000000000602082015250565b7f4e6f7420737461727465642e0000000000000000000000000000000000000000600082015250565b7f4552433732313a207472616e736665722063616c6c6572206973206e6f74206f60008201527f776e6572206e6f7220617070726f766564000000000000000000000000000000602082015250565b7f416464726573733a2063616c6c20746f206e6f6e2d636f6e7472616374000000600082015250565b7f53656c6c6572732063616e2774206275792066726f6d206d61726b6574706c6160008201527f6365000000000000000000000000000000000000000000000000000000000000602082015250565b7f4f6e6c79206f776e65722063616e207472616e7366657220746865204e465400600082015250565b7f5a65726f2062616c616e63650000000000000000000000000000000000000000600082015250565b7f5361666545524332303a204552433230206f7065726174696f6e20646964206e60008201527f6f74207375636365656400000000000000000000000000000000000000000000602082015250565b7f41756374696f6e20616c726561647920656e6465642100000000000000000000600082015250565b7f4d757374207375626d69742061746c6561737420746865206d696e207072696360008201527f6520746f20707572636861736500000000000000000000000000000000000000602082015250565b7f496e76616c696420746f6b656e20616c6c6f77616e6365000000000000000000600082015250565b61873c816179e7565b811461874757600080fd5b50565b61875381617a0b565b811461875e57600080fd5b50565b61876a81617a21565b811461877557600080fd5b50565b61878181617a4d565b811461878c57600080fd5b50565b61879881617a7f565b81146187a357600080fd5b5056fea26469706673582212201405330af52144b97239e2a95a7372c455e2097c4cf05cdf1a8fab94a4fe167464736f6c63430008040033",
  "immutableReferences": {
    "12524": [
      {
        "length": 32,
        "start": 23354
      }
    ],
    "12526": [
      {
        "length": 32,
        "start": 23313
      }
    ],
    "12528": [
      {
        "length": 32,
        "start": 23227
      }
    ],
    "12530": [
      {
        "length": 32,
        "start": 23430
      }
    ],
    "12532": [
      {
        "length": 32,
        "start": 23463
      }
    ],
    "12534": [
      {
        "length": 32,
        "start": 23397
      }
    ]
  },
  "source": "//SPDX-License-Identifier: MIT\r\npragma solidity ^0.8.0;\r\npragma abicoder v2; // required to accept structs as function parameters\r\n\r\n// import \"@openzeppelin/contracts/access/AccessControl.sol\";\r\nimport \"@openzeppelin/contracts/token/ERC721/ERC721.sol\";\r\nimport \"@openzeppelin/contracts/token/ERC721/extensions/ERC721URIStorage.sol\";\r\nimport \"@openzeppelin/contracts/utils/Counters.sol\";\r\n// import \"@openzeppelin/contracts/security/ReentrancyGuard.sol\";\r\nimport \"@openzeppelin/contracts/utils/cryptography/ECDSA.sol\";\r\nimport \"@openzeppelin/contracts/utils/cryptography/draft-EIP712.sol\";\r\nimport \"@openzeppelin/contracts/token/ERC20/utils/SafeERC20.sol\";\r\nimport \"@openzeppelin/contracts/token/ERC20/IERC20.sol\";\r\n\r\ncontract NFT8 is ERC721URIStorage, EIP712 {\r\n    //auto-increment field for each token\r\n    using SafeERC20 for IERC20;\r\n    using Counters for Counters.Counter;\r\n    Counters.Counter private _itemIds;\r\n    address payable public admin;\r\n    uint256 public platformCommission;\r\n    mapping(uint256 => address) public seller;\r\n    mapping(uint256 => bool) public started;\r\n    mapping(uint256 => bool) public ended;\r\n    mapping(uint256 => uint256) public endAt;\r\n    mapping(uint256 => uint256) public highestBid;\r\n    mapping(uint256 => address) public highestBidder;\r\n    mapping(uint256 => mapping(address => uint256)) public bids;\r\n    mapping(uint256 => address) public auctionPurchaseToken;\r\n\r\n    // Counters.Counter private _tokenIds;\r\n\r\n    // address contractAddress;\r\n\r\n    // bytes32 public constant MINTER_ROLE = keccak256(\"MINTER_ROLE\");\r\n    string private constant SIGNING_DOMAIN = \"LazyNFT-Voucher\";\r\n    string private constant SIGNATURE_VERSION = \"1\";\r\n\r\n    constructor()\r\n        ERC721(\"OpenSea Tokens\", \"OST\")\r\n        EIP712(SIGNING_DOMAIN, SIGNATURE_VERSION)\r\n    {\r\n        admin = payable(msg.sender);\r\n        platformCommission = 2;\r\n        //_setupRole(MINTER_ROLE, minter);\r\n    }\r\n\r\n    ///@notice only owner modifier\r\n    modifier onlyAdmin() {\r\n        require(msg.sender == admin, \"Only admin can access this\");\r\n        _;\r\n    }\r\n\r\n    ///@notice only owner modifier\r\n    modifier onlyOwner(uint256 tokenId) {\r\n        require(msg.sender == ownerOf(tokenId));\r\n        _;\r\n    }\r\n\r\n    // constructor(address marketplaceAddress) ERC721(\"OpenSea Tokens\", \"OST\") {\r\n    // contractAddress = marketplaceAddress;\r\n    // }\r\n\r\n    struct NFTVoucher {\r\n        /// @notice The id of the token to be redeemed. Must be unique - if another token with this ID already exists, the redeem function will revert.\r\n        uint256 tokenId;\r\n        /// @notice The minimum price (in wei) that the NFT creator is willing to accept for the initial sale of this NFT.\r\n        uint256 minPrice;\r\n        /// @notice The metadata URI to associate with this token.\r\n        string uri;\r\n        /// @notice the EIP-712 signature of all other fields in the NFTVoucher struct. For a voucher to be valid, it must be signed by an account with the MINTER_ROLE.\r\n        bytes signature;\r\n    }\r\n\r\n    struct MarketItem {\r\n        uint256 marketItemId;\r\n        uint256 tokenId;\r\n        uint256 royalty;\r\n        address payable creator;\r\n        address payable seller;\r\n        address payable owner;\r\n        IERC20 token;\r\n    }\r\n\r\n    event MarketItemCreated(\r\n        uint256 indexed marketItemId,\r\n        uint256 indexed tokenId,\r\n        uint256 price,\r\n        uint256 royalty,\r\n        address creator,\r\n        address seller,\r\n        address owner\r\n    );\r\n\r\n    event MarketItemResell(\r\n        uint256 indexed marketItemId,\r\n        address seller,\r\n        address owner,\r\n        uint256 price\r\n    );\r\n\r\n    event Start(uint256 tokenId);\r\n    event Bid(uint256 tokenId, address indexed sender, uint256 amount);\r\n    event Withdraw(uint256 tokenId, address indexed bidder, uint256 amount);\r\n    event End(uint256 tokenId, address highestBidder, uint256 highestBid);\r\n\r\n    mapping(uint256 => MarketItem) public allMarketItems;\r\n\r\n    function updatePlatformCommision(uint256 _platformCommission)\r\n        public\r\n        onlyAdmin\r\n    {\r\n        platformCommission = _platformCommission;\r\n    }\r\n\r\n    function updateAdmin(address _admin) public onlyAdmin {\r\n        admin = payable(_admin);\r\n    }\r\n\r\n    // function setupRole(address payable minter) public onlyAdmin {\r\n    // _setupRole(MINTER_ROLE, minter);\r\n    // }\r\n\r\n    /// @notice create a new token\r\n    /// @param voucher : contains details of tokenId, price, uri and signature\r\n    function createAndBuyToken(NFTVoucher calldata voucher, uint256 _royalty)\r\n        public\r\n        payable\r\n        returns (uint256)\r\n    {\r\n        address signer = _verify(voucher); //her signer is the seller\r\n\r\n        // require(\r\n        // hasRole(MINTER_ROLE, signer),\r\n        // \"Signature invalid or unauthorized\"\r\n        // );\r\n        require(msg.sender != signer, \"Sellers can't buy from marketplace\");\r\n        // require(msg.value == _price, \"Must submit asking price to purchase\");\r\n        require(\r\n            msg.value >= voucher.minPrice,\r\n            \"Must submit atleast the min price to purchase\"\r\n        );\r\n        //set a new token id for the token to be minted\r\n        // _tokenIds.increment();\r\n        // uint256 newItemId = _tokenIds.current();\r\n\r\n        _itemIds.increment(); //incrementing our counter.\r\n        uint256 marketItemId = _itemIds.current(); //storing current value of counter in a new local variable.\r\n\r\n        //Initializing the structure MarketItem, and saving it in allMarketItems mapping with our local variable passed as an argument.\r\n        allMarketItems[marketItemId] = MarketItem(\r\n            marketItemId,\r\n            voucher.tokenId,\r\n            _royalty,\r\n            payable(signer), //Only creator will be able to create items to sell.\r\n            payable(signer), //Marketplace is the seller when market item is first created.\r\n            payable(msg.sender), //setting the owner's address to zero, as it still need to be sold on marketplace.\r\n            IERC20(address(0))\r\n        );\r\n\r\n        _mint(signer, voucher.tokenId); //mint the token\r\n        _setTokenURI(voucher.tokenId, voucher.uri); //generate the URI\r\n        // setApprovalForAll(address(this), true); //grant transaction permission to marketplace\r\n        // IERC721(address(this)).transferFrom(seller, address(this), _tokenId);\r\n\r\n        _transfer(signer, msg.sender, voucher.tokenId);\r\n        _transferBuy(msg.value, marketItemId, msg.sender);\r\n\r\n        // buyMarketItem721(marketItemId, msg.value);\r\n\r\n        emit MarketItemCreated(\r\n            marketItemId,\r\n            voucher.tokenId,\r\n            voucher.minPrice,\r\n            _royalty,\r\n            signer,\r\n            signer,\r\n            msg.sender\r\n        );\r\n\r\n        //return token ID\r\n        return voucher.tokenId;\r\n    }\r\n\r\n    function createAndBuyTokenWETH(\r\n        NFTVoucher calldata voucher,\r\n        uint256 _royalty,\r\n        IERC20 _token\r\n    ) public payable returns (uint256) {\r\n        address signer = _verify(voucher); //her signer is the seller\r\n\r\n        // require(\r\n        // hasRole(MINTER_ROLE, signer),\r\n        // \"Signature invalid or unauthorized\"\r\n        // );\r\n        require(msg.sender != signer, \"Sellers can't buy from marketplace\");\r\n        // require(msg.value == _price, \"Must submit asking price to purchase\");\r\n        //set a new token id for the token to be minted\r\n        // _tokenIds.increment();\r\n        // uint256 newItemId = _tokenIds.current();\r\n\r\n        _itemIds.increment(); //incrementing our counter.\r\n        uint256 marketItemId = _itemIds.current(); //storing current value of counter in a new local variable.\r\n\r\n        //Initializing the structure MarketItem, and saving it in allMarketItems mapping with our local variable passed as an argument.\r\n        allMarketItems[marketItemId] = MarketItem(\r\n            marketItemId,\r\n            voucher.tokenId,\r\n            _royalty,\r\n            payable(signer), //Only creator will be able to create items to sell.\r\n            payable(signer), //Marketplace is the seller when market item is first created.\r\n            payable(msg.sender), //setting the owner's address to zero, as it still need to be sold on marketplace.\r\n            _token\r\n        );\r\n\r\n        _mint(signer, voucher.tokenId); //mint the token\r\n        _setTokenURI(voucher.tokenId, voucher.uri); //generate the URI\r\n        // setApprovalForAll(address(this), true); //grant transaction permission to marketplace\r\n        // IERC721(address(this)).transferFrom(seller, address(this), _tokenId);\r\n\r\n        _transfer(signer, msg.sender, voucher.tokenId);\r\n        _transferBuy(voucher.minPrice, marketItemId, msg.sender);\r\n\r\n        // buyMarketItem721(marketItemId, msg.value);\r\n\r\n        emit MarketItemCreated(\r\n            marketItemId,\r\n            voucher.tokenId,\r\n            voucher.minPrice,\r\n            _royalty,\r\n            signer,\r\n            signer,\r\n            msg.sender\r\n        );\r\n\r\n        //return token ID\r\n        return voucher.tokenId;\r\n    }\r\n\r\n    function _transferBuy(\r\n        uint256 _amount,\r\n        uint256 _marketItemId,\r\n        address _recipient\r\n    ) internal {\r\n        uint256 sellingPrice = _amount;\r\n\r\n        uint256 commission = (platformCommission * sellingPrice) / 100;\r\n\r\n        uint256 sellerShare = ((100 - platformCommission) * sellingPrice) / 100;\r\n\r\n        if (allMarketItems[_marketItemId].token == IERC20(address(0))) {\r\n            admin.transfer(commission); //Transfering the listing fee to the admin of the marketplace.\r\n            allMarketItems[_marketItemId].seller.transfer(sellerShare); //transferring the sale amount to the seller after deducting platform commission.\r\n        } else {\r\n            IERC20 token = allMarketItems[_marketItemId].token;\r\n            token.transferFrom(_recipient, address(this), sellingPrice);\r\n            token.transfer(admin, commission);\r\n            token.transfer(allMarketItems[_marketItemId].seller, sellerShare);\r\n        }\r\n    }\r\n\r\n    function secondaryBuyToken(\r\n        uint256 _marketItemId,\r\n        NFTVoucher calldata voucher\r\n    ) public payable {\r\n        address signer = _verify(voucher);\r\n        require(msg.sender != signer, \"Sellers can't buy from marketplace\");\r\n        require(\r\n            signer == allMarketItems[_marketItemId].owner,\r\n            \"Only owner can transfer the NFT\"\r\n        );\r\n        require(\r\n            allMarketItems[_marketItemId].tokenId == voucher.tokenId,\r\n            \"Voucher's tokenId and marketitem's tokenId are not matching\"\r\n        );\r\n        require(\r\n            msg.value >= voucher.minPrice,\r\n            \"Must submit atleast the min price to purchase\"\r\n        );\r\n\r\n        allMarketItems[_marketItemId].seller = payable(signer);\r\n        allMarketItems[_marketItemId].owner = payable(msg.sender);\r\n\r\n        _transfer(signer, msg.sender, allMarketItems[_marketItemId].tokenId);\r\n        _transferSecondaryBuy(msg.value, _marketItemId, msg.sender);\r\n\r\n        emit MarketItemResell(\r\n            _marketItemId,\r\n            signer,\r\n            msg.sender,\r\n            voucher.minPrice\r\n        );\r\n    }\r\n\r\n    function secondaryBuyTokenWETH(\r\n        uint256 _marketItemId,\r\n        NFTVoucher calldata voucher\r\n    ) public payable {\r\n        address signer = _verify(voucher);\r\n        require(msg.sender != signer, \"Sellers can't buy from marketplace\");\r\n        require(\r\n            signer == allMarketItems[_marketItemId].owner,\r\n            \"Only owner can transfer the NFT\"\r\n        );\r\n        require(\r\n            allMarketItems[_marketItemId].tokenId == voucher.tokenId,\r\n            \"Voucher's tokenId and marketitem's tokenId are not matching\"\r\n        );\r\n        // require(\r\n        // msg.value >= voucher.minPrice,\r\n        // \"Must submit atleast the min price to purchase\"\r\n        // );\r\n\r\n        allMarketItems[_marketItemId].seller = payable(signer);\r\n        allMarketItems[_marketItemId].owner = payable(msg.sender);\r\n\r\n        _transfer(signer, msg.sender, allMarketItems[_marketItemId].tokenId);\r\n        _transferSecondaryBuy(voucher.minPrice, _marketItemId, msg.sender);\r\n\r\n        emit MarketItemResell(\r\n            _marketItemId,\r\n            signer,\r\n            msg.sender,\r\n            voucher.minPrice\r\n        );\r\n    }\r\n\r\n    function _transferSecondaryBuy(\r\n        uint256 _amount,\r\n        uint256 _marketItemId,\r\n        address _recipient\r\n    ) internal {\r\n        uint256 royalty = (allMarketItems[_marketItemId].royalty * _amount) /\r\n            100;\r\n\r\n        uint256 transferAfterRoyalty = ((100 -\r\n            allMarketItems[_marketItemId].royalty) * _amount) / 100;\r\n\r\n        // address _to = msg.sender;\r\n\r\n        if (allMarketItems[_marketItemId].token == IERC20(address(0))) {\r\n            allMarketItems[_marketItemId].creator.transfer(royalty); //Sending royalty to the creator.\r\n            allMarketItems[_marketItemId].seller.transfer(transferAfterRoyalty); //Sending royalty to the creator.\r\n        } else {\r\n            IERC20 token = allMarketItems[_marketItemId].token;\r\n            token.transferFrom(_recipient, address(this), _amount);\r\n            token.transfer(allMarketItems[_marketItemId].creator, royalty);\r\n            token.transfer(\r\n                allMarketItems[_marketItemId].seller,\r\n                transferAfterRoyalty\r\n            );\r\n        }\r\n    }\r\n\r\n    function setTokenURI(uint256 tokenId, string memory _tokenURI)\r\n        public\r\n        onlyOwner(tokenId)\r\n    {\r\n        setTokenURI(tokenId, _tokenURI);\r\n    }\r\n\r\n    function burn(uint256 tokenId) public onlyOwner(tokenId) {\r\n        _burn(tokenId);\r\n    }\r\n\r\n    function _hash(NFTVoucher calldata voucher)\r\n        internal\r\n        view\r\n        returns (bytes32)\r\n    {\r\n        return\r\n            _hashTypedDataV4(\r\n                keccak256(\r\n                    abi.encode(\r\n                        keccak256(\r\n                            \"NFTVoucher(uint256 tokenId,uint256 minPrice,string uri)\"\r\n                        ),\r\n                        voucher.tokenId,\r\n                        voucher.minPrice,\r\n                        keccak256(bytes(voucher.uri))\r\n                    )\r\n                )\r\n            );\r\n    }\r\n\r\n    function getChainID() external view returns (uint256) {\r\n        uint256 id;\r\n        assembly {\r\n            id := chainid()\r\n        }\r\n        return id;\r\n    }\r\n\r\n    function _verify(NFTVoucher calldata voucher)\r\n        internal\r\n        view\r\n        returns (address)\r\n    {\r\n        bytes32 digest = _hash(voucher);\r\n        return ECDSA.recover(digest, voucher.signature);\r\n    }\r\n\r\n    // function supportsInterface(bytes4 interfaceId)\r\n    //     public\r\n    //     view\r\n    //     virtual\r\n    //     // override(AccessControl, ERC721)\r\n    //     returns (bool)\r\n    // {\r\n    //     return\r\n    //         ERC721.supportsInterface(interfaceId) ||\r\n    //         AccessControl.supportsInterface(interfaceId);\r\n    // }\r\n\r\n    //////////////////////////////////////////////////////////////////////////////////////////////////////////\r\n    ///auction///\r\n    /////////////////////////////////////////////////////////////////////////////////////////////////////////\r\n\r\n    function start(\r\n        uint256 _nftId,\r\n        uint256 startingBid,\r\n        uint256 auctionPeriodInDays,\r\n        address _token\r\n    ) external {\r\n        require(!started[_nftId], \"Already started!\");\r\n        seller[_nftId] = msg.sender;\r\n        highestBid[_nftId] = startingBid;\r\n        started[_nftId] = true;\r\n        endAt[_nftId] = block.timestamp + (auctionPeriodInDays * 1 days);\r\n        auctionPurchaseToken[_nftId] = _token;\r\n        emit Start(_nftId);\r\n    }\r\n\r\n    function bid(uint256 _nftId, uint256 amount) external payable {\r\n        require(started[_nftId], \"Not started.\");\r\n        require(block.timestamp < endAt[_nftId], \"Ended!\");\r\n        require(\r\n            msg.sender != seller[_nftId],\r\n            \"Sellers are not allowed to call this function\"\r\n        );\r\n\r\n        uint256 currentBid;\r\n\r\n        if (auctionPurchaseToken[_nftId] == address(0)) {\r\n            currentBid = bids[_nftId][msg.sender] + msg.value;\r\n            require(\r\n                currentBid > highestBid[_nftId],\r\n                \"bid value must be more than highest bid\"\r\n            );\r\n        } else {\r\n            IERC20 paymentToken = IERC20(auctionPurchaseToken[_nftId]);\r\n            uint256 allowToPayAmount = paymentToken.allowance(\r\n                msg.sender,\r\n                address(this)\r\n            );\r\n            require(allowToPayAmount >= amount, \"Invalid token allowance\");\r\n\r\n            currentBid = bids[_nftId][msg.sender] + amount;\r\n            require(\r\n                currentBid > highestBid[_nftId],\r\n                \"bid value must be more than highest bid\"\r\n            );\r\n            // Transfer bid\r\n            paymentToken.safeTransferFrom(msg.sender, address(this), amount);\r\n        }\r\n\r\n        bids[_nftId][msg.sender] = currentBid;\r\n        highestBid[_nftId] = currentBid;\r\n        highestBidder[_nftId] = msg.sender;\r\n        emit Bid(_nftId, msg.sender, currentBid);\r\n    }\r\n\r\n    function end(NFTVoucher calldata voucher, address bidder) external {\r\n        require(started[voucher.tokenId], \"You need to start first!\");\r\n        require(\r\n            block.timestamp >= endAt[voucher.tokenId],\r\n            \"Auction is still ongoing!\"\r\n        );\r\n        require(!ended[voucher.tokenId], \"Auction already ended!\");\r\n\r\n        address signer = _verify(voucher);\r\n        require(seller[voucher.tokenId] == signer, \"Invalid signature\");\r\n        require(signer == msg.sender, \"Only a creator can end the auction\");\r\n        require(\r\n            bids[voucher.tokenId][bidder] > 0 || bidder == address(0),\r\n            \"Bidder not found\"\r\n        );\r\n\r\n        // nft.transfer(highestBidder, _nftId); //Transfering the NFT to the winner.\r\n\r\n        //     (bool sent, bytes memory data) = seller.call{value: highestBid}(\"\"); // Paying the seller.\r\n        //     require(sent, \"Could not pay seller!\");\r\n\r\n        ended[voucher.tokenId] = true;\r\n\r\n        /////////////////////////////////////////////////////////////\r\n        _mint(signer, voucher.tokenId); //mint the token\r\n        _setTokenURI(voucher.tokenId, voucher.uri); //generate the URI\r\n        // setApprovalForAll(address(this), true); //grant transaction permission to marketplace\r\n        // IERC721(address(this)).transferFrom(seller, address(this), _tokenId);\r\n\r\n        if (\r\n            bidder != address(0) &&\r\n            auctionPurchaseToken[voucher.tokenId] != address(0)\r\n        ) {\r\n            uint256 commission = (platformCommission *\r\n                bids[voucher.tokenId][bidder]) / 100;\r\n            uint256 sellerShare = ((100 - platformCommission) *\r\n                bids[voucher.tokenId][bidder]) / 100;\r\n\r\n            IERC20 paymentToken = IERC20(auctionPurchaseToken[voucher.tokenId]);\r\n            paymentToken.transfer(admin, commission);\r\n            paymentToken.transfer(signer, sellerShare);\r\n\r\n            bids[voucher.tokenId][bidder] = 0;\r\n\r\n            _transfer(signer, bidder, voucher.tokenId);\r\n\r\n            emit End(voucher.tokenId, bidder, bids[voucher.tokenId][bidder]);\r\n        } else if (\r\n            bidder == address(0) &&\r\n            auctionPurchaseToken[voucher.tokenId] != address(0)\r\n        ) {\r\n            uint256 commission = (platformCommission *\r\n                highestBid[voucher.tokenId]) / 100;\r\n            uint256 sellerShare = ((100 - platformCommission) *\r\n                highestBid[voucher.tokenId]) / 100;\r\n\r\n            IERC20 paymentToken = IERC20(auctionPurchaseToken[voucher.tokenId]);\r\n            paymentToken.transfer(admin, commission);\r\n            paymentToken.transfer(signer, sellerShare);\r\n            // admin.transfer(commission);\r\n            // payable(signer).transfer(sellerShare);\r\n            bids[voucher.tokenId][highestBidder[voucher.tokenId]] = 0;\r\n\r\n            _transfer(signer, highestBidder[voucher.tokenId], voucher.tokenId);\r\n\r\n            emit End(\r\n                voucher.tokenId,\r\n                highestBidder[voucher.tokenId],\r\n                highestBid[voucher.tokenId]\r\n            );\r\n        } else if (\r\n            bidder != address(0) &&\r\n            auctionPurchaseToken[voucher.tokenId] == address(0)\r\n        ) {\r\n            uint256 commission = (platformCommission *\r\n                bids[voucher.tokenId][bidder]) / 100;\r\n            uint256 sellerShare = ((100 - platformCommission) *\r\n                bids[voucher.tokenId][bidder]) / 100;\r\n\r\n            admin.transfer(commission);\r\n            payable(signer).transfer(sellerShare);\r\n\r\n            bids[voucher.tokenId][bidder] = 0;\r\n\r\n            _transfer(signer, bidder, voucher.tokenId);\r\n\r\n            emit End(voucher.tokenId, bidder, bids[voucher.tokenId][bidder]);\r\n        } else {\r\n            uint256 commission = (platformCommission *\r\n                highestBid[voucher.tokenId]) / 100;\r\n            uint256 sellerShare = ((100 - platformCommission) *\r\n                highestBid[voucher.tokenId]) / 100;\r\n\r\n            admin.transfer(commission);\r\n            payable(signer).transfer(sellerShare);\r\n\r\n            bids[voucher.tokenId][highestBidder[voucher.tokenId]] = 0;\r\n\r\n            _transfer(signer, highestBidder[voucher.tokenId], voucher.tokenId);\r\n\r\n            emit End(\r\n                voucher.tokenId,\r\n                highestBidder[voucher.tokenId],\r\n                highestBid[voucher.tokenId]\r\n            );\r\n        }\r\n\r\n        //_transferBuy(voucher.minPrice, marketItemId, msg.sender);\r\n    }\r\n\r\n    function withdraw(uint256 _nftId) external payable {\r\n        require(ended[_nftId], \"Auction not ended yet!\");\r\n        uint256 bal = bids[_nftId][msg.sender];\r\n        require(bal > 0, \"Zero balance\");\r\n        bids[_nftId][msg.sender] = 0;\r\n\r\n        if (auctionPurchaseToken[_nftId] != address(0)) {\r\n            IERC20 paymentToken = IERC20(auctionPurchaseToken[_nftId]);\r\n            paymentToken.transfer(msg.sender, bal);\r\n        } else {\r\n            payable(msg.sender).transfer(bal);\r\n        }\r\n\r\n        emit Withdraw(_nftId, msg.sender, bal);\r\n    }\r\n}\r\n",
  "sourcePath": "D:/Desktop/immense/crypto/defi application/test (NFT marketplace)/NFT game/src/contracts/NFT8.sol",
  "compiler": {
    "name": "solc",
    "version": "0.8.4+commit.c7e474f2.Emscripten.clang"
  },
  "schemaVersion": "3.2.3",
  "updatedAt": "2022-05-12T12:27:53.957Z",
  "devdoc": {
    "kind": "dev",
    "methods": {
      "approve(address,uint256)": {
        "details": "See {IERC721-approve}."
      },
      "balanceOf(address)": {
        "details": "See {IERC721-balanceOf}."
      },
      "createAndBuyToken((uint256,uint256,string,bytes),uint256)": {
        "params": {
          "voucher": ": contains details of tokenId, price, uri and signature"
        }
      },
      "getApproved(uint256)": {
        "details": "See {IERC721-getApproved}."
      },
      "isApprovedForAll(address,address)": {
        "details": "See {IERC721-isApprovedForAll}."
      },
      "name()": {
        "details": "See {IERC721Metadata-name}."
      },
      "ownerOf(uint256)": {
        "details": "See {IERC721-ownerOf}."
      },
      "safeTransferFrom(address,address,uint256)": {
        "details": "See {IERC721-safeTransferFrom}."
      },
      "safeTransferFrom(address,address,uint256,bytes)": {
        "details": "See {IERC721-safeTransferFrom}."
      },
      "setApprovalForAll(address,bool)": {
        "details": "See {IERC721-setApprovalForAll}."
      },
      "supportsInterface(bytes4)": {
        "details": "See {IERC165-supportsInterface}."
      },
      "symbol()": {
        "details": "See {IERC721Metadata-symbol}."
      },
      "tokenURI(uint256)": {
        "details": "See {IERC721Metadata-tokenURI}."
      },
      "transferFrom(address,address,uint256)": {
        "details": "See {IERC721-transferFrom}."
      }
    },
    "version": 1
  },
  "userdoc": {
    "kind": "user",
    "methods": {
      "createAndBuyToken((uint256,uint256,string,bytes),uint256)": {
        "notice": "create a new token"
      },
      "start(uint256,uint256,uint256,address)": {
        "notice": "auction///"
      }
    },
    "version": 1
  }
}