{
  "contractName": "NFT9",
  "abi": [
    {
      "inputs": [],
      "stateMutability": "nonpayable",
      "type": "constructor"
    },
    {
      "anonymous": false,
      "inputs": [
        {
          "indexed": true,
          "internalType": "address",
          "name": "owner",
          "type": "address"
        },
        {
          "indexed": true,
          "internalType": "address",
          "name": "approved",
          "type": "address"
        },
        {
          "indexed": true,
          "internalType": "uint256",
          "name": "tokenId",
          "type": "uint256"
        }
      ],
      "name": "Approval",
      "type": "event"
    },
    {
      "anonymous": false,
      "inputs": [
        {
          "indexed": true,
          "internalType": "address",
          "name": "owner",
          "type": "address"
        },
        {
          "indexed": true,
          "internalType": "address",
          "name": "operator",
          "type": "address"
        },
        {
          "indexed": false,
          "internalType": "bool",
          "name": "approved",
          "type": "bool"
        }
      ],
      "name": "ApprovalForAll",
      "type": "event"
    },
    {
      "anonymous": false,
      "inputs": [
        {
          "indexed": false,
          "internalType": "uint256",
          "name": "tokenId",
          "type": "uint256"
        },
        {
          "indexed": true,
          "internalType": "address",
          "name": "sender",
          "type": "address"
        },
        {
          "indexed": false,
          "internalType": "uint256",
          "name": "amount",
          "type": "uint256"
        }
      ],
      "name": "Bid",
      "type": "event"
    },
    {
      "anonymous": false,
      "inputs": [
        {
          "indexed": false,
          "internalType": "uint256",
          "name": "tokenId",
          "type": "uint256"
        },
        {
          "indexed": false,
          "internalType": "address",
          "name": "highestBidder",
          "type": "address"
        },
        {
          "indexed": false,
          "internalType": "uint256",
          "name": "highestBid",
          "type": "uint256"
        }
      ],
      "name": "End",
      "type": "event"
    },
    {
      "anonymous": false,
      "inputs": [
        {
          "indexed": true,
          "internalType": "uint256",
          "name": "marketItemId",
          "type": "uint256"
        },
        {
          "indexed": true,
          "internalType": "uint256",
          "name": "tokenId",
          "type": "uint256"
        },
        {
          "indexed": false,
          "internalType": "uint256",
          "name": "price",
          "type": "uint256"
        },
        {
          "indexed": false,
          "internalType": "uint256",
          "name": "royalty",
          "type": "uint256"
        },
        {
          "indexed": false,
          "internalType": "address",
          "name": "creator",
          "type": "address"
        },
        {
          "indexed": false,
          "internalType": "address",
          "name": "seller",
          "type": "address"
        },
        {
          "indexed": false,
          "internalType": "address",
          "name": "owner",
          "type": "address"
        }
      ],
      "name": "MarketItemCreated",
      "type": "event"
    },
    {
      "anonymous": false,
      "inputs": [
        {
          "indexed": true,
          "internalType": "uint256",
          "name": "marketItemId",
          "type": "uint256"
        },
        {
          "indexed": false,
          "internalType": "address",
          "name": "seller",
          "type": "address"
        },
        {
          "indexed": false,
          "internalType": "address",
          "name": "owner",
          "type": "address"
        },
        {
          "indexed": false,
          "internalType": "uint256",
          "name": "price",
          "type": "uint256"
        }
      ],
      "name": "MarketItemResell",
      "type": "event"
    },
    {
      "anonymous": false,
      "inputs": [
        {
          "indexed": false,
          "internalType": "uint256",
          "name": "tokenId",
          "type": "uint256"
        }
      ],
      "name": "Start",
      "type": "event"
    },
    {
      "anonymous": false,
      "inputs": [
        {
          "indexed": true,
          "internalType": "address",
          "name": "from",
          "type": "address"
        },
        {
          "indexed": true,
          "internalType": "address",
          "name": "to",
          "type": "address"
        },
        {
          "indexed": true,
          "internalType": "uint256",
          "name": "tokenId",
          "type": "uint256"
        }
      ],
      "name": "Transfer",
      "type": "event"
    },
    {
      "anonymous": false,
      "inputs": [
        {
          "indexed": false,
          "internalType": "uint256",
          "name": "tokenId",
          "type": "uint256"
        },
        {
          "indexed": true,
          "internalType": "address",
          "name": "bidder",
          "type": "address"
        },
        {
          "indexed": false,
          "internalType": "uint256",
          "name": "amount",
          "type": "uint256"
        }
      ],
      "name": "Withdraw",
      "type": "event"
    },
    {
      "inputs": [],
      "name": "admin",
      "outputs": [
        {
          "internalType": "address payable",
          "name": "",
          "type": "address"
        }
      ],
      "stateMutability": "view",
      "type": "function"
    },
    {
      "inputs": [
        {
          "internalType": "uint256",
          "name": "",
          "type": "uint256"
        }
      ],
      "name": "allMarketItems",
      "outputs": [
        {
          "internalType": "uint256",
          "name": "marketItemId",
          "type": "uint256"
        },
        {
          "internalType": "uint256",
          "name": "tokenId",
          "type": "uint256"
        },
        {
          "internalType": "uint256",
          "name": "royalty",
          "type": "uint256"
        },
        {
          "internalType": "address payable",
          "name": "creator",
          "type": "address"
        },
        {
          "internalType": "address payable",
          "name": "seller",
          "type": "address"
        },
        {
          "internalType": "address payable",
          "name": "owner",
          "type": "address"
        },
        {
          "internalType": "contract IERC20",
          "name": "token",
          "type": "address"
        }
      ],
      "stateMutability": "view",
      "type": "function"
    },
    {
      "inputs": [
        {
          "internalType": "address",
          "name": "to",
          "type": "address"
        },
        {
          "internalType": "uint256",
          "name": "tokenId",
          "type": "uint256"
        }
      ],
      "name": "approve",
      "outputs": [],
      "stateMutability": "nonpayable",
      "type": "function"
    },
    {
      "inputs": [
        {
          "internalType": "uint256",
          "name": "",
          "type": "uint256"
        }
      ],
      "name": "auctionPurchaseToken",
      "outputs": [
        {
          "internalType": "address",
          "name": "",
          "type": "address"
        }
      ],
      "stateMutability": "view",
      "type": "function"
    },
    {
      "inputs": [
        {
          "internalType": "address",
          "name": "owner",
          "type": "address"
        }
      ],
      "name": "balanceOf",
      "outputs": [
        {
          "internalType": "uint256",
          "name": "",
          "type": "uint256"
        }
      ],
      "stateMutability": "view",
      "type": "function"
    },
    {
      "inputs": [
        {
          "internalType": "uint256",
          "name": "_nftId",
          "type": "uint256"
        },
        {
          "internalType": "uint256",
          "name": "amount",
          "type": "uint256"
        },
        {
          "internalType": "address",
          "name": "caller",
          "type": "address"
        },
        {
          "internalType": "uint256",
          "name": "maticValue",
          "type": "uint256"
        }
      ],
      "name": "bid",
      "outputs": [],
      "stateMutability": "nonpayable",
      "type": "function"
    },
    {
      "inputs": [
        {
          "internalType": "uint256",
          "name": "",
          "type": "uint256"
        },
        {
          "internalType": "address",
          "name": "",
          "type": "address"
        }
      ],
      "name": "bids",
      "outputs": [
        {
          "internalType": "uint256",
          "name": "",
          "type": "uint256"
        }
      ],
      "stateMutability": "view",
      "type": "function"
    },
    {
      "inputs": [
        {
          "internalType": "uint256",
          "name": "tokenId",
          "type": "uint256"
        },
        {
          "internalType": "address",
          "name": "bidder",
          "type": "address"
        },
        {
          "internalType": "address",
          "name": "signer",
          "type": "address"
        },
        {
          "internalType": "uint256",
          "name": "platformCommission",
          "type": "uint256"
        },
        {
          "internalType": "address payable",
          "name": "admin",
          "type": "address"
        }
      ],
      "name": "end",
      "outputs": [],
      "stateMutability": "nonpayable",
      "type": "function"
    },
    {
      "inputs": [
        {
          "internalType": "uint256",
          "name": "",
          "type": "uint256"
        }
      ],
      "name": "endAt",
      "outputs": [
        {
          "internalType": "uint256",
          "name": "",
          "type": "uint256"
        }
      ],
      "stateMutability": "view",
      "type": "function"
    },
    {
      "inputs": [
        {
          "internalType": "uint256",
          "name": "",
          "type": "uint256"
        }
      ],
      "name": "ended",
      "outputs": [
        {
          "internalType": "bool",
          "name": "",
          "type": "bool"
        }
      ],
      "stateMutability": "view",
      "type": "function"
    },
    {
      "inputs": [
        {
          "internalType": "uint256",
          "name": "tokenId",
          "type": "uint256"
        }
      ],
      "name": "getApproved",
      "outputs": [
        {
          "internalType": "address",
          "name": "",
          "type": "address"
        }
      ],
      "stateMutability": "view",
      "type": "function"
    },
    {
      "inputs": [
        {
          "internalType": "uint256",
          "name": "",
          "type": "uint256"
        }
      ],
      "name": "highestBid",
      "outputs": [
        {
          "internalType": "uint256",
          "name": "",
          "type": "uint256"
        }
      ],
      "stateMutability": "view",
      "type": "function"
    },
    {
      "inputs": [
        {
          "internalType": "uint256",
          "name": "",
          "type": "uint256"
        }
      ],
      "name": "highestBidder",
      "outputs": [
        {
          "internalType": "address",
          "name": "",
          "type": "address"
        }
      ],
      "stateMutability": "view",
      "type": "function"
    },
    {
      "inputs": [
        {
          "internalType": "address",
          "name": "owner",
          "type": "address"
        },
        {
          "internalType": "address",
          "name": "operator",
          "type": "address"
        }
      ],
      "name": "isApprovedForAll",
      "outputs": [
        {
          "internalType": "bool",
          "name": "",
          "type": "bool"
        }
      ],
      "stateMutability": "view",
      "type": "function"
    },
    {
      "inputs": [],
      "name": "name",
      "outputs": [
        {
          "internalType": "string",
          "name": "",
          "type": "string"
        }
      ],
      "stateMutability": "view",
      "type": "function"
    },
    {
      "inputs": [
        {
          "internalType": "uint256",
          "name": "tokenId",
          "type": "uint256"
        }
      ],
      "name": "ownerOf",
      "outputs": [
        {
          "internalType": "address",
          "name": "",
          "type": "address"
        }
      ],
      "stateMutability": "view",
      "type": "function"
    },
    {
      "inputs": [],
      "name": "platformCommission",
      "outputs": [
        {
          "internalType": "uint256",
          "name": "",
          "type": "uint256"
        }
      ],
      "stateMutability": "view",
      "type": "function"
    },
    {
      "inputs": [
        {
          "internalType": "address",
          "name": "from",
          "type": "address"
        },
        {
          "internalType": "address",
          "name": "to",
          "type": "address"
        },
        {
          "internalType": "uint256",
          "name": "tokenId",
          "type": "uint256"
        }
      ],
      "name": "safeTransferFrom",
      "outputs": [],
      "stateMutability": "nonpayable",
      "type": "function"
    },
    {
      "inputs": [
        {
          "internalType": "address",
          "name": "from",
          "type": "address"
        },
        {
          "internalType": "address",
          "name": "to",
          "type": "address"
        },
        {
          "internalType": "uint256",
          "name": "tokenId",
          "type": "uint256"
        },
        {
          "internalType": "bytes",
          "name": "_data",
          "type": "bytes"
        }
      ],
      "name": "safeTransferFrom",
      "outputs": [],
      "stateMutability": "nonpayable",
      "type": "function"
    },
    {
      "inputs": [
        {
          "internalType": "uint256",
          "name": "",
          "type": "uint256"
        }
      ],
      "name": "seller",
      "outputs": [
        {
          "internalType": "address",
          "name": "",
          "type": "address"
        }
      ],
      "stateMutability": "view",
      "type": "function"
    },
    {
      "inputs": [
        {
          "internalType": "address",
          "name": "operator",
          "type": "address"
        },
        {
          "internalType": "bool",
          "name": "approved",
          "type": "bool"
        }
      ],
      "name": "setApprovalForAll",
      "outputs": [],
      "stateMutability": "nonpayable",
      "type": "function"
    },
    {
      "inputs": [
        {
          "internalType": "uint256",
          "name": "_nftId",
          "type": "uint256"
        },
        {
          "internalType": "uint256",
          "name": "startingBid",
          "type": "uint256"
        },
        {
          "internalType": "uint256",
          "name": "auctionPeriodInDays",
          "type": "uint256"
        },
        {
          "internalType": "address",
          "name": "_token",
          "type": "address"
        },
        {
          "internalType": "address",
          "name": "caller",
          "type": "address"
        }
      ],
      "name": "start",
      "outputs": [],
      "stateMutability": "nonpayable",
      "type": "function"
    },
    {
      "inputs": [
        {
          "internalType": "uint256",
          "name": "",
          "type": "uint256"
        }
      ],
      "name": "started",
      "outputs": [
        {
          "internalType": "bool",
          "name": "",
          "type": "bool"
        }
      ],
      "stateMutability": "view",
      "type": "function"
    },
    {
      "inputs": [
        {
          "internalType": "bytes4",
          "name": "interfaceId",
          "type": "bytes4"
        }
      ],
      "name": "supportsInterface",
      "outputs": [
        {
          "internalType": "bool",
          "name": "",
          "type": "bool"
        }
      ],
      "stateMutability": "view",
      "type": "function"
    },
    {
      "inputs": [],
      "name": "symbol",
      "outputs": [
        {
          "internalType": "string",
          "name": "",
          "type": "string"
        }
      ],
      "stateMutability": "view",
      "type": "function"
    },
    {
      "inputs": [
        {
          "internalType": "uint256",
          "name": "tokenId",
          "type": "uint256"
        }
      ],
      "name": "tokenURI",
      "outputs": [
        {
          "internalType": "string",
          "name": "",
          "type": "string"
        }
      ],
      "stateMutability": "view",
      "type": "function"
    },
    {
      "inputs": [
        {
          "internalType": "address",
          "name": "from",
          "type": "address"
        },
        {
          "internalType": "address",
          "name": "to",
          "type": "address"
        },
        {
          "internalType": "uint256",
          "name": "tokenId",
          "type": "uint256"
        }
      ],
      "name": "transferFrom",
      "outputs": [],
      "stateMutability": "nonpayable",
      "type": "function"
    },
    {
      "inputs": [
        {
          "internalType": "uint256",
          "name": "_nftId",
          "type": "uint256"
        }
      ],
      "name": "withdraw",
      "outputs": [],
      "stateMutability": "nonpayable",
      "type": "function"
    },
    {
      "inputs": [
        {
          "internalType": "uint256",
          "name": "_platformCommission",
          "type": "uint256"
        }
      ],
      "name": "updatePlatformCommision",
      "outputs": [],
      "stateMutability": "nonpayable",
      "type": "function"
    },
    {
      "inputs": [
        {
          "internalType": "address",
          "name": "_admin",
          "type": "address"
        }
      ],
      "name": "updateAdmin",
      "outputs": [],
      "stateMutability": "nonpayable",
      "type": "function"
    },
    {
      "inputs": [
        {
          "components": [
            {
              "internalType": "uint256",
              "name": "tokenId",
              "type": "uint256"
            },
            {
              "internalType": "uint256",
              "name": "minPrice",
              "type": "uint256"
            },
            {
              "internalType": "string",
              "name": "uri",
              "type": "string"
            },
            {
              "internalType": "bytes",
              "name": "signature",
              "type": "bytes"
            }
          ],
          "internalType": "struct NFT9.NFTVoucher",
          "name": "voucher",
          "type": "tuple"
        },
        {
          "internalType": "uint256",
          "name": "_royalty",
          "type": "uint256"
        }
      ],
      "name": "createAndBuyToken",
      "outputs": [
        {
          "internalType": "uint256",
          "name": "",
          "type": "uint256"
        }
      ],
      "stateMutability": "payable",
      "type": "function"
    },
    {
      "inputs": [
        {
          "components": [
            {
              "internalType": "uint256",
              "name": "tokenId",
              "type": "uint256"
            },
            {
              "internalType": "uint256",
              "name": "minPrice",
              "type": "uint256"
            },
            {
              "internalType": "string",
              "name": "uri",
              "type": "string"
            },
            {
              "internalType": "bytes",
              "name": "signature",
              "type": "bytes"
            }
          ],
          "internalType": "struct NFT9.NFTVoucher",
          "name": "voucher",
          "type": "tuple"
        },
        {
          "internalType": "uint256",
          "name": "_royalty",
          "type": "uint256"
        },
        {
          "internalType": "contract IERC20",
          "name": "_token",
          "type": "address"
        }
      ],
      "name": "createAndBuyTokenWETH",
      "outputs": [
        {
          "internalType": "uint256",
          "name": "",
          "type": "uint256"
        }
      ],
      "stateMutability": "payable",
      "type": "function"
    },
    {
      "inputs": [
        {
          "internalType": "uint256",
          "name": "_marketItemId",
          "type": "uint256"
        },
        {
          "components": [
            {
              "internalType": "uint256",
              "name": "tokenId",
              "type": "uint256"
            },
            {
              "internalType": "uint256",
              "name": "minPrice",
              "type": "uint256"
            },
            {
              "internalType": "string",
              "name": "uri",
              "type": "string"
            },
            {
              "internalType": "bytes",
              "name": "signature",
              "type": "bytes"
            }
          ],
          "internalType": "struct NFT9.NFTVoucher",
          "name": "voucher",
          "type": "tuple"
        }
      ],
      "name": "secondaryBuyToken",
      "outputs": [],
      "stateMutability": "payable",
      "type": "function"
    },
    {
      "inputs": [
        {
          "internalType": "uint256",
          "name": "_marketItemId",
          "type": "uint256"
        },
        {
          "components": [
            {
              "internalType": "uint256",
              "name": "tokenId",
              "type": "uint256"
            },
            {
              "internalType": "uint256",
              "name": "minPrice",
              "type": "uint256"
            },
            {
              "internalType": "string",
              "name": "uri",
              "type": "string"
            },
            {
              "internalType": "bytes",
              "name": "signature",
              "type": "bytes"
            }
          ],
          "internalType": "struct NFT9.NFTVoucher",
          "name": "voucher",
          "type": "tuple"
        }
      ],
      "name": "secondaryBuyTokenWETH",
      "outputs": [],
      "stateMutability": "payable",
      "type": "function"
    },
    {
      "inputs": [
        {
          "internalType": "uint256",
          "name": "tokenId",
          "type": "uint256"
        },
        {
          "internalType": "string",
          "name": "_tokenURI",
          "type": "string"
        }
      ],
      "name": "setTokenURI",
      "outputs": [],
      "stateMutability": "nonpayable",
      "type": "function"
    },
    {
      "inputs": [
        {
          "internalType": "uint256",
          "name": "tokenId",
          "type": "uint256"
        }
      ],
      "name": "burn",
      "outputs": [],
      "stateMutability": "nonpayable",
      "type": "function"
    },
    {
      "inputs": [],
      "name": "getChainID",
      "outputs": [
        {
          "internalType": "uint256",
          "name": "",
          "type": "uint256"
        }
      ],
      "stateMutability": "view",
      "type": "function"
    },
    {
      "inputs": [
        {
          "internalType": "uint256",
          "name": "_nftId",
          "type": "uint256"
        },
        {
          "internalType": "uint256",
          "name": "startingBid",
          "type": "uint256"
        },
        {
          "internalType": "uint256",
          "name": "auctionPeriodInDays",
          "type": "uint256"
        },
        {
          "internalType": "address",
          "name": "_token",
          "type": "address"
        }
      ],
      "name": "startAuction",
      "outputs": [],
      "stateMutability": "nonpayable",
      "type": "function"
    },
    {
      "inputs": [
        {
          "internalType": "uint256",
          "name": "_nftId",
          "type": "uint256"
        },
        {
          "internalType": "uint256",
          "name": "amount",
          "type": "uint256"
        }
      ],
      "name": "placeBid",
      "outputs": [],
      "stateMutability": "payable",
      "type": "function"
    },
    {
      "inputs": [
        {
          "components": [
            {
              "internalType": "uint256",
              "name": "tokenId",
              "type": "uint256"
            },
            {
              "internalType": "uint256",
              "name": "minPrice",
              "type": "uint256"
            },
            {
              "internalType": "string",
              "name": "uri",
              "type": "string"
            },
            {
              "internalType": "bytes",
              "name": "signature",
              "type": "bytes"
            }
          ],
          "internalType": "struct NFT9.NFTVoucher",
          "name": "voucher",
          "type": "tuple"
        },
        {
          "internalType": "address",
          "name": "bidder",
          "type": "address"
        }
      ],
      "name": "endAuction",
      "outputs": [],
      "stateMutability": "nonpayable",
      "type": "function"
    },
    {
      "inputs": [
        {
          "internalType": "uint256",
          "name": "_nftId",
          "type": "uint256"
        }
      ],
      "name": "withdrawBid",
      "outputs": [],
      "stateMutability": "nonpayable",
      "type": "function"
    }
  ],
  "bytecode": "0x6101406040523480156200001257600080fd5b506040518060400160405280600f81526020017f4c617a794e46542d566f756368657200000000000000000000000000000000008152506040518060400160405280600181526020017f31000000000000000000000000000000000000000000000000000000000000008152506040518060400160405280600e81526020017f4f70656e53656120546f6b656e730000000000000000000000000000000000008152506040518060400160405280600381526020017f4f535400000000000000000000000000000000000000000000000000000000008152508160009080519060200190620001039291906200025f565b5080600190805190602001906200011c9291906200025f565b50505060008280519060200120905060008280519060200120905060007f8b73c3c69bb8fe3d512ecc4cf759cc79239f7b179b0ffacaa9a75d522b39400f90508260e081815250508161010081815250504660a08181525050620001888184846200022360201b60201c565b608081815250503073ffffffffffffffffffffffffffffffffffffffff1660c08173ffffffffffffffffffffffffffffffffffffffff1660601b81525050806101208181525050505050505033601060006101000a81548173ffffffffffffffffffffffffffffffffffffffff021916908373ffffffffffffffffffffffffffffffffffffffff16021790555060026011819055506200044c565b600083838346306040516020016200024095949392919062000342565b6040516020818303038152906040528051906020012090509392505050565b8280546200026d90620003e7565b90600052602060002090601f016020900481019282620002915760008555620002dd565b82601f10620002ac57805160ff1916838001178555620002dd565b82800160010185558215620002dd579182015b82811115620002dc578251825591602001919060010190620002bf565b5b509050620002ec9190620002f0565b5090565b5b808211156200030b576000816000905550600101620002f1565b5090565b6200031a816200039f565b82525050565b6200032b81620003b3565b82525050565b6200033c81620003dd565b82525050565b600060a08201905062000359600083018862000320565b62000368602083018762000320565b62000377604083018662000320565b62000386606083018562000331565b6200039560808301846200030f565b9695505050505050565b6000620003ac82620003bd565b9050919050565b6000819050919050565b600073ffffffffffffffffffffffffffffffffffffffff82169050919050565b6000819050919050565b600060028204905060018216806200040057607f821691505b602082108114156200041757620004166200041d565b5b50919050565b7f4e487b7100000000000000000000000000000000000000000000000000000000600052602260045260246000fd5b60805160a05160c05160601c60e05161010051610120516186a86200049f6000396000615a1e01526000615a6001526000615a3f01526000615974015260006159ca015260006159f301526186a86000f3fe6080604052600436106102465760003560e01c80636352211e11610139578063aacdfe6f116100b6578063e2f273bd1161007a578063e2f273bd146108df578063e985e9c514610908578063ee80905514610945578063f7d1a6ed1461096e578063f851a440146109ab578063fedd23c9146109d657610246565b8063aacdfe6f146107e3578063b14c63c514610820578063b88d4fde1461085d578063c87b56dd14610886578063dfb64949146108c357610246565b806386aa6bfd116100fd57806386aa6bfd146106f357806389afd9b01461072357806395d89b411461074c5780639fc963d114610777578063a22cb465146107ba57610246565b80636352211e146105d4578063694e91b81461061157806370a082311461063c5780638183d74414610679578063861a3689146106b657610246565b806333f0f512116101c7578063481eb2841161018b578063481eb2841461050b57806351b59aee1461053457806351ef708a1461055d578063564b81ef1461058d57806357c90de5146105b857610246565b806333f0f512146104235780633f1ffcec1461043f57806342842e0e1461047c57806342966c68146104a5578063451df52e146104ce57610246565b80630eaaf4c81161020e5780630eaaf4c814610342578063162094c41461036b5780631f89ef131461039457806323b872dd146103d15780632e1a7d4d146103fa57610246565b806301ffc9a71461024b57806306fdde0314610288578063081812fc146102b3578063095ea7b3146102f05780630dff4e9314610319575b600080fd5b34801561025757600080fd5b50610272600480360381019061026d9190616228565b6109ff565b60405161027f9190616f6e565b60405180910390f35b34801561029457600080fd5b5061029d610ae1565b6040516102aa9190617066565b60405180910390f35b3480156102bf57600080fd5b506102da60048036038101906102d59190616389565b610b73565b6040516102e79190616e3a565b60405180910390f35b3480156102fc57600080fd5b50610317600480360381019061031291906161c3565b610bf8565b005b34801561032557600080fd5b50610340600480360381019061033b9190616638565b610d10565b005b34801561034e57600080fd5b5061036960048036038101906103649190616389565b610ec8565b005b34801561037757600080fd5b50610392600480360381019061038d919061648e565b610ed4565b005b3480156103a057600080fd5b506103bb60048036038101906103b69190616389565b610f24565b6040516103c89190616f6e565b60405180910390f35b3480156103dd57600080fd5b506103f860048036038101906103f391906160bd565b610f44565b005b34801561040657600080fd5b50610421600480360381019061041c9190616389565b610fa4565b005b61043d600480360381019061043891906164e2565b6112c1565b005b34801561044b57600080fd5b50610466600480360381019061046191906163db565b61155c565b6040516104739190617568565b60405180910390f35b34801561048857600080fd5b506104a3600480360381019061049e91906160bd565b611581565b005b3480156104b157600080fd5b506104cc60048036038101906104c79190616389565b6115a1565b005b3480156104da57600080fd5b506104f560048036038101906104f09190616389565b6115ef565b6040516105029190616e3a565b60405180910390f35b34801561051757600080fd5b50610532600480360381019061052d9190616572565b611622565b005b34801561054057600080fd5b5061055b6004803603810190610556919061627a565b611a46565b005b61057760048036038101906105729190616322565b611c9d565b6040516105849190617568565b60405180910390f35b34801561059957600080fd5b506105a2611ff6565b6040516105af9190617568565b60405180910390f35b6105d260048036038101906105cd9190616536565b612003565b005b3480156105e057600080fd5b506105fb60048036038101906105f69190616389565b612013565b6040516106089190616e3a565b60405180910390f35b34801561061d57600080fd5b506106266120c5565b6040516106339190617568565b60405180910390f35b34801561064857600080fd5b50610663600480360381019061065e9190616058565b6120cb565b6040516106709190617568565b60405180910390f35b34801561068557600080fd5b506106a0600480360381019061069b9190616389565b612183565b6040516106ad9190617568565b60405180910390f35b3480156106c257600080fd5b506106dd60048036038101906106d89190616389565b61219b565b6040516106ea9190616f6e565b60405180910390f35b61070d600480360381019061070891906162ce565b6121bb565b60405161071a9190617568565b60405180910390f35b34801561072f57600080fd5b5061074a600480360381019061074591906165d5565b612557565b005b34801561075857600080fd5b5061076161256a565b60405161076e9190617066565b60405180910390f35b34801561078357600080fd5b5061079e60048036038101906107999190616389565b6125fc565b6040516107b19796959493929190617636565b60405180910390f35b3480156107c657600080fd5b506107e160048036038101906107dc9190616187565b6126be565b005b3480156107ef57600080fd5b5061080a60048036038101906108059190616389565b6126d4565b6040516108179190616e3a565b60405180910390f35b34801561082c57600080fd5b5061084760048036038101906108429190616389565b612707565b6040516108549190617568565b60405180910390f35b34801561086957600080fd5b50610884600480360381019061087f919061610c565b61271f565b005b34801561089257600080fd5b506108ad60048036038101906108a89190616389565b612781565b6040516108ba9190617066565b60405180910390f35b6108dd60048036038101906108d891906164e2565b6128d3565b005b3480156108eb57600080fd5b5061090660048036038101906109019190616058565b612bb1565b005b34801561091457600080fd5b5061092f600480360381019061092a9190616081565b612c85565b60405161093c9190616f6e565b60405180910390f35b34801561095157600080fd5b5061096c60048036038101906109679190616417565b612d19565b005b34801561097a57600080fd5b5061099560048036038101906109909190616389565b613b63565b6040516109a29190616e3a565b60405180910390f35b3480156109b757600080fd5b506109c0613b96565b6040516109cd9190616e55565b60405180910390f35b3480156109e257600080fd5b506109fd60048036038101906109f89190616389565b613bbc565b005b60007f80ac58cd000000000000000000000000000000000000000000000000000000007bffffffffffffffffffffffffffffffffffffffffffffffffffffffff1916827bffffffffffffffffffffffffffffffffffffffffffffffffffffffff19161480610aca57507f5b5e139f000000000000000000000000000000000000000000000000000000007bffffffffffffffffffffffffffffffffffffffffffffffffffffffff1916827bffffffffffffffffffffffffffffffffffffffffffffffffffffffff1916145b80610ada5750610ad982613c56565b5b9050919050565b606060008054610af090617a88565b80601f0160208091040260200160405190810160405280929190818152602001828054610b1c90617a88565b8015610b695780601f10610b3e57610100808354040283529160200191610b69565b820191906000526020600020905b815481529060010190602001808311610b4c57829003601f168201915b5050505050905090565b6000610b7e82613cc0565b610bbd576040517f08c379a0000000000000000000000000000000000000000000000000000000008152600401610bb4906173a8565b60405180910390fd5b6004600083815260200190815260200160002060009054906101000a900473ffffffffffffffffffffffffffffffffffffffff169050919050565b6000610c0382612013565b90508073ffffffffffffffffffffffffffffffffffffffff168373ffffffffffffffffffffffffffffffffffffffff161415610c74576040517f08c379a0000000000000000000000000000000000000000000000000000000008152600401610c6b90617428565b60405180910390fd5b8073ffffffffffffffffffffffffffffffffffffffff16610c93613d2c565b73ffffffffffffffffffffffffffffffffffffffff161480610cc25750610cc181610cbc613d2c565b612c85565b5b610d01576040517f08c379a0000000000000000000000000000000000000000000000000000000008152600401610cf890617288565b60405180910390fd5b610d0b8383613d34565b505050565b6008600086815260200190815260200160002060009054906101000a900460ff1615610d71576040517f08c379a0000000000000000000000000000000000000000000000000000000008152600401610d6890617188565b60405180910390fd5b806007600087815260200190815260200160002060006101000a81548173ffffffffffffffffffffffffffffffffffffffff021916908373ffffffffffffffffffffffffffffffffffffffff16021790555083600b60008781526020019081526020016000208190555060016008600087815260200190815260200160002060006101000a81548160ff0219169083151502179055506201518083610e1691906178af565b42610e219190617828565b600a60008781526020019081526020016000208190555081600e600087815260200190815260200160002060006101000a81548173ffffffffffffffffffffffffffffffffffffffff021916908373ffffffffffffffffffffffffffffffffffffffff1602179055507ff06a29c94c6f4edc1085072972d9441f7603e81c8535a308f214285d0653c85085604051610eb99190617568565b60405180910390a15050505050565b610ed181610fa4565b50565b81610ede81612013565b73ffffffffffffffffffffffffffffffffffffffff163373ffffffffffffffffffffffffffffffffffffffff1614610f1557600080fd5b610f1f8383610ed4565b505050565b60086020528060005260406000206000915054906101000a900460ff1681565b610f55610f4f613d2c565b82613ded565b610f94576040517f08c379a0000000000000000000000000000000000000000000000000000000008152600401610f8b90617448565b60405180910390fd5b610f9f838383613ecb565b505050565b6009600082815260200190815260200160002060009054906101000a900460ff16611004576040517f08c379a0000000000000000000000000000000000000000000000000000000008152600401610ffb90617408565b60405180910390fd5b6000600d600083815260200190815260200160002060003373ffffffffffffffffffffffffffffffffffffffff1673ffffffffffffffffffffffffffffffffffffffff1681526020019081526020016000205490506000811161109c576040517f08c379a0000000000000000000000000000000000000000000000000000000008152600401611093906174c8565b60405180910390fd5b6000600d600084815260200190815260200160002060003373ffffffffffffffffffffffffffffffffffffffff1673ffffffffffffffffffffffffffffffffffffffff16815260200190815260200160002081905550600073ffffffffffffffffffffffffffffffffffffffff16600e600084815260200190815260200160002060009054906101000a900473ffffffffffffffffffffffffffffffffffffffff1673ffffffffffffffffffffffffffffffffffffffff1614611225576000600e600084815260200190815260200160002060009054906101000a900473ffffffffffffffffffffffffffffffffffffffff1690508073ffffffffffffffffffffffffffffffffffffffff1663a9059cbb33846040518363ffffffff1660e01b81526004016111cc929190616f45565b602060405180830381600087803b1580156111e657600080fd5b505af11580156111fa573d6000803e3d6000fd5b505050506040513d601f19601f8201168201806040525081019061121e91906161ff565b505061126d565b3373ffffffffffffffffffffffffffffffffffffffff166108fc829081150290604051600060405180830381858888f1935050505015801561126b573d6000803e3d6000fd5b505b3373ffffffffffffffffffffffffffffffffffffffff167f9da6493a92039daf47d1f2d7a782299c5994c6323eb1e972f69c432089ec52bf83836040516112b59291906175ba565b60405180910390a25050565b60006112cc82614127565b90508073ffffffffffffffffffffffffffffffffffffffff163373ffffffffffffffffffffffffffffffffffffffff16141561133d576040517f08c379a000000000000000000000000000000000000000000000000000000000815260040161133490617488565b60405180910390fd5b6012600084815260200190815260200160002060050160009054906101000a900473ffffffffffffffffffffffffffffffffffffffff1673ffffffffffffffffffffffffffffffffffffffff168173ffffffffffffffffffffffffffffffffffffffff16146113e1576040517f08c379a00000000000000000000000000000000000000000000000000000000081526004016113d8906174a8565b60405180910390fd5b816000013560126000858152602001908152602001600020600101541461143d576040517f08c379a0000000000000000000000000000000000000000000000000000000008152600401611434906170c8565b60405180910390fd5b806012600085815260200190815260200160002060040160006101000a81548173ffffffffffffffffffffffffffffffffffffffff021916908373ffffffffffffffffffffffffffffffffffffffff160217905550336012600085815260200190815260200160002060050160006101000a81548173ffffffffffffffffffffffffffffffffffffffff021916908373ffffffffffffffffffffffffffffffffffffffff16021790555061150881336012600087815260200190815260200160002060010154613ecb565b61151782602001358433614199565b827f43fd502c2b3ccce9ab96e3398308b712eb7ff697a75a2afe87316bdf94af0efe8233856020013560405161154f93929190616ec2565b60405180910390a2505050565b600d602052816000526040600020602052806000526040600020600091509150505481565b61159c8383836040518060200160405280600081525061271f565b505050565b806115ab81612013565b73ffffffffffffffffffffffffffffffffffffffff163373ffffffffffffffffffffffffffffffffffffffff16146115e257600080fd5b6115eb826145cf565b5050565b600c6020528060005260406000206000915054906101000a900473ffffffffffffffffffffffffffffffffffffffff1681565b60008073ffffffffffffffffffffffffffffffffffffffff16600e600087815260200190815260200160002060009054906101000a900473ffffffffffffffffffffffffffffffffffffffff1673ffffffffffffffffffffffffffffffffffffffff1614156117435781600d600087815260200190815260200160002060008573ffffffffffffffffffffffffffffffffffffffff1673ffffffffffffffffffffffffffffffffffffffff168152602001908152602001600020546116e79190617828565b9050600b600086815260200190815260200160002054811161173e576040517f08c379a0000000000000000000000000000000000000000000000000000000008152600401611735906170a8565b60405180910390fd5b611930565b6000600e600087815260200190815260200160002060009054906101000a900473ffffffffffffffffffffffffffffffffffffffff16905060008173ffffffffffffffffffffffffffffffffffffffff1663dd62ed3e86306040518363ffffffff1660e01b81526004016117b8929190616e99565b60206040518083038186803b1580156117d057600080fd5b505afa1580156117e4573d6000803e3d6000fd5b505050506040513d601f19601f8201168201806040525081019061180891906163b2565b90508581101561184d576040517f08c379a000000000000000000000000000000000000000000000000000000000815260040161184490617548565b60405180910390fd5b85600d600089815260200190815260200160002060008773ffffffffffffffffffffffffffffffffffffffff1673ffffffffffffffffffffffffffffffffffffffff168152602001908152602001600020546118a99190617828565b9250600b6000888152602001908152602001600020548311611900576040517f08c379a00000000000000000000000000000000000000000000000000000000081526004016118f7906170a8565b60405180910390fd5b61192d8530888573ffffffffffffffffffffffffffffffffffffffff16614622909392919063ffffffff16565b50505b80600d600087815260200190815260200160002060008573ffffffffffffffffffffffffffffffffffffffff1673ffffffffffffffffffffffffffffffffffffffff1681526020019081526020016000208190555080600b60008781526020019081526020016000208190555082600c600087815260200190815260200160002060006101000a81548173ffffffffffffffffffffffffffffffffffffffff021916908373ffffffffffffffffffffffffffffffffffffffff1602179055508273ffffffffffffffffffffffffffffffffffffffff167fdcd726e11f8b5e160f00290f0fe3a1abb547474e53a8e7a8f49a85e7b1ca31998683604051611a379291906175ba565b60405180910390a25050505050565b6000611a5183614127565b90508073ffffffffffffffffffffffffffffffffffffffff16600760008560000135815260200190815260200160002060009054906101000a900473ffffffffffffffffffffffffffffffffffffffff1673ffffffffffffffffffffffffffffffffffffffff1614611af8576040517f08c379a0000000000000000000000000000000000000000000000000000000008152600401611aef906171e8565b60405180910390fd5b3373ffffffffffffffffffffffffffffffffffffffff168173ffffffffffffffffffffffffffffffffffffffff1614611b66576040517f08c379a0000000000000000000000000000000000000000000000000000000008152600401611b5d906172e8565b60405180910390fd5b611b9b83600001358383601154601060009054906101000a900473ffffffffffffffffffffffffffffffffffffffff16612d19565b611ba98184600001356146ab565b611c098360000135848060400190611bc191906176fc565b8080601f016020809104026020016040519081016040528093929190818152602001838380828437600081840152601f19601f82011690508083019250505050505050614879565b600073ffffffffffffffffffffffffffffffffffffffff168273ffffffffffffffffffffffffffffffffffffffff1614611c5157611c4c81838560000135613ecb565b611c98565b611c9781600c60008660000135815260200190815260200160002060009054906101000a900473ffffffffffffffffffffffffffffffffffffffff168560000135613ecb565b5b505050565b600080611ca985614127565b90508073ffffffffffffffffffffffffffffffffffffffff163373ffffffffffffffffffffffffffffffffffffffff161415611d1a576040517f08c379a0000000000000000000000000000000000000000000000000000000008152600401611d1190617488565b60405180910390fd5b611d24600f6148ed565b6000611d30600f614903565b90506040518060e00160405280828152602001876000013581526020018681526020018373ffffffffffffffffffffffffffffffffffffffff1681526020018373ffffffffffffffffffffffffffffffffffffffff1681526020013373ffffffffffffffffffffffffffffffffffffffff1681526020018573ffffffffffffffffffffffffffffffffffffffff168152506012600083815260200190815260200160002060008201518160000155602082015181600101556040820151816002015560608201518160030160006101000a81548173ffffffffffffffffffffffffffffffffffffffff021916908373ffffffffffffffffffffffffffffffffffffffff16021790555060808201518160040160006101000a81548173ffffffffffffffffffffffffffffffffffffffff021916908373ffffffffffffffffffffffffffffffffffffffff16021790555060a08201518160050160006101000a81548173ffffffffffffffffffffffffffffffffffffffff021916908373ffffffffffffffffffffffffffffffffffffffff16021790555060c08201518160060160006101000a81548173ffffffffffffffffffffffffffffffffffffffff021916908373ffffffffffffffffffffffffffffffffffffffff160217905550905050611f1f8287600001356146ab565b611f7f8660000135878060400190611f3791906176fc565b8080601f016020809104026020016040519081016040528093929190818152602001838380828437600081840152601f19601f82011690508083019250505050505050614879565b611f8e82338860000135613ecb565b611f9d86602001358233614911565b8560000135817f707ba65071f3941b3650c9f76a3a53a37f79ffd8277eb654eae8b8a83eb4a02b886020013588868733604051611fde9594939291906175e3565b60405180910390a38560000135925050509392505050565b6000804690508091505090565b61200f82823334611622565b5050565b6000806002600084815260200190815260200160002060009054906101000a900473ffffffffffffffffffffffffffffffffffffffff169050600073ffffffffffffffffffffffffffffffffffffffff168173ffffffffffffffffffffffffffffffffffffffff1614156120bc576040517f08c379a00000000000000000000000000000000000000000000000000000000081526004016120b3906172c8565b60405180910390fd5b80915050919050565b60115481565b60008073ffffffffffffffffffffffffffffffffffffffff168273ffffffffffffffffffffffffffffffffffffffff16141561213c576040517f08c379a0000000000000000000000000000000000000000000000000000000008152600401612133906172a8565b60405180910390fd5b600360008373ffffffffffffffffffffffffffffffffffffffff1673ffffffffffffffffffffffffffffffffffffffff168152602001908152602001600020549050919050565b600a6020528060005260406000206000915090505481565b60096020528060005260406000206000915054906101000a900460ff1681565b6000806121c784614127565b90508073ffffffffffffffffffffffffffffffffffffffff163373ffffffffffffffffffffffffffffffffffffffff161415612238576040517f08c379a000000000000000000000000000000000000000000000000000000000815260040161222f90617488565b60405180910390fd5b836020013534101561227f576040517f08c379a000000000000000000000000000000000000000000000000000000000815260040161227690617528565b60405180910390fd5b612289600f6148ed565b6000612295600f614903565b90506040518060e00160405280828152602001866000013581526020018581526020018373ffffffffffffffffffffffffffffffffffffffff1681526020018373ffffffffffffffffffffffffffffffffffffffff1681526020013373ffffffffffffffffffffffffffffffffffffffff168152602001600073ffffffffffffffffffffffffffffffffffffffff168152506012600083815260200190815260200160002060008201518160000155602082015181600101556040820151816002015560608201518160030160006101000a81548173ffffffffffffffffffffffffffffffffffffffff021916908373ffffffffffffffffffffffffffffffffffffffff16021790555060808201518160040160006101000a81548173ffffffffffffffffffffffffffffffffffffffff021916908373ffffffffffffffffffffffffffffffffffffffff16021790555060a08201518160050160006101000a81548173ffffffffffffffffffffffffffffffffffffffff021916908373ffffffffffffffffffffffffffffffffffffffff16021790555060c08201518160060160006101000a81548173ffffffffffffffffffffffffffffffffffffffff021916908373ffffffffffffffffffffffffffffffffffffffff1602179055509050506124858286600001356146ab565b6124e5856000013586806040019061249d91906176fc565b8080601f016020809104026020016040519081016040528093929190818152602001838380828437600081840152601f19601f82011690508083019250505050505050614879565b6124f482338760000135613ecb565b6124ff348233614911565b8460000135817f707ba65071f3941b3650c9f76a3a53a37f79ffd8277eb654eae8b8a83eb4a02b8760200135878687336040516125409594939291906175e3565b60405180910390a384600001359250505092915050565b6125648484848433610d10565b50505050565b60606001805461257990617a88565b80601f01602080910402602001604051908101604052809291908181526020018280546125a590617a88565b80156125f25780601f106125c7576101008083540402835291602001916125f2565b820191906000526020600020905b8154815290600101906020018083116125d557829003601f168201915b5050505050905090565b60126020528060005260406000206000915090508060000154908060010154908060020154908060030160009054906101000a900473ffffffffffffffffffffffffffffffffffffffff16908060040160009054906101000a900473ffffffffffffffffffffffffffffffffffffffff16908060050160009054906101000a900473ffffffffffffffffffffffffffffffffffffffff16908060060160009054906101000a900473ffffffffffffffffffffffffffffffffffffffff16905087565b6126d06126c9613d2c565b8383614cfd565b5050565b60076020528060005260406000206000915054906101000a900473ffffffffffffffffffffffffffffffffffffffff1681565b600b6020528060005260406000206000915090505481565b61273061272a613d2c565b83613ded565b61276f576040517f08c379a000000000000000000000000000000000000000000000000000000000815260040161276690617448565b60405180910390fd5b61277b84848484614e6a565b50505050565b606061278c82613cc0565b6127cb576040517f08c379a00000000000000000000000000000000000000000000000000000000081526004016127c290617388565b60405180910390fd5b60006006600084815260200190815260200160002080546127eb90617a88565b80601f016020809104026020016040519081016040528092919081815260200182805461281790617a88565b80156128645780601f1061283957610100808354040283529160200191612864565b820191906000526020600020905b81548152906001019060200180831161284757829003601f168201915b505050505090506000612875614ec6565b905060008151141561288b5781925050506128ce565b6000825111156128c05780826040516020016128a8929190616ddf565b604051602081830303815290604052925050506128ce565b6128c984614edd565b925050505b919050565b60006128de82614127565b90508073ffffffffffffffffffffffffffffffffffffffff163373ffffffffffffffffffffffffffffffffffffffff16141561294f576040517f08c379a000000000000000000000000000000000000000000000000000000000815260040161294690617488565b60405180910390fd5b6012600084815260200190815260200160002060050160009054906101000a900473ffffffffffffffffffffffffffffffffffffffff1673ffffffffffffffffffffffffffffffffffffffff168173ffffffffffffffffffffffffffffffffffffffff16146129f3576040517f08c379a00000000000000000000000000000000000000000000000000000000081526004016129ea906174a8565b60405180910390fd5b8160000135601260008581526020019081526020016000206001015414612a4f576040517f08c379a0000000000000000000000000000000000000000000000000000000008152600401612a46906170c8565b60405180910390fd5b8160200135341015612a96576040517f08c379a0000000000000000000000000000000000000000000000000000000008152600401612a8d90617528565b60405180910390fd5b806012600085815260200190815260200160002060040160006101000a81548173ffffffffffffffffffffffffffffffffffffffff021916908373ffffffffffffffffffffffffffffffffffffffff160217905550336012600085815260200190815260200160002060050160006101000a81548173ffffffffffffffffffffffffffffffffffffffff021916908373ffffffffffffffffffffffffffffffffffffffff160217905550612b6181336012600087815260200190815260200160002060010154613ecb565b612b6c348433614199565b827f43fd502c2b3ccce9ab96e3398308b712eb7ff697a75a2afe87316bdf94af0efe82338560200135604051612ba493929190616ec2565b60405180910390a2505050565b601060009054906101000a900473ffffffffffffffffffffffffffffffffffffffff1673ffffffffffffffffffffffffffffffffffffffff163373ffffffffffffffffffffffffffffffffffffffff1614612c41576040517f08c379a0000000000000000000000000000000000000000000000000000000008152600401612c3890617268565b60405180910390fd5b80601060006101000a81548173ffffffffffffffffffffffffffffffffffffffff021916908373ffffffffffffffffffffffffffffffffffffffff16021790555050565b6000600560008473ffffffffffffffffffffffffffffffffffffffff1673ffffffffffffffffffffffffffffffffffffffff16815260200190815260200160002060008373ffffffffffffffffffffffffffffffffffffffff1673ffffffffffffffffffffffffffffffffffffffff16815260200190815260200160002060009054906101000a900460ff16905092915050565b6008600086815260200190815260200160002060009054906101000a900460ff16612d79576040517f08c379a0000000000000000000000000000000000000000000000000000000008152600401612d7090617328565b60405180910390fd5b600a600086815260200190815260200160002054421015612dcf576040517f08c379a0000000000000000000000000000000000000000000000000000000008152600401612dc690617168565b60405180910390fd5b6009600086815260200190815260200160002060009054906101000a900460ff1615612e30576040517f08c379a0000000000000000000000000000000000000000000000000000000008152600401612e2790617508565b60405180910390fd5b6000600d600087815260200190815260200160002060008673ffffffffffffffffffffffffffffffffffffffff1673ffffffffffffffffffffffffffffffffffffffff168152602001908152602001600020541180612ebb5750600073ffffffffffffffffffffffffffffffffffffffff168473ffffffffffffffffffffffffffffffffffffffff16145b612efa576040517f08c379a0000000000000000000000000000000000000000000000000000000008152600401612ef190617108565b60405180910390fd5b60016009600087815260200190815260200160002060006101000a81548160ff021916908315150217905550600073ffffffffffffffffffffffffffffffffffffffff168473ffffffffffffffffffffffffffffffffffffffff1614158015612fc35750600073ffffffffffffffffffffffffffffffffffffffff16600e600087815260200190815260200160002060009054906101000a900473ffffffffffffffffffffffffffffffffffffffff1673ffffffffffffffffffffffffffffffffffffffff1614155b156132e95760006064600d600088815260200190815260200160002060008773ffffffffffffffffffffffffffffffffffffffff1673ffffffffffffffffffffffffffffffffffffffff168152602001908152602001600020548461302891906178af565b613032919061787e565b905060006064600d600089815260200190815260200160002060008873ffffffffffffffffffffffffffffffffffffffff1673ffffffffffffffffffffffffffffffffffffffff168152602001908152602001600020548560646130969190617909565b6130a091906178af565b6130aa919061787e565b90506000600e600089815260200190815260200160002060009054906101000a900473ffffffffffffffffffffffffffffffffffffffff1690508073ffffffffffffffffffffffffffffffffffffffff1663a9059cbb85856040518363ffffffff1660e01b815260040161311f929190616e70565b602060405180830381600087803b15801561313957600080fd5b505af115801561314d573d6000803e3d6000fd5b505050506040513d601f19601f8201168201806040525081019061317191906161ff565b508073ffffffffffffffffffffffffffffffffffffffff1663a9059cbb87846040518363ffffffff1660e01b81526004016131ad929190616f45565b602060405180830381600087803b1580156131c757600080fd5b505af11580156131db573d6000803e3d6000fd5b505050506040513d601f19601f820116820180604052508101906131ff91906161ff565b506000600d60008a815260200190815260200160002060008973ffffffffffffffffffffffffffffffffffffffff1673ffffffffffffffffffffffffffffffffffffffff168152602001908152602001600020819055507fad71bc980e1f9155e488acf543cc5276beae185d612505ea3eaff929e4fe37f08888600d60008c815260200190815260200160002060008b73ffffffffffffffffffffffffffffffffffffffff1673ffffffffffffffffffffffffffffffffffffffff168152602001908152602001600020546040516132d993929190617583565b60405180910390a1505050613b5c565b600073ffffffffffffffffffffffffffffffffffffffff168473ffffffffffffffffffffffffffffffffffffffff161480156133855750600073ffffffffffffffffffffffffffffffffffffffff16600e600087815260200190815260200160002060009054906101000a900473ffffffffffffffffffffffffffffffffffffffff1673ffffffffffffffffffffffffffffffffffffffff1614155b1561365a5760006064600b600088815260200190815260200160002054846133ad91906178af565b6133b7919061787e565b905060006064600b6000898152602001908152602001600020548560646133de9190617909565b6133e891906178af565b6133f2919061787e565b90506000600e600089815260200190815260200160002060009054906101000a900473ffffffffffffffffffffffffffffffffffffffff1690508073ffffffffffffffffffffffffffffffffffffffff1663a9059cbb85856040518363ffffffff1660e01b8152600401613467929190616e70565b602060405180830381600087803b15801561348157600080fd5b505af1158015613495573d6000803e3d6000fd5b505050506040513d601f19601f820116820180604052508101906134b991906161ff565b508073ffffffffffffffffffffffffffffffffffffffff1663a9059cbb87846040518363ffffffff1660e01b81526004016134f5929190616f45565b602060405180830381600087803b15801561350f57600080fd5b505af1158015613523573d6000803e3d6000fd5b505050506040513d601f19601f8201168201806040525081019061354791906161ff565b506000600d60008a81526020019081526020016000206000600c60008c815260200190815260200160002060009054906101000a900473ffffffffffffffffffffffffffffffffffffffff1673ffffffffffffffffffffffffffffffffffffffff1673ffffffffffffffffffffffffffffffffffffffff168152602001908152602001600020819055507fad71bc980e1f9155e488acf543cc5276beae185d612505ea3eaff929e4fe37f088600c60008b815260200190815260200160002060009054906101000a900473ffffffffffffffffffffffffffffffffffffffff16600b60008c81526020019081526020016000205460405161364a93929190617583565b60405180910390a1505050613b5b565b600073ffffffffffffffffffffffffffffffffffffffff168473ffffffffffffffffffffffffffffffffffffffff16141580156136f65750600073ffffffffffffffffffffffffffffffffffffffff16600e600087815260200190815260200160002060009054906101000a900473ffffffffffffffffffffffffffffffffffffffff1673ffffffffffffffffffffffffffffffffffffffff16145b156139555760006064600d600088815260200190815260200160002060008773ffffffffffffffffffffffffffffffffffffffff1673ffffffffffffffffffffffffffffffffffffffff168152602001908152602001600020548461375b91906178af565b613765919061787e565b905060006064600d600089815260200190815260200160002060008873ffffffffffffffffffffffffffffffffffffffff1673ffffffffffffffffffffffffffffffffffffffff168152602001908152602001600020548560646137c99190617909565b6137d391906178af565b6137dd919061787e565b90508273ffffffffffffffffffffffffffffffffffffffff166108fc839081150290604051600060405180830381858888f19350505050158015613825573d6000803e3d6000fd5b508473ffffffffffffffffffffffffffffffffffffffff166108fc829081150290604051600060405180830381858888f1935050505015801561386c573d6000803e3d6000fd5b506000600d600089815260200190815260200160002060008873ffffffffffffffffffffffffffffffffffffffff1673ffffffffffffffffffffffffffffffffffffffff168152602001908152602001600020819055507fad71bc980e1f9155e488acf543cc5276beae185d612505ea3eaff929e4fe37f08787600d60008b815260200190815260200160002060008a73ffffffffffffffffffffffffffffffffffffffff1673ffffffffffffffffffffffffffffffffffffffff1681526020019081526020016000205460405161394693929190617583565b60405180910390a15050613b5a565b60006064600b6000888152602001908152602001600020548461397891906178af565b613982919061787e565b905060006064600b6000898152602001908152602001600020548560646139a99190617909565b6139b391906178af565b6139bd919061787e565b90508273ffffffffffffffffffffffffffffffffffffffff166108fc839081150290604051600060405180830381858888f19350505050158015613a05573d6000803e3d6000fd5b508473ffffffffffffffffffffffffffffffffffffffff166108fc829081150290604051600060405180830381858888f19350505050158015613a4c573d6000803e3d6000fd5b506000600d60008981526020019081526020016000206000600c60008b815260200190815260200160002060009054906101000a900473ffffffffffffffffffffffffffffffffffffffff1673ffffffffffffffffffffffffffffffffffffffff1673ffffffffffffffffffffffffffffffffffffffff168152602001908152602001600020819055507fad71bc980e1f9155e488acf543cc5276beae185d612505ea3eaff929e4fe37f087600c60008a815260200190815260200160002060009054906101000a900473ffffffffffffffffffffffffffffffffffffffff16600b60008b815260200190815260200160002054604051613b4f93929190617583565b60405180910390a150505b5b5b5050505050565b600e6020528060005260406000206000915054906101000a900473ffffffffffffffffffffffffffffffffffffffff1681565b601060009054906101000a900473ffffffffffffffffffffffffffffffffffffffff1681565b601060009054906101000a900473ffffffffffffffffffffffffffffffffffffffff1673ffffffffffffffffffffffffffffffffffffffff163373ffffffffffffffffffffffffffffffffffffffff1614613c4c576040517f08c379a0000000000000000000000000000000000000000000000000000000008152600401613c4390617268565b60405180910390fd5b8060118190555050565b60007f01ffc9a7000000000000000000000000000000000000000000000000000000007bffffffffffffffffffffffffffffffffffffffffffffffffffffffff1916827bffffffffffffffffffffffffffffffffffffffffffffffffffffffff1916149050919050565b60008073ffffffffffffffffffffffffffffffffffffffff166002600084815260200190815260200160002060009054906101000a900473ffffffffffffffffffffffffffffffffffffffff1673ffffffffffffffffffffffffffffffffffffffff1614159050919050565b600033905090565b816004600083815260200190815260200160002060006101000a81548173ffffffffffffffffffffffffffffffffffffffff021916908373ffffffffffffffffffffffffffffffffffffffff160217905550808273ffffffffffffffffffffffffffffffffffffffff16613da783612013565b73ffffffffffffffffffffffffffffffffffffffff167f8c5be1e5ebec7d5bd14f71427d1e84f3dd0314c0f7b2291e5b200ac8c7c3b92560405160405180910390a45050565b6000613df882613cc0565b613e37576040517f08c379a0000000000000000000000000000000000000000000000000000000008152600401613e2e90617248565b60405180910390fd5b6000613e4283612013565b90508073ffffffffffffffffffffffffffffffffffffffff168473ffffffffffffffffffffffffffffffffffffffff161480613eb157508373ffffffffffffffffffffffffffffffffffffffff16613e9984610b73565b73ffffffffffffffffffffffffffffffffffffffff16145b80613ec25750613ec18185612c85565b5b91505092915050565b8273ffffffffffffffffffffffffffffffffffffffff16613eeb82612013565b73ffffffffffffffffffffffffffffffffffffffff1614613f41576040517f08c379a0000000000000000000000000000000000000000000000000000000008152600401613f38906173c8565b60405180910390fd5b600073ffffffffffffffffffffffffffffffffffffffff168273ffffffffffffffffffffffffffffffffffffffff161415613fb1576040517f08c379a0000000000000000000000000000000000000000000000000000000008152600401613fa8906171a8565b60405180910390fd5b613fbc838383614f84565b613fc7600082613d34565b6001600360008573ffffffffffffffffffffffffffffffffffffffff1673ffffffffffffffffffffffffffffffffffffffff16815260200190815260200160002060008282546140179190617909565b925050819055506001600360008473ffffffffffffffffffffffffffffffffffffffff1673ffffffffffffffffffffffffffffffffffffffff168152602001908152602001600020600082825461406e9190617828565b92505081905550816002600083815260200190815260200160002060006101000a81548173ffffffffffffffffffffffffffffffffffffffff021916908373ffffffffffffffffffffffffffffffffffffffff160217905550808273ffffffffffffffffffffffffffffffffffffffff168473ffffffffffffffffffffffffffffffffffffffff167fddf252ad1be2c89b69c2b068fc378daa952ba7f163c4a11628f55a4df523b3ef60405160405180910390a4505050565b60008061413383614f89565b90506141918184806060019061414991906176a5565b8080601f016020809104026020016040519081016040528093929190818152602001838380828437600081840152601f19601f82011690508083019250505050505050615014565b915050919050565b600060648460126000868152602001908152602001600020600201546141bf91906178af565b6141c9919061787e565b90506000606485601260008781526020019081526020016000206002015460646141f39190617909565b6141fd91906178af565b614207919061787e565b9050600073ffffffffffffffffffffffffffffffffffffffff166012600086815260200190815260200160002060060160009054906101000a900473ffffffffffffffffffffffffffffffffffffffff1673ffffffffffffffffffffffffffffffffffffffff161415614373576012600085815260200190815260200160002060030160009054906101000a900473ffffffffffffffffffffffffffffffffffffffff1673ffffffffffffffffffffffffffffffffffffffff166108fc839081150290604051600060405180830381858888f193505050501580156142f0573d6000803e3d6000fd5b506012600085815260200190815260200160002060040160009054906101000a900473ffffffffffffffffffffffffffffffffffffffff1673ffffffffffffffffffffffffffffffffffffffff166108fc829081150290604051600060405180830381858888f1935050505015801561436d573d6000803e3d6000fd5b506145c8565b60006012600086815260200190815260200160002060060160009054906101000a900473ffffffffffffffffffffffffffffffffffffffff1690508073ffffffffffffffffffffffffffffffffffffffff166323b872dd8530896040518463ffffffff1660e01b81526004016143eb93929190616ec2565b602060405180830381600087803b15801561440557600080fd5b505af1158015614419573d6000803e3d6000fd5b505050506040513d601f19601f8201168201806040525081019061443d91906161ff565b508073ffffffffffffffffffffffffffffffffffffffff1663a9059cbb6012600088815260200190815260200160002060030160009054906101000a900473ffffffffffffffffffffffffffffffffffffffff16856040518363ffffffff1660e01b81526004016144af929190616e70565b602060405180830381600087803b1580156144c957600080fd5b505af11580156144dd573d6000803e3d6000fd5b505050506040513d601f19601f8201168201806040525081019061450191906161ff565b508073ffffffffffffffffffffffffffffffffffffffff1663a9059cbb6012600088815260200190815260200160002060040160009054906101000a900473ffffffffffffffffffffffffffffffffffffffff16846040518363ffffffff1660e01b8152600401614573929190616e70565b602060405180830381600087803b15801561458d57600080fd5b505af11580156145a1573d6000803e3d6000fd5b505050506040513d601f19601f820116820180604052508101906145c591906161ff565b50505b5050505050565b6145d88161503b565b60006006600083815260200190815260200160002080546145f890617a88565b90501461461f5760066000828152602001908152602001600020600061461e9190615dcd565b5b50565b6146a5846323b872dd60e01b85858560405160240161464393929190616ec2565b604051602081830303815290604052907bffffffffffffffffffffffffffffffffffffffffffffffffffffffff19166020820180517bffffffffffffffffffffffffffffffffffffffffffffffffffffffff838183161783525050505061514c565b50505050565b600073ffffffffffffffffffffffffffffffffffffffff168273ffffffffffffffffffffffffffffffffffffffff16141561471b576040517f08c379a000000000000000000000000000000000000000000000000000000000815260040161471290617368565b60405180910390fd5b61472481613cc0565b15614764576040517f08c379a000000000000000000000000000000000000000000000000000000000815260040161475b90617148565b60405180910390fd5b61477060008383614f84565b6001600360008473ffffffffffffffffffffffffffffffffffffffff1673ffffffffffffffffffffffffffffffffffffffff16815260200190815260200160002060008282546147c09190617828565b92505081905550816002600083815260200190815260200160002060006101000a81548173ffffffffffffffffffffffffffffffffffffffff021916908373ffffffffffffffffffffffffffffffffffffffff160217905550808273ffffffffffffffffffffffffffffffffffffffff16600073ffffffffffffffffffffffffffffffffffffffff167fddf252ad1be2c89b69c2b068fc378daa952ba7f163c4a11628f55a4df523b3ef60405160405180910390a45050565b61488282613cc0565b6148c1576040517f08c379a00000000000000000000000000000000000000000000000000000000081526004016148b890617308565b60405180910390fd5b806006600084815260200190815260200160002090805190602001906148e8929190615e0d565b505050565b6001816000016000828254019250508190555050565b600081600001549050919050565b6000839050600060648260115461492891906178af565b614932919061787e565b9050600060648360115460646149489190617909565b61495291906178af565b61495c919061787e565b9050600073ffffffffffffffffffffffffffffffffffffffff166012600087815260200190815260200160002060060160009054906101000a900473ffffffffffffffffffffffffffffffffffffffff1673ffffffffffffffffffffffffffffffffffffffff161415614ab457601060009054906101000a900473ffffffffffffffffffffffffffffffffffffffff1673ffffffffffffffffffffffffffffffffffffffff166108fc839081150290604051600060405180830381858888f19350505050158015614a31573d6000803e3d6000fd5b506012600086815260200190815260200160002060040160009054906101000a900473ffffffffffffffffffffffffffffffffffffffff1673ffffffffffffffffffffffffffffffffffffffff166108fc829081150290604051600060405180830381858888f19350505050158015614aae573d6000803e3d6000fd5b50614cf5565b60006012600087815260200190815260200160002060060160009054906101000a900473ffffffffffffffffffffffffffffffffffffffff1690508073ffffffffffffffffffffffffffffffffffffffff166323b872dd8630876040518463ffffffff1660e01b8152600401614b2c93929190616ec2565b602060405180830381600087803b158015614b4657600080fd5b505af1158015614b5a573d6000803e3d6000fd5b505050506040513d601f19601f82011682018060405250810190614b7e91906161ff565b508073ffffffffffffffffffffffffffffffffffffffff1663a9059cbb601060009054906101000a900473ffffffffffffffffffffffffffffffffffffffff16856040518363ffffffff1660e01b8152600401614bdc929190616e70565b602060405180830381600087803b158015614bf657600080fd5b505af1158015614c0a573d6000803e3d6000fd5b505050506040513d601f19601f82011682018060405250810190614c2e91906161ff565b508073ffffffffffffffffffffffffffffffffffffffff1663a9059cbb6012600089815260200190815260200160002060040160009054906101000a900473ffffffffffffffffffffffffffffffffffffffff16846040518363ffffffff1660e01b8152600401614ca0929190616e70565b602060405180830381600087803b158015614cba57600080fd5b505af1158015614cce573d6000803e3d6000fd5b505050506040513d601f19601f82011682018060405250810190614cf291906161ff565b50505b505050505050565b8173ffffffffffffffffffffffffffffffffffffffff168373ffffffffffffffffffffffffffffffffffffffff161415614d6c576040517f08c379a0000000000000000000000000000000000000000000000000000000008152600401614d63906171c8565b60405180910390fd5b80600560008573ffffffffffffffffffffffffffffffffffffffff1673ffffffffffffffffffffffffffffffffffffffff16815260200190815260200160002060008473ffffffffffffffffffffffffffffffffffffffff1673ffffffffffffffffffffffffffffffffffffffff16815260200190815260200160002060006101000a81548160ff0219169083151502179055508173ffffffffffffffffffffffffffffffffffffffff168373ffffffffffffffffffffffffffffffffffffffff167f17307eab39ab6107e8899845ad3d59bd9653f200f220920489ca2b5937696c3183604051614e5d9190616f6e565b60405180910390a3505050565b614e75848484613ecb565b614e8184848484615213565b614ec0576040517f08c379a0000000000000000000000000000000000000000000000000000000008152600401614eb790617128565b60405180910390fd5b50505050565b606060405180602001604052806000815250905090565b6060614ee882613cc0565b614f27576040517f08c379a0000000000000000000000000000000000000000000000000000000008152600401614f1e906173e8565b60405180910390fd5b6000614f31614ec6565b90506000815111614f515760405180602001604052806000815250614f7c565b80614f5b846153aa565b604051602001614f6c929190616ddf565b6040516020818303038152906040525b915050919050565b505050565b600061500d7f6316f9ddd4d59a364f3b95c26bab9d392c3380ace0fff15e91ed76f0d8bcd15a83600001358460200135858060400190614fc991906176fc565b604051614fd7929190616daf565b6040518091039020604051602001614ff29493929190616fdc565b60405160208183030381529060405280519060200120615557565b9050919050565b60008060006150238585615571565b91509150615030816155f4565b819250505092915050565b600061504682612013565b905061505481600084614f84565b61505f600083613d34565b6001600360008373ffffffffffffffffffffffffffffffffffffffff1673ffffffffffffffffffffffffffffffffffffffff16815260200190815260200160002060008282546150af9190617909565b925050819055506002600083815260200190815260200160002060006101000a81549073ffffffffffffffffffffffffffffffffffffffff021916905581600073ffffffffffffffffffffffffffffffffffffffff168273ffffffffffffffffffffffffffffffffffffffff167fddf252ad1be2c89b69c2b068fc378daa952ba7f163c4a11628f55a4df523b3ef60405160405180910390a45050565b60006151ae826040518060400160405280602081526020017f5361666545524332303a206c6f772d6c6576656c2063616c6c206661696c65648152508573ffffffffffffffffffffffffffffffffffffffff166159459092919063ffffffff16565b905060008151111561520e57808060200190518101906151ce91906161ff565b61520d576040517f08c379a0000000000000000000000000000000000000000000000000000000008152600401615204906174e8565b60405180910390fd5b5b505050565b60006152348473ffffffffffffffffffffffffffffffffffffffff1661595d565b1561539d578373ffffffffffffffffffffffffffffffffffffffff1663150b7a0261525d613d2c565b8786866040518563ffffffff1660e01b815260040161527f9493929190616ef9565b602060405180830381600087803b15801561529957600080fd5b505af19250505080156152ca57506040513d601f19601f820116820180604052508101906152c79190616251565b60015b61534d573d80600081146152fa576040519150601f19603f3d011682016040523d82523d6000602084013e6152ff565b606091505b50600081511415615345576040517f08c379a000000000000000000000000000000000000000000000000000000000815260040161533c90617128565b60405180910390fd5b805181602001fd5b63150b7a0260e01b7bffffffffffffffffffffffffffffffffffffffffffffffffffffffff1916817bffffffffffffffffffffffffffffffffffffffffffffffffffffffff1916149150506153a2565b600190505b949350505050565b606060008214156153f2576040518060400160405280600181526020017f30000000000000000000000000000000000000000000000000000000000000008152509050615552565b600082905060005b6000821461542457808061540d90617aeb565b915050600a8261541d919061787e565b91506153fa565b60008167ffffffffffffffff811115615466577f4e487b7100000000000000000000000000000000000000000000000000000000600052604160045260246000fd5b6040519080825280601f01601f1916602001820160405280156154985781602001600182028036833780820191505090505b5090505b6000851461554b576001826154b19190617909565b9150600a856154c09190617b3e565b60306154cc9190617828565b60f81b818381518110615508577f4e487b7100000000000000000000000000000000000000000000000000000000600052603260045260246000fd5b60200101907effffffffffffffffffffffffffffffffffffffffffffffffffffffffffffff1916908160001a905350600a85615544919061787e565b945061549c565b8093505050505b919050565b600061556a615564615970565b83615a8a565b9050919050565b6000806041835114156155b35760008060006020860151925060408601519150606086015160001a90506155a787828585615abd565b945094505050506155ed565b6040835114156155e45760008060208501519150604085015190506155d9868383615bca565b9350935050506155ed565b60006002915091505b9250929050565b6000600481111561562e577f4e487b7100000000000000000000000000000000000000000000000000000000600052602160045260246000fd5b816004811115615667577f4e487b7100000000000000000000000000000000000000000000000000000000600052602160045260246000fd5b141561567257615942565b600160048111156156ac577f4e487b7100000000000000000000000000000000000000000000000000000000600052602160045260246000fd5b8160048111156156e5577f4e487b7100000000000000000000000000000000000000000000000000000000600052602160045260246000fd5b1415615726576040517f08c379a000000000000000000000000000000000000000000000000000000000815260040161571d90617088565b60405180910390fd5b60026004811115615760577f4e487b7100000000000000000000000000000000000000000000000000000000600052602160045260246000fd5b816004811115615799577f4e487b7100000000000000000000000000000000000000000000000000000000600052602160045260246000fd5b14156157da576040517f08c379a00000000000000000000000000000000000000000000000000000000081526004016157d1906170e8565b60405180910390fd5b60036004811115615814577f4e487b7100000000000000000000000000000000000000000000000000000000600052602160045260246000fd5b81600481111561584d577f4e487b7100000000000000000000000000000000000000000000000000000000600052602160045260246000fd5b141561588e576040517f08c379a000000000000000000000000000000000000000000000000000000000815260040161588590617208565b60405180910390fd5b6004808111156158c7577f4e487b7100000000000000000000000000000000000000000000000000000000600052602160045260246000fd5b816004811115615900577f4e487b7100000000000000000000000000000000000000000000000000000000600052602160045260246000fd5b1415615941576040517f08c379a000000000000000000000000000000000000000000000000000000000815260040161593890617348565b60405180910390fd5b5b50565b60606159548484600085615c18565b90509392505050565b600080823b905060008111915050919050565b60007f000000000000000000000000000000000000000000000000000000000000000073ffffffffffffffffffffffffffffffffffffffff163073ffffffffffffffffffffffffffffffffffffffff161480156159ec57507f000000000000000000000000000000000000000000000000000000000000000046145b15615a19577f00000000000000000000000000000000000000000000000000000000000000009050615a87565b615a847f00000000000000000000000000000000000000000000000000000000000000007f00000000000000000000000000000000000000000000000000000000000000007f0000000000000000000000000000000000000000000000000000000000000000615d2c565b90505b90565b60008282604051602001615a9f929190616e03565b60405160208183030381529060405280519060200120905092915050565b6000807f7fffffffffffffffffffffffffffffff5d576e7357a4501ddfe92f46681b20a08360001c1115615af8576000600391509150615bc1565b601b8560ff1614158015615b105750601c8560ff1614155b15615b22576000600491509150615bc1565b600060018787878760405160008152602001604052604051615b479493929190617021565b6020604051602081039080840390855afa158015615b69573d6000803e3d6000fd5b505050602060405103519050600073ffffffffffffffffffffffffffffffffffffffff168173ffffffffffffffffffffffffffffffffffffffff161415615bb857600060019250925050615bc1565b80600092509250505b94509492505050565b6000806000807f7fffffffffffffffffffffffffffffffffffffffffffffffffffffffffffffff85169150601b8560ff1c019050615c0a87828885615abd565b935093505050935093915050565b606082471015615c5d576040517f08c379a0000000000000000000000000000000000000000000000000000000008152600401615c5490617228565b60405180910390fd5b615c668561595d565b615ca5576040517f08c379a0000000000000000000000000000000000000000000000000000000008152600401615c9c90617468565b60405180910390fd5b6000808673ffffffffffffffffffffffffffffffffffffffff168587604051615cce9190616dc8565b60006040518083038185875af1925050503d8060008114615d0b576040519150601f19603f3d011682016040523d82523d6000602084013e615d10565b606091505b5091509150615d20828286615d66565b92505050949350505050565b60008383834630604051602001615d47959493929190616f89565b6040516020818303038152906040528051906020012090509392505050565b60608315615d7657829050615dc6565b600083511115615d895782518084602001fd5b816040517f08c379a0000000000000000000000000000000000000000000000000000000008152600401615dbd9190617066565b60405180910390fd5b9392505050565b508054615dd990617a88565b6000825580601f10615deb5750615e0a565b601f016020900490600052602060002090810190615e099190615e93565b5b50565b828054615e1990617a88565b90600052602060002090601f016020900481019282615e3b5760008555615e82565b82601f10615e5457805160ff1916838001178555615e82565b82800160010185558215615e82579182015b82811115615e81578251825591602001919060010190615e66565b5b509050615e8f9190615e93565b5090565b5b80821115615eac576000816000905550600101615e94565b5090565b6000615ec3615ebe84617778565b617753565b905082815260208101848484011115615edb57600080fd5b615ee6848285617a46565b509392505050565b6000615f01615efc846177a9565b617753565b905082815260208101848484011115615f1957600080fd5b615f24848285617a46565b509392505050565b600081359050615f3b816185e8565b92915050565b600081359050615f50816185ff565b92915050565b600081359050615f6581618616565b92915050565b600081519050615f7a81618616565b92915050565b600081359050615f8f8161862d565b92915050565b600081519050615fa48161862d565b92915050565b600082601f830112615fbb57600080fd5b8135615fcb848260208601615eb0565b91505092915050565b600081359050615fe381618644565b92915050565b600082601f830112615ffa57600080fd5b813561600a848260208601615eee565b91505092915050565b60006080828403121561602557600080fd5b81905092915050565b60008135905061603d8161865b565b92915050565b6000815190506160528161865b565b92915050565b60006020828403121561606a57600080fd5b600061607884828501615f2c565b91505092915050565b6000806040838503121561609457600080fd5b60006160a285828601615f2c565b92505060206160b385828601615f2c565b9150509250929050565b6000806000606084860312156160d257600080fd5b60006160e086828701615f2c565b93505060206160f186828701615f2c565b92505060406161028682870161602e565b9150509250925092565b6000806000806080858703121561612257600080fd5b600061613087828801615f2c565b945050602061614187828801615f2c565b93505060406161528782880161602e565b925050606085013567ffffffffffffffff81111561616f57600080fd5b61617b87828801615faa565b91505092959194509250565b6000806040838503121561619a57600080fd5b60006161a885828601615f2c565b92505060206161b985828601615f56565b9150509250929050565b600080604083850312156161d657600080fd5b60006161e485828601615f2c565b92505060206161f58582860161602e565b9150509250929050565b60006020828403121561621157600080fd5b600061621f84828501615f6b565b91505092915050565b60006020828403121561623a57600080fd5b600061624884828501615f80565b91505092915050565b60006020828403121561626357600080fd5b600061627184828501615f95565b91505092915050565b6000806040838503121561628d57600080fd5b600083013567ffffffffffffffff8111156162a757600080fd5b6162b385828601616013565b92505060206162c485828601615f2c565b9150509250929050565b600080604083850312156162e157600080fd5b600083013567ffffffffffffffff8111156162fb57600080fd5b61630785828601616013565b92505060206163188582860161602e565b9150509250929050565b60008060006060848603121561633757600080fd5b600084013567ffffffffffffffff81111561635157600080fd5b61635d86828701616013565b935050602061636e8682870161602e565b925050604061637f86828701615fd4565b9150509250925092565b60006020828403121561639b57600080fd5b60006163a98482850161602e565b91505092915050565b6000602082840312156163c457600080fd5b60006163d284828501616043565b91505092915050565b600080604083850312156163ee57600080fd5b60006163fc8582860161602e565b925050602061640d85828601615f2c565b9150509250929050565b600080600080600060a0868803121561642f57600080fd5b600061643d8882890161602e565b955050602061644e88828901615f2c565b945050604061645f88828901615f2c565b93505060606164708882890161602e565b925050608061648188828901615f41565b9150509295509295909350565b600080604083850312156164a157600080fd5b60006164af8582860161602e565b925050602083013567ffffffffffffffff8111156164cc57600080fd5b6164d885828601615fe9565b9150509250929050565b600080604083850312156164f557600080fd5b60006165038582860161602e565b925050602083013567ffffffffffffffff81111561652057600080fd5b61652c85828601616013565b9150509250929050565b6000806040838503121561654957600080fd5b60006165578582860161602e565b92505060206165688582860161602e565b9150509250929050565b6000806000806080858703121561658857600080fd5b60006165968782880161602e565b94505060206165a78782880161602e565b93505060406165b887828801615f2c565b92505060606165c98782880161602e565b91505092959194509250565b600080600080608085870312156165eb57600080fd5b60006165f98782880161602e565b945050602061660a8782880161602e565b935050604061661b8782880161602e565b925050606061662c87828801615f2c565b91505092959194509250565b600080600080600060a0868803121561665057600080fd5b600061665e8882890161602e565b955050602061666f8882890161602e565b94505060406166808882890161602e565b935050606061669188828901615f2c565b92505060806166a288828901615f2c565b9150509295509295909350565b6166b8816179ec565b82525050565b6166c78161794f565b82525050565b6166d68161793d565b82525050565b6166e581617961565b82525050565b6166f48161796d565b82525050565b61670b6167068261796d565b617b34565b82525050565b600061671d8385617801565b935061672a838584617a46565b82840190509392505050565b6000616741826177da565b61674b81856177f0565b935061675b818560208601617a55565b61676481617c2b565b840191505092915050565b600061677a826177da565b6167848185617801565b9350616794818560208601617a55565b80840191505092915050565b6167a9816179fe565b82525050565b60006167ba826177e5565b6167c4818561780c565b93506167d4818560208601617a55565b6167dd81617c2b565b840191505092915050565b60006167f3826177e5565b6167fd818561781d565b935061680d818560208601617a55565b80840191505092915050565b600061682660188361780c565b915061683182617c3c565b602082019050919050565b600061684960278361780c565b915061685482617c65565b604082019050919050565b600061686c603b8361780c565b915061687782617cb4565b604082019050919050565b600061688f601f8361780c565b915061689a82617d03565b602082019050919050565b60006168b260108361780c565b91506168bd82617d2c565b602082019050919050565b60006168d560328361780c565b91506168e082617d55565b604082019050919050565b60006168f8601c8361780c565b915061690382617da4565b602082019050919050565b600061691b60198361780c565b915061692682617dcd565b602082019050919050565b600061693e60028361781d565b915061694982617df6565b600282019050919050565b600061696160108361780c565b915061696c82617e1f565b602082019050919050565b600061698460248361780c565b915061698f82617e48565b604082019050919050565b60006169a760198361780c565b91506169b282617e97565b602082019050919050565b60006169ca60118361780c565b91506169d582617ec0565b602082019050919050565b60006169ed60228361780c565b91506169f882617ee9565b604082019050919050565b6000616a1060268361780c565b9150616a1b82617f38565b604082019050919050565b6000616a33602c8361780c565b9150616a3e82617f87565b604082019050919050565b6000616a56601a8361780c565b9150616a6182617fd6565b602082019050919050565b6000616a7960388361780c565b9150616a8482617fff565b604082019050919050565b6000616a9c602a8361780c565b9150616aa78261804e565b604082019050919050565b6000616abf60298361780c565b9150616aca8261809d565b604082019050919050565b6000616ae260228361780c565b9150616aed826180ec565b604082019050919050565b6000616b05602e8361780c565b9150616b108261813b565b604082019050919050565b6000616b2860188361780c565b9150616b338261818a565b602082019050919050565b6000616b4b60228361780c565b9150616b56826181b3565b604082019050919050565b6000616b6e60208361780c565b9150616b7982618202565b602082019050919050565b6000616b9160318361780c565b9150616b9c8261822b565b604082019050919050565b6000616bb4602c8361780c565b9150616bbf8261827a565b604082019050919050565b6000616bd760298361780c565b9150616be2826182c9565b604082019050919050565b6000616bfa602f8361780c565b9150616c0582618318565b604082019050919050565b6000616c1d60168361780c565b9150616c2882618367565b602082019050919050565b6000616c4060218361780c565b9150616c4b82618390565b604082019050919050565b6000616c6360318361780c565b9150616c6e826183df565b604082019050919050565b6000616c86601d8361780c565b9150616c918261842e565b602082019050919050565b6000616ca960228361780c565b9150616cb482618457565b604082019050919050565b6000616ccc601f8361780c565b9150616cd7826184a6565b602082019050919050565b6000616cef600c8361780c565b9150616cfa826184cf565b602082019050919050565b6000616d12602a8361780c565b9150616d1d826184f8565b604082019050919050565b6000616d3560168361780c565b9150616d4082618547565b602082019050919050565b6000616d58602d8361780c565b9150616d6382618570565b604082019050919050565b6000616d7b60178361780c565b9150616d86826185bf565b602082019050919050565b616d9a816179d5565b82525050565b616da9816179df565b82525050565b6000616dbc828486616711565b91508190509392505050565b6000616dd4828461676f565b915081905092915050565b6000616deb82856167e8565b9150616df782846167e8565b91508190509392505050565b6000616e0e82616931565b9150616e1a82856166fa565b602082019150616e2a82846166fa565b6020820191508190509392505050565b6000602082019050616e4f60008301846166cd565b92915050565b6000602082019050616e6a60008301846166be565b92915050565b6000604082019050616e8560008301856166af565b616e926020830184616d91565b9392505050565b6000604082019050616eae60008301856166cd565b616ebb60208301846166cd565b9392505050565b6000606082019050616ed760008301866166cd565b616ee460208301856166cd565b616ef16040830184616d91565b949350505050565b6000608082019050616f0e60008301876166cd565b616f1b60208301866166cd565b616f286040830185616d91565b8181036060830152616f3a8184616736565b905095945050505050565b6000604082019050616f5a60008301856166cd565b616f676020830184616d91565b9392505050565b6000602082019050616f8360008301846166dc565b92915050565b600060a082019050616f9e60008301886166eb565b616fab60208301876166eb565b616fb860408301866166eb565b616fc56060830185616d91565b616fd260808301846166cd565b9695505050505050565b6000608082019050616ff160008301876166eb565b616ffe6020830186616d91565b61700b6040830185616d91565b61701860608301846166eb565b95945050505050565b600060808201905061703660008301876166eb565b6170436020830186616da0565b61705060408301856166eb565b61705d60608301846166eb565b95945050505050565b6000602082019050818103600083015261708081846167af565b905092915050565b600060208201905081810360008301526170a181616819565b9050919050565b600060208201905081810360008301526170c18161683c565b9050919050565b600060208201905081810360008301526170e18161685f565b9050919050565b6000602082019050818103600083015261710181616882565b9050919050565b60006020820190508181036000830152617121816168a5565b9050919050565b60006020820190508181036000830152617141816168c8565b9050919050565b60006020820190508181036000830152617161816168eb565b9050919050565b600060208201905081810360008301526171818161690e565b9050919050565b600060208201905081810360008301526171a181616954565b9050919050565b600060208201905081810360008301526171c181616977565b9050919050565b600060208201905081810360008301526171e18161699a565b9050919050565b60006020820190508181036000830152617201816169bd565b9050919050565b60006020820190508181036000830152617221816169e0565b9050919050565b6000602082019050818103600083015261724181616a03565b9050919050565b6000602082019050818103600083015261726181616a26565b9050919050565b6000602082019050818103600083015261728181616a49565b9050919050565b600060208201905081810360008301526172a181616a6c565b9050919050565b600060208201905081810360008301526172c181616a8f565b9050919050565b600060208201905081810360008301526172e181616ab2565b9050919050565b6000602082019050818103600083015261730181616ad5565b9050919050565b6000602082019050818103600083015261732181616af8565b9050919050565b6000602082019050818103600083015261734181616b1b565b9050919050565b6000602082019050818103600083015261736181616b3e565b9050919050565b6000602082019050818103600083015261738181616b61565b9050919050565b600060208201905081810360008301526173a181616b84565b9050919050565b600060208201905081810360008301526173c181616ba7565b9050919050565b600060208201905081810360008301526173e181616bca565b9050919050565b6000602082019050818103600083015261740181616bed565b9050919050565b6000602082019050818103600083015261742181616c10565b9050919050565b6000602082019050818103600083015261744181616c33565b9050919050565b6000602082019050818103600083015261746181616c56565b9050919050565b6000602082019050818103600083015261748181616c79565b9050919050565b600060208201905081810360008301526174a181616c9c565b9050919050565b600060208201905081810360008301526174c181616cbf565b9050919050565b600060208201905081810360008301526174e181616ce2565b9050919050565b6000602082019050818103600083015261750181616d05565b9050919050565b6000602082019050818103600083015261752181616d28565b9050919050565b6000602082019050818103600083015261754181616d4b565b9050919050565b6000602082019050818103600083015261756181616d6e565b9050919050565b600060208201905061757d6000830184616d91565b92915050565b60006060820190506175986000830186616d91565b6175a560208301856166cd565b6175b26040830184616d91565b949350505050565b60006040820190506175cf6000830185616d91565b6175dc6020830184616d91565b9392505050565b600060a0820190506175f86000830188616d91565b6176056020830187616d91565b61761260408301866166cd565b61761f60608301856166cd565b61762c60808301846166cd565b9695505050505050565b600060e08201905061764b600083018a616d91565b6176586020830189616d91565b6176656040830188616d91565b61767260608301876166be565b61767f60808301866166be565b61768c60a08301856166be565b61769960c08301846167a0565b98975050505050505050565b600080833560016020038436030381126176be57600080fd5b80840192508235915067ffffffffffffffff8211156176dc57600080fd5b6020830192506001820236038313156176f457600080fd5b509250929050565b6000808335600160200384360303811261771557600080fd5b80840192508235915067ffffffffffffffff82111561773357600080fd5b60208301925060018202360383131561774b57600080fd5b509250929050565b600061775d61776e565b90506177698282617aba565b919050565b6000604051905090565b600067ffffffffffffffff82111561779357617792617bfc565b5b61779c82617c2b565b9050602081019050919050565b600067ffffffffffffffff8211156177c4576177c3617bfc565b5b6177cd82617c2b565b9050602081019050919050565b600081519050919050565b600081519050919050565b600082825260208201905092915050565b600081905092915050565b600082825260208201905092915050565b600081905092915050565b6000617833826179d5565b915061783e836179d5565b9250827fffffffffffffffffffffffffffffffffffffffffffffffffffffffffffffffff0382111561787357617872617b6f565b5b828201905092915050565b6000617889826179d5565b9150617894836179d5565b9250826178a4576178a3617b9e565b5b828204905092915050565b60006178ba826179d5565b91506178c5836179d5565b9250817fffffffffffffffffffffffffffffffffffffffffffffffffffffffffffffffff04831182151516156178fe576178fd617b6f565b5b828202905092915050565b6000617914826179d5565b915061791f836179d5565b92508282101561793257617931617b6f565b5b828203905092915050565b6000617948826179b5565b9050919050565b600061795a826179b5565b9050919050565b60008115159050919050565b6000819050919050565b60007fffffffff0000000000000000000000000000000000000000000000000000000082169050919050565b60006179ae8261793d565b9050919050565b600073ffffffffffffffffffffffffffffffffffffffff82169050919050565b6000819050919050565b600060ff82169050919050565b60006179f782617a22565b9050919050565b6000617a0982617a10565b9050919050565b6000617a1b826179b5565b9050919050565b6000617a2d82617a34565b9050919050565b6000617a3f826179b5565b9050919050565b82818337600083830152505050565b60005b83811015617a73578082015181840152602081019050617a58565b83811115617a82576000848401525b50505050565b60006002820490506001821680617aa057607f821691505b60208210811415617ab457617ab3617bcd565b5b50919050565b617ac382617c2b565b810181811067ffffffffffffffff82111715617ae257617ae1617bfc565b5b80604052505050565b6000617af6826179d5565b91507fffffffffffffffffffffffffffffffffffffffffffffffffffffffffffffffff821415617b2957617b28617b6f565b5b600182019050919050565b6000819050919050565b6000617b49826179d5565b9150617b54836179d5565b925082617b6457617b63617b9e565b5b828206905092915050565b7f4e487b7100000000000000000000000000000000000000000000000000000000600052601160045260246000fd5b7f4e487b7100000000000000000000000000000000000000000000000000000000600052601260045260246000fd5b7f4e487b7100000000000000000000000000000000000000000000000000000000600052602260045260246000fd5b7f4e487b7100000000000000000000000000000000000000000000000000000000600052604160045260246000fd5b6000601f19601f8301169050919050565b7f45434453413a20696e76616c6964207369676e61747572650000000000000000600082015250565b7f6269642076616c7565206d757374206265206d6f7265207468616e206869676860008201527f6573742062696400000000000000000000000000000000000000000000000000602082015250565b7f566f7563686572277320746f6b656e496420616e64206d61726b65746974656d60008201527f277320746f6b656e496420617265206e6f74206d61746368696e670000000000602082015250565b7f45434453413a20696e76616c6964207369676e6174757265206c656e67746800600082015250565b7f426964646572206e6f7420666f756e6400000000000000000000000000000000600082015250565b7f4552433732313a207472616e7366657220746f206e6f6e20455243373231526560008201527f63656976657220696d706c656d656e7465720000000000000000000000000000602082015250565b7f4552433732313a20746f6b656e20616c7265616479206d696e74656400000000600082015250565b7f41756374696f6e206973207374696c6c206f6e676f696e672100000000000000600082015250565b7f1901000000000000000000000000000000000000000000000000000000000000600082015250565b7f416c726561647920737461727465642100000000000000000000000000000000600082015250565b7f4552433732313a207472616e7366657220746f20746865207a65726f2061646460008201527f7265737300000000000000000000000000000000000000000000000000000000602082015250565b7f4552433732313a20617070726f766520746f2063616c6c657200000000000000600082015250565b7f496e76616c6964207369676e6174757265000000000000000000000000000000600082015250565b7f45434453413a20696e76616c6964207369676e6174757265202773272076616c60008201527f7565000000000000000000000000000000000000000000000000000000000000602082015250565b7f416464726573733a20696e73756666696369656e742062616c616e636520666f60008201527f722063616c6c0000000000000000000000000000000000000000000000000000602082015250565b7f4552433732313a206f70657261746f7220717565727920666f72206e6f6e657860008201527f697374656e7420746f6b656e0000000000000000000000000000000000000000602082015250565b7f4f6e6c792061646d696e2063616e206163636573732074686973000000000000600082015250565b7f4552433732313a20617070726f76652063616c6c6572206973206e6f74206f7760008201527f6e6572206e6f7220617070726f76656420666f7220616c6c0000000000000000602082015250565b7f4552433732313a2062616c616e636520717565727920666f7220746865207a6560008201527f726f206164647265737300000000000000000000000000000000000000000000602082015250565b7f4552433732313a206f776e657220717565727920666f72206e6f6e657869737460008201527f656e7420746f6b656e0000000000000000000000000000000000000000000000602082015250565b7f4f6e6c7920612063726561746f722063616e20656e642074686520617563746960008201527f6f6e000000000000000000000000000000000000000000000000000000000000602082015250565b7f45524337323155524953746f726167653a2055524920736574206f66206e6f6e60008201527f6578697374656e7420746f6b656e000000000000000000000000000000000000602082015250565b7f596f75206e65656420746f207374617274206669727374210000000000000000600082015250565b7f45434453413a20696e76616c6964207369676e6174757265202776272076616c60008201527f7565000000000000000000000000000000000000000000000000000000000000602082015250565b7f4552433732313a206d696e7420746f20746865207a65726f2061646472657373600082015250565b7f45524337323155524953746f726167653a2055524920717565727920666f722060008201527f6e6f6e6578697374656e7420746f6b656e000000000000000000000000000000602082015250565b7f4552433732313a20617070726f76656420717565727920666f72206e6f6e657860008201527f697374656e7420746f6b656e0000000000000000000000000000000000000000602082015250565b7f4552433732313a207472616e73666572206f6620746f6b656e2074686174206960008201527f73206e6f74206f776e0000000000000000000000000000000000000000000000602082015250565b7f4552433732314d657461646174613a2055524920717565727920666f72206e6f60008201527f6e6578697374656e7420746f6b656e0000000000000000000000000000000000602082015250565b7f41756374696f6e206e6f7420656e646564207965742100000000000000000000600082015250565b7f4552433732313a20617070726f76616c20746f2063757272656e74206f776e6560008201527f7200000000000000000000000000000000000000000000000000000000000000602082015250565b7f4552433732313a207472616e736665722063616c6c6572206973206e6f74206f60008201527f776e6572206e6f7220617070726f766564000000000000000000000000000000602082015250565b7f416464726573733a2063616c6c20746f206e6f6e2d636f6e7472616374000000600082015250565b7f53656c6c6572732063616e2774206275792066726f6d206d61726b6574706c6160008201527f6365000000000000000000000000000000000000000000000000000000000000602082015250565b7f4f6e6c79206f776e65722063616e207472616e7366657220746865204e465400600082015250565b7f5a65726f2062616c616e63650000000000000000000000000000000000000000600082015250565b7f5361666545524332303a204552433230206f7065726174696f6e20646964206e60008201527f6f74207375636365656400000000000000000000000000000000000000000000602082015250565b7f41756374696f6e20616c726561647920656e6465642100000000000000000000600082015250565b7f4d757374207375626d69742061746c6561737420746865206d696e207072696360008201527f6520746f20707572636861736500000000000000000000000000000000000000602082015250565b7f496e76616c696420746f6b656e20616c6c6f77616e6365000000000000000000600082015250565b6185f18161793d565b81146185fc57600080fd5b50565b6186088161794f565b811461861357600080fd5b50565b61861f81617961565b811461862a57600080fd5b50565b61863681617977565b811461864157600080fd5b50565b61864d816179a3565b811461865857600080fd5b50565b618664816179d5565b811461866f57600080fd5b5056fea2646970667358221220c23cfd79e12a8fe5c22ed78e278bdc0e62ee192fea9b3b039e6dfc47ebb02c3d64736f6c63430008040033",
  "immutableReferences": {
    "2518": [
      {
        "length": 32,
        "start": 23027
      }
    ],
    "2520": [
      {
        "length": 32,
        "start": 22986
      }
    ],
    "2522": [
      {
        "length": 32,
        "start": 22900
      }
    ],
    "2524": [
      {
        "length": 32,
        "start": 23103
      }
    ],
    "2526": [
      {
        "length": 32,
        "start": 23136
      }
    ],
    "2528": [
      {
        "length": 32,
        "start": 23070
      }
    ]
  },
  "source": "//SPDX-License-Identifier: MIT\r\npragma solidity ^0.8.0;\r\npragma abicoder v2; // required to accept structs as function parameters\r\n\r\n// import \"@openzeppelin/contracts/access/AccessControl.sol\";\r\nimport \"@openzeppelin/contracts/token/ERC721/ERC721.sol\";\r\nimport \"@openzeppelin/contracts/token/ERC721/extensions/ERC721URIStorage.sol\";\r\nimport \"@openzeppelin/contracts/utils/Counters.sol\";\r\n// import \"@openzeppelin/contracts/security/ReentrancyGuard.sol\";\r\nimport \"@openzeppelin/contracts/utils/cryptography/ECDSA.sol\";\r\nimport \"@openzeppelin/contracts/utils/cryptography/draft-EIP712.sol\";\r\nimport \"@openzeppelin/contracts/token/ERC20/IERC20.sol\";\r\nimport \"./Auctions.sol\";\r\n\r\ncontract NFT9 is ERC721URIStorage, EIP712, Auction {\r\n    //auto-increment field for each token\r\n    using Counters for Counters.Counter;\r\n    Counters.Counter private _itemIds;\r\n    address payable public admin;\r\n    uint256 public platformCommission;\r\n\r\n    // Counters.Counter private _tokenIds;\r\n\r\n    // address contractAddress;\r\n\r\n    // bytes32 public constant MINTER_ROLE = keccak256(\"MINTER_ROLE\");\r\n    string private constant SIGNING_DOMAIN = \"LazyNFT-Voucher\";\r\n    string private constant SIGNATURE_VERSION = \"1\";\r\n\r\n    constructor()\r\n        ERC721(\"OpenSea Tokens\", \"OST\")\r\n        EIP712(SIGNING_DOMAIN, SIGNATURE_VERSION)\r\n    {\r\n        admin = payable(msg.sender);\r\n        platformCommission = 2;\r\n        //_setupRole(MINTER_ROLE, minter);\r\n    }\r\n\r\n    ///@notice only owner modifier\r\n    modifier onlyAdmin() {\r\n        require(msg.sender == admin, \"Only admin can access this\");\r\n        _;\r\n    }\r\n\r\n    ///@notice only owner modifier\r\n    modifier onlyOwner(uint256 tokenId) {\r\n        require(msg.sender == ownerOf(tokenId));\r\n        _;\r\n    }\r\n\r\n    // constructor(address marketplaceAddress) ERC721(\"OpenSea Tokens\", \"OST\") {\r\n    // contractAddress = marketplaceAddress;\r\n    // }\r\n\r\n    struct NFTVoucher {\r\n        /// @notice The id of the token to be redeemed. Must be unique - if another token with this ID already exists, the redeem function will revert.\r\n        uint256 tokenId;\r\n        /// @notice The minimum price (in wei) that the NFT creator is willing to accept for the initial sale of this NFT.\r\n        uint256 minPrice;\r\n        /// @notice The metadata URI to associate with this token.\r\n        string uri;\r\n        /// @notice the EIP-712 signature of all other fields in the NFTVoucher struct. For a voucher to be valid, it must be signed by an account with the MINTER_ROLE.\r\n        bytes signature;\r\n    }\r\n\r\n    struct MarketItem {\r\n        uint256 marketItemId;\r\n        uint256 tokenId;\r\n        uint256 royalty;\r\n        address payable creator;\r\n        address payable seller;\r\n        address payable owner;\r\n        IERC20 token;\r\n    }\r\n\r\n    event MarketItemCreated(\r\n        uint256 indexed marketItemId,\r\n        uint256 indexed tokenId,\r\n        uint256 price,\r\n        uint256 royalty,\r\n        address creator,\r\n        address seller,\r\n        address owner\r\n    );\r\n\r\n    event MarketItemResell(\r\n        uint256 indexed marketItemId,\r\n        address seller,\r\n        address owner,\r\n        uint256 price\r\n    );\r\n\r\n    mapping(uint256 => MarketItem) public allMarketItems;\r\n\r\n    function updatePlatformCommision(uint256 _platformCommission)\r\n        public\r\n        onlyAdmin\r\n    {\r\n        platformCommission = _platformCommission;\r\n    }\r\n\r\n    function updateAdmin(address _admin) public onlyAdmin {\r\n        admin = payable(_admin);\r\n    }\r\n\r\n    // function setupRole(address payable minter) public onlyAdmin {\r\n    // _setupRole(MINTER_ROLE, minter);\r\n    // }\r\n\r\n    /// @notice create a new token\r\n    /// @param voucher : contains details of tokenId, price, uri and signature\r\n    function createAndBuyToken(NFTVoucher calldata voucher, uint256 _royalty)\r\n        public\r\n        payable\r\n        returns (uint256)\r\n    {\r\n        address signer = _verify(voucher); //her signer is the seller\r\n\r\n        // require(\r\n        // hasRole(MINTER_ROLE, signer),\r\n        // \"Signature invalid or unauthorized\"\r\n        // );\r\n        require(msg.sender != signer, \"Sellers can't buy from marketplace\");\r\n        // require(msg.value == _price, \"Must submit asking price to purchase\");\r\n        require(\r\n            msg.value >= voucher.minPrice,\r\n            \"Must submit atleast the min price to purchase\"\r\n        );\r\n        //set a new token id for the token to be minted\r\n        // _tokenIds.increment();\r\n        // uint256 newItemId = _tokenIds.current();\r\n\r\n        _itemIds.increment(); //incrementing our counter.\r\n        uint256 marketItemId = _itemIds.current(); //storing current value of counter in a new local variable.\r\n\r\n        //Initializing the structure MarketItem, and saving it in allMarketItems mapping with our local variable passed as an argument.\r\n        allMarketItems[marketItemId] = MarketItem(\r\n            marketItemId,\r\n            voucher.tokenId,\r\n            _royalty,\r\n            payable(signer), //Only creator will be able to create items to sell.\r\n            payable(signer), //Marketplace is the seller when market item is first created.\r\n            payable(msg.sender), //setting the owner's address to zero, as it still need to be sold on marketplace.\r\n            IERC20(address(0))\r\n        );\r\n\r\n        _mint(signer, voucher.tokenId); //mint the token\r\n        _setTokenURI(voucher.tokenId, voucher.uri); //generate the URI\r\n        // setApprovalForAll(address(this), true); //grant transaction permission to marketplace\r\n        // IERC721(address(this)).transferFrom(seller, address(this), _tokenId);\r\n\r\n        _transfer(signer, msg.sender, voucher.tokenId);\r\n        _transferBuy(msg.value, marketItemId, msg.sender);\r\n\r\n        // buyMarketItem721(marketItemId, msg.value);\r\n\r\n        emit MarketItemCreated(\r\n            marketItemId,\r\n            voucher.tokenId,\r\n            voucher.minPrice,\r\n            _royalty,\r\n            signer,\r\n            signer,\r\n            msg.sender\r\n        );\r\n\r\n        //return token ID\r\n        return voucher.tokenId;\r\n    }\r\n\r\n    function createAndBuyTokenWETH(\r\n        NFTVoucher calldata voucher,\r\n        uint256 _royalty,\r\n        IERC20 _token\r\n    ) public payable returns (uint256) {\r\n        address signer = _verify(voucher); //her signer is the seller\r\n\r\n        // require(\r\n        // hasRole(MINTER_ROLE, signer),\r\n        // \"Signature invalid or unauthorized\"\r\n        // );\r\n        require(msg.sender != signer, \"Sellers can't buy from marketplace\");\r\n        // require(msg.value == _price, \"Must submit asking price to purchase\");\r\n        //set a new token id for the token to be minted\r\n        // _tokenIds.increment();\r\n        // uint256 newItemId = _tokenIds.current();\r\n\r\n        _itemIds.increment(); //incrementing our counter.\r\n        uint256 marketItemId = _itemIds.current(); //storing current value of counter in a new local variable.\r\n\r\n        //Initializing the structure MarketItem, and saving it in allMarketItems mapping with our local variable passed as an argument.\r\n        allMarketItems[marketItemId] = MarketItem(\r\n            marketItemId,\r\n            voucher.tokenId,\r\n            _royalty,\r\n            payable(signer), //Only creator will be able to create items to sell.\r\n            payable(signer), //Marketplace is the seller when market item is first created.\r\n            payable(msg.sender), //setting the owner's address to zero, as it still need to be sold on marketplace.\r\n            _token\r\n        );\r\n\r\n        _mint(signer, voucher.tokenId); //mint the token\r\n        _setTokenURI(voucher.tokenId, voucher.uri); //generate the URI\r\n        // setApprovalForAll(address(this), true); //grant transaction permission to marketplace\r\n        // IERC721(address(this)).transferFrom(seller, address(this), _tokenId);\r\n\r\n        _transfer(signer, msg.sender, voucher.tokenId);\r\n        _transferBuy(voucher.minPrice, marketItemId, msg.sender);\r\n\r\n        // buyMarketItem721(marketItemId, msg.value);\r\n\r\n        emit MarketItemCreated(\r\n            marketItemId,\r\n            voucher.tokenId,\r\n            voucher.minPrice,\r\n            _royalty,\r\n            signer,\r\n            signer,\r\n            msg.sender\r\n        );\r\n\r\n        //return token ID\r\n        return voucher.tokenId;\r\n    }\r\n\r\n    function _transferBuy(\r\n        uint256 _amount,\r\n        uint256 _marketItemId,\r\n        address _recipient\r\n    ) internal {\r\n        uint256 sellingPrice = _amount;\r\n\r\n        uint256 commission = (platformCommission * sellingPrice) / 100;\r\n\r\n        uint256 sellerShare = ((100 - platformCommission) * sellingPrice) / 100;\r\n\r\n        if (allMarketItems[_marketItemId].token == IERC20(address(0))) {\r\n            admin.transfer(commission); //Transfering the listing fee to the admin of the marketplace.\r\n            allMarketItems[_marketItemId].seller.transfer(sellerShare); //transferring the sale amount to the seller after deducting platform commission.\r\n        } else {\r\n            IERC20 token = allMarketItems[_marketItemId].token;\r\n            token.transferFrom(_recipient, address(this), sellingPrice);\r\n            token.transfer(admin, commission);\r\n            token.transfer(allMarketItems[_marketItemId].seller, sellerShare);\r\n        }\r\n    }\r\n\r\n    function secondaryBuyToken(\r\n        uint256 _marketItemId,\r\n        NFTVoucher calldata voucher\r\n    ) public payable {\r\n        address signer = _verify(voucher);\r\n        require(msg.sender != signer, \"Sellers can't buy from marketplace\");\r\n        require(\r\n            signer == allMarketItems[_marketItemId].owner,\r\n            \"Only owner can transfer the NFT\"\r\n        );\r\n        require(\r\n            allMarketItems[_marketItemId].tokenId == voucher.tokenId,\r\n            \"Voucher's tokenId and marketitem's tokenId are not matching\"\r\n        );\r\n        require(\r\n            msg.value >= voucher.minPrice,\r\n            \"Must submit atleast the min price to purchase\"\r\n        );\r\n\r\n        allMarketItems[_marketItemId].seller = payable(signer);\r\n        allMarketItems[_marketItemId].owner = payable(msg.sender);\r\n\r\n        _transfer(signer, msg.sender, allMarketItems[_marketItemId].tokenId);\r\n        _transferSecondaryBuy(msg.value, _marketItemId, msg.sender);\r\n\r\n        emit MarketItemResell(\r\n            _marketItemId,\r\n            signer,\r\n            msg.sender,\r\n            voucher.minPrice\r\n        );\r\n    }\r\n\r\n    function secondaryBuyTokenWETH(\r\n        uint256 _marketItemId,\r\n        NFTVoucher calldata voucher\r\n    ) public payable {\r\n        address signer = _verify(voucher);\r\n        require(msg.sender != signer, \"Sellers can't buy from marketplace\");\r\n        require(\r\n            signer == allMarketItems[_marketItemId].owner,\r\n            \"Only owner can transfer the NFT\"\r\n        );\r\n        require(\r\n            allMarketItems[_marketItemId].tokenId == voucher.tokenId,\r\n            \"Voucher's tokenId and marketitem's tokenId are not matching\"\r\n        );\r\n        // require(\r\n        // msg.value >= voucher.minPrice,\r\n        // \"Must submit atleast the min price to purchase\"\r\n        // );\r\n\r\n        allMarketItems[_marketItemId].seller = payable(signer);\r\n        allMarketItems[_marketItemId].owner = payable(msg.sender);\r\n\r\n        _transfer(signer, msg.sender, allMarketItems[_marketItemId].tokenId);\r\n        _transferSecondaryBuy(voucher.minPrice, _marketItemId, msg.sender);\r\n\r\n        emit MarketItemResell(\r\n            _marketItemId,\r\n            signer,\r\n            msg.sender,\r\n            voucher.minPrice\r\n        );\r\n    }\r\n\r\n    function _transferSecondaryBuy(\r\n        uint256 _amount,\r\n        uint256 _marketItemId,\r\n        address _recipient\r\n    ) internal {\r\n        uint256 royalty = (allMarketItems[_marketItemId].royalty * _amount) /\r\n            100;\r\n\r\n        uint256 transferAfterRoyalty = ((100 -\r\n            allMarketItems[_marketItemId].royalty) * _amount) / 100;\r\n\r\n        // address _to = msg.sender;\r\n\r\n        if (allMarketItems[_marketItemId].token == IERC20(address(0))) {\r\n            allMarketItems[_marketItemId].creator.transfer(royalty); //Sending royalty to the creator.\r\n            allMarketItems[_marketItemId].seller.transfer(transferAfterRoyalty); //Sending royalty to the creator.\r\n        } else {\r\n            IERC20 token = allMarketItems[_marketItemId].token;\r\n            token.transferFrom(_recipient, address(this), _amount);\r\n            token.transfer(allMarketItems[_marketItemId].creator, royalty);\r\n            token.transfer(\r\n                allMarketItems[_marketItemId].seller,\r\n                transferAfterRoyalty\r\n            );\r\n        }\r\n    }\r\n\r\n    function setTokenURI(uint256 tokenId, string memory _tokenURI)\r\n        public\r\n        onlyOwner(tokenId)\r\n    {\r\n        setTokenURI(tokenId, _tokenURI);\r\n    }\r\n\r\n    function burn(uint256 tokenId) public onlyOwner(tokenId) {\r\n        _burn(tokenId);\r\n    }\r\n\r\n    function _hash(NFTVoucher calldata voucher)\r\n        internal\r\n        view\r\n        returns (bytes32)\r\n    {\r\n        return\r\n            _hashTypedDataV4(\r\n                keccak256(\r\n                    abi.encode(\r\n                        keccak256(\r\n                            \"NFTVoucher(uint256 tokenId,uint256 minPrice,string uri)\"\r\n                        ),\r\n                        voucher.tokenId,\r\n                        voucher.minPrice,\r\n                        keccak256(bytes(voucher.uri))\r\n                    )\r\n                )\r\n            );\r\n    }\r\n\r\n    function getChainID() external view returns (uint256) {\r\n        uint256 id;\r\n        assembly {\r\n            id := chainid()\r\n        }\r\n        return id;\r\n    }\r\n\r\n    function _verify(NFTVoucher calldata voucher)\r\n        internal\r\n        view\r\n        returns (address)\r\n    {\r\n        bytes32 digest = _hash(voucher);\r\n        return ECDSA.recover(digest, voucher.signature);\r\n    }\r\n\r\n    // function supportsInterface(bytes4 interfaceId)\r\n    //     public\r\n    //     view\r\n    //     virtual\r\n    //     // override(AccessControl, ERC721)\r\n    //     returns (bool)\r\n    // {\r\n    //     return\r\n    //         ERC721.supportsInterface(interfaceId) ||\r\n    //         AccessControl.supportsInterface(interfaceId);\r\n    // }\r\n\r\n    //////////////////////////////////////////////////////////////////////////////////////////////////////////\r\n    ///auction///\r\n    /////////////////////////////////////////////////////////////////////////////////////////////////////////\r\n\r\n    function startAuction(\r\n        uint256 _nftId,\r\n        uint256 startingBid,\r\n        uint256 auctionPeriodInDays,\r\n        address _token\r\n    ) external {\r\n        start(_nftId, startingBid, auctionPeriodInDays, _token, msg.sender);\r\n    }\r\n\r\n    function placeBid(uint256 _nftId, uint256 amount) external payable {\r\n        bid(_nftId, amount, msg.sender, msg.value);\r\n    }\r\n\r\n    function endAuction(NFTVoucher calldata voucher, address bidder) external {\r\n        address signer = _verify(voucher);\r\n        require(seller[voucher.tokenId] == signer, \"Invalid signature\");\r\n        require(signer == msg.sender, \"Only a creator can end the auction\");\r\n\r\n        end(voucher.tokenId, bidder, signer, platformCommission, admin);\r\n\r\n        /////////////////////////////////////////////////////////////\r\n        _mint(signer, voucher.tokenId); //mint the token\r\n        _setTokenURI(voucher.tokenId, voucher.uri); //generate the URI\r\n\r\n        if (bidder != address(0)) {\r\n            _transfer(signer, bidder, voucher.tokenId);\r\n        } else {\r\n            _transfer(signer, highestBidder[voucher.tokenId], voucher.tokenId);\r\n        }\r\n    }\r\n\r\n    function withdrawBid(uint256 _nftId) external {\r\n        withdraw(_nftId);\r\n    }\r\n}\r\n",
  "sourcePath": "D:\\Desktop\\immense\\crypto\\defi application\\test (NFT marketplace)\\NFT game\\src\\contracts\\NFT9.sol",
  "compiler": {
    "name": "solc",
    "version": "0.8.4+commit.c7e474f2.Emscripten.clang"
  },
  "schemaVersion": "3.4.7",
  "updatedAt": "2022-05-30T12:37:29.181Z",
  "devdoc": {
    "kind": "dev",
    "methods": {
      "approve(address,uint256)": {
        "details": "See {IERC721-approve}."
      },
      "balanceOf(address)": {
        "details": "See {IERC721-balanceOf}."
      },
      "createAndBuyToken((uint256,uint256,string,bytes),uint256)": {
        "params": {
          "voucher": ": contains details of tokenId, price, uri and signature"
        }
      },
      "getApproved(uint256)": {
        "details": "See {IERC721-getApproved}."
      },
      "isApprovedForAll(address,address)": {
        "details": "See {IERC721-isApprovedForAll}."
      },
      "name()": {
        "details": "See {IERC721Metadata-name}."
      },
      "ownerOf(uint256)": {
        "details": "See {IERC721-ownerOf}."
      },
      "safeTransferFrom(address,address,uint256)": {
        "details": "See {IERC721-safeTransferFrom}."
      },
      "safeTransferFrom(address,address,uint256,bytes)": {
        "details": "See {IERC721-safeTransferFrom}."
      },
      "setApprovalForAll(address,bool)": {
        "details": "See {IERC721-setApprovalForAll}."
      },
      "supportsInterface(bytes4)": {
        "details": "See {IERC165-supportsInterface}."
      },
      "symbol()": {
        "details": "See {IERC721Metadata-symbol}."
      },
      "tokenURI(uint256)": {
        "details": "See {IERC721Metadata-tokenURI}."
      },
      "transferFrom(address,address,uint256)": {
        "details": "See {IERC721-transferFrom}."
      }
    },
    "version": 1
  },
  "userdoc": {
    "kind": "user",
    "methods": {
      "createAndBuyToken((uint256,uint256,string,bytes),uint256)": {
        "notice": "create a new token"
      },
      "startAuction(uint256,uint256,uint256,address)": {
        "notice": "auction///"
      }
    },
    "version": 1
  }
}