{
  "contractName": "RandomNumberConsumer1",
  "abi": [
    {
      "inputs": [],
      "stateMutability": "nonpayable",
      "type": "constructor"
    },
    {
      "inputs": [],
      "name": "admin",
      "outputs": [
        {
          "internalType": "address",
          "name": "",
          "type": "address"
        }
      ],
      "stateMutability": "view",
      "type": "function",
      "constant": true
    },
    {
      "inputs": [],
      "name": "randomTokenId",
      "outputs": [
        {
          "internalType": "uint256",
          "name": "",
          "type": "uint256"
        }
      ],
      "stateMutability": "view",
      "type": "function",
      "constant": true
    },
    {
      "inputs": [
        {
          "internalType": "bytes32",
          "name": "requestId",
          "type": "bytes32"
        },
        {
          "internalType": "uint256",
          "name": "randomness",
          "type": "uint256"
        }
      ],
      "name": "rawFulfillRandomness",
      "outputs": [],
      "stateMutability": "nonpayable",
      "type": "function"
    },
    {
      "inputs": [
        {
          "internalType": "address",
          "name": "_admin",
          "type": "address"
        }
      ],
      "name": "updateAdmin",
      "outputs": [],
      "stateMutability": "nonpayable",
      "type": "function"
    },
    {
      "inputs": [],
      "name": "getRandomNumber",
      "outputs": [
        {
          "internalType": "bytes32",
          "name": "requestId",
          "type": "bytes32"
        }
      ],
      "stateMutability": "nonpayable",
      "type": "function"
    },
    {
      "inputs": [],
      "name": "getCommonBoxSkin",
      "outputs": [
        {
          "internalType": "string",
          "name": "",
          "type": "string"
        }
      ],
      "stateMutability": "view",
      "type": "function",
      "constant": true
    },
    {
      "inputs": [],
      "name": "getRareBoxSkin",
      "outputs": [
        {
          "internalType": "string",
          "name": "",
          "type": "string"
        }
      ],
      "stateMutability": "view",
      "type": "function",
      "constant": true
    },
    {
      "inputs": [],
      "name": "getEpicBoxSkin",
      "outputs": [
        {
          "internalType": "string",
          "name": "",
          "type": "string"
        }
      ],
      "stateMutability": "view",
      "type": "function",
      "constant": true
    },
    {
      "inputs": [],
      "name": "getLegendaryBoxSkin",
      "outputs": [
        {
          "internalType": "string",
          "name": "",
          "type": "string"
        }
      ],
      "stateMutability": "view",
      "type": "function",
      "constant": true
    },
    {
      "inputs": [],
      "name": "getWeaponBoxRarityDrop",
      "outputs": [
        {
          "internalType": "string",
          "name": "",
          "type": "string"
        }
      ],
      "stateMutability": "view",
      "type": "function",
      "constant": true
    },
    {
      "inputs": [],
      "name": "getCommonBoxHero",
      "outputs": [
        {
          "internalType": "string",
          "name": "",
          "type": "string"
        }
      ],
      "stateMutability": "view",
      "type": "function",
      "constant": true
    },
    {
      "inputs": [],
      "name": "getRareBoxHero",
      "outputs": [
        {
          "internalType": "string",
          "name": "",
          "type": "string"
        }
      ],
      "stateMutability": "view",
      "type": "function",
      "constant": true
    },
    {
      "inputs": [],
      "name": "getEpicBoxHero",
      "outputs": [
        {
          "internalType": "string",
          "name": "",
          "type": "string"
        }
      ],
      "stateMutability": "view",
      "type": "function",
      "constant": true
    },
    {
      "inputs": [],
      "name": "getLegendaryBoxHero",
      "outputs": [
        {
          "internalType": "string",
          "name": "",
          "type": "string"
        }
      ],
      "stateMutability": "view",
      "type": "function",
      "constant": true
    }
  ],
  "bytecode": "0x60c060405234801561001057600080fd5b5073a555fc018435bef5a13c6c6870a9d4c11dec329c7384b9b910527ad5c03a9ca831909e21e236ea7b068173ffffffffffffffffffffffffffffffffffffffff1660a08173ffffffffffffffffffffffffffffffffffffffff1660601b815250508073ffffffffffffffffffffffffffffffffffffffff1660808173ffffffffffffffffffffffffffffffffffffffff1660601b8152505050507fcaf3c3727e033261d383b315559476f48034c13b18f8cafed4d871abe504918660001b60018190555067016345785d8a000060028190555033600560006101000a81548173ffffffffffffffffffffffffffffffffffffffff021916908373ffffffffffffffffffffffffffffffffffffffff16021790555060805160601c60a05160601c61302261015e600039600081816115f10152612755015260008181612188015261271901526130226000f3fe608060405234801561001057600080fd5b50600436106100ea5760003560e01c8063a309c0b11161008c578063dbdff2c111610066578063dbdff2c114610219578063e2f273bd14610237578063edc7a26014610253578063f851a44014610271576100ea565b8063a309c0b1146101bf578063b8eb9fdf146101dd578063be33ab71146101fb576100ea565b806359888545116100c85780635988854514610149578063771a5210146101675780637e032d9f1461018557806394985ddd146101a3576100ea565b806315b23263146100ef5780633fd0029a1461010d57806349dbb0501461012b575b600080fd5b6100f761028f565b6040516101049190612c47565b60405180910390f35b6101156103ee565b6040516101229190612c47565b60405180910390f35b610133610c37565b6040516101409190612c47565b60405180910390f35b61015161126d565b60405161015e9190612c47565b60405180910390f35b61016f61137b565b60405161017c9190612c47565b60405180910390f35b61018d6114e1565b60405161019a9190612c47565b60405180910390f35b6101bd60048036038101906101b8919061299e565b6115ef565b005b6101c761168b565b6040516101d49190612c47565b60405180910390f35b6101e5611ab4565b6040516101f29190612cc9565b60405180910390f35b610203611aba565b6040516102109190612c47565b60405180910390f35b6102216120f1565b60405161022e9190612bbe565b60405180910390f35b610251600480360381019061024c919061294c565b612283565b005b61025b612357565b6040516102689190612c47565b60405180910390f35b61027961240d565b6040516102869190612b65565b60405180910390f35b6060600060048054906101000a900460ff1660ff16101580156102c25750604e60048054906101000a900460ff1660ff16105b15610304576040518060400160405280601881526020017f363262633165326438346534313137613264323962343430000000000000000081525090506103eb565b604e60048054906101000a900460ff1660ff16101580156103355750606260048054906101000a900460ff1660ff16105b15610377576040518060400160405280601881526020017f363262633165343238346534313137613264323962343432000000000000000081525090506103eb565b606260048054906101000a900460ff1660ff16101580156103a85750606460048054906101000a900460ff1660ff16105b156103ea576040518060400160405280601881526020017f363262633165356538346534313137613264323962343434000000000000000081525090506103eb565b5b90565b60606000600460029054906101000a900460ff1660ff1614156105fd5760006004600f9054906101000a900461ffff1661ffff16101580156104445750600f6004600f9054906101000a900461ffff1661ffff16105b15610486576040518060400160405280601881526020017f36323537633365336430646565346665646263326462343400000000000000008152509050610c34565b600f6004600f9054906101000a900461ffff1661ffff16101580156104bf575060286004600f9054906101000a900461ffff1661ffff16105b15610501576040518060400160405280601881526020017f36323537633366346430646565346665646263326462343600000000000000008152509050610c34565b60286004600f9054906101000a900461ffff1661ffff161015801561053a575060f06004600f9054906101000a900461ffff1661ffff16105b1561057c576040518060400160405280601881526020017f36323537633430636430646565346665646263326462343800000000000000008152509050610c34565b60f06004600f9054906101000a900461ffff1661ffff16101580156105b657506101f96004600f9054906101000a900461ffff1661ffff16105b156105f8576040518060400160405280601881526020017f36323537633432306430646565346665646263326462346100000000000000008152509050610c34565b610c33565b6001600460029054906101000a900460ff1660ff161415610810576000600460119054906101000a900461ffff1661ffff16101580156106525750610203600460119054906101000a900461ffff1661ffff16105b15610694576040518060400160405280601881526020017f36323537633365336430646565346665646263326462343400000000000000008152509050610c34565b610203600460119054906101000a900461ffff1661ffff16101580156106cf57506102da600460119054906101000a900461ffff1661ffff16105b15610711576040518060400160405280601881526020017f36323537633366346430646565346665646263326462343600000000000000008152509050610c34565b6102da600460119054906101000a900461ffff1661ffff161015801561074c5750610357600460119054906101000a900461ffff1661ffff16105b1561078e576040518060400160405280601881526020017f36323537633430636430646565346665646263326462343800000000000000008152509050610c34565b610357600460119054906101000a900461ffff1661ffff16101580156107c957506103ac600460119054906101000a900461ffff1661ffff16105b1561080b576040518060400160405280601881526020017f36323537633432306430646565346665646263326462346100000000000000008152509050610c34565b610c32565b6002600460029054906101000a900460ff1660ff161415610a23576000600460139054906101000a900461ffff1661ffff16101580156108655750610cdf600460139054906101000a900461ffff1661ffff16105b156108a7576040518060400160405280601881526020017f36323537633365336430646565346665646263326462343400000000000000008152509050610c34565b610cdf600460139054906101000a900461ffff1661ffff16101580156108e2575061160d600460139054906101000a900461ffff1661ffff16105b15610924576040518060400160405280601881526020017f36323537633366346430646565346665646263326462343600000000000000008152509050610c34565b61160d600460139054906101000a900461ffff1661ffff161015801561095f5750611bee600460139054906101000a900461ffff1661ffff16105b156109a1576040518060400160405280601881526020017f36323537633430636430646565346665646263326462343800000000000000008152509050610c34565b611bee600460139054906101000a900461ffff1661ffff16101580156109dc5750611fb3600460139054906101000a900461ffff1661ffff16105b15610a1e576040518060400160405280601881526020017f36323537633432306430646565346665646263326462346100000000000000008152509050610c34565b610c31565b6003600460029054906101000a900460ff1660ff161415610c30576000600460159054906101000a900461ffff1661ffff1610158015610a77575060e1600460159054906101000a900461ffff1661ffff16105b15610ab9576040518060400160405280601881526020017f36323537633365336430646565346665646263326462343400000000000000008152509050610c34565b60e1600460159054906101000a900461ffff1661ffff1610158015610af35750610190600460159054906101000a900461ffff1661ffff16105b15610b35576040518060400160405280601881526020017f36323537633366346430646565346665646263326462343600000000000000008152509050610c34565b610190600460159054906101000a900461ffff1661ffff1610158015610b7057506101b3600460159054906101000a900461ffff1661ffff16105b15610bb2576040518060400160405280601881526020017f36323537633430636430646565346665646263326462343800000000000000008152509050610c34565b6101b3600460159054906101000a900461ffff1661ffff1610158015610bed57506101b8600460159054906101000a900461ffff1661ffff16105b15610c2f576040518060400160405280601881526020017f36323537633432306430646565346665646263326462346100000000000000008152509050610c34565b5b5b5b5b5b90565b60606000600460019054906101000a900460ff1660ff161415610e4c576000600460099054906101000a900461ffff1661ffff1610158015610c8e57506101b3600460099054906101000a900461ffff1661ffff16105b15610cd0576040518060400160405280601881526020017f3632353763336533643064656534666564626332646234340000000000000000815250905061126a565b6101b3600460099054906101000a900461ffff1661ffff1610158015610d0b57506102c1600460099054906101000a900461ffff1661ffff16105b15610d4d576040518060400160405280601881526020017f3632353763336634643064656534666564626332646234360000000000000000815250905061126a565b6102c1600460099054906101000a900461ffff1661ffff1610158015610d885750610389600460099054906101000a900461ffff1661ffff16105b15610dca576040518060400160405280601881526020017f3632353763343063643064656534666564626332646234380000000000000000815250905061126a565b610389600460099054906101000a900461ffff1661ffff1610158015610e0557506103ed600460099054906101000a900461ffff1661ffff16105b15610e47576040518060400160405280601881526020017f3632353763343230643064656534666564626332646234610000000000000000815250905061126a565b611269565b6001600460019054906101000a900460ff1660ff16141561105f5760006004600b9054906101000a900461ffff1661ffff1610158015610ea15750610d756004600b9054906101000a900461ffff1661ffff16105b15610ee3576040518060400160405280601881526020017f3632353763336533643064656534666564626332646234340000000000000000815250905061126a565b610d756004600b9054906101000a900461ffff1661ffff1610158015610f1e57506117486004600b9054906101000a900461ffff1661ffff16105b15610f60576040518060400160405280601881526020017f3632353763336634643064656534666564626332646234360000000000000000815250905061126a565b6117486004600b9054906101000a900461ffff1661ffff1610158015610f9b5750611e826004600b9054906101000a900461ffff1661ffff16105b15610fdd576040518060400160405280601881526020017f3632353763343063643064656534666564626332646234380000000000000000815250905061126a565b611e826004600b9054906101000a900461ffff1661ffff161015801561101857506122ce6004600b9054906101000a900461ffff1661ffff16105b1561105a576040518060400160405280601881526020017f3632353763343230643064656534666564626332646234610000000000000000815250905061126a565b611268565b6002600460019054906101000a900460ff1660ff1614156112675760006004600d9054906101000a900461ffff1661ffff16101580156110b3575060326004600d9054906101000a900461ffff1661ffff16105b156110f5576040518060400160405280601881526020017f3632353763336533643064656534666564626332646234340000000000000000815250905061126a565b60326004600d9054906101000a900461ffff1661ffff161015801561112e575060466004600d9054906101000a900461ffff1661ffff16105b15611170576040518060400160405280601881526020017f3632353763336634643064656534666564626332646234360000000000000000815250905061126a565b60466004600d9054906101000a900461ffff1661ffff16101580156111a9575060506004600d9054906101000a900461ffff1661ffff16105b156111eb576040518060400160405280601881526020017f3632353763343063643064656534666564626332646234380000000000000000815250905061126a565b60506004600d9054906101000a900461ffff1661ffff1610158015611224575060556004600d9054906101000a900461ffff1661ffff16105b15611266576040518060400160405280601881526020017f3632353763343230643064656534666564626332646234610000000000000000815250905061126a565b5b5b5b5b90565b60606000600460019054906101000a900460ff1660ff1614156112c7576040518060400160405280601881526020017f36323537626262376232373862336536373765356365666600000000000000008152509050611378565b6001600460019054906101000a900460ff1660ff16141561131f576040518060400160405280601881526020017f36323537626430366232373862336536373765356366303100000000000000008152509050611378565b6002600460019054906101000a900460ff1660ff161415611377576040518060400160405280601881526020017f36323537626464326232373862336536373765356366303300000000000000008152509050611378565b5b90565b60606000600460029054906101000a900460ff1660ff1614156113d5576040518060400160405280601881526020017f363235376262623762323738623365363737653563656666000000000000000081525090506114de565b6001600460029054906101000a900460ff1660ff16141561142d576040518060400160405280601881526020017f363235376264303662323738623365363737653563663031000000000000000081525090506114de565b6002600460029054906101000a900460ff1660ff161415611485576040518060400160405280601881526020017f363235376264643262323738623365363737653563663033000000000000000081525090506114de565b6003600460029054906101000a900460ff1660ff1614156114dd576040518060400160405280601881526020017f363235376265303062323738623365363737653563663035000000000000000081525090506114de565b5b90565b60606001600460039054906101000a900460ff1660ff16141561153b576040518060400160405280601881526020017f363235376264303662323738623365363737653563663031000000000000000081525090506115ec565b6002600460039054906101000a900460ff1660ff161415611593576040518060400160405280601881526020017f363235376264643262323738623365363737653563663033000000000000000081525090506115ec565b6003600460039054906101000a900460ff1660ff1614156115eb576040518060400160405280601881526020017f363235376265303062323738623365363737653563663035000000000000000081525090506115ec565b5b90565b7f000000000000000000000000000000000000000000000000000000000000000073ffffffffffffffffffffffffffffffffffffffff163373ffffffffffffffffffffffffffffffffffffffff161461167d576040517f08c379a000000000000000000000000000000000000000000000000000000000815260040161167490612ca9565b60405180910390fd5b6116878282612433565b5050565b60606000600460009054906101000a900460ff1660ff1614156118a0576000600460059054906101000a900461ffff1661ffff16101580156116e25750610f9b600460059054906101000a900461ffff1661ffff16105b15611724576040518060400160405280601881526020017f36323537633365336430646565346665646263326462343400000000000000008152509050611ab1565b610f9b600460059054906101000a900461ffff1661ffff161015801561175f5750611abd600460059054906101000a900461ffff1661ffff16105b156117a1576040518060400160405280601881526020017f36323537633366346430646565346665646263326462343600000000000000008152509050611ab1565b611abd600460059054906101000a900461ffff1661ffff16101580156117dc57506120f8600460059054906101000a900461ffff1661ffff16105b1561181e576040518060400160405280601881526020017f36323537633430636430646565346665646263326462343800000000000000008152509050611ab1565b6120f8600460059054906101000a900461ffff1661ffff1610158015611859575061245e600460059054906101000a900461ffff1661ffff16105b1561189b576040518060400160405280601881526020017f36323537633432306430646565346665646263326462346100000000000000008152509050611ab1565b611ab0565b6001600460009054906101000a900460ff1660ff161415611aaf576000600460079054906101000a900461ffff1661ffff16101580156118f5575061016d600460079054906101000a900461ffff1661ffff16105b15611937576040518060400160405280601881526020017f36323537633365336430646565346665646263326462343400000000000000008152509050611ab1565b61016d600460079054906101000a900461ffff1661ffff1610158015611972575061021c600460079054906101000a900461ffff1661ffff16105b156119b4576040518060400160405280601881526020017f36323537633366346430646565346665646263326462343600000000000000008152509050611ab1565b61021c600460079054906101000a900461ffff1661ffff16101580156119ef5750610280600460079054906101000a900461ffff1661ffff16105b15611a31576040518060400160405280601881526020017f36323537633430636430646565346665646263326462343800000000000000008152509050611ab1565b610280600460079054906101000a900461ffff1661ffff1610158015611a6c57506102b2600460079054906101000a900461ffff1661ffff16105b15611aae576040518060400160405280601881526020017f36323537633432306430646565346665646263326462346100000000000000008152509050611ab1565b5b5b5b90565b60035481565b60606001600460039054906101000a900460ff1660ff161415611ccb576000600460179054906101000a900461ffff1661ffff1610158015611b1057506037600460179054906101000a900461ffff1661ffff16105b15611b52576040518060400160405280601881526020017f363235376333653364306465653466656462633264623434000000000000000081525090506120ee565b6037600460179054906101000a900461ffff1661ffff1610158015611b8b5750608c600460179054906101000a900461ffff1661ffff16105b15611bcd576040518060400160405280601881526020017f363235376333663464306465653466656462633264623436000000000000000081525090506120ee565b608c600460179054906101000a900461ffff1661ffff1610158015611c075750610109600460179054906101000a900461ffff1661ffff16105b15611c49576040518060400160405280601881526020017f363235376334306364306465653466656462633264623438000000000000000081525090506120ee565b610109600460179054906101000a900461ffff1661ffff1610158015611c8457506101b8600460179054906101000a900461ffff1661ffff16105b15611cc6576040518060400160405280601881526020017f363235376334323064306465653466656462633264623461000000000000000081525090506120ee565b6120ed565b6002600460039054906101000a900460ff1660ff161415611edc576000600460199054906101000a900461ffff1661ffff1610158015611d1f575060eb600460199054906101000a900461ffff1661ffff16105b15611d61576040518060400160405280601881526020017f363235376333653364306465653466656462633264623434000000000000000081525090506120ee565b60eb600460199054906101000a900461ffff1661ffff1610158015611d9b5750610258600460199054906101000a900461ffff1661ffff16105b15611ddd576040518060400160405280601881526020017f363235376333663464306465653466656462633264623436000000000000000081525090506120ee565b610258600460199054906101000a900461ffff1661ffff1610158015611e1857506104ab600460199054906101000a900461ffff1661ffff16105b15611e5a576040518060400160405280601881526020017f363235376334306364306465653466656462633264623438000000000000000081525090506120ee565b6104ab600460199054906101000a900461ffff1661ffff1610158015611e9557506107e4600460199054906101000a900461ffff1661ffff16105b15611ed7576040518060400160405280601881526020017f363235376334323064306465653466656462633264623461000000000000000081525090506120ee565b6120ec565b6003600460039054906101000a900460ff1660ff1614156120eb5760006004601b9054906101000a900461ffff1661ffff1610158015611f315750610cdf6004601b9054906101000a900461ffff1661ffff16105b15611f73576040518060400160405280601881526020017f363235376333653364306465653466656462633264623434000000000000000081525090506120ee565b610cdf6004601b9054906101000a900461ffff1661ffff1610158015611fae57506115866004601b9054906101000a900461ffff1661ffff16105b15611ff0576040518060400160405280601881526020017f363235376333663464306465653466656462633264623436000000000000000081525090506120ee565b6115866004601b9054906101000a900461ffff1661ffff161015801561202b5750611c116004601b9054906101000a900461ffff1661ffff16105b1561206d576040518060400160405280601881526020017f363235376334306364306465653466656462633264623438000000000000000081525090506120ee565b611c116004601b9054906101000a900461ffff1661ffff16101580156120a85750611d746004601b9054906101000a900461ffff1661ffff16105b156120ea576040518060400160405280601881526020017f363235376334323064306465653466656462633264623461000000000000000081525090506120ee565b5b5b5b5b90565b6000600560009054906101000a900473ffffffffffffffffffffffffffffffffffffffff1673ffffffffffffffffffffffffffffffffffffffff163373ffffffffffffffffffffffffffffffffffffffff1614612183576040517f08c379a000000000000000000000000000000000000000000000000000000000815260040161217a90612c89565b60405180910390fd5b6002547f000000000000000000000000000000000000000000000000000000000000000073ffffffffffffffffffffffffffffffffffffffff166370a08231306040518263ffffffff1660e01b81526004016121df9190612b65565b60206040518083038186803b1580156121f757600080fd5b505afa15801561220b573d6000803e3d6000fd5b505050506040513d601f19601f8201168201806040525081019061222f91906129da565b1015612270576040517f08c379a000000000000000000000000000000000000000000000000000000000815260040161226790612c69565b60405180910390fd5b61227e600154600254612715565b905090565b600560009054906101000a900473ffffffffffffffffffffffffffffffffffffffff1673ffffffffffffffffffffffffffffffffffffffff163373ffffffffffffffffffffffffffffffffffffffff1614612313576040517f08c379a000000000000000000000000000000000000000000000000000000000815260040161230a90612c89565b60405180910390fd5b80600560006101000a81548173ffffffffffffffffffffffffffffffffffffffff021916908373ffffffffffffffffffffffffffffffffffffffff16021790555050565b60606000600460009054906101000a900460ff1660ff1614156123b1576040518060400160405280601881526020017f3632353762626237623237386233653637376535636566660000000000000000815250905061240a565b6001600460009054906101000a900460ff1660ff161415612409576040518060400160405280601881526020017f3632353762643036623237386233653637376535636630310000000000000000815250905061240a565b5b90565b600560009054906101000a900473ffffffffffffffffffffffffffffffffffffffff1681565b66038d7ea4c68000816124469190612e4f565b6003819055506002816124599190612e4f565b600460006101000a81548160ff021916908360ff1602179055506003816124809190612e4f565b600460016101000a81548160ff021916908360ff1602179055506004816124a79190612e4f565b600460026101000a81548160ff021916908360ff16021790555060016003826124d09190612e4f565b6124da9190612d72565b600460036101000a81548160ff021916908360ff1602179055506064816125019190612e4f565b6004806101000a81548160ff021916908360ff16021790555061245e816125289190612e4f565b600460056101000a81548161ffff021916908361ffff1602179055506102b2816125529190612e4f565b600460076101000a81548161ffff021916908361ffff1602179055506103ed8161257c9190612e4f565b600460096101000a81548161ffff021916908361ffff1602179055506122ce816125a69190612e4f565b6004600b6101000a81548161ffff021916908361ffff1602179055506055816125cf9190612e4f565b6004600d6101000a81548161ffff021916908361ffff1602179055506101f9816125f99190612e4f565b6004600f6101000a81548161ffff021916908361ffff1602179055506103ac816126239190612e4f565b600460116101000a81548161ffff021916908361ffff160217905550611fb38161264d9190612e4f565b600460136101000a81548161ffff021916908361ffff1602179055506101b8816126779190612e4f565b600460156101000a81548161ffff021916908361ffff1602179055506101b8816126a19190612e4f565b600460176101000a81548161ffff021916908361ffff1602179055506107e4816126cb9190612e4f565b600460196101000a81548161ffff021916908361ffff160217905550611d74816126f59190612e4f565b6004601b6101000a81548161ffff021916908361ffff1602179055505050565b60007f000000000000000000000000000000000000000000000000000000000000000073ffffffffffffffffffffffffffffffffffffffff16634000aea07f000000000000000000000000000000000000000000000000000000000000000084866000604051602001612789929190612bd9565b6040516020818303038152906040526040518463ffffffff1660e01b81526004016127b693929190612b80565b602060405180830381600087803b1580156127d057600080fd5b505af11580156127e4573d6000803e3d6000fd5b505050506040513d601f19601f820116820180604052508101906128089190612975565b50600061282a8460003060008089815260200190815260200160002054612874565b905060016000808681526020019081526020016000205461284b9190612d1c565b6000808681526020019081526020016000208190555061286b84826128b0565b91505092915050565b60008484848460405160200161288d9493929190612c02565b6040516020818303038152906040528051906020012060001c9050949350505050565b600082826040516020016128c5929190612b39565b60405160208183030381529060405280519060200120905092915050565b6000813590506128f281612f90565b92915050565b60008151905061290781612fa7565b92915050565b60008135905061291c81612fbe565b92915050565b60008135905061293181612fd5565b92915050565b60008151905061294681612fd5565b92915050565b60006020828403121561295e57600080fd5b600061296c848285016128e3565b91505092915050565b60006020828403121561298757600080fd5b6000612995848285016128f8565b91505092915050565b600080604083850312156129b157600080fd5b60006129bf8582860161290d565b92505060206129d085828601612922565b9150509250929050565b6000602082840312156129ec57600080fd5b60006129fa84828501612937565b91505092915050565b612a0c81612da9565b82525050565b612a1b81612dc7565b82525050565b612a32612a2d82612dc7565b612e3b565b82525050565b6000612a4382612ce4565b612a4d8185612cfa565b9350612a5d818560208601612e08565b612a6681612ede565b840191505092915050565b6000612a7c82612cef565b612a868185612d0b565b9350612a96818560208601612e08565b612a9f81612ede565b840191505092915050565b6000612ab7602b83612d0b565b9150612ac282612eef565b604082019050919050565b6000612ada601a83612d0b565b9150612ae582612f3e565b602082019050919050565b6000612afd601f83612d0b565b9150612b0882612f67565b602082019050919050565b612b1c81612df1565b82525050565b612b33612b2e82612df1565b612e45565b82525050565b6000612b458285612a21565b602082019150612b558284612b22565b6020820191508190509392505050565b6000602082019050612b7a6000830184612a03565b92915050565b6000606082019050612b956000830186612a03565b612ba26020830185612b13565b8181036040830152612bb48184612a38565b9050949350505050565b6000602082019050612bd36000830184612a12565b92915050565b6000604082019050612bee6000830185612a12565b612bfb6020830184612b13565b9392505050565b6000608082019050612c176000830187612a12565b612c246020830186612b13565b612c316040830185612a03565b612c3e6060830184612b13565b95945050505050565b60006020820190508181036000830152612c618184612a71565b905092915050565b60006020820190508181036000830152612c8281612aaa565b9050919050565b60006020820190508181036000830152612ca281612acd565b9050919050565b60006020820190508181036000830152612cc281612af0565b9050919050565b6000602082019050612cde6000830184612b13565b92915050565b600081519050919050565b600081519050919050565b600082825260208201905092915050565b600082825260208201905092915050565b6000612d2782612df1565b9150612d3283612df1565b9250827fffffffffffffffffffffffffffffffffffffffffffffffffffffffffffffffff03821115612d6757612d66612e80565b5b828201905092915050565b6000612d7d82612dfb565b9150612d8883612dfb565b92508260ff03821115612d9e57612d9d612e80565b5b828201905092915050565b6000612db482612dd1565b9050919050565b60008115159050919050565b6000819050919050565b600073ffffffffffffffffffffffffffffffffffffffff82169050919050565b6000819050919050565b600060ff82169050919050565b60005b83811015612e26578082015181840152602081019050612e0b565b83811115612e35576000848401525b50505050565b6000819050919050565b6000819050919050565b6000612e5a82612df1565b9150612e6583612df1565b925082612e7557612e74612eaf565b5b828206905092915050565b7f4e487b7100000000000000000000000000000000000000000000000000000000600052601160045260246000fd5b7f4e487b7100000000000000000000000000000000000000000000000000000000600052601260045260246000fd5b6000601f19601f8301169050919050565b7f4e6f7420656e6f756768204c494e4b202d2066696c6c20636f6e74726163742060008201527f7769746820666175636574000000000000000000000000000000000000000000602082015250565b7f4f6e6c792061646d696e2063616e206163636573732074686973000000000000600082015250565b7f4f6e6c7920565246436f6f7264696e61746f722063616e2066756c66696c6c00600082015250565b612f9981612da9565b8114612fa457600080fd5b50565b612fb081612dbb565b8114612fbb57600080fd5b50565b612fc781612dc7565b8114612fd257600080fd5b50565b612fde81612df1565b8114612fe957600080fd5b5056fea264697066735822122030a94a60a951e905754b348aed1705cfc5cb46aa60b2a2548d24aec8b4e71cc964736f6c63430008040033",
  "immutableReferences": {
    "73": [
      {
        "length": 32,
        "start": 8584
      },
      {
        "length": 32,
        "start": 10009
      }
    ],
    "75": [
      {
        "length": 32,
        "start": 5617
      },
      {
        "length": 32,
        "start": 10069
      }
    ]
  },
  "source": "// SPDX-License-Identifier: MIT\r\npragma solidity ^0.8.0;\r\n\r\nimport \"@chainlink/contracts/src/v0.8/VRFConsumerBase.sol\";\r\n\r\n/**\r\n * THIS IS AN EXAMPLE CONTRACT WHICH USES HARDCODED VALUES FOR CLARITY.\r\n * PLEASE DO NOT USE THIS CODE IN PRODUCTION.\r\n */\r\n\r\n/**\r\n * Request testnet LINK and ETH here: https://faucets.chain.link/\r\n * Find information on LINK Token Contracts and get the latest ETH and LINK faucets here: https://docs.chain.link/docs/link-token-contracts/\r\n */\r\n\r\n/**\r\n * Skin Raririties id\r\n6257c3e3d0dee4fedbc2db44- name : \"Normal\"\r\n6257c3f4d0dee4fedbc2db46- name : \"Rare\",\r\n6257c40cd0dee4fedbc2db48- \"name\" : \"Mythic\",\r\n6257c420d0dee4fedbc2db4a-name : \"Legendary\",\r\n\r\n * hero rarities\r\n6257bbb7b278b3e677e5ceff-\"name\" : \"Common\",\r\n6257bd06b278b3e677e5cf01-\"name\" : \"Rare\",\r\n6257bdd2b278b3e677e5cf03-\"name\" : \"Epic\",\r\n6257be00b278b3e677e5cf05-\"name\" : \"Legendary\",\r\n\r\n * weapon rarity\r\n6257ccd3f3d0559f9803f1e5-name\" : \"Legendary\",\r\n6257cc78f3d0559f9803f1e1 -name\" : \"Rare\",\r\n6257ccc4f3d0559f9803f1e3-name\" : \"Epic\",\r\n1)62bc1e2d84e4117a2d29b440 \r\n    \"name\" : \"Rare\",\r\n\r\n2. 62bc1e4284e4117a2d29b442\r\n    \"name\" : \"Epic\", \r\n\r\n3) 62bc1e5e84e4117a2d29b444\"\r\n    \"name\" : \"Legendary\", \r\n */\r\n\r\ncontract RandomNumberConsumer1 is VRFConsumerBase {\r\n    bytes32 internal keyHash;\r\n    uint256 internal fee;\r\n\r\n    uint256 public randomTokenId;\r\n    uint8 internal commonBoxHeroProbability;\r\n    uint8 internal rareBoxHeroProbability;\r\n    uint8 internal epicBoxHeroProbability;\r\n    uint8 internal legendaryBoxHeroProbability;\r\n    uint8 internal weaponBoxRarityDrop;\r\n\r\n    //common box\r\n    uint16 internal commonBoxCommonHeroSkinRarity;\r\n    uint16 internal commonBoxRareHeroSkinRarity;\r\n\r\n    //rare box\r\n    uint16 internal rareBoxCommonHeroSkinRarity;\r\n    uint16 internal rareBoxRareHeroSkinRarity;\r\n    uint16 internal rareBoxEpicHeroSkinRarity;\r\n\r\n    //epic box\r\n    uint16 internal epicBoxCommonHeroSkinRarity;\r\n    uint16 internal epicBoxRareHeroSkinRarity;\r\n    uint16 internal epicBoxEpicHeroSkinRarity;\r\n    uint16 internal epicBoxLegendarySkinRarity;\r\n\r\n    //legendary box\r\n    uint16 internal legendaryBoxRareSkinRarity;\r\n    uint16 internal legendaryBoxEpicSkinRarity;\r\n    uint16 internal legendaryBoxLegendarySkinRarity;\r\n\r\n    address public admin;\r\n\r\n    /**\r\n     * Constructor inherits VRFConsumerBase\r\n     *\r\n     * Network: Kovan\r\n     * Chainlink VRF Coordinator address: 0xdD3782915140c8f3b190B5D67eAc6dc5760C46E9\r\n     * LINK token address:                0xa36085F69e2889c224210F603D836748e7dC0088\r\n     * Key Hash: 0x6c3699283bda56ad74f6b855546325b68d482e983852a7a82979cc4807b641f4\r\n     *\r\n     * Network: BSC testnet\r\n     * Chainlink VRF Coordinator address: 0xa555fC018435bef5A13C6c6870a9d4C11DEC329C\r\n     * LINK token address:                0x84b9B910527Ad5C03A9Ca831909E21e236EA7b06\r\n     * Key Hash: 0xcaf3c3727e033261d383b315559476f48034c13b18f8cafed4d871abe5049186\r\n     *\r\n     * Links\r\n     * https://docs.chain.link/docs/get-a-random-number/v1/\r\n     * https://docs.chain.link/docs/vrf-contracts/v1/\r\n     */\r\n    constructor()\r\n        VRFConsumerBase(\r\n            0xa555fC018435bef5A13C6c6870a9d4C11DEC329C, // VRF Coordinator\r\n            0x84b9B910527Ad5C03A9Ca831909E21e236EA7b06 // LINK Token\r\n        )\r\n    {\r\n        keyHash = 0xcaf3c3727e033261d383b315559476f48034c13b18f8cafed4d871abe5049186;\r\n        fee = 0.1 * 10**18; // 0.1 LINK (Varies by network)\r\n        admin = msg.sender;\r\n    }\r\n\r\n    modifier onlyAdmin() {\r\n        require(msg.sender == admin, \"Only admin can access this\");\r\n        _;\r\n    }\r\n\r\n    function updateAdmin(address _admin) public onlyAdmin {\r\n        admin = _admin;\r\n    }\r\n\r\n    /**\r\n     * Requests randomness\r\n     */\r\n    function getRandomNumber() public onlyAdmin returns (bytes32 requestId) {\r\n        require(\r\n            LINK.balanceOf(address(this)) >= fee,\r\n            \"Not enough LINK - fill contract with faucet\"\r\n        );\r\n        return requestRandomness(keyHash, fee);\r\n    }\r\n\r\n    /**\r\n     * Callback function used by VRF Coordinator\r\n     */\r\n    function fulfillRandomness(bytes32 requestId, uint256 randomness)\r\n        internal\r\n        override\r\n    {\r\n        randomTokenId = (randomness % 1000000000000000);\r\n        commonBoxHeroProbability = uint8(randomness % 2);\r\n        rareBoxHeroProbability = uint8(randomness % 3);\r\n        epicBoxHeroProbability = uint8(randomness % 4);\r\n        legendaryBoxHeroProbability = uint8(randomness % 3) + 1;\r\n        weaponBoxRarityDrop = uint8(randomness % 100);\r\n\r\n        //common box\r\n        commonBoxCommonHeroSkinRarity = uint16(randomness % 9310);\r\n        commonBoxRareHeroSkinRarity = uint16(randomness % 690);\r\n\r\n        //rare box\r\n        rareBoxCommonHeroSkinRarity = uint16(randomness % 1005);\r\n        rareBoxRareHeroSkinRarity = uint16(randomness % 8910);\r\n        rareBoxEpicHeroSkinRarity = uint16(randomness % 85);\r\n\r\n        //epic box\r\n        epicBoxCommonHeroSkinRarity = uint16(randomness % 505);\r\n        epicBoxRareHeroSkinRarity = uint16(randomness % 940);\r\n        epicBoxEpicHeroSkinRarity = uint16(randomness % 8115);\r\n        epicBoxLegendarySkinRarity = uint16(randomness % 440);\r\n\r\n        //legendary box\r\n        legendaryBoxRareSkinRarity = uint16(randomness % 440);\r\n        legendaryBoxEpicSkinRarity = uint16(randomness % 2020);\r\n        legendaryBoxLegendarySkinRarity = uint16(randomness % 7540);\r\n        // randomResult = (randomness%1000);\r\n        // randomResult\r\n        // 0: uint256: 873\r\n        // 0x58dc868A54D09e8E15e6352e331682a817e1f0B3 kovan network (%1000)\r\n        // 0x6f0eBEd8C6c6e09eEaE9f01A5C7a62c16aF5f552 BSC testnet (%1000)\r\n        // probability\r\n        // 0: uint8: 44\r\n        // randomTokenId\r\n        // 0: uint256: 7638892244\r\n        // 0x47D2EA3828633F28048a7dBC179D78C38A0d6a20 BSC testnet (probability and randomTokenId)\r\n    }\r\n\r\n    // function withdrawLink() external {} - Implement a withdraw function to avoid locking your LINK in the contract\r\n\r\n    function getCommonBoxSkin() public view returns (string memory) {\r\n        if (commonBoxHeroProbability == 0) {\r\n            if (\r\n                commonBoxCommonHeroSkinRarity >= 0 &&\r\n                commonBoxCommonHeroSkinRarity < 3995\r\n            ) {\r\n                return \"6257c3e3d0dee4fedbc2db44\";\r\n            } else if (\r\n                commonBoxCommonHeroSkinRarity >= 3995 &&\r\n                commonBoxCommonHeroSkinRarity < 6845\r\n            ) {\r\n                return \"6257c3f4d0dee4fedbc2db46\";\r\n            } else if (\r\n                commonBoxCommonHeroSkinRarity >= 6845 &&\r\n                commonBoxCommonHeroSkinRarity < 8440\r\n            ) {\r\n                return \"6257c40cd0dee4fedbc2db48\";\r\n            } else if (\r\n                commonBoxCommonHeroSkinRarity >= 8440 &&\r\n                commonBoxCommonHeroSkinRarity < 9310\r\n            ) {\r\n                return \"6257c420d0dee4fedbc2db4a\";\r\n            }\r\n        } else if (commonBoxHeroProbability == 1) {\r\n            if (\r\n                commonBoxRareHeroSkinRarity >= 0 &&\r\n                commonBoxRareHeroSkinRarity < 365\r\n            ) {\r\n                return \"6257c3e3d0dee4fedbc2db44\";\r\n            } else if (\r\n                commonBoxRareHeroSkinRarity >= 365 &&\r\n                commonBoxRareHeroSkinRarity < 540\r\n            ) {\r\n                return \"6257c3f4d0dee4fedbc2db46\";\r\n            } else if (\r\n                commonBoxRareHeroSkinRarity >= 540 &&\r\n                commonBoxRareHeroSkinRarity < 640\r\n            ) {\r\n                return \"6257c40cd0dee4fedbc2db48\";\r\n            } else if (\r\n                commonBoxRareHeroSkinRarity >= 640 &&\r\n                commonBoxRareHeroSkinRarity < 690\r\n            ) {\r\n                return \"6257c420d0dee4fedbc2db4a\";\r\n            }\r\n        }\r\n    }\r\n\r\n    function getRareBoxSkin() public view returns (string memory) {\r\n        if (rareBoxHeroProbability == 0) {\r\n            if (\r\n                rareBoxCommonHeroSkinRarity >= 0 &&\r\n                rareBoxCommonHeroSkinRarity < 435\r\n            ) {\r\n                return \"6257c3e3d0dee4fedbc2db44\";\r\n            } else if (\r\n                rareBoxCommonHeroSkinRarity >= 435 &&\r\n                rareBoxCommonHeroSkinRarity < 705\r\n            ) {\r\n                return \"6257c3f4d0dee4fedbc2db46\";\r\n            } else if (\r\n                rareBoxCommonHeroSkinRarity >= 705 &&\r\n                rareBoxCommonHeroSkinRarity < 905\r\n            ) {\r\n                return \"6257c40cd0dee4fedbc2db48\";\r\n            } else if (\r\n                rareBoxCommonHeroSkinRarity >= 905 &&\r\n                rareBoxCommonHeroSkinRarity < 1005\r\n            ) {\r\n                return \"6257c420d0dee4fedbc2db4a\";\r\n            }\r\n        } else if (rareBoxHeroProbability == 1) {\r\n            if (\r\n                rareBoxRareHeroSkinRarity >= 0 &&\r\n                rareBoxRareHeroSkinRarity < 3445\r\n            ) {\r\n                return \"6257c3e3d0dee4fedbc2db44\";\r\n            } else if (\r\n                rareBoxRareHeroSkinRarity >= 3445 &&\r\n                rareBoxRareHeroSkinRarity < 5960\r\n            ) {\r\n                return \"6257c3f4d0dee4fedbc2db46\";\r\n            } else if (\r\n                rareBoxRareHeroSkinRarity >= 5960 &&\r\n                rareBoxRareHeroSkinRarity < 7810\r\n            ) {\r\n                return \"6257c40cd0dee4fedbc2db48\";\r\n            } else if (\r\n                rareBoxRareHeroSkinRarity >= 7810 &&\r\n                rareBoxRareHeroSkinRarity < 8910\r\n            ) {\r\n                return \"6257c420d0dee4fedbc2db4a\";\r\n            }\r\n        } else if (rareBoxHeroProbability == 2) {\r\n            if (\r\n                rareBoxEpicHeroSkinRarity >= 0 && rareBoxEpicHeroSkinRarity < 50\r\n            ) {\r\n                return \"6257c3e3d0dee4fedbc2db44\";\r\n            } else if (\r\n                rareBoxEpicHeroSkinRarity >= 50 &&\r\n                rareBoxEpicHeroSkinRarity < 70\r\n            ) {\r\n                return \"6257c3f4d0dee4fedbc2db46\";\r\n            } else if (\r\n                rareBoxEpicHeroSkinRarity >= 70 &&\r\n                rareBoxEpicHeroSkinRarity < 80\r\n            ) {\r\n                return \"6257c40cd0dee4fedbc2db48\";\r\n            } else if (\r\n                rareBoxEpicHeroSkinRarity >= 80 &&\r\n                rareBoxEpicHeroSkinRarity < 85\r\n            ) {\r\n                return \"6257c420d0dee4fedbc2db4a\";\r\n            }\r\n        }\r\n    }\r\n\r\n    function getEpicBoxSkin() public view returns (string memory) {\r\n        if (epicBoxHeroProbability == 0) {\r\n            if (\r\n                epicBoxCommonHeroSkinRarity >= 0 &&\r\n                epicBoxCommonHeroSkinRarity < 15\r\n            ) {\r\n                return \"6257c3e3d0dee4fedbc2db44\";\r\n            } else if (\r\n                epicBoxCommonHeroSkinRarity >= 15 &&\r\n                epicBoxCommonHeroSkinRarity < 40\r\n            ) {\r\n                return \"6257c3f4d0dee4fedbc2db46\";\r\n            } else if (\r\n                epicBoxCommonHeroSkinRarity >= 40 &&\r\n                epicBoxCommonHeroSkinRarity < 240\r\n            ) {\r\n                return \"6257c40cd0dee4fedbc2db48\";\r\n            } else if (\r\n                epicBoxCommonHeroSkinRarity >= 240 &&\r\n                epicBoxCommonHeroSkinRarity < 505\r\n            ) {\r\n                return \"6257c420d0dee4fedbc2db4a\";\r\n            }\r\n        } else if (epicBoxHeroProbability == 1) {\r\n            if (\r\n                epicBoxRareHeroSkinRarity >= 0 &&\r\n                epicBoxRareHeroSkinRarity < 515\r\n            ) {\r\n                return \"6257c3e3d0dee4fedbc2db44\";\r\n            } else if (\r\n                epicBoxRareHeroSkinRarity >= 515 &&\r\n                epicBoxRareHeroSkinRarity < 730\r\n            ) {\r\n                return \"6257c3f4d0dee4fedbc2db46\";\r\n            } else if (\r\n                epicBoxRareHeroSkinRarity >= 730 &&\r\n                epicBoxRareHeroSkinRarity < 855\r\n            ) {\r\n                return \"6257c40cd0dee4fedbc2db48\";\r\n            } else if (\r\n                epicBoxRareHeroSkinRarity >= 855 &&\r\n                epicBoxRareHeroSkinRarity < 940\r\n            ) {\r\n                return \"6257c420d0dee4fedbc2db4a\";\r\n            }\r\n        } else if (epicBoxHeroProbability == 2) {\r\n            if (\r\n                epicBoxEpicHeroSkinRarity >= 0 &&\r\n                epicBoxEpicHeroSkinRarity < 3295\r\n            ) {\r\n                return \"6257c3e3d0dee4fedbc2db44\";\r\n            } else if (\r\n                epicBoxEpicHeroSkinRarity >= 3295 &&\r\n                epicBoxEpicHeroSkinRarity < 5645\r\n            ) {\r\n                return \"6257c3f4d0dee4fedbc2db46\";\r\n            } else if (\r\n                epicBoxEpicHeroSkinRarity >= 5645 &&\r\n                epicBoxEpicHeroSkinRarity < 7150\r\n            ) {\r\n                return \"6257c40cd0dee4fedbc2db48\";\r\n            } else if (\r\n                epicBoxEpicHeroSkinRarity >= 7150 &&\r\n                epicBoxEpicHeroSkinRarity < 8115\r\n            ) {\r\n                return \"6257c420d0dee4fedbc2db4a\";\r\n            }\r\n        } else if (epicBoxHeroProbability == 3) {\r\n            if (\r\n                epicBoxLegendarySkinRarity >= 0 &&\r\n                epicBoxLegendarySkinRarity < 225\r\n            ) {\r\n                return \"6257c3e3d0dee4fedbc2db44\";\r\n            } else if (\r\n                epicBoxLegendarySkinRarity >= 225 &&\r\n                epicBoxLegendarySkinRarity < 400\r\n            ) {\r\n                return \"6257c3f4d0dee4fedbc2db46\";\r\n            } else if (\r\n                epicBoxLegendarySkinRarity >= 400 &&\r\n                epicBoxLegendarySkinRarity < 435\r\n            ) {\r\n                return \"6257c40cd0dee4fedbc2db48\";\r\n            } else if (\r\n                epicBoxLegendarySkinRarity >= 435 &&\r\n                epicBoxLegendarySkinRarity < 440\r\n            ) {\r\n                return \"6257c420d0dee4fedbc2db4a\";\r\n            }\r\n        }\r\n    }\r\n\r\n    function getLegendaryBoxSkin() public view returns (string memory) {\r\n        if (legendaryBoxHeroProbability == 1) {\r\n            if (\r\n                legendaryBoxRareSkinRarity >= 0 &&\r\n                legendaryBoxRareSkinRarity < 55\r\n            ) {\r\n                return \"6257c3e3d0dee4fedbc2db44\";\r\n            } else if (\r\n                legendaryBoxRareSkinRarity >= 55 &&\r\n                legendaryBoxRareSkinRarity < 140\r\n            ) {\r\n                return \"6257c3f4d0dee4fedbc2db46\";\r\n            } else if (\r\n                legendaryBoxRareSkinRarity >= 140 &&\r\n                legendaryBoxRareSkinRarity < 265\r\n            ) {\r\n                return \"6257c40cd0dee4fedbc2db48\";\r\n            } else if (\r\n                legendaryBoxRareSkinRarity >= 265 &&\r\n                legendaryBoxRareSkinRarity < 440\r\n            ) {\r\n                return \"6257c420d0dee4fedbc2db4a\";\r\n            }\r\n        } else if (legendaryBoxHeroProbability == 2) {\r\n            if (\r\n                legendaryBoxEpicSkinRarity >= 0 &&\r\n                legendaryBoxEpicSkinRarity < 235\r\n            ) {\r\n                return \"6257c3e3d0dee4fedbc2db44\";\r\n            } else if (\r\n                legendaryBoxEpicSkinRarity >= 235 &&\r\n                legendaryBoxEpicSkinRarity < 600\r\n            ) {\r\n                return \"6257c3f4d0dee4fedbc2db46\";\r\n            } else if (\r\n                legendaryBoxEpicSkinRarity >= 600 &&\r\n                legendaryBoxEpicSkinRarity < 1195\r\n            ) {\r\n                return \"6257c40cd0dee4fedbc2db48\";\r\n            } else if (\r\n                legendaryBoxEpicSkinRarity >= 1195 &&\r\n                legendaryBoxEpicSkinRarity < 2020\r\n            ) {\r\n                return \"6257c420d0dee4fedbc2db4a\";\r\n            }\r\n        } else if (legendaryBoxHeroProbability == 3) {\r\n            if (\r\n                legendaryBoxLegendarySkinRarity >= 0 &&\r\n                legendaryBoxLegendarySkinRarity < 3295\r\n            ) {\r\n                return \"6257c3e3d0dee4fedbc2db44\";\r\n            } else if (\r\n                legendaryBoxLegendarySkinRarity >= 3295 &&\r\n                legendaryBoxLegendarySkinRarity < 5510\r\n            ) {\r\n                return \"6257c3f4d0dee4fedbc2db46\";\r\n            } else if (\r\n                legendaryBoxLegendarySkinRarity >= 5510 &&\r\n                legendaryBoxLegendarySkinRarity < 7185\r\n            ) {\r\n                return \"6257c40cd0dee4fedbc2db48\";\r\n            } else if (\r\n                legendaryBoxLegendarySkinRarity >= 7185 &&\r\n                legendaryBoxLegendarySkinRarity < 7540\r\n            ) {\r\n                return \"6257c420d0dee4fedbc2db4a\";\r\n            }\r\n        }\r\n    }\r\n\r\n    function getWeaponBoxRarityDrop() public view returns (string memory) {\r\n        if (weaponBoxRarityDrop >= 0 && weaponBoxRarityDrop < 78) {\r\n            return \"62bc1e2d84e4117a2d29b440\";\r\n        } else if (weaponBoxRarityDrop >= 78 && weaponBoxRarityDrop < 98) {\r\n            return \"62bc1e4284e4117a2d29b442\";\r\n        } else if (weaponBoxRarityDrop >= 98 && weaponBoxRarityDrop < 100) {\r\n            return \"62bc1e5e84e4117a2d29b444\";\r\n        }\r\n    }\r\n\r\n    function getCommonBoxHero() public view returns (string memory) {\r\n        if (commonBoxHeroProbability == 0) {\r\n            return \"6257bbb7b278b3e677e5ceff\";\r\n        } else if (commonBoxHeroProbability == 1) {\r\n            return \"6257bd06b278b3e677e5cf01\";\r\n        }\r\n    }\r\n\r\n    function getRareBoxHero() public view returns (string memory) {\r\n        if (rareBoxHeroProbability == 0) {\r\n            return \"6257bbb7b278b3e677e5ceff\";\r\n        } else if (rareBoxHeroProbability == 1) {\r\n            return \"6257bd06b278b3e677e5cf01\";\r\n        } else if (rareBoxHeroProbability == 2) {\r\n            return \"6257bdd2b278b3e677e5cf03\";\r\n        }\r\n    }\r\n\r\n    function getEpicBoxHero() public view returns (string memory) {\r\n        if (epicBoxHeroProbability == 0) {\r\n            return \"6257bbb7b278b3e677e5ceff\";\r\n        } else if (epicBoxHeroProbability == 1) {\r\n            return \"6257bd06b278b3e677e5cf01\";\r\n        } else if (epicBoxHeroProbability == 2) {\r\n            return \"6257bdd2b278b3e677e5cf03\";\r\n        } else if (epicBoxHeroProbability == 3) {\r\n            return \"6257be00b278b3e677e5cf05\";\r\n        }\r\n    }\r\n\r\n    function getLegendaryBoxHero() public view returns (string memory) {\r\n        if (legendaryBoxHeroProbability == 1) {\r\n            return \"6257bd06b278b3e677e5cf01\";\r\n        } else if (legendaryBoxHeroProbability == 2) {\r\n            return \"6257bdd2b278b3e677e5cf03\";\r\n        } else if (legendaryBoxHeroProbability == 3) {\r\n            return \"6257be00b278b3e677e5cf05\";\r\n        }\r\n    }\r\n}\r\n",
  "sourcePath": "D:\\Desktop\\immense\\crypto\\defi application\\test (NFT marketplace)\\NFT game\\src\\contracts\\chainLink1.sol",
  "compiler": {
    "name": "solc",
    "version": "0.8.4+commit.c7e474f2.Emscripten.clang"
  },
  "schemaVersion": "3.4.7",
  "updatedAt": "2022-06-29T16:37:31.213Z",
  "networkType": "ethereum",
  "devdoc": {
    "kind": "dev",
    "methods": {},
    "version": 1
  },
  "userdoc": {
    "kind": "user",
    "methods": {
      "constructor": {
        "notice": "Constructor inherits VRFConsumerBase Network: Kovan Chainlink VRF Coordinator address: 0xdD3782915140c8f3b190B5D67eAc6dc5760C46E9 LINK token address:                0xa36085F69e2889c224210F603D836748e7dC0088 Key Hash: 0x6c3699283bda56ad74f6b855546325b68d482e983852a7a82979cc4807b641f4 Network: BSC testnet Chainlink VRF Coordinator address: 0xa555fC018435bef5A13C6c6870a9d4C11DEC329C LINK token address:                0x84b9B910527Ad5C03A9Ca831909E21e236EA7b06 Key Hash: 0xcaf3c3727e033261d383b315559476f48034c13b18f8cafed4d871abe5049186 Links https://docs.chain.link/docs/get-a-random-number/v1/ https://docs.chain.link/docs/vrf-contracts/v1/"
      },
      "getRandomNumber()": {
        "notice": "Requests randomness"
      }
    },
    "notice": "Skin Raririties id 6257c3e3d0dee4fedbc2db44- name : \"Normal\" 6257c3f4d0dee4fedbc2db46- name : \"Rare\", 6257c40cd0dee4fedbc2db48- \"name\" : \"Mythic\", 6257c420d0dee4fedbc2db4a-name : \"Legendary\", hero rarities 6257bbb7b278b3e677e5ceff-\"name\" : \"Common\", 6257bd06b278b3e677e5cf01-\"name\" : \"Rare\", 6257bdd2b278b3e677e5cf03-\"name\" : \"Epic\", 6257be00b278b3e677e5cf05-\"name\" : \"Legendary\", weapon rarity 6257ccd3f3d0559f9803f1e5-name\" : \"Legendary\", 6257cc78f3d0559f9803f1e1 -name\" : \"Rare\", 6257ccc4f3d0559f9803f1e3-name\" : \"Epic\", 1)62bc1e2d84e4117a2d29b440  \"name\" : \"Rare\", 2. 62bc1e4284e4117a2d29b442 \"name\" : \"Epic\",  3) 62bc1e5e84e4117a2d29b444\" \"name\" : \"Legendary\", ",
    "version": 1
  }
}