{
  "contractName": "RandomNumberConsumer",
  "abi": [
    {
      "inputs": [],
      "stateMutability": "nonpayable",
      "type": "constructor"
    },
    {
      "inputs": [],
      "name": "admin",
      "outputs": [
        {
          "internalType": "address",
          "name": "",
          "type": "address"
        }
      ],
      "stateMutability": "view",
      "type": "function",
      "constant": true
    },
    {
      "inputs": [
        {
          "internalType": "uint8",
          "name": "",
          "type": "uint8"
        },
        {
          "internalType": "uint8",
          "name": "",
          "type": "uint8"
        }
      ],
      "name": "boxProbabilityDistribution",
      "outputs": [
        {
          "internalType": "uint16",
          "name": "normal",
          "type": "uint16"
        },
        {
          "internalType": "uint16",
          "name": "rare",
          "type": "uint16"
        },
        {
          "internalType": "uint16",
          "name": "mythic",
          "type": "uint16"
        },
        {
          "internalType": "uint16",
          "name": "legendary",
          "type": "uint16"
        }
      ],
      "stateMutability": "view",
      "type": "function",
      "constant": true
    },
    {
      "inputs": [],
      "name": "commonBoxHeroProbability",
      "outputs": [
        {
          "internalType": "uint8",
          "name": "",
          "type": "uint8"
        }
      ],
      "stateMutability": "view",
      "type": "function",
      "constant": true
    },
    {
      "inputs": [],
      "name": "epicBoxHeroProbability",
      "outputs": [
        {
          "internalType": "uint8",
          "name": "",
          "type": "uint8"
        }
      ],
      "stateMutability": "view",
      "type": "function",
      "constant": true
    },
    {
      "inputs": [],
      "name": "legendaryBoxHeroProbability",
      "outputs": [
        {
          "internalType": "uint8",
          "name": "",
          "type": "uint8"
        }
      ],
      "stateMutability": "view",
      "type": "function",
      "constant": true
    },
    {
      "inputs": [],
      "name": "randomTokenId",
      "outputs": [
        {
          "internalType": "uint256",
          "name": "",
          "type": "uint256"
        }
      ],
      "stateMutability": "view",
      "type": "function",
      "constant": true
    },
    {
      "inputs": [],
      "name": "rareBoxHeroProbability",
      "outputs": [
        {
          "internalType": "uint8",
          "name": "",
          "type": "uint8"
        }
      ],
      "stateMutability": "view",
      "type": "function",
      "constant": true
    },
    {
      "inputs": [
        {
          "internalType": "bytes32",
          "name": "requestId",
          "type": "bytes32"
        },
        {
          "internalType": "uint256",
          "name": "randomness",
          "type": "uint256"
        }
      ],
      "name": "rawFulfillRandomness",
      "outputs": [],
      "stateMutability": "nonpayable",
      "type": "function"
    },
    {
      "inputs": [],
      "name": "skinProbability",
      "outputs": [
        {
          "internalType": "uint16",
          "name": "",
          "type": "uint16"
        }
      ],
      "stateMutability": "view",
      "type": "function",
      "constant": true
    },
    {
      "inputs": [],
      "name": "weaponBoxRarityDrop",
      "outputs": [
        {
          "internalType": "uint8",
          "name": "",
          "type": "uint8"
        }
      ],
      "stateMutability": "view",
      "type": "function",
      "constant": true
    },
    {
      "inputs": [
        {
          "internalType": "uint8",
          "name": "",
          "type": "uint8"
        }
      ],
      "name": "weaponProbabilityDistribution",
      "outputs": [
        {
          "internalType": "uint8",
          "name": "rare",
          "type": "uint8"
        },
        {
          "internalType": "uint8",
          "name": "epic",
          "type": "uint8"
        },
        {
          "internalType": "uint8",
          "name": "legendary",
          "type": "uint8"
        }
      ],
      "stateMutability": "view",
      "type": "function",
      "constant": true
    },
    {
      "inputs": [
        {
          "internalType": "address",
          "name": "_admin",
          "type": "address"
        }
      ],
      "name": "updateAdmin",
      "outputs": [],
      "stateMutability": "nonpayable",
      "type": "function"
    },
    {
      "inputs": [],
      "name": "getRandomNumber",
      "outputs": [
        {
          "internalType": "bytes32",
          "name": "requestId",
          "type": "bytes32"
        }
      ],
      "stateMutability": "nonpayable",
      "type": "function"
    },
    {
      "inputs": [],
      "name": "getCommonBoxSkin",
      "outputs": [
        {
          "internalType": "string",
          "name": "",
          "type": "string"
        }
      ],
      "stateMutability": "view",
      "type": "function",
      "constant": true
    },
    {
      "inputs": [],
      "name": "getRareBoxSkin",
      "outputs": [
        {
          "internalType": "string",
          "name": "",
          "type": "string"
        }
      ],
      "stateMutability": "view",
      "type": "function",
      "constant": true
    },
    {
      "inputs": [],
      "name": "getEpicBoxSkin",
      "outputs": [
        {
          "internalType": "string",
          "name": "",
          "type": "string"
        }
      ],
      "stateMutability": "view",
      "type": "function",
      "constant": true
    },
    {
      "inputs": [],
      "name": "getLegendaryBoxSkin",
      "outputs": [
        {
          "internalType": "string",
          "name": "",
          "type": "string"
        }
      ],
      "stateMutability": "view",
      "type": "function",
      "constant": true
    },
    {
      "inputs": [],
      "name": "getWeaponBoxRarityDrop",
      "outputs": [
        {
          "internalType": "string",
          "name": "",
          "type": "string"
        }
      ],
      "stateMutability": "view",
      "type": "function",
      "constant": true
    }
  ],
  "bytecode": "0x60c06040523480156200001157600080fd5b5073a555fc018435bef5a13c6c6870a9d4c11dec329c7384b9b910527ad5c03a9ca831909e21e236ea7b068173ffffffffffffffffffffffffffffffffffffffff1660a08173ffffffffffffffffffffffffffffffffffffffff1660601b815250508073ffffffffffffffffffffffffffffffffffffffff1660808173ffffffffffffffffffffffffffffffffffffffff1660601b8152505050507fcaf3c3727e033261d383b315559476f48034c13b18f8cafed4d871abe504918660001b60018190555067016345785d8a000060028190555033600460076101000a81548173ffffffffffffffffffffffffffffffffffffffff021916908373ffffffffffffffffffffffffffffffffffffffff160217905550610f9b600560008060ff16815260200190815260200160002060008060ff16815260200190815260200160002060000160006101000a81548161ffff021916908361ffff160217905550600560008060ff16815260200190815260200160002060008060ff16815260200190815260200160002060000160009054906101000a900461ffff16610b22620001bb919062001ce9565b600560008060ff16815260200190815260200160002060008060ff16815260200190815260200160002060000160026101000a81548161ffff021916908361ffff160217905550600560008060ff16815260200190815260200160002060008060ff16815260200190815260200160002060000160029054906101000a900461ffff1661063b6200024d919062001ce9565b600560008060ff16815260200190815260200160002060008060ff16815260200190815260200160002060000160046101000a81548161ffff021916908361ffff160217905550600560008060ff16815260200190815260200160002060008060ff16815260200190815260200160002060000160049054906101000a900461ffff16610366620002df919062001ce9565b600560008060ff16815260200190815260200160002060008060ff16815260200190815260200160002060000160066101000a81548161ffff021916908361ffff160217905550600560008060ff16815260200190815260200160002060008060ff16815260200190815260200160002060000160069054906101000a900461ffff1661016d62000371919062001ce9565b600560008060ff1681526020019081526020016000206000600160ff16815260200190815260200160002060000160006101000a81548161ffff021916908361ffff160217905550600560008060ff1681526020019081526020016000206000600160ff16815260200190815260200160002060000160009054906101000a900461ffff1660af62000404919062001ce9565b600560008060ff1681526020019081526020016000206000600160ff16815260200190815260200160002060000160026101000a81548161ffff021916908361ffff160217905550600560008060ff1681526020019081526020016000206000600160ff16815260200190815260200160002060000160029054906101000a900461ffff16606462000497919062001ce9565b600560008060ff1681526020019081526020016000206000600160ff16815260200190815260200160002060000160046101000a81548161ffff021916908361ffff160217905550600560008060ff1681526020019081526020016000206000600160ff16815260200190815260200160002060000160049054906101000a900461ffff1660326200052a919062001ce9565b600560008060ff1681526020019081526020016000206000600160ff16815260200190815260200160002060000160066101000a81548161ffff021916908361ffff1602179055506101b360056000600160ff16815260200190815260200160002060008060ff16815260200190815260200160002060000160006101000a81548161ffff021916908361ffff16021790555060056000600160ff16815260200190815260200160002060008060ff16815260200190815260200160002060000160009054906101000a900461ffff1661010e62000609919062001ce9565b60056000600160ff16815260200190815260200160002060008060ff16815260200190815260200160002060000160026101000a81548161ffff021916908361ffff16021790555060056000600160ff16815260200190815260200160002060008060ff16815260200190815260200160002060000160029054906101000a900461ffff1660c86200069c919062001ce9565b60056000600160ff16815260200190815260200160002060008060ff16815260200190815260200160002060000160046101000a81548161ffff021916908361ffff16021790555060056000600160ff16815260200190815260200160002060008060ff16815260200190815260200160002060000160049054906101000a900461ffff1660646200072f919062001ce9565b60056000600160ff16815260200190815260200160002060008060ff16815260200190815260200160002060000160066101000a81548161ffff021916908361ffff16021790555060056000600160ff16815260200190815260200160002060008060ff16815260200190815260200160002060000160069054906101000a900461ffff16610d75620007c3919062001ce9565b60056000600160ff1681526020019081526020016000206000600160ff16815260200190815260200160002060000160006101000a81548161ffff021916908361ffff16021790555060056000600160ff1681526020019081526020016000206000600160ff16815260200190815260200160002060000160009054906101000a900461ffff166109d362000859919062001ce9565b60056000600160ff1681526020019081526020016000206000600160ff16815260200190815260200160002060000160026101000a81548161ffff021916908361ffff16021790555060056000600160ff1681526020019081526020016000206000600160ff16815260200190815260200160002060000160029054906101000a900461ffff1661073a620008ef919062001ce9565b60056000600160ff1681526020019081526020016000206000600160ff16815260200190815260200160002060000160046101000a81548161ffff021916908361ffff16021790555060056000600160ff1681526020019081526020016000206000600160ff16815260200190815260200160002060000160049054906101000a900461ffff1661044c62000985919062001ce9565b60056000600160ff1681526020019081526020016000206000600160ff16815260200190815260200160002060000160066101000a81548161ffff021916908361ffff16021790555060056000600160ff1681526020019081526020016000206000600160ff16815260200190815260200160002060000160069054906101000a900461ffff16603262000a1a919062001ce9565b60056000600160ff1681526020019081526020016000206000600260ff16815260200190815260200160002060000160006101000a81548161ffff021916908361ffff16021790555060056000600160ff1681526020019081526020016000206000600260ff16815260200190815260200160002060000160009054906101000a900461ffff16601462000aaf919062001ce9565b60056000600160ff1681526020019081526020016000206000600260ff16815260200190815260200160002060000160026101000a81548161ffff021916908361ffff16021790555060056000600160ff1681526020019081526020016000206000600260ff16815260200190815260200160002060000160029054906101000a900461ffff16600a62000b44919062001ce9565b60056000600160ff1681526020019081526020016000206000600260ff16815260200190815260200160002060000160046101000a81548161ffff021916908361ffff16021790555060056000600160ff1681526020019081526020016000206000600260ff16815260200190815260200160002060000160049054906101000a900461ffff16600562000bd9919062001ce9565b60056000600160ff1681526020019081526020016000206000600260ff16815260200190815260200160002060000160066101000a81548161ffff021916908361ffff160217905550600f60056000600260ff16815260200190815260200160002060008060ff16815260200190815260200160002060000160006101000a81548161ffff021916908361ffff16021790555060056000600260ff16815260200190815260200160002060008060ff16815260200190815260200160002060000160009054906101000a900461ffff16601962000cb7919062001ce9565b60056000600260ff16815260200190815260200160002060008060ff16815260200190815260200160002060000160026101000a81548161ffff021916908361ffff16021790555060056000600260ff16815260200190815260200160002060008060ff16815260200190815260200160002060000160029054906101000a900461ffff1660c862000d4a919062001ce9565b60056000600260ff16815260200190815260200160002060008060ff16815260200190815260200160002060000160046101000a81548161ffff021916908361ffff16021790555060056000600260ff16815260200190815260200160002060008060ff16815260200190815260200160002060000160049054906101000a900461ffff1661010962000dde919062001ce9565b60056000600260ff16815260200190815260200160002060008060ff16815260200190815260200160002060000160066101000a81548161ffff021916908361ffff16021790555060056000600260ff16815260200190815260200160002060008060ff16815260200190815260200160002060000160069054906101000a900461ffff1661020362000e72919062001ce9565b60056000600260ff1681526020019081526020016000206000600160ff16815260200190815260200160002060000160006101000a81548161ffff021916908361ffff16021790555060056000600260ff1681526020019081526020016000206000600160ff16815260200190815260200160002060000160009054906101000a900461ffff1660d762000f07919062001ce9565b60056000600260ff1681526020019081526020016000206000600160ff16815260200190815260200160002060000160026101000a81548161ffff021916908361ffff16021790555060056000600260ff1681526020019081526020016000206000600160ff16815260200190815260200160002060000160029054906101000a900461ffff16607d62000f9c919062001ce9565b60056000600260ff1681526020019081526020016000206000600160ff16815260200190815260200160002060000160046101000a81548161ffff021916908361ffff16021790555060056000600260ff1681526020019081526020016000206000600160ff16815260200190815260200160002060000160049054906101000a900461ffff16605562001031919062001ce9565b60056000600260ff1681526020019081526020016000206000600160ff16815260200190815260200160002060000160066101000a81548161ffff021916908361ffff16021790555060056000600260ff1681526020019081526020016000206000600160ff16815260200190815260200160002060000160069054906101000a900461ffff16610cdf620010c7919062001ce9565b60056000600260ff1681526020019081526020016000206000600260ff16815260200190815260200160002060000160006101000a81548161ffff021916908361ffff16021790555060056000600260ff1681526020019081526020016000206000600260ff16815260200190815260200160002060000160009054906101000a900461ffff1661092e6200115d919062001ce9565b60056000600260ff1681526020019081526020016000206000600260ff16815260200190815260200160002060000160026101000a81548161ffff021916908361ffff16021790555060056000600260ff1681526020019081526020016000206000600260ff16815260200190815260200160002060000160029054906101000a900461ffff166105e1620011f3919062001ce9565b60056000600260ff1681526020019081526020016000206000600260ff16815260200190815260200160002060000160046101000a81548161ffff021916908361ffff16021790555060056000600260ff1681526020019081526020016000206000600260ff16815260200190815260200160002060000160049054906101000a900461ffff166103c562001289919062001ce9565b60056000600260ff1681526020019081526020016000206000600260ff16815260200190815260200160002060000160066101000a81548161ffff021916908361ffff16021790555060056000600260ff1681526020019081526020016000206000600260ff16815260200190815260200160002060000160069054906101000a900461ffff1660e16200131e919062001ce9565b60056000600260ff1681526020019081526020016000206000600360ff16815260200190815260200160002060000160006101000a81548161ffff021916908361ffff16021790555060056000600260ff1681526020019081526020016000206000600360ff16815260200190815260200160002060000160009054906101000a900461ffff1660af620013b3919062001ce9565b60056000600260ff1681526020019081526020016000206000600360ff16815260200190815260200160002060000160026101000a81548161ffff021916908361ffff16021790555060056000600260ff1681526020019081526020016000206000600360ff16815260200190815260200160002060000160029054906101000a900461ffff16602362001448919062001ce9565b60056000600260ff1681526020019081526020016000206000600360ff16815260200190815260200160002060000160046101000a81548161ffff021916908361ffff16021790555060056000600260ff1681526020019081526020016000206000600360ff16815260200190815260200160002060000160049054906101000a900461ffff166005620014dd919062001ce9565b60056000600260ff1681526020019081526020016000206000600360ff16815260200190815260200160002060000160066101000a81548161ffff021916908361ffff160217905550603760056000600360ff1681526020019081526020016000206000600160ff16815260200190815260200160002060000160006101000a81548161ffff021916908361ffff16021790555060056000600360ff1681526020019081526020016000206000600160ff16815260200190815260200160002060000160009054906101000a900461ffff166055620015bd919062001ce9565b60056000600360ff1681526020019081526020016000206000600160ff16815260200190815260200160002060000160026101000a81548161ffff021916908361ffff16021790555060056000600360ff1681526020019081526020016000206000600160ff16815260200190815260200160002060000160029054906101000a900461ffff16607d62001652919062001ce9565b60056000600360ff1681526020019081526020016000206000600160ff16815260200190815260200160002060000160046101000a81548161ffff021916908361ffff16021790555060056000600360ff1681526020019081526020016000206000600160ff16815260200190815260200160002060000160049054906101000a900461ffff1660af620016e7919062001ce9565b60056000600360ff1681526020019081526020016000206000600160ff16815260200190815260200160002060000160066101000a81548161ffff021916908361ffff16021790555060056000600360ff1681526020019081526020016000206000600160ff16815260200190815260200160002060000160069054906101000a900461ffff1660eb6200177c919062001ce9565b60056000600360ff1681526020019081526020016000206000600260ff16815260200190815260200160002060000160006101000a81548161ffff021916908361ffff16021790555060056000600360ff1681526020019081526020016000206000600260ff16815260200190815260200160002060000160009054906101000a900461ffff1661016d62001812919062001ce9565b60056000600360ff1681526020019081526020016000206000600260ff16815260200190815260200160002060000160026101000a81548161ffff021916908361ffff16021790555060056000600360ff1681526020019081526020016000206000600260ff16815260200190815260200160002060000160029054906101000a900461ffff16610253620018a8919062001ce9565b60056000600360ff1681526020019081526020016000206000600260ff16815260200190815260200160002060000160046101000a81548161ffff021916908361ffff16021790555060056000600360ff1681526020019081526020016000206000600260ff16815260200190815260200160002060000160049054906101000a900461ffff166103396200193e919062001ce9565b60056000600360ff1681526020019081526020016000206000600260ff16815260200190815260200160002060000160066101000a81548161ffff021916908361ffff16021790555060056000600360ff1681526020019081526020016000206000600260ff16815260200190815260200160002060000160069054906101000a900461ffff16610cdf620019d4919062001ce9565b60056000600360ff1681526020019081526020016000206000600360ff16815260200190815260200160002060000160006101000a81548161ffff021916908361ffff16021790555060056000600360ff1681526020019081526020016000206000600360ff16815260200190815260200160002060000160009054906101000a900461ffff166108a762001a6a919062001ce9565b60056000600360ff1681526020019081526020016000206000600360ff16815260200190815260200160002060000160026101000a81548161ffff021916908361ffff16021790555060056000600360ff1681526020019081526020016000206000600360ff16815260200190815260200160002060000160029054906101000a900461ffff1661068b62001b00919062001ce9565b60056000600360ff1681526020019081526020016000206000600360ff16815260200190815260200160002060000160046101000a81548161ffff021916908361ffff16021790555060056000600360ff1681526020019081526020016000206000600360ff16815260200190815260200160002060000160049054906101000a900461ffff1661016362001b96919062001ce9565b60056000600360ff1681526020019081526020016000206000600360ff16815260200190815260200160002060000160066101000a81548161ffff021916908361ffff160217905550604e60066000600460ff16815260200190815260200160002060000160006101000a81548160ff021916908360ff16021790555060066000600460ff16815260200190815260200160002060000160009054906101000a900460ff16601462001c49919062001d28565b60066000600460ff16815260200190815260200160002060000160016101000a81548160ff021916908360ff16021790555060066000600460ff16815260200190815260200160002060000160019054906101000a900460ff16600262001cb1919062001d28565b60066000600460ff16815260200190815260200160002060000160026101000a81548160ff021916908360ff16021790555062001db0565b600062001cf68262001d66565b915062001d038362001d66565b92508261ffff0382111562001d1d5762001d1c62001d81565b5b828201905092915050565b600062001d358262001d74565b915062001d428362001d74565b92508260ff0382111562001d5b5762001d5a62001d81565b5b828201905092915050565b600061ffff82169050919050565b600060ff82169050919050565b7f4e487b7100000000000000000000000000000000000000000000000000000000600052601160045260246000fd5b60805160601c60a05160601c61390362001dea600039600081816118080152612e93015260008181612b380152612e5701526139036000f3fe608060405234801561001057600080fd5b50600436106101165760003560e01c8063aae78c49116100a2578063c8ca044611610071578063c8ca0446146102c8578063dbdff2c1146102e6578063e2f273bd14610304578063eda5726b14610320578063f851a4401461033e57610116565b8063aae78c4914610250578063b8eb9fdf1461026e578063bc530c991461028c578063be33ab71146102aa57610116565b806349dbb050116100e957806349dbb050146101a75780637ea24bbe146101c557806394985ddd146101e357806397cb2b23146101ff578063a309c0b11461023257610116565b806303287c121461011b57806315b2326314610139578063282a7d71146101575780633fd0029a14610189575b600080fd5b61012361035c565b604051610130919061351a565b60405180910390f35b61014161036d565b60405161014e919061341d565b60405180910390f35b610171600480360381019061016c9190613156565b6105a5565b60405161018093929190613535565b60405180910390f35b6101916105f6565b60405161019e919061341d565b60405180910390f35b6101af610ef0565b6040516101bc919061341d565b60405180910390f35b6101cd6117f3565b6040516101da919061351a565b60405180910390f35b6101fd60048036038101906101f891906130f1565b611806565b005b6102196004803603810190610214919061317f565b6118a2565b60405161022994939291906134ba565b60405180910390f35b61023a611917565b604051610247919061341d565b60405180910390f35b6102586121ee565b604051610265919061351a565b60405180910390f35b610276612201565b60405161028391906134ff565b60405180910390f35b610294612207565b6040516102a1919061351a565b60405180910390f35b6102b261221a565b6040516102bf919061341d565b60405180910390f35b6102d0612b1d565b6040516102dd919061349f565b60405180910390f35b6102ee612b31565b6040516102fb9190613394565b60405180910390f35b61031e6004803603810190610319919061309f565b612c33565b005b610328612d07565b604051610335919061351a565b60405180910390f35b610346612d1a565b604051610353919061333b565b60405180910390f35b60048054906101000a900460ff1681565b60606000600460069054906101000a900460ff1660ff16101580156103cd575060066000600460ff16815260200190815260200160002060000160009054906101000a900460ff1660ff16600460069054906101000a900460ff1660ff16105b1561040f576040518060400160405280600481526020017f726172650000000000000000000000000000000000000000000000000000000081525090506105a2565b60066000600460ff16815260200190815260200160002060000160009054906101000a900460ff1660ff16600460069054906101000a900460ff1660ff1610158015610496575060066000600460ff16815260200190815260200160002060000160019054906101000a900460ff1660ff16600460069054906101000a900460ff1660ff16105b156104d8576040518060400160405280600481526020017f657069630000000000000000000000000000000000000000000000000000000081525090506105a2565b60066000600460ff16815260200190815260200160002060000160019054906101000a900460ff1660ff16600460069054906101000a900460ff1660ff161015801561055f575060066000600460ff16815260200190815260200160002060000160029054906101000a900460ff1660ff16600460069054906101000a900460ff1660ff16105b156105a1576040518060400160405280600981526020017f6c6567656e64617279000000000000000000000000000000000000000000000081525090506105a2565b5b90565b60066020528060005260406000206000915090508060000160009054906101000a900460ff16908060000160019054906101000a900460ff16908060000160029054906101000a900460ff16905083565b6060600060048054906101000a900460ff1660ff161415610a2b576000600460009054906101000a900461ffff1661ffff1610158015610699575060056000600260ff168152602001908152602001600020600060048054906101000a900460ff1660ff1660ff16815260200190815260200160002060000160009054906101000a900461ffff1661ffff16600460009054906101000a900461ffff1661ffff16105b156106db576040518060400160405280600681526020017f6e6f726d616c00000000000000000000000000000000000000000000000000008152509050610eed565b60056000600260ff168152602001908152602001600020600060048054906101000a900460ff1660ff1660ff16815260200190815260200160002060000160009054906101000a900461ffff1661ffff16600460009054906101000a900461ffff1661ffff16101580156107b2575060056000600260ff168152602001908152602001600020600060048054906101000a900460ff1660ff1660ff16815260200190815260200160002060000160029054906101000a900461ffff1661ffff16600460009054906101000a900461ffff1661ffff16105b156107f4576040518060400160405280600481526020017f72617265000000000000000000000000000000000000000000000000000000008152509050610eed565b60056000600260ff168152602001908152602001600020600060048054906101000a900460ff1660ff1660ff16815260200190815260200160002060000160029054906101000a900461ffff1661ffff16600460009054906101000a900461ffff1661ffff16101580156108cb575060056000600260ff168152602001908152602001600020600060048054906101000a900460ff1660ff1660ff16815260200190815260200160002060000160049054906101000a900461ffff1661ffff16600460009054906101000a900461ffff1661ffff16105b1561090d576040518060400160405280600681526020017f6d797468696300000000000000000000000000000000000000000000000000008152509050610eed565b60056000600260ff168152602001908152602001600020600060048054906101000a900460ff1660ff1660ff16815260200190815260200160002060000160049054906101000a900461ffff1661ffff16600460009054906101000a900461ffff1661ffff16101580156109e4575060056000600260ff168152602001908152602001600020600060048054906101000a900460ff1660ff1660ff16815260200190815260200160002060000160069054906101000a900461ffff1661ffff16600460009054906101000a900461ffff1661ffff16105b15610a26576040518060400160405280600981526020017f6c6567656e6461727900000000000000000000000000000000000000000000008152509050610eed565b610eec565b600160048054906101000a900460ff1660ff161480610a5a5750600260048054906101000a900460ff1660ff16145b80610a755750600360048054906101000a900460ff1660ff16145b15610eeb5760056000600260ff1681526020019081526020016000206000600160048054906101000a900460ff16610aad9190613631565b60ff1660ff16815260200190815260200160002060000160069054906101000a900461ffff1661ffff16600460009054906101000a900461ffff1661ffff1610158015610b5d575060056000600260ff168152602001908152602001600020600060048054906101000a900460ff1660ff1660ff16815260200190815260200160002060000160009054906101000a900461ffff1661ffff16600460009054906101000a900461ffff1661ffff16105b15610b9f576040518060400160405280600681526020017f6e6f726d616c00000000000000000000000000000000000000000000000000008152509050610eed565b60056000600260ff168152602001908152602001600020600060048054906101000a900460ff1660ff1660ff16815260200190815260200160002060000160009054906101000a900461ffff1661ffff16600460009054906101000a900461ffff1661ffff1610158015610c76575060056000600260ff168152602001908152602001600020600060048054906101000a900460ff1660ff1660ff16815260200190815260200160002060000160029054906101000a900461ffff1661ffff16600460009054906101000a900461ffff1661ffff16105b15610cb8576040518060400160405280600481526020017f72617265000000000000000000000000000000000000000000000000000000008152509050610eed565b60056000600260ff168152602001908152602001600020600060048054906101000a900460ff1660ff1660ff16815260200190815260200160002060000160029054906101000a900461ffff1661ffff16600460009054906101000a900461ffff1661ffff1610158015610d8f575060056000600260ff168152602001908152602001600020600060048054906101000a900460ff1660ff1660ff16815260200190815260200160002060000160049054906101000a900461ffff1661ffff16600460009054906101000a900461ffff1661ffff16105b15610dd1576040518060400160405280600681526020017f6d797468696300000000000000000000000000000000000000000000000000008152509050610eed565b60056000600260ff168152602001908152602001600020600060048054906101000a900460ff1660ff1660ff16815260200190815260200160002060000160049054906101000a900461ffff1661ffff16600460009054906101000a900461ffff1661ffff1610158015610ea8575060056000600260ff168152602001908152602001600020600060048054906101000a900460ff1660ff1660ff16815260200190815260200160002060000160069054906101000a900461ffff1661ffff16600460009054906101000a900461ffff1661ffff16105b15610eea576040518060400160405280600981526020017f6c6567656e6461727900000000000000000000000000000000000000000000008152509050610eed565b5b5b5b90565b60606000600460039054906101000a900460ff1660ff161415611335576000600460009054906101000a900461ffff1661ffff1610158015610f97575060056000600160ff1681526020019081526020016000206000600460039054906101000a900460ff1660ff1660ff16815260200190815260200160002060000160009054906101000a900461ffff1661ffff16600460009054906101000a900461ffff1661ffff16105b15610fd9576040518060400160405280600681526020017f6e6f726d616c000000000000000000000000000000000000000000000000000081525090506117f0565b60056000600160ff1681526020019081526020016000206000600460039054906101000a900460ff1660ff1660ff16815260200190815260200160002060000160009054906101000a900461ffff1661ffff16600460009054906101000a900461ffff1661ffff16101580156110b4575060056000600160ff1681526020019081526020016000206000600460039054906101000a900460ff1660ff1660ff16815260200190815260200160002060000160029054906101000a900461ffff1661ffff16600460009054906101000a900461ffff1661ffff16105b156110f6576040518060400160405280600481526020017f726172650000000000000000000000000000000000000000000000000000000081525090506117f0565b60056000600160ff1681526020019081526020016000206000600460039054906101000a900460ff1660ff1660ff16815260200190815260200160002060000160029054906101000a900461ffff1661ffff16600460009054906101000a900461ffff1661ffff16101580156111d1575060056000600160ff1681526020019081526020016000206000600460039054906101000a900460ff1660ff1660ff16815260200190815260200160002060000160049054906101000a900461ffff1661ffff16600460009054906101000a900461ffff1661ffff16105b15611213576040518060400160405280600681526020017f6d7974686963000000000000000000000000000000000000000000000000000081525090506117f0565b60056000600160ff1681526020019081526020016000206000600460039054906101000a900460ff1660ff1660ff16815260200190815260200160002060000160049054906101000a900461ffff1661ffff16600460009054906101000a900461ffff1661ffff16101580156112ee575060056000600160ff1681526020019081526020016000206000600460039054906101000a900460ff1660ff1660ff16815260200190815260200160002060000160069054906101000a900461ffff1661ffff16600460009054906101000a900461ffff1661ffff16105b15611330576040518060400160405280600981526020017f6c6567656e64617279000000000000000000000000000000000000000000000081525090506117f0565b6117ef565b6001600460039054906101000a900460ff1660ff16148061136857506002600460039054906101000a900460ff1660ff16145b156117ee5760056000600160ff16815260200190815260200160002060006001600460039054906101000a900460ff166113a29190613631565b60ff1660ff16815260200190815260200160002060000160069054906101000a900461ffff1661ffff16600460009054906101000a900461ffff1661ffff1610158015611454575060056000600160ff1681526020019081526020016000206000600460039054906101000a900460ff1660ff1660ff16815260200190815260200160002060000160009054906101000a900461ffff1661ffff16600460009054906101000a900461ffff1661ffff16105b15611496576040518060400160405280600681526020017f6e6f726d616c000000000000000000000000000000000000000000000000000081525090506117f0565b60056000600160ff1681526020019081526020016000206000600460039054906101000a900460ff1660ff1660ff16815260200190815260200160002060000160009054906101000a900461ffff1661ffff16600460009054906101000a900461ffff1661ffff1610158015611571575060056000600160ff1681526020019081526020016000206000600460039054906101000a900460ff1660ff1660ff16815260200190815260200160002060000160029054906101000a900461ffff1661ffff16600460009054906101000a900461ffff1661ffff16105b156115b3576040518060400160405280600481526020017f726172650000000000000000000000000000000000000000000000000000000081525090506117f0565b60056000600160ff1681526020019081526020016000206000600460039054906101000a900460ff1660ff1660ff16815260200190815260200160002060000160029054906101000a900461ffff1661ffff16600460009054906101000a900461ffff1661ffff161015801561168e575060056000600160ff1681526020019081526020016000206000600460039054906101000a900460ff1660ff1660ff16815260200190815260200160002060000160049054906101000a900461ffff1661ffff16600460009054906101000a900461ffff1661ffff16105b156116d0576040518060400160405280600681526020017f6d7974686963000000000000000000000000000000000000000000000000000081525090506117f0565b60056000600160ff1681526020019081526020016000206000600460039054906101000a900460ff1660ff1660ff16815260200190815260200160002060000160049054906101000a900461ffff1661ffff16600460009054906101000a900461ffff1661ffff16101580156117ab575060056000600160ff1681526020019081526020016000206000600460039054906101000a900460ff1660ff1660ff16815260200190815260200160002060000160069054906101000a900461ffff1661ffff16600460009054906101000a900461ffff1661ffff16105b156117ed576040518060400160405280600981526020017f6c6567656e64617279000000000000000000000000000000000000000000000081525090506117f0565b5b5b5b90565b600460069054906101000a900460ff1681565b7f000000000000000000000000000000000000000000000000000000000000000073ffffffffffffffffffffffffffffffffffffffff163373ffffffffffffffffffffffffffffffffffffffff1614611894576040517f08c379a000000000000000000000000000000000000000000000000000000000815260040161188b9061347f565b60405180910390fd5b61189e8282612d40565b5050565b6005602052816000526040600020602052806000526040600020600091509150508060000160009054906101000a900461ffff16908060000160029054906101000a900461ffff16908060000160049054906101000a900461ffff16908060000160069054906101000a900461ffff16905084565b60606000600460029054906101000a900460ff1660ff161415611d55576000600460009054906101000a900461ffff1661ffff16101580156119bd5750600560008060ff1681526020019081526020016000206000600460029054906101000a900460ff1660ff1660ff16815260200190815260200160002060000160009054906101000a900461ffff1661ffff16600460009054906101000a900461ffff1661ffff16105b156119ff576040518060400160405280600681526020017f6e6f726d616c000000000000000000000000000000000000000000000000000081525090506121eb565b600560008060ff1681526020019081526020016000206000600460029054906101000a900460ff1660ff1660ff16815260200190815260200160002060000160009054906101000a900461ffff1661ffff16600460009054906101000a900461ffff1661ffff1610158015611ad85750600560008060ff1681526020019081526020016000206000600460029054906101000a900460ff1660ff1660ff16815260200190815260200160002060000160029054906101000a900461ffff1661ffff16600460009054906101000a900461ffff1661ffff16105b15611b1a576040518060400160405280600481526020017f726172650000000000000000000000000000000000000000000000000000000081525090506121eb565b600560008060ff1681526020019081526020016000206000600460029054906101000a900460ff1660ff1660ff16815260200190815260200160002060000160029054906101000a900461ffff1661ffff16600460009054906101000a900461ffff1661ffff1610158015611bf35750600560008060ff1681526020019081526020016000206000600460029054906101000a900460ff1660ff1660ff16815260200190815260200160002060000160049054906101000a900461ffff1661ffff16600460009054906101000a900461ffff1661ffff16105b15611c35576040518060400160405280600681526020017f6d7974686963000000000000000000000000000000000000000000000000000081525090506121eb565b600560008060ff1681526020019081526020016000206000600460029054906101000a900460ff1660ff1660ff16815260200190815260200160002060000160049054906101000a900461ffff1661ffff16600460009054906101000a900461ffff1661ffff1610158015611d0e5750600560008060ff1681526020019081526020016000206000600460029054906101000a900460ff1660ff1660ff16815260200190815260200160002060000160069054906101000a900461ffff1661ffff16600460009054906101000a900461ffff1661ffff16105b15611d50576040518060400160405280600981526020017f6c6567656e64617279000000000000000000000000000000000000000000000081525090506121eb565b6121ea565b6001600460029054906101000a900460ff1660ff1614156121e957600560008060ff16815260200190815260200160002060006001600460029054906101000a900460ff16611da49190613631565b60ff1660ff16815260200190815260200160002060000160069054906101000a900461ffff1661ffff16600460009054906101000a900461ffff1661ffff1610158015611e555750600560008060ff1681526020019081526020016000206000600460029054906101000a900460ff1660ff1660ff16815260200190815260200160002060000160009054906101000a900461ffff1661ffff16600460009054906101000a900461ffff1661ffff16105b15611e97576040518060400160405280600681526020017f6e6f726d616c000000000000000000000000000000000000000000000000000081525090506121eb565b600560008060ff1681526020019081526020016000206000600460029054906101000a900460ff1660ff1660ff16815260200190815260200160002060000160009054906101000a900461ffff1661ffff16600460009054906101000a900461ffff1661ffff1610158015611f705750600560008060ff1681526020019081526020016000206000600460029054906101000a900460ff1660ff1660ff16815260200190815260200160002060000160029054906101000a900461ffff1661ffff16600460009054906101000a900461ffff1661ffff16105b15611fb2576040518060400160405280600481526020017f726172650000000000000000000000000000000000000000000000000000000081525090506121eb565b600560008060ff1681526020019081526020016000206000600460029054906101000a900460ff1660ff1660ff16815260200190815260200160002060000160029054906101000a900461ffff1661ffff16600460009054906101000a900461ffff1661ffff161015801561208b5750600560008060ff1681526020019081526020016000206000600460029054906101000a900460ff1660ff1660ff16815260200190815260200160002060000160049054906101000a900461ffff1661ffff16600460009054906101000a900461ffff1661ffff16105b156120cd576040518060400160405280600681526020017f6d7974686963000000000000000000000000000000000000000000000000000081525090506121eb565b600560008060ff1681526020019081526020016000206000600460029054906101000a900460ff1660ff1660ff16815260200190815260200160002060000160049054906101000a900461ffff1661ffff16600460009054906101000a900461ffff1661ffff16101580156121a65750600560008060ff1681526020019081526020016000206000600460029054906101000a900460ff1660ff1660ff16815260200190815260200160002060000160069054906101000a900461ffff1661ffff16600460009054906101000a900461ffff1661ffff16105b156121e8576040518060400160405280600981526020017f6c6567656e64617279000000000000000000000000000000000000000000000081525090506121eb565b5b5b5b90565b600460059054906101000a900460ff1681565b60035481565b600460029054906101000a900460ff1681565b60606001600460059054906101000a900460ff1660ff16141561265f576000600460009054906101000a900461ffff1661ffff16101580156122c1575060056000600360ff1681526020019081526020016000206000600460059054906101000a900460ff1660ff1660ff16815260200190815260200160002060000160009054906101000a900461ffff1661ffff16600460009054906101000a900461ffff1661ffff16105b15612303576040518060400160405280600681526020017f6e6f726d616c00000000000000000000000000000000000000000000000000008152509050612b1a565b60056000600360ff1681526020019081526020016000206000600460059054906101000a900460ff1660ff1660ff16815260200190815260200160002060000160009054906101000a900461ffff1661ffff16600460009054906101000a900461ffff1661ffff16101580156123de575060056000600360ff1681526020019081526020016000206000600460059054906101000a900460ff1660ff1660ff16815260200190815260200160002060000160029054906101000a900461ffff1661ffff16600460009054906101000a900461ffff1661ffff16105b15612420576040518060400160405280600481526020017f72617265000000000000000000000000000000000000000000000000000000008152509050612b1a565b60056000600360ff1681526020019081526020016000206000600460059054906101000a900460ff1660ff1660ff16815260200190815260200160002060000160029054906101000a900461ffff1661ffff16600460009054906101000a900461ffff1661ffff16101580156124fb575060056000600360ff1681526020019081526020016000206000600460059054906101000a900460ff1660ff1660ff16815260200190815260200160002060000160049054906101000a900461ffff1661ffff16600460009054906101000a900461ffff1661ffff16105b1561253d576040518060400160405280600681526020017f6d797468696300000000000000000000000000000000000000000000000000008152509050612b1a565b60056000600360ff1681526020019081526020016000206000600460059054906101000a900460ff1660ff1660ff16815260200190815260200160002060000160049054906101000a900461ffff1661ffff16600460009054906101000a900461ffff1661ffff1610158015612618575060056000600360ff1681526020019081526020016000206000600460059054906101000a900460ff1660ff1660ff16815260200190815260200160002060000160069054906101000a900461ffff1661ffff16600460009054906101000a900461ffff1661ffff16105b1561265a576040518060400160405280600981526020017f6c6567656e6461727900000000000000000000000000000000000000000000008152509050612b1a565b612b19565b6002600460059054906101000a900460ff1660ff16148061269257506003600460059054906101000a900460ff1660ff16145b15612b185760056000600360ff16815260200190815260200160002060006001600460059054906101000a900460ff166126cc9190613631565b60ff1660ff16815260200190815260200160002060000160069054906101000a900461ffff1661ffff16600460009054906101000a900461ffff1661ffff161015801561277e575060056000600360ff1681526020019081526020016000206000600460059054906101000a900460ff1660ff1660ff16815260200190815260200160002060000160009054906101000a900461ffff1661ffff16600460009054906101000a900461ffff1661ffff16105b156127c0576040518060400160405280600681526020017f6e6f726d616c00000000000000000000000000000000000000000000000000008152509050612b1a565b60056000600360ff1681526020019081526020016000206000600460059054906101000a900460ff1660ff1660ff16815260200190815260200160002060000160009054906101000a900461ffff1661ffff16600460009054906101000a900461ffff1661ffff161015801561289b575060056000600360ff1681526020019081526020016000206000600460059054906101000a900460ff1660ff1660ff16815260200190815260200160002060000160029054906101000a900461ffff1661ffff16600460009054906101000a900461ffff1661ffff16105b156128dd576040518060400160405280600481526020017f72617265000000000000000000000000000000000000000000000000000000008152509050612b1a565b60056000600360ff1681526020019081526020016000206000600460059054906101000a900460ff1660ff1660ff16815260200190815260200160002060000160029054906101000a900461ffff1661ffff16600460009054906101000a900461ffff1661ffff16101580156129b8575060056000600360ff1681526020019081526020016000206000600460059054906101000a900460ff1660ff1660ff16815260200190815260200160002060000160049054906101000a900461ffff1661ffff16600460009054906101000a900461ffff1661ffff16105b156129fa576040518060400160405280600681526020017f6d797468696300000000000000000000000000000000000000000000000000008152509050612b1a565b60056000600360ff1681526020019081526020016000206000600460059054906101000a900460ff1660ff1660ff16815260200190815260200160002060000160049054906101000a900461ffff1661ffff16600460009054906101000a900461ffff1661ffff1610158015612ad5575060056000600360ff1681526020019081526020016000206000600460059054906101000a900460ff1660ff1660ff16815260200190815260200160002060000160069054906101000a900461ffff1661ffff16600460009054906101000a900461ffff1661ffff16105b15612b17576040518060400160405280600981526020017f6c6567656e6461727900000000000000000000000000000000000000000000008152509050612b1a565b5b5b5b90565b600460009054906101000a900461ffff1681565b60006002547f000000000000000000000000000000000000000000000000000000000000000073ffffffffffffffffffffffffffffffffffffffff166370a08231306040518263ffffffff1660e01b8152600401612b8f919061333b565b60206040518083038186803b158015612ba757600080fd5b505afa158015612bbb573d6000803e3d6000fd5b505050506040513d601f19601f82011682018060405250810190612bdf919061312d565b1015612c20576040517f08c379a0000000000000000000000000000000000000000000000000000000008152600401612c179061343f565b60405180910390fd5b612c2e600154600254612e53565b905090565b600460079054906101000a900473ffffffffffffffffffffffffffffffffffffffff1673ffffffffffffffffffffffffffffffffffffffff163373ffffffffffffffffffffffffffffffffffffffff1614612cc3576040517f08c379a0000000000000000000000000000000000000000000000000000000008152600401612cba9061345f565b60405180910390fd5b80600460076101000a81548173ffffffffffffffffffffffffffffffffffffffff021916908373ffffffffffffffffffffffffffffffffffffffff16021790555050565b600460039054906101000a900460ff1681565b600460079054906101000a900473ffffffffffffffffffffffffffffffffffffffff1681565b6402540be40081612d519190613719565b60038190555061271081612d659190613719565b600460006101000a81548161ffff021916908361ffff160217905550600281612d8e9190613719565b600460026101000a81548160ff021916908360ff160217905550600381612db59190613719565b600460036101000a81548160ff021916908360ff160217905550600481612ddc9190613719565b6004806101000a81548160ff021916908360ff1602179055506001600382612e049190613719565b612e0e91906135fa565b600460056101000a81548160ff021916908360ff160217905550606481612e359190613719565b600460066101000a81548160ff021916908360ff1602179055505050565b60007f000000000000000000000000000000000000000000000000000000000000000073ffffffffffffffffffffffffffffffffffffffff16634000aea07f000000000000000000000000000000000000000000000000000000000000000084866000604051602001612ec79291906133af565b6040516020818303038152906040526040518463ffffffff1660e01b8152600401612ef493929190613356565b602060405180830381600087803b158015612f0e57600080fd5b505af1158015612f22573d6000803e3d6000fd5b505050506040513d601f19601f82011682018060405250810190612f4691906130c8565b506000612f688460003060008089815260200190815260200160002054612fb2565b9050600160008086815260200190815260200160002054612f8991906135a4565b60008086815260200190815260200160002081905550612fa98482612fee565b91505092915050565b600084848484604051602001612fcb94939291906133d8565b6040516020818303038152906040528051906020012060001c9050949350505050565b6000828260405160200161300392919061330f565b60405160208183030381529060405280519060200120905092915050565b6000813590506130308161385a565b92915050565b60008151905061304581613871565b92915050565b60008135905061305a81613888565b92915050565b60008135905061306f8161389f565b92915050565b6000815190506130848161389f565b92915050565b600081359050613099816138b6565b92915050565b6000602082840312156130b157600080fd5b60006130bf84828501613021565b91505092915050565b6000602082840312156130da57600080fd5b60006130e884828501613036565b91505092915050565b6000806040838503121561310457600080fd5b60006131128582860161304b565b925050602061312385828601613060565b9150509250929050565b60006020828403121561313f57600080fd5b600061314d84828501613075565b91505092915050565b60006020828403121561316857600080fd5b60006131768482850161308a565b91505092915050565b6000806040838503121561319257600080fd5b60006131a08582860161308a565b92505060206131b18582860161308a565b9150509250929050565b6131c481613665565b82525050565b6131d381613683565b82525050565b6131ea6131e582613683565b613705565b82525050565b60006131fb8261356c565b6132058185613582565b93506132158185602086016136d2565b61321e816137a8565b840191505092915050565b600061323482613577565b61323e8185613593565b935061324e8185602086016136d2565b613257816137a8565b840191505092915050565b600061326f602b83613593565b915061327a826137b9565b604082019050919050565b6000613292601a83613593565b915061329d82613808565b602082019050919050565b60006132b5601f83613593565b91506132c082613831565b602082019050919050565b6132d48161368d565b82525050565b6132e3816136bb565b82525050565b6132fa6132f5826136bb565b61370f565b82525050565b613309816136c5565b82525050565b600061331b82856131d9565b60208201915061332b82846132e9565b6020820191508190509392505050565b600060208201905061335060008301846131bb565b92915050565b600060608201905061336b60008301866131bb565b61337860208301856132da565b818103604083015261338a81846131f0565b9050949350505050565b60006020820190506133a960008301846131ca565b92915050565b60006040820190506133c460008301856131ca565b6133d160208301846132da565b9392505050565b60006080820190506133ed60008301876131ca565b6133fa60208301866132da565b61340760408301856131bb565b61341460608301846132da565b95945050505050565b600060208201905081810360008301526134378184613229565b905092915050565b6000602082019050818103600083015261345881613262565b9050919050565b6000602082019050818103600083015261347881613285565b9050919050565b60006020820190508181036000830152613498816132a8565b9050919050565b60006020820190506134b460008301846132cb565b92915050565b60006080820190506134cf60008301876132cb565b6134dc60208301866132cb565b6134e960408301856132cb565b6134f660608301846132cb565b95945050505050565b600060208201905061351460008301846132da565b92915050565b600060208201905061352f6000830184613300565b92915050565b600060608201905061354a6000830186613300565b6135576020830185613300565b6135646040830184613300565b949350505050565b600081519050919050565b600081519050919050565b600082825260208201905092915050565b600082825260208201905092915050565b60006135af826136bb565b91506135ba836136bb565b9250827fffffffffffffffffffffffffffffffffffffffffffffffffffffffffffffffff038211156135ef576135ee61374a565b5b828201905092915050565b6000613605826136c5565b9150613610836136c5565b92508260ff038211156136265761362561374a565b5b828201905092915050565b600061363c826136c5565b9150613647836136c5565b92508282101561365a5761365961374a565b5b828203905092915050565b60006136708261369b565b9050919050565b60008115159050919050565b6000819050919050565b600061ffff82169050919050565b600073ffffffffffffffffffffffffffffffffffffffff82169050919050565b6000819050919050565b600060ff82169050919050565b60005b838110156136f05780820151818401526020810190506136d5565b838111156136ff576000848401525b50505050565b6000819050919050565b6000819050919050565b6000613724826136bb565b915061372f836136bb565b92508261373f5761373e613779565b5b828206905092915050565b7f4e487b7100000000000000000000000000000000000000000000000000000000600052601160045260246000fd5b7f4e487b7100000000000000000000000000000000000000000000000000000000600052601260045260246000fd5b6000601f19601f8301169050919050565b7f4e6f7420656e6f756768204c494e4b202d2066696c6c20636f6e74726163742060008201527f7769746820666175636574000000000000000000000000000000000000000000602082015250565b7f4f6e6c792061646d696e2063616e206163636573732074686973000000000000600082015250565b7f4f6e6c7920565246436f6f7264696e61746f722063616e2066756c66696c6c00600082015250565b61386381613665565b811461386e57600080fd5b50565b61387a81613677565b811461388557600080fd5b50565b61389181613683565b811461389c57600080fd5b50565b6138a8816136bb565b81146138b357600080fd5b50565b6138bf816136c5565b81146138ca57600080fd5b5056fea2646970667358221220821753a2566a4e76b80df7332187946b9547ef5d4fd9992324003dea51cac64f64736f6c63430008040033",
  "immutableReferences": {
    "11527": [
      {
        "length": 32,
        "start": 11064
      },
      {
        "length": 32,
        "start": 11863
      }
    ],
    "11529": [
      {
        "length": 32,
        "start": 6152
      },
      {
        "length": 32,
        "start": 11923
      }
    ]
  },
  "source": "// SPDX-License-Identifier: MIT\r\npragma solidity ^0.8.0;\r\n\r\nimport \"@chainlink/contracts/src/v0.8/VRFConsumerBase.sol\";\r\n\r\n/**\r\n * THIS IS AN EXAMPLE CONTRACT WHICH USES HARDCODED VALUES FOR CLARITY.\r\n * PLEASE DO NOT USE THIS CODE IN PRODUCTION.\r\n */\r\n\r\n/**\r\n * Request testnet LINK and ETH here: https://faucets.chain.link/\r\n * Find information on LINK Token Contracts and get the latest ETH and LINK faucets here: https://docs.chain.link/docs/link-token-contracts/\r\n */\r\n\r\ncontract RandomNumberConsumer is VRFConsumerBase {\r\n    bytes32 internal keyHash;\r\n    uint256 internal fee;\r\n\r\n    uint256 public randomTokenId;\r\n    uint16 public skinProbability;\r\n    uint8 public commonBoxHeroProbability;\r\n    uint8 public rareBoxHeroProbability;\r\n    uint8 public epicBoxHeroProbability;\r\n    uint8 public legendaryBoxHeroProbability;\r\n    uint8 public weaponBoxRarityDrop;\r\n\r\n    address public admin;\r\n\r\n    struct Skins {\r\n        uint16 normal;\r\n        uint16 rare;\r\n        uint16 mythic;\r\n        uint16 legendary;\r\n    }\r\n\r\n    struct Weapon {\r\n        uint8 rare;\r\n        uint8 epic;\r\n        uint8 legendary;\r\n    }\r\n\r\n    //      box              hero     skin\r\n    mapping(uint8 => mapping(uint8 => Skins)) public boxProbabilityDistribution;\r\n\r\n    mapping(uint8 => Weapon) public weaponProbabilityDistribution;\r\n\r\n    /**\r\n     * Constructor inherits VRFConsumerBase\r\n     *\r\n     * Network: Kovan\r\n     * Chainlink VRF Coordinator address: 0xdD3782915140c8f3b190B5D67eAc6dc5760C46E9\r\n     * LINK token address:                0xa36085F69e2889c224210F603D836748e7dC0088\r\n     * Key Hash: 0x6c3699283bda56ad74f6b855546325b68d482e983852a7a82979cc4807b641f4\r\n     *\r\n     * Network: BSC testnet\r\n     * Chainlink VRF Coordinator address: 0xa555fC018435bef5A13C6c6870a9d4C11DEC329C\r\n     * LINK token address:                0x84b9B910527Ad5C03A9Ca831909E21e236EA7b06\r\n     * Key Hash: 0xcaf3c3727e033261d383b315559476f48034c13b18f8cafed4d871abe5049186\r\n     *\r\n     * Links\r\n     * https://docs.chain.link/docs/get-a-random-number/v1/\r\n     * https://docs.chain.link/docs/vrf-contracts/v1/\r\n     */\r\n    constructor()\r\n        VRFConsumerBase(\r\n            0xa555fC018435bef5A13C6c6870a9d4C11DEC329C, // VRF Coordinator\r\n            0x84b9B910527Ad5C03A9Ca831909E21e236EA7b06 // LINK Token\r\n        )\r\n    {\r\n        keyHash = 0xcaf3c3727e033261d383b315559476f48034c13b18f8cafed4d871abe5049186;\r\n        fee = 0.1 * 10**18; // 0.1 LINK (Varies by network)\r\n        admin = msg.sender;\r\n\r\n        ///@note common box probability range\r\n        //common hero\r\n        //[0][0] => common box and common hero\r\n        boxProbabilityDistribution[0][0].normal = 3995;\r\n        boxProbabilityDistribution[0][0].rare =\r\n            2850 +\r\n            boxProbabilityDistribution[0][0].normal;\r\n        boxProbabilityDistribution[0][0].mythic =\r\n            1595 +\r\n            boxProbabilityDistribution[0][0].rare;\r\n        boxProbabilityDistribution[0][0].legendary =\r\n            870 +\r\n            boxProbabilityDistribution[0][0].mythic;\r\n\r\n        //rare hero\r\n        //[0][1] => common box and rare hero\r\n        boxProbabilityDistribution[0][1].normal =\r\n            365 +\r\n            boxProbabilityDistribution[0][0].legendary;\r\n        boxProbabilityDistribution[0][1].rare =\r\n            175 +\r\n            boxProbabilityDistribution[0][1].normal;\r\n        boxProbabilityDistribution[0][1].mythic =\r\n            100 +\r\n            boxProbabilityDistribution[0][1].rare;\r\n        boxProbabilityDistribution[0][1].legendary =\r\n            50 +\r\n            boxProbabilityDistribution[0][1].mythic;\r\n\r\n        ///@note rare box probability range\r\n        //common hero\r\n        //[1][0] => rare box and common hero\r\n        boxProbabilityDistribution[1][0].normal = 435;\r\n        boxProbabilityDistribution[1][0].rare =\r\n            270 +\r\n            boxProbabilityDistribution[1][0].normal;\r\n        boxProbabilityDistribution[1][0].mythic =\r\n            200 +\r\n            boxProbabilityDistribution[1][0].rare;\r\n        boxProbabilityDistribution[1][0].legendary =\r\n            100 +\r\n            boxProbabilityDistribution[1][0].mythic;\r\n\r\n        //rare hero\r\n        //[1][1] => rare box and rare hero\r\n        boxProbabilityDistribution[1][1].normal =\r\n            3445 +\r\n            boxProbabilityDistribution[1][0].legendary;\r\n        boxProbabilityDistribution[1][1].rare =\r\n            2515 +\r\n            boxProbabilityDistribution[1][1].normal;\r\n        boxProbabilityDistribution[1][1].mythic =\r\n            1850 +\r\n            boxProbabilityDistribution[1][1].rare;\r\n        boxProbabilityDistribution[1][1].legendary =\r\n            1100 +\r\n            boxProbabilityDistribution[1][1].mythic;\r\n\r\n        //epic hero\r\n        //[1][2] => rare box and epic hero\r\n        boxProbabilityDistribution[1][2].normal =\r\n            50 +\r\n            boxProbabilityDistribution[1][1].legendary;\r\n        boxProbabilityDistribution[1][2].rare =\r\n            20 +\r\n            boxProbabilityDistribution[1][2].normal;\r\n        boxProbabilityDistribution[1][2].mythic =\r\n            10 +\r\n            boxProbabilityDistribution[1][2].rare;\r\n        boxProbabilityDistribution[1][2].legendary =\r\n            5 +\r\n            boxProbabilityDistribution[1][2].mythic;\r\n\r\n        ///@note epic box probability range\r\n        //common hero\r\n        //[2][0] => epic box and common hero\r\n        boxProbabilityDistribution[2][0].normal = 15;\r\n        boxProbabilityDistribution[2][0].rare =\r\n            25 +\r\n            boxProbabilityDistribution[2][0].normal;\r\n        boxProbabilityDistribution[2][0].mythic =\r\n            200 +\r\n            boxProbabilityDistribution[2][0].rare;\r\n        boxProbabilityDistribution[2][0].legendary =\r\n            265 +\r\n            boxProbabilityDistribution[2][0].mythic;\r\n\r\n        //rare hero\r\n        //[2][1] => epic box and rare hero\r\n        boxProbabilityDistribution[2][1].normal =\r\n            515 +\r\n            boxProbabilityDistribution[2][0].legendary;\r\n        boxProbabilityDistribution[2][1].rare =\r\n            215 +\r\n            boxProbabilityDistribution[2][1].normal;\r\n        boxProbabilityDistribution[2][1].mythic =\r\n            125 +\r\n            boxProbabilityDistribution[2][1].rare;\r\n        boxProbabilityDistribution[2][1].legendary =\r\n            85 +\r\n            boxProbabilityDistribution[2][1].mythic;\r\n\r\n        //epic hero\r\n        //[2][2] => epic box and epic hero\r\n        boxProbabilityDistribution[2][2].normal =\r\n            3295 +\r\n            boxProbabilityDistribution[2][1].legendary;\r\n        boxProbabilityDistribution[2][2].rare =\r\n            2350 +\r\n            boxProbabilityDistribution[2][2].normal;\r\n        boxProbabilityDistribution[2][2].mythic =\r\n            1505 +\r\n            boxProbabilityDistribution[2][2].rare;\r\n        boxProbabilityDistribution[2][2].legendary =\r\n            965 +\r\n            boxProbabilityDistribution[2][2].mythic;\r\n\r\n        //legendary hero\r\n        //[2][3] => epic box and legendary hero\r\n        boxProbabilityDistribution[2][3].normal =\r\n            225 +\r\n            boxProbabilityDistribution[2][2].legendary;\r\n        boxProbabilityDistribution[2][3].rare =\r\n            175 +\r\n            boxProbabilityDistribution[2][3].normal;\r\n        boxProbabilityDistribution[2][3].mythic =\r\n            35 +\r\n            boxProbabilityDistribution[2][3].rare;\r\n        boxProbabilityDistribution[2][3].legendary =\r\n            5 +\r\n            boxProbabilityDistribution[2][3].mythic;\r\n\r\n        ///@note legendary box probability range\r\n        //rare hero\r\n        //[3][1] => legendary box and rare hero\r\n        boxProbabilityDistribution[3][1].normal = 55;\r\n        boxProbabilityDistribution[3][1].rare =\r\n            85 +\r\n            boxProbabilityDistribution[3][1].normal;\r\n        boxProbabilityDistribution[3][1].mythic =\r\n            125 +\r\n            boxProbabilityDistribution[3][1].rare;\r\n        boxProbabilityDistribution[3][1].legendary =\r\n            175 +\r\n            boxProbabilityDistribution[3][1].mythic;\r\n\r\n        //epic hero\r\n        //[3][2] => legendary box and epic hero\r\n        boxProbabilityDistribution[3][2].normal =\r\n            235 +\r\n            boxProbabilityDistribution[3][1].legendary;\r\n        boxProbabilityDistribution[3][2].rare =\r\n            365 +\r\n            boxProbabilityDistribution[3][2].normal;\r\n        boxProbabilityDistribution[3][2].mythic =\r\n            595 +\r\n            boxProbabilityDistribution[3][2].rare;\r\n        boxProbabilityDistribution[3][2].legendary =\r\n            825 +\r\n            boxProbabilityDistribution[3][2].mythic;\r\n\r\n        //legendary hero\r\n        //[3][3] => legendary box and legendary hero\r\n        boxProbabilityDistribution[3][3].normal =\r\n            3295 +\r\n            boxProbabilityDistribution[3][2].legendary;\r\n        boxProbabilityDistribution[3][3].rare =\r\n            2215 +\r\n            boxProbabilityDistribution[3][3].normal;\r\n        boxProbabilityDistribution[3][3].mythic =\r\n            1675 +\r\n            boxProbabilityDistribution[3][3].rare;\r\n        boxProbabilityDistribution[3][3].legendary =\r\n            355 +\r\n            boxProbabilityDistribution[3][3].mythic;\r\n\r\n        ///@note weapon box probability range\r\n        weaponProbabilityDistribution[4].rare = 78;\r\n        weaponProbabilityDistribution[4].epic =\r\n            20 +\r\n            weaponProbabilityDistribution[4].rare;\r\n        weaponProbabilityDistribution[4].legendary =\r\n            2 +\r\n            weaponProbabilityDistribution[4].epic;\r\n    }\r\n\r\n    modifier onlyAdmin() {\r\n        require(msg.sender == admin, \"Only admin can access this\");\r\n        _;\r\n    }\r\n\r\n    function updateAdmin(address _admin) public onlyAdmin {\r\n        admin = _admin;\r\n    }\r\n\r\n    /**\r\n     * Requests randomness\r\n     */\r\n    function getRandomNumber() public returns (bytes32 requestId) {\r\n        require(\r\n            LINK.balanceOf(address(this)) >= fee,\r\n            \"Not enough LINK - fill contract with faucet\"\r\n        );\r\n        return requestRandomness(keyHash, fee);\r\n    }\r\n\r\n    /**\r\n     * Callback function used by VRF Coordinator\r\n     */\r\n    function fulfillRandomness(bytes32 requestId, uint256 randomness)\r\n        internal\r\n        override\r\n    {\r\n        randomTokenId = (randomness % 10000000000);\r\n        skinProbability = uint16(randomness % 10000);\r\n        commonBoxHeroProbability = uint8(randomness % 2);\r\n        rareBoxHeroProbability = uint8(randomness % 3);\r\n        epicBoxHeroProbability = uint8(randomness % 4);\r\n        legendaryBoxHeroProbability = uint8(randomness % 3) + 1;\r\n        weaponBoxRarityDrop = uint8(randomness % 100);\r\n        // randomResult = (randomness%1000);\r\n        // randomResult\r\n        // 0: uint256: 873\r\n        // 0x58dc868A54D09e8E15e6352e331682a817e1f0B3 kovan network (%1000)\r\n        // 0x6f0eBEd8C6c6e09eEaE9f01A5C7a62c16aF5f552 BSC testnet (%1000)\r\n        // probability\r\n        // 0: uint8: 44\r\n        // randomTokenId\r\n        // 0: uint256: 7638892244\r\n        // 0x47D2EA3828633F28048a7dBC179D78C38A0d6a20 BSC testnet (probability and randomTokenId)\r\n    }\r\n\r\n    // function withdrawLink() external {} - Implement a withdraw function to avoid locking your LINK in the contract\r\n\r\n    function getCommonBoxSkin() public view returns (string memory) {\r\n        if (commonBoxHeroProbability == 0) {\r\n            if (\r\n                skinProbability >= 0 &&\r\n                skinProbability <\r\n                boxProbabilityDistribution[0][commonBoxHeroProbability].normal\r\n            ) {\r\n                return \"normal\";\r\n            } else if (\r\n                skinProbability >=\r\n                boxProbabilityDistribution[0][commonBoxHeroProbability]\r\n                    .normal &&\r\n                skinProbability <\r\n                boxProbabilityDistribution[0][commonBoxHeroProbability].rare\r\n            ) {\r\n                return \"rare\";\r\n            } else if (\r\n                skinProbability >=\r\n                boxProbabilityDistribution[0][commonBoxHeroProbability].rare &&\r\n                skinProbability <\r\n                boxProbabilityDistribution[0][commonBoxHeroProbability].mythic\r\n            ) {\r\n                return \"mythic\";\r\n            } else if (\r\n                skinProbability >=\r\n                boxProbabilityDistribution[0][commonBoxHeroProbability]\r\n                    .mythic &&\r\n                skinProbability <\r\n                boxProbabilityDistribution[0][commonBoxHeroProbability]\r\n                    .legendary\r\n            ) {\r\n                return \"legendary\";\r\n            }\r\n        } else if (commonBoxHeroProbability == 1) {\r\n            if (\r\n                skinProbability >=\r\n                boxProbabilityDistribution[0][commonBoxHeroProbability - 1]\r\n                    .legendary &&\r\n                skinProbability <\r\n                boxProbabilityDistribution[0][commonBoxHeroProbability].normal\r\n            ) {\r\n                return \"normal\";\r\n            } else if (\r\n                skinProbability >=\r\n                boxProbabilityDistribution[0][commonBoxHeroProbability]\r\n                    .normal &&\r\n                skinProbability <\r\n                boxProbabilityDistribution[0][commonBoxHeroProbability].rare\r\n            ) {\r\n                return \"rare\";\r\n            } else if (\r\n                skinProbability >=\r\n                boxProbabilityDistribution[0][commonBoxHeroProbability].rare &&\r\n                skinProbability <\r\n                boxProbabilityDistribution[0][commonBoxHeroProbability].mythic\r\n            ) {\r\n                return \"mythic\";\r\n            } else if (\r\n                skinProbability >=\r\n                boxProbabilityDistribution[0][commonBoxHeroProbability]\r\n                    .mythic &&\r\n                skinProbability <\r\n                boxProbabilityDistribution[0][commonBoxHeroProbability]\r\n                    .legendary\r\n            ) {\r\n                return \"legendary\";\r\n            }\r\n        }\r\n    }\r\n\r\n    function getRareBoxSkin() public view returns (string memory) {\r\n        if (rareBoxHeroProbability == 0) {\r\n            if (\r\n                skinProbability >= 0 &&\r\n                skinProbability <\r\n                boxProbabilityDistribution[1][rareBoxHeroProbability].normal\r\n            ) {\r\n                return \"normal\";\r\n            } else if (\r\n                skinProbability >=\r\n                boxProbabilityDistribution[1][rareBoxHeroProbability].normal &&\r\n                skinProbability <\r\n                boxProbabilityDistribution[1][rareBoxHeroProbability].rare\r\n            ) {\r\n                return \"rare\";\r\n            } else if (\r\n                skinProbability >=\r\n                boxProbabilityDistribution[1][rareBoxHeroProbability].rare &&\r\n                skinProbability <\r\n                boxProbabilityDistribution[1][rareBoxHeroProbability].mythic\r\n            ) {\r\n                return \"mythic\";\r\n            } else if (\r\n                skinProbability >=\r\n                boxProbabilityDistribution[1][rareBoxHeroProbability].mythic &&\r\n                skinProbability <\r\n                boxProbabilityDistribution[1][rareBoxHeroProbability].legendary\r\n            ) {\r\n                return \"legendary\";\r\n            }\r\n        } else if (rareBoxHeroProbability == 1 || rareBoxHeroProbability == 2) {\r\n            if (\r\n                skinProbability >=\r\n                boxProbabilityDistribution[1][rareBoxHeroProbability - 1]\r\n                    .legendary &&\r\n                skinProbability <\r\n                boxProbabilityDistribution[1][rareBoxHeroProbability].normal\r\n            ) {\r\n                return \"normal\";\r\n            } else if (\r\n                skinProbability >=\r\n                boxProbabilityDistribution[1][rareBoxHeroProbability].normal &&\r\n                skinProbability <\r\n                boxProbabilityDistribution[1][rareBoxHeroProbability].rare\r\n            ) {\r\n                return \"rare\";\r\n            } else if (\r\n                skinProbability >=\r\n                boxProbabilityDistribution[1][rareBoxHeroProbability].rare &&\r\n                skinProbability <\r\n                boxProbabilityDistribution[1][rareBoxHeroProbability].mythic\r\n            ) {\r\n                return \"mythic\";\r\n            } else if (\r\n                skinProbability >=\r\n                boxProbabilityDistribution[1][rareBoxHeroProbability].mythic &&\r\n                skinProbability <\r\n                boxProbabilityDistribution[1][rareBoxHeroProbability].legendary\r\n            ) {\r\n                return \"legendary\";\r\n            }\r\n        }\r\n    }\r\n\r\n    function getEpicBoxSkin() public view returns (string memory) {\r\n        if (epicBoxHeroProbability == 0) {\r\n            if (\r\n                skinProbability >= 0 &&\r\n                skinProbability <\r\n                boxProbabilityDistribution[2][epicBoxHeroProbability].normal\r\n            ) {\r\n                return \"normal\";\r\n            } else if (\r\n                skinProbability >=\r\n                boxProbabilityDistribution[2][epicBoxHeroProbability].normal &&\r\n                skinProbability <\r\n                boxProbabilityDistribution[2][epicBoxHeroProbability].rare\r\n            ) {\r\n                return \"rare\";\r\n            } else if (\r\n                skinProbability >=\r\n                boxProbabilityDistribution[2][epicBoxHeroProbability].rare &&\r\n                skinProbability <\r\n                boxProbabilityDistribution[2][epicBoxHeroProbability].mythic\r\n            ) {\r\n                return \"mythic\";\r\n            } else if (\r\n                skinProbability >=\r\n                boxProbabilityDistribution[2][epicBoxHeroProbability].mythic &&\r\n                skinProbability <\r\n                boxProbabilityDistribution[2][epicBoxHeroProbability].legendary\r\n            ) {\r\n                return \"legendary\";\r\n            }\r\n        } else if (\r\n            epicBoxHeroProbability == 1 ||\r\n            epicBoxHeroProbability == 2 ||\r\n            epicBoxHeroProbability == 3\r\n        ) {\r\n            if (\r\n                skinProbability >=\r\n                boxProbabilityDistribution[2][epicBoxHeroProbability - 1]\r\n                    .legendary &&\r\n                skinProbability <\r\n                boxProbabilityDistribution[2][epicBoxHeroProbability].normal\r\n            ) {\r\n                return \"normal\";\r\n            } else if (\r\n                skinProbability >=\r\n                boxProbabilityDistribution[2][epicBoxHeroProbability].normal &&\r\n                skinProbability <\r\n                boxProbabilityDistribution[2][epicBoxHeroProbability].rare\r\n            ) {\r\n                return \"rare\";\r\n            } else if (\r\n                skinProbability >=\r\n                boxProbabilityDistribution[2][epicBoxHeroProbability].rare &&\r\n                skinProbability <\r\n                boxProbabilityDistribution[2][epicBoxHeroProbability].mythic\r\n            ) {\r\n                return \"mythic\";\r\n            } else if (\r\n                skinProbability >=\r\n                boxProbabilityDistribution[2][epicBoxHeroProbability].mythic &&\r\n                skinProbability <\r\n                boxProbabilityDistribution[2][epicBoxHeroProbability].legendary\r\n            ) {\r\n                return \"legendary\";\r\n            }\r\n        }\r\n    }\r\n\r\n    function getLegendaryBoxSkin() public view returns (string memory) {\r\n        if (legendaryBoxHeroProbability == 1) {\r\n            if (\r\n                skinProbability >= 0 &&\r\n                skinProbability <\r\n                boxProbabilityDistribution[3][legendaryBoxHeroProbability]\r\n                    .normal\r\n            ) {\r\n                return \"normal\";\r\n            } else if (\r\n                skinProbability >=\r\n                boxProbabilityDistribution[3][legendaryBoxHeroProbability]\r\n                    .normal &&\r\n                skinProbability <\r\n                boxProbabilityDistribution[3][legendaryBoxHeroProbability].rare\r\n            ) {\r\n                return \"rare\";\r\n            } else if (\r\n                skinProbability >=\r\n                boxProbabilityDistribution[3][legendaryBoxHeroProbability]\r\n                    .rare &&\r\n                skinProbability <\r\n                boxProbabilityDistribution[3][legendaryBoxHeroProbability]\r\n                    .mythic\r\n            ) {\r\n                return \"mythic\";\r\n            } else if (\r\n                skinProbability >=\r\n                boxProbabilityDistribution[3][legendaryBoxHeroProbability]\r\n                    .mythic &&\r\n                skinProbability <\r\n                boxProbabilityDistribution[3][legendaryBoxHeroProbability]\r\n                    .legendary\r\n            ) {\r\n                return \"legendary\";\r\n            }\r\n        } else if (\r\n            legendaryBoxHeroProbability == 2 || legendaryBoxHeroProbability == 3\r\n        ) {\r\n            if (\r\n                skinProbability >=\r\n                boxProbabilityDistribution[3][legendaryBoxHeroProbability - 1]\r\n                    .legendary &&\r\n                skinProbability <\r\n                boxProbabilityDistribution[3][legendaryBoxHeroProbability]\r\n                    .normal\r\n            ) {\r\n                return \"normal\";\r\n            } else if (\r\n                skinProbability >=\r\n                boxProbabilityDistribution[3][legendaryBoxHeroProbability]\r\n                    .normal &&\r\n                skinProbability <\r\n                boxProbabilityDistribution[3][legendaryBoxHeroProbability].rare\r\n            ) {\r\n                return \"rare\";\r\n            } else if (\r\n                skinProbability >=\r\n                boxProbabilityDistribution[3][legendaryBoxHeroProbability]\r\n                    .rare &&\r\n                skinProbability <\r\n                boxProbabilityDistribution[3][legendaryBoxHeroProbability]\r\n                    .mythic\r\n            ) {\r\n                return \"mythic\";\r\n            } else if (\r\n                skinProbability >=\r\n                boxProbabilityDistribution[3][legendaryBoxHeroProbability]\r\n                    .mythic &&\r\n                skinProbability <\r\n                boxProbabilityDistribution[3][legendaryBoxHeroProbability]\r\n                    .legendary\r\n            ) {\r\n                return \"legendary\";\r\n            }\r\n        }\r\n    }\r\n\r\n    function getWeaponBoxRarityDrop() public view returns (string memory) {\r\n        if (\r\n            weaponBoxRarityDrop >= 0 &&\r\n            weaponBoxRarityDrop < weaponProbabilityDistribution[4].rare\r\n        ) {\r\n            return \"rare\";\r\n        } else if (\r\n            weaponBoxRarityDrop >= weaponProbabilityDistribution[4].rare &&\r\n            weaponBoxRarityDrop < weaponProbabilityDistribution[4].epic\r\n        ) {\r\n            return \"epic\";\r\n        } else if (\r\n            weaponBoxRarityDrop >= weaponProbabilityDistribution[4].epic &&\r\n            weaponBoxRarityDrop < weaponProbabilityDistribution[4].legendary\r\n        ) {\r\n            return \"legendary\";\r\n        }\r\n    }\r\n}\r\n",
  "sourcePath": "D:/Desktop/immense/crypto/defi application/test (NFT marketplace)/NFT game/src/contracts/chainLink.sol",
  "compiler": {
    "name": "solc",
    "version": "0.8.4+commit.c7e474f2.Emscripten.clang"
  },
  "schemaVersion": "3.2.3",
  "updatedAt": "2022-05-24T11:14:24.919Z",
  "networkType": "ethereum",
  "devdoc": {
    "kind": "dev",
    "methods": {},
    "version": 1
  },
  "userdoc": {
    "kind": "user",
    "methods": {
      "constructor": {
        "notice": "Constructor inherits VRFConsumerBase Network: Kovan Chainlink VRF Coordinator address: 0xdD3782915140c8f3b190B5D67eAc6dc5760C46E9 LINK token address:                0xa36085F69e2889c224210F603D836748e7dC0088 Key Hash: 0x6c3699283bda56ad74f6b855546325b68d482e983852a7a82979cc4807b641f4 Network: BSC testnet Chainlink VRF Coordinator address: 0xa555fC018435bef5A13C6c6870a9d4C11DEC329C LINK token address:                0x84b9B910527Ad5C03A9Ca831909E21e236EA7b06 Key Hash: 0xcaf3c3727e033261d383b315559476f48034c13b18f8cafed4d871abe5049186 Links https://docs.chain.link/docs/get-a-random-number/v1/ https://docs.chain.link/docs/vrf-contracts/v1/"
      },
      "getRandomNumber()": {
        "notice": "Requests randomness"
      }
    },
    "notice": "Request testnet LINK and ETH here: https://faucets.chain.link/ Find information on LINK Token Contracts and get the latest ETH and LINK faucets here: https://docs.chain.link/docs/link-token-contracts/",
    "version": 1
  }
}