{
  "contractName": "TestRandomNumberConsumer",
  "abi": [
    {
      "inputs": [],
      "stateMutability": "nonpayable",
      "type": "constructor"
    },
    {
      "inputs": [],
      "name": "admin",
      "outputs": [
        {
          "internalType": "address",
          "name": "",
          "type": "address"
        }
      ],
      "stateMutability": "view",
      "type": "function"
    },
    {
      "inputs": [
        {
          "internalType": "uint8",
          "name": "",
          "type": "uint8"
        },
        {
          "internalType": "uint8",
          "name": "",
          "type": "uint8"
        }
      ],
      "name": "boxProbabilityDistribution",
      "outputs": [
        {
          "internalType": "uint16",
          "name": "normal",
          "type": "uint16"
        },
        {
          "internalType": "uint16",
          "name": "rare",
          "type": "uint16"
        },
        {
          "internalType": "uint16",
          "name": "mythic",
          "type": "uint16"
        },
        {
          "internalType": "uint16",
          "name": "legendary",
          "type": "uint16"
        }
      ],
      "stateMutability": "view",
      "type": "function"
    },
    {
      "inputs": [],
      "name": "commonBoxHeroProbability",
      "outputs": [
        {
          "internalType": "uint8",
          "name": "",
          "type": "uint8"
        }
      ],
      "stateMutability": "view",
      "type": "function"
    },
    {
      "inputs": [],
      "name": "epicBoxHeroProbability",
      "outputs": [
        {
          "internalType": "uint8",
          "name": "",
          "type": "uint8"
        }
      ],
      "stateMutability": "view",
      "type": "function"
    },
    {
      "inputs": [],
      "name": "legendaryBoxHeroProbability",
      "outputs": [
        {
          "internalType": "uint8",
          "name": "",
          "type": "uint8"
        }
      ],
      "stateMutability": "view",
      "type": "function"
    },
    {
      "inputs": [],
      "name": "randomTokenId",
      "outputs": [
        {
          "internalType": "uint256",
          "name": "",
          "type": "uint256"
        }
      ],
      "stateMutability": "view",
      "type": "function"
    },
    {
      "inputs": [],
      "name": "rareBoxHeroProbability",
      "outputs": [
        {
          "internalType": "uint8",
          "name": "",
          "type": "uint8"
        }
      ],
      "stateMutability": "view",
      "type": "function"
    },
    {
      "inputs": [
        {
          "internalType": "bytes32",
          "name": "requestId",
          "type": "bytes32"
        },
        {
          "internalType": "uint256",
          "name": "randomness",
          "type": "uint256"
        }
      ],
      "name": "rawFulfillRandomness",
      "outputs": [],
      "stateMutability": "nonpayable",
      "type": "function"
    },
    {
      "inputs": [],
      "name": "skinProbability",
      "outputs": [
        {
          "internalType": "uint16",
          "name": "",
          "type": "uint16"
        }
      ],
      "stateMutability": "view",
      "type": "function"
    },
    {
      "inputs": [],
      "name": "weaponBoxRarityDrop",
      "outputs": [
        {
          "internalType": "uint8",
          "name": "",
          "type": "uint8"
        }
      ],
      "stateMutability": "view",
      "type": "function"
    },
    {
      "inputs": [
        {
          "internalType": "uint8",
          "name": "",
          "type": "uint8"
        }
      ],
      "name": "weaponProbabilityDistribution",
      "outputs": [
        {
          "internalType": "uint8",
          "name": "rare",
          "type": "uint8"
        },
        {
          "internalType": "uint8",
          "name": "epic",
          "type": "uint8"
        },
        {
          "internalType": "uint8",
          "name": "legendary",
          "type": "uint8"
        }
      ],
      "stateMutability": "view",
      "type": "function"
    },
    {
      "inputs": [
        {
          "internalType": "address",
          "name": "_admin",
          "type": "address"
        }
      ],
      "name": "updateAdmin",
      "outputs": [],
      "stateMutability": "nonpayable",
      "type": "function"
    },
    {
      "inputs": [],
      "name": "getRandomNumber",
      "outputs": [
        {
          "internalType": "bytes32",
          "name": "requestId",
          "type": "bytes32"
        }
      ],
      "stateMutability": "nonpayable",
      "type": "function"
    },
    {
      "inputs": [],
      "name": "getCommonBoxSkin",
      "outputs": [
        {
          "internalType": "string",
          "name": "",
          "type": "string"
        }
      ],
      "stateMutability": "view",
      "type": "function"
    },
    {
      "inputs": [],
      "name": "getRareBoxSkin",
      "outputs": [
        {
          "internalType": "string",
          "name": "",
          "type": "string"
        }
      ],
      "stateMutability": "view",
      "type": "function"
    },
    {
      "inputs": [],
      "name": "getEpicBoxSkin",
      "outputs": [
        {
          "internalType": "string",
          "name": "",
          "type": "string"
        }
      ],
      "stateMutability": "view",
      "type": "function"
    },
    {
      "inputs": [],
      "name": "getLegendaryBoxSkin",
      "outputs": [
        {
          "internalType": "string",
          "name": "",
          "type": "string"
        }
      ],
      "stateMutability": "view",
      "type": "function"
    },
    {
      "inputs": [],
      "name": "getWeaponBoxRarityDrop",
      "outputs": [
        {
          "internalType": "string",
          "name": "",
          "type": "string"
        }
      ],
      "stateMutability": "view",
      "type": "function"
    },
    {
      "inputs": [
        {
          "internalType": "uint8",
          "name": "_commonBoxHeroProbability",
          "type": "uint8"
        }
      ],
      "name": "setCommonBoxHeroProbability",
      "outputs": [],
      "stateMutability": "nonpayable",
      "type": "function"
    },
    {
      "inputs": [
        {
          "internalType": "uint8",
          "name": "_rareBoxHeroProbability",
          "type": "uint8"
        }
      ],
      "name": "setRareBoxHeroProbability",
      "outputs": [],
      "stateMutability": "nonpayable",
      "type": "function"
    },
    {
      "inputs": [
        {
          "internalType": "uint8",
          "name": "_epicBoxHeroProbability",
          "type": "uint8"
        }
      ],
      "name": "setEpicBoxHeroProbability",
      "outputs": [],
      "stateMutability": "nonpayable",
      "type": "function"
    },
    {
      "inputs": [
        {
          "internalType": "uint8",
          "name": "_legendaryBoxHeroProbability",
          "type": "uint8"
        }
      ],
      "name": "setLegendaryBoxHeroProbability",
      "outputs": [],
      "stateMutability": "nonpayable",
      "type": "function"
    },
    {
      "inputs": [
        {
          "internalType": "uint8",
          "name": "_weaponBoxRarityDrop",
          "type": "uint8"
        }
      ],
      "name": "setWeaponBoxRarityDrop",
      "outputs": [],
      "stateMutability": "nonpayable",
      "type": "function"
    },
    {
      "inputs": [
        {
          "internalType": "uint16",
          "name": "_skinProbability",
          "type": "uint16"
        }
      ],
      "name": "setSkinProbability",
      "outputs": [],
      "stateMutability": "nonpayable",
      "type": "function"
    }
  ],
  "bytecode": "0x60c06040523480156200001157600080fd5b5073a555fc018435bef5a13c6c6870a9d4c11dec329c7384b9b910527ad5c03a9ca831909e21e236ea7b068173ffffffffffffffffffffffffffffffffffffffff1660a08173ffffffffffffffffffffffffffffffffffffffff1660601b815250508073ffffffffffffffffffffffffffffffffffffffff1660808173ffffffffffffffffffffffffffffffffffffffff1660601b8152505050507fcaf3c3727e033261d383b315559476f48034c13b18f8cafed4d871abe504918660001b60018190555067016345785d8a000060028190555033600460076101000a81548173ffffffffffffffffffffffffffffffffffffffff021916908373ffffffffffffffffffffffffffffffffffffffff160217905550610f9b600560008060ff16815260200190815260200160002060008060ff16815260200190815260200160002060000160006101000a81548161ffff021916908361ffff160217905550600560008060ff16815260200190815260200160002060008060ff16815260200190815260200160002060000160009054906101000a900461ffff16610b22620001bb919062001ce9565b600560008060ff16815260200190815260200160002060008060ff16815260200190815260200160002060000160026101000a81548161ffff021916908361ffff160217905550600560008060ff16815260200190815260200160002060008060ff16815260200190815260200160002060000160029054906101000a900461ffff1661063b6200024d919062001ce9565b600560008060ff16815260200190815260200160002060008060ff16815260200190815260200160002060000160046101000a81548161ffff021916908361ffff160217905550600560008060ff16815260200190815260200160002060008060ff16815260200190815260200160002060000160049054906101000a900461ffff16610366620002df919062001ce9565b600560008060ff16815260200190815260200160002060008060ff16815260200190815260200160002060000160066101000a81548161ffff021916908361ffff160217905550600560008060ff16815260200190815260200160002060008060ff16815260200190815260200160002060000160069054906101000a900461ffff1661016d62000371919062001ce9565b600560008060ff1681526020019081526020016000206000600160ff16815260200190815260200160002060000160006101000a81548161ffff021916908361ffff160217905550600560008060ff1681526020019081526020016000206000600160ff16815260200190815260200160002060000160009054906101000a900461ffff1660af62000404919062001ce9565b600560008060ff1681526020019081526020016000206000600160ff16815260200190815260200160002060000160026101000a81548161ffff021916908361ffff160217905550600560008060ff1681526020019081526020016000206000600160ff16815260200190815260200160002060000160029054906101000a900461ffff16606462000497919062001ce9565b600560008060ff1681526020019081526020016000206000600160ff16815260200190815260200160002060000160046101000a81548161ffff021916908361ffff160217905550600560008060ff1681526020019081526020016000206000600160ff16815260200190815260200160002060000160049054906101000a900461ffff1660326200052a919062001ce9565b600560008060ff1681526020019081526020016000206000600160ff16815260200190815260200160002060000160066101000a81548161ffff021916908361ffff1602179055506101b360056000600160ff16815260200190815260200160002060008060ff16815260200190815260200160002060000160006101000a81548161ffff021916908361ffff16021790555060056000600160ff16815260200190815260200160002060008060ff16815260200190815260200160002060000160009054906101000a900461ffff1661010e62000609919062001ce9565b60056000600160ff16815260200190815260200160002060008060ff16815260200190815260200160002060000160026101000a81548161ffff021916908361ffff16021790555060056000600160ff16815260200190815260200160002060008060ff16815260200190815260200160002060000160029054906101000a900461ffff1660c86200069c919062001ce9565b60056000600160ff16815260200190815260200160002060008060ff16815260200190815260200160002060000160046101000a81548161ffff021916908361ffff16021790555060056000600160ff16815260200190815260200160002060008060ff16815260200190815260200160002060000160049054906101000a900461ffff1660646200072f919062001ce9565b60056000600160ff16815260200190815260200160002060008060ff16815260200190815260200160002060000160066101000a81548161ffff021916908361ffff16021790555060056000600160ff16815260200190815260200160002060008060ff16815260200190815260200160002060000160069054906101000a900461ffff16610d75620007c3919062001ce9565b60056000600160ff1681526020019081526020016000206000600160ff16815260200190815260200160002060000160006101000a81548161ffff021916908361ffff16021790555060056000600160ff1681526020019081526020016000206000600160ff16815260200190815260200160002060000160009054906101000a900461ffff166109d362000859919062001ce9565b60056000600160ff1681526020019081526020016000206000600160ff16815260200190815260200160002060000160026101000a81548161ffff021916908361ffff16021790555060056000600160ff1681526020019081526020016000206000600160ff16815260200190815260200160002060000160029054906101000a900461ffff1661073a620008ef919062001ce9565b60056000600160ff1681526020019081526020016000206000600160ff16815260200190815260200160002060000160046101000a81548161ffff021916908361ffff16021790555060056000600160ff1681526020019081526020016000206000600160ff16815260200190815260200160002060000160049054906101000a900461ffff1661044c62000985919062001ce9565b60056000600160ff1681526020019081526020016000206000600160ff16815260200190815260200160002060000160066101000a81548161ffff021916908361ffff16021790555060056000600160ff1681526020019081526020016000206000600160ff16815260200190815260200160002060000160069054906101000a900461ffff16603262000a1a919062001ce9565b60056000600160ff1681526020019081526020016000206000600260ff16815260200190815260200160002060000160006101000a81548161ffff021916908361ffff16021790555060056000600160ff1681526020019081526020016000206000600260ff16815260200190815260200160002060000160009054906101000a900461ffff16601462000aaf919062001ce9565b60056000600160ff1681526020019081526020016000206000600260ff16815260200190815260200160002060000160026101000a81548161ffff021916908361ffff16021790555060056000600160ff1681526020019081526020016000206000600260ff16815260200190815260200160002060000160029054906101000a900461ffff16600a62000b44919062001ce9565b60056000600160ff1681526020019081526020016000206000600260ff16815260200190815260200160002060000160046101000a81548161ffff021916908361ffff16021790555060056000600160ff1681526020019081526020016000206000600260ff16815260200190815260200160002060000160049054906101000a900461ffff16600562000bd9919062001ce9565b60056000600160ff1681526020019081526020016000206000600260ff16815260200190815260200160002060000160066101000a81548161ffff021916908361ffff160217905550600f60056000600260ff16815260200190815260200160002060008060ff16815260200190815260200160002060000160006101000a81548161ffff021916908361ffff16021790555060056000600260ff16815260200190815260200160002060008060ff16815260200190815260200160002060000160009054906101000a900461ffff16601962000cb7919062001ce9565b60056000600260ff16815260200190815260200160002060008060ff16815260200190815260200160002060000160026101000a81548161ffff021916908361ffff16021790555060056000600260ff16815260200190815260200160002060008060ff16815260200190815260200160002060000160029054906101000a900461ffff1660c862000d4a919062001ce9565b60056000600260ff16815260200190815260200160002060008060ff16815260200190815260200160002060000160046101000a81548161ffff021916908361ffff16021790555060056000600260ff16815260200190815260200160002060008060ff16815260200190815260200160002060000160049054906101000a900461ffff1661010962000dde919062001ce9565b60056000600260ff16815260200190815260200160002060008060ff16815260200190815260200160002060000160066101000a81548161ffff021916908361ffff16021790555060056000600260ff16815260200190815260200160002060008060ff16815260200190815260200160002060000160069054906101000a900461ffff1661020362000e72919062001ce9565b60056000600260ff1681526020019081526020016000206000600160ff16815260200190815260200160002060000160006101000a81548161ffff021916908361ffff16021790555060056000600260ff1681526020019081526020016000206000600160ff16815260200190815260200160002060000160009054906101000a900461ffff1660d762000f07919062001ce9565b60056000600260ff1681526020019081526020016000206000600160ff16815260200190815260200160002060000160026101000a81548161ffff021916908361ffff16021790555060056000600260ff1681526020019081526020016000206000600160ff16815260200190815260200160002060000160029054906101000a900461ffff16607d62000f9c919062001ce9565b60056000600260ff1681526020019081526020016000206000600160ff16815260200190815260200160002060000160046101000a81548161ffff021916908361ffff16021790555060056000600260ff1681526020019081526020016000206000600160ff16815260200190815260200160002060000160049054906101000a900461ffff16605562001031919062001ce9565b60056000600260ff1681526020019081526020016000206000600160ff16815260200190815260200160002060000160066101000a81548161ffff021916908361ffff16021790555060056000600260ff1681526020019081526020016000206000600160ff16815260200190815260200160002060000160069054906101000a900461ffff16610cdf620010c7919062001ce9565b60056000600260ff1681526020019081526020016000206000600260ff16815260200190815260200160002060000160006101000a81548161ffff021916908361ffff16021790555060056000600260ff1681526020019081526020016000206000600260ff16815260200190815260200160002060000160009054906101000a900461ffff1661092e6200115d919062001ce9565b60056000600260ff1681526020019081526020016000206000600260ff16815260200190815260200160002060000160026101000a81548161ffff021916908361ffff16021790555060056000600260ff1681526020019081526020016000206000600260ff16815260200190815260200160002060000160029054906101000a900461ffff166105e1620011f3919062001ce9565b60056000600260ff1681526020019081526020016000206000600260ff16815260200190815260200160002060000160046101000a81548161ffff021916908361ffff16021790555060056000600260ff1681526020019081526020016000206000600260ff16815260200190815260200160002060000160049054906101000a900461ffff166103c562001289919062001ce9565b60056000600260ff1681526020019081526020016000206000600260ff16815260200190815260200160002060000160066101000a81548161ffff021916908361ffff16021790555060056000600260ff1681526020019081526020016000206000600260ff16815260200190815260200160002060000160069054906101000a900461ffff1660e16200131e919062001ce9565b60056000600260ff1681526020019081526020016000206000600360ff16815260200190815260200160002060000160006101000a81548161ffff021916908361ffff16021790555060056000600260ff1681526020019081526020016000206000600360ff16815260200190815260200160002060000160009054906101000a900461ffff1660af620013b3919062001ce9565b60056000600260ff1681526020019081526020016000206000600360ff16815260200190815260200160002060000160026101000a81548161ffff021916908361ffff16021790555060056000600260ff1681526020019081526020016000206000600360ff16815260200190815260200160002060000160029054906101000a900461ffff16602362001448919062001ce9565b60056000600260ff1681526020019081526020016000206000600360ff16815260200190815260200160002060000160046101000a81548161ffff021916908361ffff16021790555060056000600260ff1681526020019081526020016000206000600360ff16815260200190815260200160002060000160049054906101000a900461ffff166005620014dd919062001ce9565b60056000600260ff1681526020019081526020016000206000600360ff16815260200190815260200160002060000160066101000a81548161ffff021916908361ffff160217905550603760056000600360ff1681526020019081526020016000206000600160ff16815260200190815260200160002060000160006101000a81548161ffff021916908361ffff16021790555060056000600360ff1681526020019081526020016000206000600160ff16815260200190815260200160002060000160009054906101000a900461ffff166055620015bd919062001ce9565b60056000600360ff1681526020019081526020016000206000600160ff16815260200190815260200160002060000160026101000a81548161ffff021916908361ffff16021790555060056000600360ff1681526020019081526020016000206000600160ff16815260200190815260200160002060000160029054906101000a900461ffff16607d62001652919062001ce9565b60056000600360ff1681526020019081526020016000206000600160ff16815260200190815260200160002060000160046101000a81548161ffff021916908361ffff16021790555060056000600360ff1681526020019081526020016000206000600160ff16815260200190815260200160002060000160049054906101000a900461ffff1660af620016e7919062001ce9565b60056000600360ff1681526020019081526020016000206000600160ff16815260200190815260200160002060000160066101000a81548161ffff021916908361ffff16021790555060056000600360ff1681526020019081526020016000206000600160ff16815260200190815260200160002060000160069054906101000a900461ffff1660eb6200177c919062001ce9565b60056000600360ff1681526020019081526020016000206000600260ff16815260200190815260200160002060000160006101000a81548161ffff021916908361ffff16021790555060056000600360ff1681526020019081526020016000206000600260ff16815260200190815260200160002060000160009054906101000a900461ffff1661016d62001812919062001ce9565b60056000600360ff1681526020019081526020016000206000600260ff16815260200190815260200160002060000160026101000a81548161ffff021916908361ffff16021790555060056000600360ff1681526020019081526020016000206000600260ff16815260200190815260200160002060000160029054906101000a900461ffff16610253620018a8919062001ce9565b60056000600360ff1681526020019081526020016000206000600260ff16815260200190815260200160002060000160046101000a81548161ffff021916908361ffff16021790555060056000600360ff1681526020019081526020016000206000600260ff16815260200190815260200160002060000160049054906101000a900461ffff166103396200193e919062001ce9565b60056000600360ff1681526020019081526020016000206000600260ff16815260200190815260200160002060000160066101000a81548161ffff021916908361ffff16021790555060056000600360ff1681526020019081526020016000206000600260ff16815260200190815260200160002060000160069054906101000a900461ffff16610cdf620019d4919062001ce9565b60056000600360ff1681526020019081526020016000206000600360ff16815260200190815260200160002060000160006101000a81548161ffff021916908361ffff16021790555060056000600360ff1681526020019081526020016000206000600360ff16815260200190815260200160002060000160009054906101000a900461ffff166108a762001a6a919062001ce9565b60056000600360ff1681526020019081526020016000206000600360ff16815260200190815260200160002060000160026101000a81548161ffff021916908361ffff16021790555060056000600360ff1681526020019081526020016000206000600360ff16815260200190815260200160002060000160029054906101000a900461ffff1661068b62001b00919062001ce9565b60056000600360ff1681526020019081526020016000206000600360ff16815260200190815260200160002060000160046101000a81548161ffff021916908361ffff16021790555060056000600360ff1681526020019081526020016000206000600360ff16815260200190815260200160002060000160049054906101000a900461ffff1661016362001b96919062001ce9565b60056000600360ff1681526020019081526020016000206000600360ff16815260200190815260200160002060000160066101000a81548161ffff021916908361ffff160217905550604e60066000600460ff16815260200190815260200160002060000160006101000a81548160ff021916908360ff16021790555060066000600460ff16815260200190815260200160002060000160009054906101000a900460ff16601462001c49919062001d28565b60066000600460ff16815260200190815260200160002060000160016101000a81548160ff021916908360ff16021790555060066000600460ff16815260200190815260200160002060000160019054906101000a900460ff16600262001cb1919062001d28565b60066000600460ff16815260200190815260200160002060000160026101000a81548160ff021916908360ff16021790555062001db0565b600062001cf68262001d66565b915062001d038362001d66565b92508261ffff0382111562001d1d5762001d1c62001d81565b5b828201905092915050565b600062001d358262001d74565b915062001d428362001d74565b92508260ff0382111562001d5b5762001d5a62001d81565b5b828201905092915050565b600061ffff82169050919050565b600060ff82169050919050565b7f4e487b7100000000000000000000000000000000000000000000000000000000600052601160045260246000fd5b60805160601c60a05160601c613af762001dea6000396000818161194c0152613032015260008181612cba0152612ff60152613af76000f3fe608060405234801561001057600080fd5b50600436106101585760003560e01c8063aae78c49116100c3578063db57fa8f1161007c578063db57fa8f14610398578063dbdff2c1146103b4578063e2f273bd146103d2578063eda5726b146103ee578063f851a4401461040c578063fe7ed8ff1461042a57610158565b8063aae78c49146102e6578063b075ff8514610304578063b8eb9fdf14610320578063bc530c991461033e578063be33ab711461035c578063c8ca04461461037a57610158565b8063678012c311610115578063678012c3146102235780637ea24bbe1461023f578063864525ec1461025d57806394985ddd1461027957806397cb2b2314610295578063a309c0b1146102c857610158565b806303287c121461015d57806315b232631461017b578063282a7d71146101995780633fd0029a146101cb57806349dbb050146101e95780635d8c626914610207575b600080fd5b610165610446565b60405161017291906136f7565b60405180910390f35b610183610457565b60405161019091906135fa565b60405180910390f35b6101b360048036038101906101ae9190613333565b61068f565b6040516101c293929190613712565b60405180910390f35b6101d36106e0565b6040516101e091906135fa565b60405180910390f35b6101f1610fda565b6040516101fe91906135fa565b60405180910390f35b610221600480360381019061021c9190613333565b6118dd565b005b61023d60048036038101906102389190613333565b6118fb565b005b610247611919565b60405161025491906136f7565b60405180910390f35b61027760048036038101906102729190613333565b61192c565b005b610293600480360381019061028e91906132a5565b61194a565b005b6102af60048036038101906102aa919061335c565b6119e6565b6040516102bf9493929190613697565b60405180910390f35b6102d0611a5b565b6040516102dd91906135fa565b60405180910390f35b6102ee612332565b6040516102fb91906136f7565b60405180910390f35b61031e600480360381019061031991906132e1565b612345565b005b610328612365565b60405161033591906136dc565b60405180910390f35b61034661236b565b60405161035391906136f7565b60405180910390f35b61036461237e565b60405161037191906135fa565b60405180910390f35b610382612c81565b60405161038f919061367c565b60405180910390f35b6103b260048036038101906103ad9190613333565b612c95565b005b6103bc612cb3565b6040516103c99190613571565b60405180910390f35b6103ec60048036038101906103e79190613253565b612db5565b005b6103f6612e89565b60405161040391906136f7565b60405180910390f35b610414612e9c565b6040516104219190613518565b60405180910390f35b610444600480360381019061043f9190613333565b612ec2565b005b60048054906101000a900460ff1681565b60606000600460069054906101000a900460ff1660ff16101580156104b7575060066000600460ff16815260200190815260200160002060000160009054906101000a900460ff1660ff16600460069054906101000a900460ff1660ff16105b156104f9576040518060400160405280600481526020017f7261726500000000000000000000000000000000000000000000000000000000815250905061068c565b60066000600460ff16815260200190815260200160002060000160009054906101000a900460ff1660ff16600460069054906101000a900460ff1660ff1610158015610580575060066000600460ff16815260200190815260200160002060000160019054906101000a900460ff1660ff16600460069054906101000a900460ff1660ff16105b156105c2576040518060400160405280600481526020017f6570696300000000000000000000000000000000000000000000000000000000815250905061068c565b60066000600460ff16815260200190815260200160002060000160019054906101000a900460ff1660ff16600460069054906101000a900460ff1660ff1610158015610649575060066000600460ff16815260200190815260200160002060000160029054906101000a900460ff1660ff16600460069054906101000a900460ff1660ff16105b1561068b576040518060400160405280600981526020017f6c6567656e646172790000000000000000000000000000000000000000000000815250905061068c565b5b90565b60066020528060005260406000206000915090508060000160009054906101000a900460ff16908060000160019054906101000a900460ff16908060000160029054906101000a900460ff16905083565b6060600060048054906101000a900460ff1660ff161415610b15576000600460009054906101000a900461ffff1661ffff1610158015610783575060056000600260ff168152602001908152602001600020600060048054906101000a900460ff1660ff1660ff16815260200190815260200160002060000160009054906101000a900461ffff1661ffff16600460009054906101000a900461ffff1661ffff16105b156107c5576040518060400160405280600681526020017f6e6f726d616c00000000000000000000000000000000000000000000000000008152509050610fd7565b60056000600260ff168152602001908152602001600020600060048054906101000a900460ff1660ff1660ff16815260200190815260200160002060000160009054906101000a900461ffff1661ffff16600460009054906101000a900461ffff1661ffff161015801561089c575060056000600260ff168152602001908152602001600020600060048054906101000a900460ff1660ff1660ff16815260200190815260200160002060000160029054906101000a900461ffff1661ffff16600460009054906101000a900461ffff1661ffff16105b156108de576040518060400160405280600481526020017f72617265000000000000000000000000000000000000000000000000000000008152509050610fd7565b60056000600260ff168152602001908152602001600020600060048054906101000a900460ff1660ff1660ff16815260200190815260200160002060000160029054906101000a900461ffff1661ffff16600460009054906101000a900461ffff1661ffff16101580156109b5575060056000600260ff168152602001908152602001600020600060048054906101000a900460ff1660ff1660ff16815260200190815260200160002060000160049054906101000a900461ffff1661ffff16600460009054906101000a900461ffff1661ffff16105b156109f7576040518060400160405280600681526020017f6d797468696300000000000000000000000000000000000000000000000000008152509050610fd7565b60056000600260ff168152602001908152602001600020600060048054906101000a900460ff1660ff1660ff16815260200190815260200160002060000160049054906101000a900461ffff1661ffff16600460009054906101000a900461ffff1661ffff1610158015610ace575060056000600260ff168152602001908152602001600020600060048054906101000a900460ff1660ff1660ff16815260200190815260200160002060000160069054906101000a900461ffff1661ffff16600460009054906101000a900461ffff1661ffff16105b15610b10576040518060400160405280600981526020017f6c6567656e6461727900000000000000000000000000000000000000000000008152509050610fd7565b610fd6565b600160048054906101000a900460ff1660ff161480610b445750600260048054906101000a900460ff1660ff16145b80610b5f5750600360048054906101000a900460ff1660ff16145b15610fd55760056000600260ff1681526020019081526020016000206000600160048054906101000a900460ff16610b97919061380e565b60ff1660ff16815260200190815260200160002060000160069054906101000a900461ffff1661ffff16600460009054906101000a900461ffff1661ffff1610158015610c47575060056000600260ff168152602001908152602001600020600060048054906101000a900460ff1660ff1660ff16815260200190815260200160002060000160009054906101000a900461ffff1661ffff16600460009054906101000a900461ffff1661ffff16105b15610c89576040518060400160405280600681526020017f6e6f726d616c00000000000000000000000000000000000000000000000000008152509050610fd7565b60056000600260ff168152602001908152602001600020600060048054906101000a900460ff1660ff1660ff16815260200190815260200160002060000160009054906101000a900461ffff1661ffff16600460009054906101000a900461ffff1661ffff1610158015610d60575060056000600260ff168152602001908152602001600020600060048054906101000a900460ff1660ff1660ff16815260200190815260200160002060000160029054906101000a900461ffff1661ffff16600460009054906101000a900461ffff1661ffff16105b15610da2576040518060400160405280600481526020017f72617265000000000000000000000000000000000000000000000000000000008152509050610fd7565b60056000600260ff168152602001908152602001600020600060048054906101000a900460ff1660ff1660ff16815260200190815260200160002060000160029054906101000a900461ffff1661ffff16600460009054906101000a900461ffff1661ffff1610158015610e79575060056000600260ff168152602001908152602001600020600060048054906101000a900460ff1660ff1660ff16815260200190815260200160002060000160049054906101000a900461ffff1661ffff16600460009054906101000a900461ffff1661ffff16105b15610ebb576040518060400160405280600681526020017f6d797468696300000000000000000000000000000000000000000000000000008152509050610fd7565b60056000600260ff168152602001908152602001600020600060048054906101000a900460ff1660ff1660ff16815260200190815260200160002060000160049054906101000a900461ffff1661ffff16600460009054906101000a900461ffff1661ffff1610158015610f92575060056000600260ff168152602001908152602001600020600060048054906101000a900460ff1660ff1660ff16815260200190815260200160002060000160069054906101000a900461ffff1661ffff16600460009054906101000a900461ffff1661ffff16105b15610fd4576040518060400160405280600981526020017f6c6567656e6461727900000000000000000000000000000000000000000000008152509050610fd7565b5b5b5b90565b60606000600460039054906101000a900460ff1660ff16141561141f576000600460009054906101000a900461ffff1661ffff1610158015611081575060056000600160ff1681526020019081526020016000206000600460039054906101000a900460ff1660ff1660ff16815260200190815260200160002060000160009054906101000a900461ffff1661ffff16600460009054906101000a900461ffff1661ffff16105b156110c3576040518060400160405280600681526020017f6e6f726d616c000000000000000000000000000000000000000000000000000081525090506118da565b60056000600160ff1681526020019081526020016000206000600460039054906101000a900460ff1660ff1660ff16815260200190815260200160002060000160009054906101000a900461ffff1661ffff16600460009054906101000a900461ffff1661ffff161015801561119e575060056000600160ff1681526020019081526020016000206000600460039054906101000a900460ff1660ff1660ff16815260200190815260200160002060000160029054906101000a900461ffff1661ffff16600460009054906101000a900461ffff1661ffff16105b156111e0576040518060400160405280600481526020017f726172650000000000000000000000000000000000000000000000000000000081525090506118da565b60056000600160ff1681526020019081526020016000206000600460039054906101000a900460ff1660ff1660ff16815260200190815260200160002060000160029054906101000a900461ffff1661ffff16600460009054906101000a900461ffff1661ffff16101580156112bb575060056000600160ff1681526020019081526020016000206000600460039054906101000a900460ff1660ff1660ff16815260200190815260200160002060000160049054906101000a900461ffff1661ffff16600460009054906101000a900461ffff1661ffff16105b156112fd576040518060400160405280600681526020017f6d7974686963000000000000000000000000000000000000000000000000000081525090506118da565b60056000600160ff1681526020019081526020016000206000600460039054906101000a900460ff1660ff1660ff16815260200190815260200160002060000160049054906101000a900461ffff1661ffff16600460009054906101000a900461ffff1661ffff16101580156113d8575060056000600160ff1681526020019081526020016000206000600460039054906101000a900460ff1660ff1660ff16815260200190815260200160002060000160069054906101000a900461ffff1661ffff16600460009054906101000a900461ffff1661ffff16105b1561141a576040518060400160405280600981526020017f6c6567656e64617279000000000000000000000000000000000000000000000081525090506118da565b6118d9565b6001600460039054906101000a900460ff1660ff16148061145257506002600460039054906101000a900460ff1660ff16145b156118d85760056000600160ff16815260200190815260200160002060006001600460039054906101000a900460ff1661148c919061380e565b60ff1660ff16815260200190815260200160002060000160069054906101000a900461ffff1661ffff16600460009054906101000a900461ffff1661ffff161015801561153e575060056000600160ff1681526020019081526020016000206000600460039054906101000a900460ff1660ff1660ff16815260200190815260200160002060000160009054906101000a900461ffff1661ffff16600460009054906101000a900461ffff1661ffff16105b15611580576040518060400160405280600681526020017f6e6f726d616c000000000000000000000000000000000000000000000000000081525090506118da565b60056000600160ff1681526020019081526020016000206000600460039054906101000a900460ff1660ff1660ff16815260200190815260200160002060000160009054906101000a900461ffff1661ffff16600460009054906101000a900461ffff1661ffff161015801561165b575060056000600160ff1681526020019081526020016000206000600460039054906101000a900460ff1660ff1660ff16815260200190815260200160002060000160029054906101000a900461ffff1661ffff16600460009054906101000a900461ffff1661ffff16105b1561169d576040518060400160405280600481526020017f726172650000000000000000000000000000000000000000000000000000000081525090506118da565b60056000600160ff1681526020019081526020016000206000600460039054906101000a900460ff1660ff1660ff16815260200190815260200160002060000160029054906101000a900461ffff1661ffff16600460009054906101000a900461ffff1661ffff1610158015611778575060056000600160ff1681526020019081526020016000206000600460039054906101000a900460ff1660ff1660ff16815260200190815260200160002060000160049054906101000a900461ffff1661ffff16600460009054906101000a900461ffff1661ffff16105b156117ba576040518060400160405280600681526020017f6d7974686963000000000000000000000000000000000000000000000000000081525090506118da565b60056000600160ff1681526020019081526020016000206000600460039054906101000a900460ff1660ff1660ff16815260200190815260200160002060000160049054906101000a900461ffff1661ffff16600460009054906101000a900461ffff1661ffff1610158015611895575060056000600160ff1681526020019081526020016000206000600460039054906101000a900460ff1660ff1660ff16815260200190815260200160002060000160069054906101000a900461ffff1661ffff16600460009054906101000a900461ffff1661ffff16105b156118d7576040518060400160405280600981526020017f6c6567656e64617279000000000000000000000000000000000000000000000081525090506118da565b5b5b5b90565b80600460056101000a81548160ff021916908360ff16021790555050565b80600460066101000a81548160ff021916908360ff16021790555050565b600460069054906101000a900460ff1681565b80600460036101000a81548160ff021916908360ff16021790555050565b7f000000000000000000000000000000000000000000000000000000000000000073ffffffffffffffffffffffffffffffffffffffff163373ffffffffffffffffffffffffffffffffffffffff16146119d8576040517f08c379a00000000000000000000000000000000000000000000000000000000081526004016119cf9061365c565b60405180910390fd5b6119e28282612edf565b5050565b6005602052816000526040600020602052806000526040600020600091509150508060000160009054906101000a900461ffff16908060000160029054906101000a900461ffff16908060000160049054906101000a900461ffff16908060000160069054906101000a900461ffff16905084565b60606000600460029054906101000a900460ff1660ff161415611e99576000600460009054906101000a900461ffff1661ffff1610158015611b015750600560008060ff1681526020019081526020016000206000600460029054906101000a900460ff1660ff1660ff16815260200190815260200160002060000160009054906101000a900461ffff1661ffff16600460009054906101000a900461ffff1661ffff16105b15611b43576040518060400160405280600681526020017f6e6f726d616c0000000000000000000000000000000000000000000000000000815250905061232f565b600560008060ff1681526020019081526020016000206000600460029054906101000a900460ff1660ff1660ff16815260200190815260200160002060000160009054906101000a900461ffff1661ffff16600460009054906101000a900461ffff1661ffff1610158015611c1c5750600560008060ff1681526020019081526020016000206000600460029054906101000a900460ff1660ff1660ff16815260200190815260200160002060000160029054906101000a900461ffff1661ffff16600460009054906101000a900461ffff1661ffff16105b15611c5e576040518060400160405280600481526020017f7261726500000000000000000000000000000000000000000000000000000000815250905061232f565b600560008060ff1681526020019081526020016000206000600460029054906101000a900460ff1660ff1660ff16815260200190815260200160002060000160029054906101000a900461ffff1661ffff16600460009054906101000a900461ffff1661ffff1610158015611d375750600560008060ff1681526020019081526020016000206000600460029054906101000a900460ff1660ff1660ff16815260200190815260200160002060000160049054906101000a900461ffff1661ffff16600460009054906101000a900461ffff1661ffff16105b15611d79576040518060400160405280600681526020017f6d79746869630000000000000000000000000000000000000000000000000000815250905061232f565b600560008060ff1681526020019081526020016000206000600460029054906101000a900460ff1660ff1660ff16815260200190815260200160002060000160049054906101000a900461ffff1661ffff16600460009054906101000a900461ffff1661ffff1610158015611e525750600560008060ff1681526020019081526020016000206000600460029054906101000a900460ff1660ff1660ff16815260200190815260200160002060000160069054906101000a900461ffff1661ffff16600460009054906101000a900461ffff1661ffff16105b15611e94576040518060400160405280600981526020017f6c6567656e646172790000000000000000000000000000000000000000000000815250905061232f565b61232e565b6001600460029054906101000a900460ff1660ff16141561232d57600560008060ff16815260200190815260200160002060006001600460029054906101000a900460ff16611ee8919061380e565b60ff1660ff16815260200190815260200160002060000160069054906101000a900461ffff1661ffff16600460009054906101000a900461ffff1661ffff1610158015611f995750600560008060ff1681526020019081526020016000206000600460029054906101000a900460ff1660ff1660ff16815260200190815260200160002060000160009054906101000a900461ffff1661ffff16600460009054906101000a900461ffff1661ffff16105b15611fdb576040518060400160405280600681526020017f6e6f726d616c0000000000000000000000000000000000000000000000000000815250905061232f565b600560008060ff1681526020019081526020016000206000600460029054906101000a900460ff1660ff1660ff16815260200190815260200160002060000160009054906101000a900461ffff1661ffff16600460009054906101000a900461ffff1661ffff16101580156120b45750600560008060ff1681526020019081526020016000206000600460029054906101000a900460ff1660ff1660ff16815260200190815260200160002060000160029054906101000a900461ffff1661ffff16600460009054906101000a900461ffff1661ffff16105b156120f6576040518060400160405280600481526020017f7261726500000000000000000000000000000000000000000000000000000000815250905061232f565b600560008060ff1681526020019081526020016000206000600460029054906101000a900460ff1660ff1660ff16815260200190815260200160002060000160029054906101000a900461ffff1661ffff16600460009054906101000a900461ffff1661ffff16101580156121cf5750600560008060ff1681526020019081526020016000206000600460029054906101000a900460ff1660ff1660ff16815260200190815260200160002060000160049054906101000a900461ffff1661ffff16600460009054906101000a900461ffff1661ffff16105b15612211576040518060400160405280600681526020017f6d79746869630000000000000000000000000000000000000000000000000000815250905061232f565b600560008060ff1681526020019081526020016000206000600460029054906101000a900460ff1660ff1660ff16815260200190815260200160002060000160049054906101000a900461ffff1661ffff16600460009054906101000a900461ffff1661ffff16101580156122ea5750600560008060ff1681526020019081526020016000206000600460029054906101000a900460ff1660ff1660ff16815260200190815260200160002060000160069054906101000a900461ffff1661ffff16600460009054906101000a900461ffff1661ffff16105b1561232c576040518060400160405280600981526020017f6c6567656e646172790000000000000000000000000000000000000000000000815250905061232f565b5b5b5b90565b600460059054906101000a900460ff1681565b80600460006101000a81548161ffff021916908361ffff16021790555050565b60035481565b600460029054906101000a900460ff1681565b60606001600460059054906101000a900460ff1660ff1614156127c3576000600460009054906101000a900461ffff1661ffff1610158015612425575060056000600360ff1681526020019081526020016000206000600460059054906101000a900460ff1660ff1660ff16815260200190815260200160002060000160009054906101000a900461ffff1661ffff16600460009054906101000a900461ffff1661ffff16105b15612467576040518060400160405280600681526020017f6e6f726d616c00000000000000000000000000000000000000000000000000008152509050612c7e565b60056000600360ff1681526020019081526020016000206000600460059054906101000a900460ff1660ff1660ff16815260200190815260200160002060000160009054906101000a900461ffff1661ffff16600460009054906101000a900461ffff1661ffff1610158015612542575060056000600360ff1681526020019081526020016000206000600460059054906101000a900460ff1660ff1660ff16815260200190815260200160002060000160029054906101000a900461ffff1661ffff16600460009054906101000a900461ffff1661ffff16105b15612584576040518060400160405280600481526020017f72617265000000000000000000000000000000000000000000000000000000008152509050612c7e565b60056000600360ff1681526020019081526020016000206000600460059054906101000a900460ff1660ff1660ff16815260200190815260200160002060000160029054906101000a900461ffff1661ffff16600460009054906101000a900461ffff1661ffff161015801561265f575060056000600360ff1681526020019081526020016000206000600460059054906101000a900460ff1660ff1660ff16815260200190815260200160002060000160049054906101000a900461ffff1661ffff16600460009054906101000a900461ffff1661ffff16105b156126a1576040518060400160405280600681526020017f6d797468696300000000000000000000000000000000000000000000000000008152509050612c7e565b60056000600360ff1681526020019081526020016000206000600460059054906101000a900460ff1660ff1660ff16815260200190815260200160002060000160049054906101000a900461ffff1661ffff16600460009054906101000a900461ffff1661ffff161015801561277c575060056000600360ff1681526020019081526020016000206000600460059054906101000a900460ff1660ff1660ff16815260200190815260200160002060000160069054906101000a900461ffff1661ffff16600460009054906101000a900461ffff1661ffff16105b156127be576040518060400160405280600981526020017f6c6567656e6461727900000000000000000000000000000000000000000000008152509050612c7e565b612c7d565b6002600460059054906101000a900460ff1660ff1614806127f657506003600460059054906101000a900460ff1660ff16145b15612c7c5760056000600360ff16815260200190815260200160002060006001600460059054906101000a900460ff16612830919061380e565b60ff1660ff16815260200190815260200160002060000160069054906101000a900461ffff1661ffff16600460009054906101000a900461ffff1661ffff16101580156128e2575060056000600360ff1681526020019081526020016000206000600460059054906101000a900460ff1660ff1660ff16815260200190815260200160002060000160009054906101000a900461ffff1661ffff16600460009054906101000a900461ffff1661ffff16105b15612924576040518060400160405280600681526020017f6e6f726d616c00000000000000000000000000000000000000000000000000008152509050612c7e565b60056000600360ff1681526020019081526020016000206000600460059054906101000a900460ff1660ff1660ff16815260200190815260200160002060000160009054906101000a900461ffff1661ffff16600460009054906101000a900461ffff1661ffff16101580156129ff575060056000600360ff1681526020019081526020016000206000600460059054906101000a900460ff1660ff1660ff16815260200190815260200160002060000160029054906101000a900461ffff1661ffff16600460009054906101000a900461ffff1661ffff16105b15612a41576040518060400160405280600481526020017f72617265000000000000000000000000000000000000000000000000000000008152509050612c7e565b60056000600360ff1681526020019081526020016000206000600460059054906101000a900460ff1660ff1660ff16815260200190815260200160002060000160029054906101000a900461ffff1661ffff16600460009054906101000a900461ffff1661ffff1610158015612b1c575060056000600360ff1681526020019081526020016000206000600460059054906101000a900460ff1660ff1660ff16815260200190815260200160002060000160049054906101000a900461ffff1661ffff16600460009054906101000a900461ffff1661ffff16105b15612b5e576040518060400160405280600681526020017f6d797468696300000000000000000000000000000000000000000000000000008152509050612c7e565b60056000600360ff1681526020019081526020016000206000600460059054906101000a900460ff1660ff1660ff16815260200190815260200160002060000160049054906101000a900461ffff1661ffff16600460009054906101000a900461ffff1661ffff1610158015612c39575060056000600360ff1681526020019081526020016000206000600460059054906101000a900460ff1660ff1660ff16815260200190815260200160002060000160069054906101000a900461ffff1661ffff16600460009054906101000a900461ffff1661ffff16105b15612c7b576040518060400160405280600981526020017f6c6567656e6461727900000000000000000000000000000000000000000000008152509050612c7e565b5b5b5b90565b600460009054906101000a900461ffff1681565b80600460026101000a81548160ff021916908360ff16021790555050565b60006002547f000000000000000000000000000000000000000000000000000000000000000073ffffffffffffffffffffffffffffffffffffffff166370a08231306040518263ffffffff1660e01b8152600401612d119190613518565b60206040518083038186803b158015612d2957600080fd5b505afa158015612d3d573d6000803e3d6000fd5b505050506040513d601f19601f82011682018060405250810190612d61919061330a565b1015612da2576040517f08c379a0000000000000000000000000000000000000000000000000000000008152600401612d999061361c565b60405180910390fd5b612db0600154600254612ff2565b905090565b600460079054906101000a900473ffffffffffffffffffffffffffffffffffffffff1673ffffffffffffffffffffffffffffffffffffffff163373ffffffffffffffffffffffffffffffffffffffff1614612e45576040517f08c379a0000000000000000000000000000000000000000000000000000000008152600401612e3c9061363c565b60405180910390fd5b80600460076101000a81548173ffffffffffffffffffffffffffffffffffffffff021916908373ffffffffffffffffffffffffffffffffffffffff16021790555050565b600460039054906101000a900460ff1681565b600460079054906101000a900473ffffffffffffffffffffffffffffffffffffffff1681565b806004806101000a81548160ff021916908360ff16021790555050565b6402540be40081612ef091906138f6565b60038190555061271081612f0491906138f6565b600460006101000a81548161ffff021916908361ffff160217905550600281612f2d91906138f6565b600460026101000a81548160ff021916908360ff160217905550600381612f5491906138f6565b600460036101000a81548160ff021916908360ff160217905550600481612f7b91906138f6565b6004806101000a81548160ff021916908360ff1602179055506001600382612fa391906138f6565b612fad91906137d7565b600460056101000a81548160ff021916908360ff160217905550606481612fd491906138f6565b600460066101000a81548160ff021916908360ff1602179055505050565b60007f000000000000000000000000000000000000000000000000000000000000000073ffffffffffffffffffffffffffffffffffffffff16634000aea07f00000000000000000000000000000000000000000000000000000000000000008486600060405160200161306692919061358c565b6040516020818303038152906040526040518463ffffffff1660e01b815260040161309393929190613533565b602060405180830381600087803b1580156130ad57600080fd5b505af11580156130c1573d6000803e3d6000fd5b505050506040513d601f19601f820116820180604052508101906130e5919061327c565b5060006131078460003060008089815260200190815260200160002054613151565b90506001600080868152602001908152602001600020546131289190613781565b60008086815260200190815260200160002081905550613148848261318d565b91505092915050565b60008484848460405160200161316a94939291906135b5565b6040516020818303038152906040528051906020012060001c9050949350505050565b600082826040516020016131a29291906134ec565b60405160208183030381529060405280519060200120905092915050565b6000813590506131cf81613a37565b92915050565b6000815190506131e481613a4e565b92915050565b6000813590506131f981613a65565b92915050565b60008135905061320e81613a7c565b92915050565b60008135905061322381613a93565b92915050565b60008151905061323881613a93565b92915050565b60008135905061324d81613aaa565b92915050565b60006020828403121561326557600080fd5b6000613273848285016131c0565b91505092915050565b60006020828403121561328e57600080fd5b600061329c848285016131d5565b91505092915050565b600080604083850312156132b857600080fd5b60006132c6858286016131ea565b92505060206132d785828601613214565b9150509250929050565b6000602082840312156132f357600080fd5b6000613301848285016131ff565b91505092915050565b60006020828403121561331c57600080fd5b600061332a84828501613229565b91505092915050565b60006020828403121561334557600080fd5b60006133538482850161323e565b91505092915050565b6000806040838503121561336f57600080fd5b600061337d8582860161323e565b925050602061338e8582860161323e565b9150509250929050565b6133a181613842565b82525050565b6133b081613860565b82525050565b6133c76133c282613860565b6138e2565b82525050565b60006133d882613749565b6133e2818561375f565b93506133f28185602086016138af565b6133fb81613985565b840191505092915050565b600061341182613754565b61341b8185613770565b935061342b8185602086016138af565b61343481613985565b840191505092915050565b600061344c602b83613770565b915061345782613996565b604082019050919050565b600061346f601a83613770565b915061347a826139e5565b602082019050919050565b6000613492601f83613770565b915061349d82613a0e565b602082019050919050565b6134b18161386a565b82525050565b6134c081613898565b82525050565b6134d76134d282613898565b6138ec565b82525050565b6134e6816138a2565b82525050565b60006134f882856133b6565b60208201915061350882846134c6565b6020820191508190509392505050565b600060208201905061352d6000830184613398565b92915050565b60006060820190506135486000830186613398565b61355560208301856134b7565b818103604083015261356781846133cd565b9050949350505050565b600060208201905061358660008301846133a7565b92915050565b60006040820190506135a160008301856133a7565b6135ae60208301846134b7565b9392505050565b60006080820190506135ca60008301876133a7565b6135d760208301866134b7565b6135e46040830185613398565b6135f160608301846134b7565b95945050505050565b600060208201905081810360008301526136148184613406565b905092915050565b600060208201905081810360008301526136358161343f565b9050919050565b6000602082019050818103600083015261365581613462565b9050919050565b6000602082019050818103600083015261367581613485565b9050919050565b600060208201905061369160008301846134a8565b92915050565b60006080820190506136ac60008301876134a8565b6136b960208301866134a8565b6136c660408301856134a8565b6136d360608301846134a8565b95945050505050565b60006020820190506136f160008301846134b7565b92915050565b600060208201905061370c60008301846134dd565b92915050565b600060608201905061372760008301866134dd565b61373460208301856134dd565b61374160408301846134dd565b949350505050565b600081519050919050565b600081519050919050565b600082825260208201905092915050565b600082825260208201905092915050565b600061378c82613898565b915061379783613898565b9250827fffffffffffffffffffffffffffffffffffffffffffffffffffffffffffffffff038211156137cc576137cb613927565b5b828201905092915050565b60006137e2826138a2565b91506137ed836138a2565b92508260ff0382111561380357613802613927565b5b828201905092915050565b6000613819826138a2565b9150613824836138a2565b92508282101561383757613836613927565b5b828203905092915050565b600061384d82613878565b9050919050565b60008115159050919050565b6000819050919050565b600061ffff82169050919050565b600073ffffffffffffffffffffffffffffffffffffffff82169050919050565b6000819050919050565b600060ff82169050919050565b60005b838110156138cd5780820151818401526020810190506138b2565b838111156138dc576000848401525b50505050565b6000819050919050565b6000819050919050565b600061390182613898565b915061390c83613898565b92508261391c5761391b613956565b5b828206905092915050565b7f4e487b7100000000000000000000000000000000000000000000000000000000600052601160045260246000fd5b7f4e487b7100000000000000000000000000000000000000000000000000000000600052601260045260246000fd5b6000601f19601f8301169050919050565b7f4e6f7420656e6f756768204c494e4b202d2066696c6c20636f6e74726163742060008201527f7769746820666175636574000000000000000000000000000000000000000000602082015250565b7f4f6e6c792061646d696e2063616e206163636573732074686973000000000000600082015250565b7f4f6e6c7920565246436f6f7264696e61746f722063616e2066756c66696c6c00600082015250565b613a4081613842565b8114613a4b57600080fd5b50565b613a5781613854565b8114613a6257600080fd5b50565b613a6e81613860565b8114613a7957600080fd5b50565b613a858161386a565b8114613a9057600080fd5b50565b613a9c81613898565b8114613aa757600080fd5b50565b613ab3816138a2565b8114613abe57600080fd5b5056fea264697066735822122005cac4a545f33ad71b255c0819d1b857f3730656ba836aedbef513cea16db2be64736f6c63430008040033",
  "immutableReferences": {
    "11527": [
      {
        "length": 32,
        "start": 11450
      },
      {
        "length": 32,
        "start": 12278
      }
    ],
    "11529": [
      {
        "length": 32,
        "start": 6476
      },
      {
        "length": 32,
        "start": 12338
      }
    ]
  },
  "source": "// SPDX-License-Identifier: MIT\r\npragma solidity ^0.8.0;\r\n\r\nimport \"@chainlink/contracts/src/v0.8/VRFConsumerBase.sol\";\r\n\r\n/**\r\n * THIS IS AN EXAMPLE CONTRACT WHICH USES HARDCODED VALUES FOR CLARITY.\r\n * PLEASE DO NOT USE THIS CODE IN PRODUCTION.\r\n */\r\n\r\n/**\r\n * Request testnet LINK and ETH here: https://faucets.chain.link/\r\n * Find information on LINK Token Contracts and get the latest ETH and LINK faucets here: https://docs.chain.link/docs/link-token-contracts/\r\n */\r\n\r\ncontract TestRandomNumberConsumer is VRFConsumerBase {\r\n    bytes32 internal keyHash;\r\n    uint256 internal fee;\r\n\r\n    uint256 public randomTokenId;\r\n    uint16 public skinProbability;\r\n    uint8 public commonBoxHeroProbability;\r\n    uint8 public rareBoxHeroProbability;\r\n    uint8 public epicBoxHeroProbability;\r\n    uint8 public legendaryBoxHeroProbability;\r\n    uint8 public weaponBoxRarityDrop;\r\n\r\n    address public admin;\r\n\r\n    struct Skins {\r\n        uint16 normal;\r\n        uint16 rare;\r\n        uint16 mythic;\r\n        uint16 legendary;\r\n    }\r\n\r\n    struct Weapon {\r\n        uint8 rare;\r\n        uint8 epic;\r\n        uint8 legendary;\r\n    }\r\n\r\n    //      box              hero     skin\r\n    mapping(uint8 => mapping(uint8 => Skins)) public boxProbabilityDistribution;\r\n\r\n    mapping(uint8 => Weapon) public weaponProbabilityDistribution;\r\n\r\n    /**\r\n     * Constructor inherits VRFConsumerBase\r\n     *\r\n     * Network: Kovan\r\n     * Chainlink VRF Coordinator address: 0xdD3782915140c8f3b190B5D67eAc6dc5760C46E9\r\n     * LINK token address:                0xa36085F69e2889c224210F603D836748e7dC0088\r\n     * Key Hash: 0x6c3699283bda56ad74f6b855546325b68d482e983852a7a82979cc4807b641f4\r\n     *\r\n     * Network: BSC testnet\r\n     * Chainlink VRF Coordinator address: 0xa555fC018435bef5A13C6c6870a9d4C11DEC329C\r\n     * LINK token address:                0x84b9B910527Ad5C03A9Ca831909E21e236EA7b06\r\n     * Key Hash: 0xcaf3c3727e033261d383b315559476f48034c13b18f8cafed4d871abe5049186\r\n     *\r\n     * Links\r\n     * https://docs.chain.link/docs/get-a-random-number/v1/\r\n     * https://docs.chain.link/docs/vrf-contracts/v1/\r\n     */\r\n    constructor()\r\n        VRFConsumerBase(\r\n            0xa555fC018435bef5A13C6c6870a9d4C11DEC329C, // VRF Coordinator\r\n            0x84b9B910527Ad5C03A9Ca831909E21e236EA7b06 // LINK Token\r\n        )\r\n    {\r\n        keyHash = 0xcaf3c3727e033261d383b315559476f48034c13b18f8cafed4d871abe5049186;\r\n        fee = 0.1 * 10**18; // 0.1 LINK (Varies by network)\r\n        admin = msg.sender;\r\n\r\n        ///@note common box probability range\r\n        //common hero\r\n        //[0][0] => common box and common hero\r\n        boxProbabilityDistribution[0][0].normal = 3995;\r\n        boxProbabilityDistribution[0][0].rare =\r\n            2850 +\r\n            boxProbabilityDistribution[0][0].normal;\r\n        boxProbabilityDistribution[0][0].mythic =\r\n            1595 +\r\n            boxProbabilityDistribution[0][0].rare;\r\n        boxProbabilityDistribution[0][0].legendary =\r\n            870 +\r\n            boxProbabilityDistribution[0][0].mythic;\r\n\r\n        //rare hero\r\n        //[0][1] => common box and rare hero\r\n        boxProbabilityDistribution[0][1].normal =\r\n            365 +\r\n            boxProbabilityDistribution[0][0].legendary;\r\n        boxProbabilityDistribution[0][1].rare =\r\n            175 +\r\n            boxProbabilityDistribution[0][1].normal;\r\n        boxProbabilityDistribution[0][1].mythic =\r\n            100 +\r\n            boxProbabilityDistribution[0][1].rare;\r\n        boxProbabilityDistribution[0][1].legendary =\r\n            50 +\r\n            boxProbabilityDistribution[0][1].mythic;\r\n\r\n        ///@note rare box probability range\r\n        //common hero\r\n        //[1][0] => rare box and common hero\r\n        boxProbabilityDistribution[1][0].normal = 435;\r\n        boxProbabilityDistribution[1][0].rare =\r\n            270 +\r\n            boxProbabilityDistribution[1][0].normal;\r\n        boxProbabilityDistribution[1][0].mythic =\r\n            200 +\r\n            boxProbabilityDistribution[1][0].rare;\r\n        boxProbabilityDistribution[1][0].legendary =\r\n            100 +\r\n            boxProbabilityDistribution[1][0].mythic;\r\n\r\n        //rare hero\r\n        //[1][1] => rare box and rare hero\r\n        boxProbabilityDistribution[1][1].normal =\r\n            3445 +\r\n            boxProbabilityDistribution[1][0].legendary;\r\n        boxProbabilityDistribution[1][1].rare =\r\n            2515 +\r\n            boxProbabilityDistribution[1][1].normal;\r\n        boxProbabilityDistribution[1][1].mythic =\r\n            1850 +\r\n            boxProbabilityDistribution[1][1].rare;\r\n        boxProbabilityDistribution[1][1].legendary =\r\n            1100 +\r\n            boxProbabilityDistribution[1][1].mythic;\r\n\r\n        //epic hero\r\n        //[1][2] => rare box and epic hero\r\n        boxProbabilityDistribution[1][2].normal =\r\n            50 +\r\n            boxProbabilityDistribution[1][1].legendary;\r\n        boxProbabilityDistribution[1][2].rare =\r\n            20 +\r\n            boxProbabilityDistribution[1][2].normal;\r\n        boxProbabilityDistribution[1][2].mythic =\r\n            10 +\r\n            boxProbabilityDistribution[1][2].rare;\r\n        boxProbabilityDistribution[1][2].legendary =\r\n            5 +\r\n            boxProbabilityDistribution[1][2].mythic;\r\n\r\n        ///@note epic box probability range\r\n        //common hero\r\n        //[2][0] => epic box and common hero\r\n        boxProbabilityDistribution[2][0].normal = 15;\r\n        boxProbabilityDistribution[2][0].rare =\r\n            25 +\r\n            boxProbabilityDistribution[2][0].normal;\r\n        boxProbabilityDistribution[2][0].mythic =\r\n            200 +\r\n            boxProbabilityDistribution[2][0].rare;\r\n        boxProbabilityDistribution[2][0].legendary =\r\n            265 +\r\n            boxProbabilityDistribution[2][0].mythic;\r\n\r\n        //rare hero\r\n        //[2][1] => epic box and rare hero\r\n        boxProbabilityDistribution[2][1].normal =\r\n            515 +\r\n            boxProbabilityDistribution[2][0].legendary;\r\n        boxProbabilityDistribution[2][1].rare =\r\n            215 +\r\n            boxProbabilityDistribution[2][1].normal;\r\n        boxProbabilityDistribution[2][1].mythic =\r\n            125 +\r\n            boxProbabilityDistribution[2][1].rare;\r\n        boxProbabilityDistribution[2][1].legendary =\r\n            85 +\r\n            boxProbabilityDistribution[2][1].mythic;\r\n\r\n        //epic hero\r\n        //[2][2] => epic box and epic hero\r\n        boxProbabilityDistribution[2][2].normal =\r\n            3295 +\r\n            boxProbabilityDistribution[2][1].legendary;\r\n        boxProbabilityDistribution[2][2].rare =\r\n            2350 +\r\n            boxProbabilityDistribution[2][2].normal;\r\n        boxProbabilityDistribution[2][2].mythic =\r\n            1505 +\r\n            boxProbabilityDistribution[2][2].rare;\r\n        boxProbabilityDistribution[2][2].legendary =\r\n            965 +\r\n            boxProbabilityDistribution[2][2].mythic;\r\n\r\n        //legendary hero\r\n        //[2][3] => epic box and legendary hero\r\n        boxProbabilityDistribution[2][3].normal =\r\n            225 +\r\n            boxProbabilityDistribution[2][2].legendary;\r\n        boxProbabilityDistribution[2][3].rare =\r\n            175 +\r\n            boxProbabilityDistribution[2][3].normal;\r\n        boxProbabilityDistribution[2][3].mythic =\r\n            35 +\r\n            boxProbabilityDistribution[2][3].rare;\r\n        boxProbabilityDistribution[2][3].legendary =\r\n            5 +\r\n            boxProbabilityDistribution[2][3].mythic;\r\n\r\n        ///@note legendary box probability range\r\n        //rare hero\r\n        //[3][1] => legendary box and rare hero\r\n        boxProbabilityDistribution[3][1].normal = 55;\r\n        boxProbabilityDistribution[3][1].rare =\r\n            85 +\r\n            boxProbabilityDistribution[3][1].normal;\r\n        boxProbabilityDistribution[3][1].mythic =\r\n            125 +\r\n            boxProbabilityDistribution[3][1].rare;\r\n        boxProbabilityDistribution[3][1].legendary =\r\n            175 +\r\n            boxProbabilityDistribution[3][1].mythic;\r\n\r\n        //epic hero\r\n        //[3][2] => legendary box and epic hero\r\n        boxProbabilityDistribution[3][2].normal =\r\n            235 +\r\n            boxProbabilityDistribution[3][1].legendary;\r\n        boxProbabilityDistribution[3][2].rare =\r\n            365 +\r\n            boxProbabilityDistribution[3][2].normal;\r\n        boxProbabilityDistribution[3][2].mythic =\r\n            595 +\r\n            boxProbabilityDistribution[3][2].rare;\r\n        boxProbabilityDistribution[3][2].legendary =\r\n            825 +\r\n            boxProbabilityDistribution[3][2].mythic;\r\n\r\n        //legendary hero\r\n        //[3][3] => legendary box and legendary hero\r\n        boxProbabilityDistribution[3][3].normal =\r\n            3295 +\r\n            boxProbabilityDistribution[3][2].legendary;\r\n        boxProbabilityDistribution[3][3].rare =\r\n            2215 +\r\n            boxProbabilityDistribution[3][3].normal;\r\n        boxProbabilityDistribution[3][3].mythic =\r\n            1675 +\r\n            boxProbabilityDistribution[3][3].rare;\r\n        boxProbabilityDistribution[3][3].legendary =\r\n            355 +\r\n            boxProbabilityDistribution[3][3].mythic;\r\n\r\n        ///@note weapon box probability range\r\n        weaponProbabilityDistribution[4].rare = 78;\r\n        weaponProbabilityDistribution[4].epic =\r\n            20 +\r\n            weaponProbabilityDistribution[4].rare;\r\n        weaponProbabilityDistribution[4].legendary =\r\n            2 +\r\n            weaponProbabilityDistribution[4].epic;\r\n    }\r\n\r\n    modifier onlyAdmin() {\r\n        require(msg.sender == admin, \"Only admin can access this\");\r\n        _;\r\n    }\r\n\r\n    function updateAdmin(address _admin) public onlyAdmin {\r\n        admin = _admin;\r\n    }\r\n\r\n    /**\r\n     * Requests randomness\r\n     */\r\n    function getRandomNumber() public returns (bytes32 requestId) {\r\n        require(\r\n            LINK.balanceOf(address(this)) >= fee,\r\n            \"Not enough LINK - fill contract with faucet\"\r\n        );\r\n        return requestRandomness(keyHash, fee);\r\n    }\r\n\r\n    /**\r\n     * Callback function used by VRF Coordinator\r\n     */\r\n    function fulfillRandomness(bytes32 requestId, uint256 randomness)\r\n        internal\r\n        override\r\n    {\r\n        randomTokenId = (randomness % 10000000000);\r\n        skinProbability = uint16(randomness % 10000);\r\n        commonBoxHeroProbability = uint8(randomness % 2);\r\n        rareBoxHeroProbability = uint8(randomness % 3);\r\n        epicBoxHeroProbability = uint8(randomness % 4);\r\n        legendaryBoxHeroProbability = uint8(randomness % 3) + 1;\r\n        weaponBoxRarityDrop = uint8(randomness % 100);\r\n        // randomResult = (randomness%1000);\r\n        // randomResult\r\n        // 0: uint256: 873\r\n        // 0x58dc868A54D09e8E15e6352e331682a817e1f0B3 kovan network (%1000)\r\n        // 0x6f0eBEd8C6c6e09eEaE9f01A5C7a62c16aF5f552 BSC testnet (%1000)\r\n        // probability\r\n        // 0: uint8: 44\r\n        // randomTokenId\r\n        // 0: uint256: 7638892244\r\n        // 0x47D2EA3828633F28048a7dBC179D78C38A0d6a20 BSC testnet (probability and randomTokenId)\r\n    }\r\n\r\n    // function withdrawLink() external {} - Implement a withdraw function to avoid locking your LINK in the contract\r\n\r\n    function getCommonBoxSkin() public view returns (string memory) {\r\n        if (commonBoxHeroProbability == 0) {\r\n            if (\r\n                skinProbability >= 0 &&\r\n                skinProbability <\r\n                boxProbabilityDistribution[0][commonBoxHeroProbability].normal\r\n            ) {\r\n                return \"normal\";\r\n            } else if (\r\n                skinProbability >=\r\n                boxProbabilityDistribution[0][commonBoxHeroProbability]\r\n                    .normal &&\r\n                skinProbability <\r\n                boxProbabilityDistribution[0][commonBoxHeroProbability].rare\r\n            ) {\r\n                return \"rare\";\r\n            } else if (\r\n                skinProbability >=\r\n                boxProbabilityDistribution[0][commonBoxHeroProbability].rare &&\r\n                skinProbability <\r\n                boxProbabilityDistribution[0][commonBoxHeroProbability].mythic\r\n            ) {\r\n                return \"mythic\";\r\n            } else if (\r\n                skinProbability >=\r\n                boxProbabilityDistribution[0][commonBoxHeroProbability]\r\n                    .mythic &&\r\n                skinProbability <\r\n                boxProbabilityDistribution[0][commonBoxHeroProbability]\r\n                    .legendary\r\n            ) {\r\n                return \"legendary\";\r\n            }\r\n        } else if (commonBoxHeroProbability == 1) {\r\n            if (\r\n                skinProbability >=\r\n                boxProbabilityDistribution[0][commonBoxHeroProbability - 1]\r\n                    .legendary &&\r\n                skinProbability <\r\n                boxProbabilityDistribution[0][commonBoxHeroProbability].normal\r\n            ) {\r\n                return \"normal\";\r\n            } else if (\r\n                skinProbability >=\r\n                boxProbabilityDistribution[0][commonBoxHeroProbability]\r\n                    .normal &&\r\n                skinProbability <\r\n                boxProbabilityDistribution[0][commonBoxHeroProbability].rare\r\n            ) {\r\n                return \"rare\";\r\n            } else if (\r\n                skinProbability >=\r\n                boxProbabilityDistribution[0][commonBoxHeroProbability].rare &&\r\n                skinProbability <\r\n                boxProbabilityDistribution[0][commonBoxHeroProbability].mythic\r\n            ) {\r\n                return \"mythic\";\r\n            } else if (\r\n                skinProbability >=\r\n                boxProbabilityDistribution[0][commonBoxHeroProbability]\r\n                    .mythic &&\r\n                skinProbability <\r\n                boxProbabilityDistribution[0][commonBoxHeroProbability]\r\n                    .legendary\r\n            ) {\r\n                return \"legendary\";\r\n            }\r\n        }\r\n    }\r\n\r\n    function getRareBoxSkin() public view returns (string memory) {\r\n        if (rareBoxHeroProbability == 0) {\r\n            if (\r\n                skinProbability >= 0 &&\r\n                skinProbability <\r\n                boxProbabilityDistribution[1][rareBoxHeroProbability].normal\r\n            ) {\r\n                return \"normal\";\r\n            } else if (\r\n                skinProbability >=\r\n                boxProbabilityDistribution[1][rareBoxHeroProbability].normal &&\r\n                skinProbability <\r\n                boxProbabilityDistribution[1][rareBoxHeroProbability].rare\r\n            ) {\r\n                return \"rare\";\r\n            } else if (\r\n                skinProbability >=\r\n                boxProbabilityDistribution[1][rareBoxHeroProbability].rare &&\r\n                skinProbability <\r\n                boxProbabilityDistribution[1][rareBoxHeroProbability].mythic\r\n            ) {\r\n                return \"mythic\";\r\n            } else if (\r\n                skinProbability >=\r\n                boxProbabilityDistribution[1][rareBoxHeroProbability].mythic &&\r\n                skinProbability <\r\n                boxProbabilityDistribution[1][rareBoxHeroProbability].legendary\r\n            ) {\r\n                return \"legendary\";\r\n            }\r\n        } else if (rareBoxHeroProbability == 1 || rareBoxHeroProbability == 2) {\r\n            if (\r\n                skinProbability >=\r\n                boxProbabilityDistribution[1][rareBoxHeroProbability - 1]\r\n                    .legendary &&\r\n                skinProbability <\r\n                boxProbabilityDistribution[1][rareBoxHeroProbability].normal\r\n            ) {\r\n                return \"normal\";\r\n            } else if (\r\n                skinProbability >=\r\n                boxProbabilityDistribution[1][rareBoxHeroProbability].normal &&\r\n                skinProbability <\r\n                boxProbabilityDistribution[1][rareBoxHeroProbability].rare\r\n            ) {\r\n                return \"rare\";\r\n            } else if (\r\n                skinProbability >=\r\n                boxProbabilityDistribution[1][rareBoxHeroProbability].rare &&\r\n                skinProbability <\r\n                boxProbabilityDistribution[1][rareBoxHeroProbability].mythic\r\n            ) {\r\n                return \"mythic\";\r\n            } else if (\r\n                skinProbability >=\r\n                boxProbabilityDistribution[1][rareBoxHeroProbability].mythic &&\r\n                skinProbability <\r\n                boxProbabilityDistribution[1][rareBoxHeroProbability].legendary\r\n            ) {\r\n                return \"legendary\";\r\n            }\r\n        }\r\n    }\r\n\r\n    function getEpicBoxSkin() public view returns (string memory) {\r\n        if (epicBoxHeroProbability == 0) {\r\n            if (\r\n                skinProbability >= 0 &&\r\n                skinProbability <\r\n                boxProbabilityDistribution[2][epicBoxHeroProbability].normal\r\n            ) {\r\n                return \"normal\";\r\n            } else if (\r\n                skinProbability >=\r\n                boxProbabilityDistribution[2][epicBoxHeroProbability].normal &&\r\n                skinProbability <\r\n                boxProbabilityDistribution[2][epicBoxHeroProbability].rare\r\n            ) {\r\n                return \"rare\";\r\n            } else if (\r\n                skinProbability >=\r\n                boxProbabilityDistribution[2][epicBoxHeroProbability].rare &&\r\n                skinProbability <\r\n                boxProbabilityDistribution[2][epicBoxHeroProbability].mythic\r\n            ) {\r\n                return \"mythic\";\r\n            } else if (\r\n                skinProbability >=\r\n                boxProbabilityDistribution[2][epicBoxHeroProbability].mythic &&\r\n                skinProbability <\r\n                boxProbabilityDistribution[2][epicBoxHeroProbability].legendary\r\n            ) {\r\n                return \"legendary\";\r\n            }\r\n        } else if (\r\n            epicBoxHeroProbability == 1 ||\r\n            epicBoxHeroProbability == 2 ||\r\n            epicBoxHeroProbability == 3\r\n        ) {\r\n            if (\r\n                skinProbability >=\r\n                boxProbabilityDistribution[2][epicBoxHeroProbability - 1]\r\n                    .legendary &&\r\n                skinProbability <\r\n                boxProbabilityDistribution[2][epicBoxHeroProbability].normal\r\n            ) {\r\n                return \"normal\";\r\n            } else if (\r\n                skinProbability >=\r\n                boxProbabilityDistribution[2][epicBoxHeroProbability].normal &&\r\n                skinProbability <\r\n                boxProbabilityDistribution[2][epicBoxHeroProbability].rare\r\n            ) {\r\n                return \"rare\";\r\n            } else if (\r\n                skinProbability >=\r\n                boxProbabilityDistribution[2][epicBoxHeroProbability].rare &&\r\n                skinProbability <\r\n                boxProbabilityDistribution[2][epicBoxHeroProbability].mythic\r\n            ) {\r\n                return \"mythic\";\r\n            } else if (\r\n                skinProbability >=\r\n                boxProbabilityDistribution[2][epicBoxHeroProbability].mythic &&\r\n                skinProbability <\r\n                boxProbabilityDistribution[2][epicBoxHeroProbability].legendary\r\n            ) {\r\n                return \"legendary\";\r\n            }\r\n        }\r\n    }\r\n\r\n    function getLegendaryBoxSkin() public view returns (string memory) {\r\n        if (legendaryBoxHeroProbability == 1) {\r\n            if (\r\n                skinProbability >= 0 &&\r\n                skinProbability <\r\n                boxProbabilityDistribution[3][legendaryBoxHeroProbability]\r\n                    .normal\r\n            ) {\r\n                return \"normal\";\r\n            } else if (\r\n                skinProbability >=\r\n                boxProbabilityDistribution[3][legendaryBoxHeroProbability]\r\n                    .normal &&\r\n                skinProbability <\r\n                boxProbabilityDistribution[3][legendaryBoxHeroProbability].rare\r\n            ) {\r\n                return \"rare\";\r\n            } else if (\r\n                skinProbability >=\r\n                boxProbabilityDistribution[3][legendaryBoxHeroProbability]\r\n                    .rare &&\r\n                skinProbability <\r\n                boxProbabilityDistribution[3][legendaryBoxHeroProbability]\r\n                    .mythic\r\n            ) {\r\n                return \"mythic\";\r\n            } else if (\r\n                skinProbability >=\r\n                boxProbabilityDistribution[3][legendaryBoxHeroProbability]\r\n                    .mythic &&\r\n                skinProbability <\r\n                boxProbabilityDistribution[3][legendaryBoxHeroProbability]\r\n                    .legendary\r\n            ) {\r\n                return \"legendary\";\r\n            }\r\n        } else if (\r\n            legendaryBoxHeroProbability == 2 || legendaryBoxHeroProbability == 3\r\n        ) {\r\n            if (\r\n                skinProbability >=\r\n                boxProbabilityDistribution[3][legendaryBoxHeroProbability - 1]\r\n                    .legendary &&\r\n                skinProbability <\r\n                boxProbabilityDistribution[3][legendaryBoxHeroProbability]\r\n                    .normal\r\n            ) {\r\n                return \"normal\";\r\n            } else if (\r\n                skinProbability >=\r\n                boxProbabilityDistribution[3][legendaryBoxHeroProbability]\r\n                    .normal &&\r\n                skinProbability <\r\n                boxProbabilityDistribution[3][legendaryBoxHeroProbability].rare\r\n            ) {\r\n                return \"rare\";\r\n            } else if (\r\n                skinProbability >=\r\n                boxProbabilityDistribution[3][legendaryBoxHeroProbability]\r\n                    .rare &&\r\n                skinProbability <\r\n                boxProbabilityDistribution[3][legendaryBoxHeroProbability]\r\n                    .mythic\r\n            ) {\r\n                return \"mythic\";\r\n            } else if (\r\n                skinProbability >=\r\n                boxProbabilityDistribution[3][legendaryBoxHeroProbability]\r\n                    .mythic &&\r\n                skinProbability <\r\n                boxProbabilityDistribution[3][legendaryBoxHeroProbability]\r\n                    .legendary\r\n            ) {\r\n                return \"legendary\";\r\n            }\r\n        }\r\n    }\r\n\r\n    function getWeaponBoxRarityDrop() public view returns (string memory) {\r\n        if (\r\n            weaponBoxRarityDrop >= 0 &&\r\n            weaponBoxRarityDrop < weaponProbabilityDistribution[4].rare\r\n        ) {\r\n            return \"rare\";\r\n        } else if (\r\n            weaponBoxRarityDrop >= weaponProbabilityDistribution[4].rare &&\r\n            weaponBoxRarityDrop < weaponProbabilityDistribution[4].epic\r\n        ) {\r\n            return \"epic\";\r\n        } else if (\r\n            weaponBoxRarityDrop >= weaponProbabilityDistribution[4].epic &&\r\n            weaponBoxRarityDrop < weaponProbabilityDistribution[4].legendary\r\n        ) {\r\n            return \"legendary\";\r\n        }\r\n    }\r\n\r\n    function setCommonBoxHeroProbability(uint8 _commonBoxHeroProbability)\r\n        public\r\n    {\r\n        commonBoxHeroProbability = _commonBoxHeroProbability;\r\n    }\r\n\r\n    function setRareBoxHeroProbability(uint8 _rareBoxHeroProbability) public {\r\n        rareBoxHeroProbability = _rareBoxHeroProbability;\r\n    }\r\n\r\n    function setEpicBoxHeroProbability(uint8 _epicBoxHeroProbability) public {\r\n        epicBoxHeroProbability = _epicBoxHeroProbability;\r\n    }\r\n\r\n    function setLegendaryBoxHeroProbability(uint8 _legendaryBoxHeroProbability)\r\n        public\r\n    {\r\n        legendaryBoxHeroProbability = _legendaryBoxHeroProbability;\r\n    }\r\n\r\n    function setWeaponBoxRarityDrop(uint8 _weaponBoxRarityDrop) public {\r\n        weaponBoxRarityDrop = _weaponBoxRarityDrop;\r\n    }\r\n\r\n    function setSkinProbability(uint16 _skinProbability) public {\r\n        skinProbability = _skinProbability;\r\n    }\r\n}\r\n",
  "sourcePath": "D:/Desktop/immense/crypto/defi application/test (NFT marketplace)/NFT game/src/contracts/testChainLink.sol",
  "compiler": {
    "name": "solc",
    "version": "0.8.4+commit.c7e474f2.Emscripten.clang"
  },
  "schemaVersion": "3.2.3",
  "updatedAt": "2022-05-24T11:08:26.150Z",
  "devdoc": {
    "kind": "dev",
    "methods": {},
    "version": 1
  },
  "userdoc": {
    "kind": "user",
    "methods": {
      "constructor": {
        "notice": "Constructor inherits VRFConsumerBase Network: Kovan Chainlink VRF Coordinator address: 0xdD3782915140c8f3b190B5D67eAc6dc5760C46E9 LINK token address:                0xa36085F69e2889c224210F603D836748e7dC0088 Key Hash: 0x6c3699283bda56ad74f6b855546325b68d482e983852a7a82979cc4807b641f4 Network: BSC testnet Chainlink VRF Coordinator address: 0xa555fC018435bef5A13C6c6870a9d4C11DEC329C LINK token address:                0x84b9B910527Ad5C03A9Ca831909E21e236EA7b06 Key Hash: 0xcaf3c3727e033261d383b315559476f48034c13b18f8cafed4d871abe5049186 Links https://docs.chain.link/docs/get-a-random-number/v1/ https://docs.chain.link/docs/vrf-contracts/v1/"
      },
      "getRandomNumber()": {
        "notice": "Requests randomness"
      }
    },
    "notice": "Request testnet LINK and ETH here: https://faucets.chain.link/ Find information on LINK Token Contracts and get the latest ETH and LINK faucets here: https://docs.chain.link/docs/link-token-contracts/",
    "version": 1
  }
}