{
  "contractName": "TestRandomNumberConsumer1",
  "abi": [
    {
      "inputs": [],
      "stateMutability": "nonpayable",
      "type": "constructor"
    },
    {
      "inputs": [],
      "name": "admin",
      "outputs": [
        {
          "internalType": "address",
          "name": "",
          "type": "address"
        }
      ],
      "stateMutability": "view",
      "type": "function"
    },
    {
      "inputs": [],
      "name": "commonBoxCommonHeroSkinRarity",
      "outputs": [
        {
          "internalType": "uint16",
          "name": "",
          "type": "uint16"
        }
      ],
      "stateMutability": "view",
      "type": "function"
    },
    {
      "inputs": [],
      "name": "commonBoxHeroProbability",
      "outputs": [
        {
          "internalType": "uint8",
          "name": "",
          "type": "uint8"
        }
      ],
      "stateMutability": "view",
      "type": "function"
    },
    {
      "inputs": [],
      "name": "commonBoxRareHeroSkinRarity",
      "outputs": [
        {
          "internalType": "uint16",
          "name": "",
          "type": "uint16"
        }
      ],
      "stateMutability": "view",
      "type": "function"
    },
    {
      "inputs": [],
      "name": "epicBoxCommonHeroSkinRarity",
      "outputs": [
        {
          "internalType": "uint16",
          "name": "",
          "type": "uint16"
        }
      ],
      "stateMutability": "view",
      "type": "function"
    },
    {
      "inputs": [],
      "name": "epicBoxEpicHeroSkinRarity",
      "outputs": [
        {
          "internalType": "uint16",
          "name": "",
          "type": "uint16"
        }
      ],
      "stateMutability": "view",
      "type": "function"
    },
    {
      "inputs": [],
      "name": "epicBoxHeroProbability",
      "outputs": [
        {
          "internalType": "uint8",
          "name": "",
          "type": "uint8"
        }
      ],
      "stateMutability": "view",
      "type": "function"
    },
    {
      "inputs": [],
      "name": "epicBoxLegendarySkinRarity",
      "outputs": [
        {
          "internalType": "uint16",
          "name": "",
          "type": "uint16"
        }
      ],
      "stateMutability": "view",
      "type": "function"
    },
    {
      "inputs": [],
      "name": "epicBoxRareHeroSkinRarity",
      "outputs": [
        {
          "internalType": "uint16",
          "name": "",
          "type": "uint16"
        }
      ],
      "stateMutability": "view",
      "type": "function"
    },
    {
      "inputs": [],
      "name": "legendaryBoxEpicSkinRarity",
      "outputs": [
        {
          "internalType": "uint16",
          "name": "",
          "type": "uint16"
        }
      ],
      "stateMutability": "view",
      "type": "function"
    },
    {
      "inputs": [],
      "name": "legendaryBoxHeroProbability",
      "outputs": [
        {
          "internalType": "uint8",
          "name": "",
          "type": "uint8"
        }
      ],
      "stateMutability": "view",
      "type": "function"
    },
    {
      "inputs": [],
      "name": "legendaryBoxLegendarySkinRarity",
      "outputs": [
        {
          "internalType": "uint16",
          "name": "",
          "type": "uint16"
        }
      ],
      "stateMutability": "view",
      "type": "function"
    },
    {
      "inputs": [],
      "name": "legendaryBoxRareSkinRarity",
      "outputs": [
        {
          "internalType": "uint16",
          "name": "",
          "type": "uint16"
        }
      ],
      "stateMutability": "view",
      "type": "function"
    },
    {
      "inputs": [],
      "name": "randomTokenId",
      "outputs": [
        {
          "internalType": "uint256",
          "name": "",
          "type": "uint256"
        }
      ],
      "stateMutability": "view",
      "type": "function"
    },
    {
      "inputs": [],
      "name": "rareBoxCommonHeroSkinRarity",
      "outputs": [
        {
          "internalType": "uint16",
          "name": "",
          "type": "uint16"
        }
      ],
      "stateMutability": "view",
      "type": "function"
    },
    {
      "inputs": [],
      "name": "rareBoxEpicHeroSkinRarity",
      "outputs": [
        {
          "internalType": "uint16",
          "name": "",
          "type": "uint16"
        }
      ],
      "stateMutability": "view",
      "type": "function"
    },
    {
      "inputs": [],
      "name": "rareBoxHeroProbability",
      "outputs": [
        {
          "internalType": "uint8",
          "name": "",
          "type": "uint8"
        }
      ],
      "stateMutability": "view",
      "type": "function"
    },
    {
      "inputs": [],
      "name": "rareBoxRareHeroSkinRarity",
      "outputs": [
        {
          "internalType": "uint16",
          "name": "",
          "type": "uint16"
        }
      ],
      "stateMutability": "view",
      "type": "function"
    },
    {
      "inputs": [
        {
          "internalType": "bytes32",
          "name": "requestId",
          "type": "bytes32"
        },
        {
          "internalType": "uint256",
          "name": "randomness",
          "type": "uint256"
        }
      ],
      "name": "rawFulfillRandomness",
      "outputs": [],
      "stateMutability": "nonpayable",
      "type": "function"
    },
    {
      "inputs": [],
      "name": "weaponBoxRarityDrop",
      "outputs": [
        {
          "internalType": "uint8",
          "name": "",
          "type": "uint8"
        }
      ],
      "stateMutability": "view",
      "type": "function"
    },
    {
      "inputs": [
        {
          "internalType": "address",
          "name": "_admin",
          "type": "address"
        }
      ],
      "name": "updateAdmin",
      "outputs": [],
      "stateMutability": "nonpayable",
      "type": "function"
    },
    {
      "inputs": [],
      "name": "getRandomNumber",
      "outputs": [
        {
          "internalType": "bytes32",
          "name": "requestId",
          "type": "bytes32"
        }
      ],
      "stateMutability": "nonpayable",
      "type": "function"
    },
    {
      "inputs": [],
      "name": "getCommonBoxSkin",
      "outputs": [
        {
          "internalType": "string",
          "name": "",
          "type": "string"
        }
      ],
      "stateMutability": "view",
      "type": "function"
    },
    {
      "inputs": [],
      "name": "getRareBoxSkin",
      "outputs": [
        {
          "internalType": "string",
          "name": "",
          "type": "string"
        }
      ],
      "stateMutability": "view",
      "type": "function"
    },
    {
      "inputs": [],
      "name": "getEpicBoxSkin",
      "outputs": [
        {
          "internalType": "string",
          "name": "",
          "type": "string"
        }
      ],
      "stateMutability": "view",
      "type": "function"
    },
    {
      "inputs": [],
      "name": "getLegendaryBoxSkin",
      "outputs": [
        {
          "internalType": "string",
          "name": "",
          "type": "string"
        }
      ],
      "stateMutability": "view",
      "type": "function"
    },
    {
      "inputs": [],
      "name": "getWeaponBoxRarityDrop",
      "outputs": [
        {
          "internalType": "string",
          "name": "",
          "type": "string"
        }
      ],
      "stateMutability": "view",
      "type": "function"
    },
    {
      "inputs": [
        {
          "internalType": "uint8",
          "name": "_commonBoxHeroProbability",
          "type": "uint8"
        }
      ],
      "name": "setCommonBoxHeroProbability",
      "outputs": [],
      "stateMutability": "nonpayable",
      "type": "function"
    },
    {
      "inputs": [
        {
          "internalType": "uint8",
          "name": "_rareBoxHeroProbability",
          "type": "uint8"
        }
      ],
      "name": "setRareBoxHeroProbability",
      "outputs": [],
      "stateMutability": "nonpayable",
      "type": "function"
    },
    {
      "inputs": [
        {
          "internalType": "uint8",
          "name": "_epicBoxHeroProbability",
          "type": "uint8"
        }
      ],
      "name": "setEpicBoxHeroProbability",
      "outputs": [],
      "stateMutability": "nonpayable",
      "type": "function"
    },
    {
      "inputs": [
        {
          "internalType": "uint8",
          "name": "_legendaryBoxHeroProbability",
          "type": "uint8"
        }
      ],
      "name": "setLegendaryBoxHeroProbability",
      "outputs": [],
      "stateMutability": "nonpayable",
      "type": "function"
    },
    {
      "inputs": [
        {
          "internalType": "uint8",
          "name": "_weaponBoxRarityDrop",
          "type": "uint8"
        }
      ],
      "name": "setWeaponBoxRarityDrop",
      "outputs": [],
      "stateMutability": "nonpayable",
      "type": "function"
    },
    {
      "inputs": [
        {
          "internalType": "uint16",
          "name": "_commonBoxCommonHeroSkinRarity",
          "type": "uint16"
        }
      ],
      "name": "setCommonBoxCommonHeroSkinRarity",
      "outputs": [],
      "stateMutability": "nonpayable",
      "type": "function"
    },
    {
      "inputs": [
        {
          "internalType": "uint16",
          "name": "_commonBoxRareHeroSkinRarity",
          "type": "uint16"
        }
      ],
      "name": "setCommonBoxRareHeroSkinRarity",
      "outputs": [],
      "stateMutability": "nonpayable",
      "type": "function"
    },
    {
      "inputs": [
        {
          "internalType": "uint16",
          "name": "_rareBoxCommonHeroSkinRarity",
          "type": "uint16"
        }
      ],
      "name": "setRareBoxCommonHeroSkinRarity",
      "outputs": [],
      "stateMutability": "nonpayable",
      "type": "function"
    },
    {
      "inputs": [
        {
          "internalType": "uint16",
          "name": "_rareBoxRareHeroSkinRarity",
          "type": "uint16"
        }
      ],
      "name": "setRareBoxRareHeroSkinRarity",
      "outputs": [],
      "stateMutability": "nonpayable",
      "type": "function"
    },
    {
      "inputs": [
        {
          "internalType": "uint16",
          "name": "_rareBoxEpicHeroSkinRarity",
          "type": "uint16"
        }
      ],
      "name": "setRareBoxEpicHeroSkinRarity",
      "outputs": [],
      "stateMutability": "nonpayable",
      "type": "function"
    },
    {
      "inputs": [
        {
          "internalType": "uint16",
          "name": "_epicBoxCommonHeroSkinRarity",
          "type": "uint16"
        }
      ],
      "name": "setEpicBoxCommonHeroSkinRarity",
      "outputs": [],
      "stateMutability": "nonpayable",
      "type": "function"
    },
    {
      "inputs": [
        {
          "internalType": "uint16",
          "name": "_epicBoxRareHeroSkinRarity",
          "type": "uint16"
        }
      ],
      "name": "setEpicBoxRareHeroSkinRarity",
      "outputs": [],
      "stateMutability": "nonpayable",
      "type": "function"
    },
    {
      "inputs": [
        {
          "internalType": "uint16",
          "name": "_epicBoxEpicHeroSkinRarity",
          "type": "uint16"
        }
      ],
      "name": "setEpicBoxEpicHeroSkinRarity",
      "outputs": [],
      "stateMutability": "nonpayable",
      "type": "function"
    },
    {
      "inputs": [
        {
          "internalType": "uint16",
          "name": "_epicBoxLegendarySkinRarity",
          "type": "uint16"
        }
      ],
      "name": "setEpicBoxLegendarySkinRarity",
      "outputs": [],
      "stateMutability": "nonpayable",
      "type": "function"
    },
    {
      "inputs": [
        {
          "internalType": "uint16",
          "name": "_legendaryBoxRareSkinRarity",
          "type": "uint16"
        }
      ],
      "name": "setLegendaryBoxRareSkinRarity",
      "outputs": [],
      "stateMutability": "nonpayable",
      "type": "function"
    },
    {
      "inputs": [
        {
          "internalType": "uint16",
          "name": "_legendaryBoxEpicSkinRarity",
          "type": "uint16"
        }
      ],
      "name": "setLegendaryBoxEpicSkinRarity",
      "outputs": [],
      "stateMutability": "nonpayable",
      "type": "function"
    },
    {
      "inputs": [
        {
          "internalType": "uint16",
          "name": "_legendaryBoxLegendarySkinRarity",
          "type": "uint16"
        }
      ],
      "name": "setLegendaryBoxLegendarySkinRarity",
      "outputs": [],
      "stateMutability": "nonpayable",
      "type": "function"
    }
  ],
  "bytecode": "0x60c060405234801561001057600080fd5b5073a555fc018435bef5a13c6c6870a9d4c11dec329c7384b9b910527ad5c03a9ca831909e21e236ea7b068173ffffffffffffffffffffffffffffffffffffffff1660a08173ffffffffffffffffffffffffffffffffffffffff1660601b815250508073ffffffffffffffffffffffffffffffffffffffff1660808173ffffffffffffffffffffffffffffffffffffffff1660601b8152505050507fcaf3c3727e033261d383b315559476f48034c13b18f8cafed4d871abe504918660001b60018190555067016345785d8a000060028190555033600560006101000a81548173ffffffffffffffffffffffffffffffffffffffff021916908373ffffffffffffffffffffffffffffffffffffffff16021790555060805160601c60a05160601c6134b461015e6000396000818161193c0152612adb0152600081816125730152612a9f01526134b46000f3fe608060405234801561001057600080fd5b50600436106102745760003560e01c80639edb7cbf11610151578063c0507a35116100c3578063dbdff2c111610087578063dbdff2c1146106cd578063e2f273bd146106eb578063eda5726b14610707578063f81516f114610725578063f851a44014610741578063fe7ed8ff1461075f57610274565b8063c0507a351461063b578063d336a07e14610659578063d446d40814610677578063d469f93c14610695578063db57fa8f146106b157610274565b8063b8eb9fdf11610115578063b8eb9fdf14610589578063bc530c99146105a7578063be33ab71146105c5578063bedeec79146105e3578063bf64ce3514610601578063bfd33e921461061d57610274565b80639edb7cbf146104f5578063a309c0b114610511578063aa804cfe1461052f578063aae78c491461054d578063b3e540821461056b57610274565b8063532f61a5116101ea5780636eea0b0b116101ae5780636eea0b0b14610449578063793a341c146104655780637a90defb146104835780637ea24bbe1461049f578063864525ec146104bd57806394985ddd146104d957610274565b8063532f61a5146103b957806354e7e623146103d75780635d8c6269146103f3578063647beaac1461040f578063678012c31461042d57610274565b8063359acdef1161023c578063359acdef1461030b5780633eafcfe0146103295780633fd0029a1461034557806341ba4cf314610363578063443fa34c1461037f57806349dbb0501461039b57610274565b806303287c121461027957806309ad6b7a1461029757806315b23263146102b557806316f994fe146102d35780632dfc4456146102ef575b600080fd5b61028161077b565b60405161028e919061311f565b60405180910390f35b61029f61078e565b6040516102ac91906130e9565b60405180910390f35b6102bd6107a2565b6040516102ca9190613067565b60405180910390f35b6102ed60048036038101906102e89190612d8a565b610901565b005b61030960048036038101906103049190612d8a565b610921565b005b610313610941565b60405161032091906130e9565b60405180910390f35b610343600480360381019061033e9190612d8a565b610955565b005b61034d610975565b60405161035a9190613067565b60405180910390f35b61037d60048036038101906103789190612d8a565b6111be565b005b61039960048036038101906103949190612d8a565b6111de565b005b6103a36111fe565b6040516103b09190613067565b60405180910390f35b6103c1611834565b6040516103ce91906130e9565b60405180910390f35b6103f160048036038101906103ec9190612d8a565b611848565b005b61040d60048036038101906104089190612ddc565b611868565b005b610417611886565b60405161042491906130e9565b60405180910390f35b61044760048036038101906104429190612ddc565b61189a565b005b610463600480360381019061045e9190612d8a565b6118b7565b005b61046d6118d7565b60405161047a91906130e9565b60405180910390f35b61049d60048036038101906104989190612d8a565b6118eb565b005b6104a761190b565b6040516104b4919061311f565b60405180910390f35b6104d760048036038101906104d29190612ddc565b61191c565b005b6104f360048036038101906104ee9190612d4e565b61193a565b005b61050f600480360381019061050a9190612d8a565b6119d6565b005b6105196119f6565b6040516105269190613067565b60405180910390f35b610537611e1f565b60405161054491906130e9565b60405180910390f35b610555611e33565b604051610562919061311f565b60405180910390f35b610573611e46565b60405161058091906130e9565b60405180910390f35b610591611e5a565b60405161059e9190613104565b60405180910390f35b6105af611e60565b6040516105bc919061311f565b60405180910390f35b6105cd611e73565b6040516105da9190613067565b60405180910390f35b6105eb6124aa565b6040516105f891906130e9565b60405180910390f35b61061b60048036038101906106169190612d8a565b6124be565b005b6106256124de565b60405161063291906130e9565b60405180910390f35b6106436124f2565b60405161065091906130e9565b60405180910390f35b610661612506565b60405161066e91906130e9565b60405180910390f35b61067f61251a565b60405161068c91906130e9565b60405180910390f35b6106af60048036038101906106aa9190612d8a565b61252e565b005b6106cb60048036038101906106c69190612ddc565b61254e565b005b6106d561256c565b6040516106e29190612fde565b60405180910390f35b61070560048036038101906107009190612cfc565b61266e565b005b61070f612742565b60405161071c919061311f565b60405180910390f35b61073f600480360381019061073a9190612d8a565b612755565b005b610749612775565b6040516107569190612f85565b60405180910390f35b61077960048036038101906107749190612ddc565b61279b565b005b600460029054906101000a900460ff1681565b6004600f9054906101000a900461ffff1681565b6060600060048054906101000a900460ff1660ff16101580156107d55750604e60048054906101000a900460ff1660ff16105b15610817576040518060400160405280600481526020017f726172650000000000000000000000000000000000000000000000000000000081525090506108fe565b604e60048054906101000a900460ff1660ff16101580156108485750606260048054906101000a900460ff1660ff16105b1561088a576040518060400160405280600481526020017f657069630000000000000000000000000000000000000000000000000000000081525090506108fe565b606260048054906101000a900460ff1660ff16101580156108bb5750606460048054906101000a900460ff1660ff16105b156108fd576040518060400160405280600981526020017f6c6567656e64617279000000000000000000000000000000000000000000000081525090506108fe565b5b90565b80600460196101000a81548161ffff021916908361ffff16021790555050565b80600460096101000a81548161ffff021916908361ffff16021790555050565b600460059054906101000a900461ffff1681565b80600460136101000a81548161ffff021916908361ffff16021790555050565b60606000600460029054906101000a900460ff1660ff161415610b845760006004600f9054906101000a900461ffff1661ffff16101580156109cb5750600f6004600f9054906101000a900461ffff1661ffff16105b15610a0d576040518060400160405280600681526020017f6e6f726d616c000000000000000000000000000000000000000000000000000081525090506111bb565b600f6004600f9054906101000a900461ffff1661ffff1610158015610a46575060286004600f9054906101000a900461ffff1661ffff16105b15610a88576040518060400160405280600481526020017f726172650000000000000000000000000000000000000000000000000000000081525090506111bb565b60286004600f9054906101000a900461ffff1661ffff1610158015610ac1575060f06004600f9054906101000a900461ffff1661ffff16105b15610b03576040518060400160405280600681526020017f6d7974686963000000000000000000000000000000000000000000000000000081525090506111bb565b60f06004600f9054906101000a900461ffff1661ffff1610158015610b3d57506101f96004600f9054906101000a900461ffff1661ffff16105b15610b7f576040518060400160405280600981526020017f6c6567656e64617279000000000000000000000000000000000000000000000081525090506111bb565b6111ba565b6001600460029054906101000a900460ff1660ff161415610d97576000600460119054906101000a900461ffff1661ffff1610158015610bd95750610203600460119054906101000a900461ffff1661ffff16105b15610c1b576040518060400160405280600681526020017f6e6f726d616c000000000000000000000000000000000000000000000000000081525090506111bb565b610203600460119054906101000a900461ffff1661ffff1610158015610c5657506102da600460119054906101000a900461ffff1661ffff16105b15610c98576040518060400160405280600481526020017f726172650000000000000000000000000000000000000000000000000000000081525090506111bb565b6102da600460119054906101000a900461ffff1661ffff1610158015610cd35750610357600460119054906101000a900461ffff1661ffff16105b15610d15576040518060400160405280600681526020017f6d7974686963000000000000000000000000000000000000000000000000000081525090506111bb565b610357600460119054906101000a900461ffff1661ffff1610158015610d5057506103ac600460119054906101000a900461ffff1661ffff16105b15610d92576040518060400160405280600981526020017f6c6567656e64617279000000000000000000000000000000000000000000000081525090506111bb565b6111b9565b6002600460029054906101000a900460ff1660ff161415610faa576000600460139054906101000a900461ffff1661ffff1610158015610dec5750610cdf600460139054906101000a900461ffff1661ffff16105b15610e2e576040518060400160405280600681526020017f6e6f726d616c000000000000000000000000000000000000000000000000000081525090506111bb565b610cdf600460139054906101000a900461ffff1661ffff1610158015610e69575061160d600460139054906101000a900461ffff1661ffff16105b15610eab576040518060400160405280600481526020017f726172650000000000000000000000000000000000000000000000000000000081525090506111bb565b61160d600460139054906101000a900461ffff1661ffff1610158015610ee65750611bee600460139054906101000a900461ffff1661ffff16105b15610f28576040518060400160405280600681526020017f6d7974686963000000000000000000000000000000000000000000000000000081525090506111bb565b611bee600460139054906101000a900461ffff1661ffff1610158015610f635750611fb3600460139054906101000a900461ffff1661ffff16105b15610fa5576040518060400160405280600981526020017f6c6567656e64617279000000000000000000000000000000000000000000000081525090506111bb565b6111b8565b6003600460029054906101000a900460ff1660ff1614156111b7576000600460159054906101000a900461ffff1661ffff1610158015610ffe575060e1600460159054906101000a900461ffff1661ffff16105b15611040576040518060400160405280600681526020017f6e6f726d616c000000000000000000000000000000000000000000000000000081525090506111bb565b60e1600460159054906101000a900461ffff1661ffff161015801561107a5750610190600460159054906101000a900461ffff1661ffff16105b156110bc576040518060400160405280600481526020017f726172650000000000000000000000000000000000000000000000000000000081525090506111bb565b610190600460159054906101000a900461ffff1661ffff16101580156110f757506101b3600460159054906101000a900461ffff1661ffff16105b15611139576040518060400160405280600681526020017f6d7974686963000000000000000000000000000000000000000000000000000081525090506111bb565b6101b3600460159054906101000a900461ffff1661ffff161015801561117457506101b8600460159054906101000a900461ffff1661ffff16105b156111b6576040518060400160405280600981526020017f6c6567656e64617279000000000000000000000000000000000000000000000081525090506111bb565b5b5b5b5b5b90565b80600460076101000a81548161ffff021916908361ffff16021790555050565b806004600f6101000a81548161ffff021916908361ffff16021790555050565b60606000600460019054906101000a900460ff1660ff161415611413576000600460099054906101000a900461ffff1661ffff161015801561125557506101b3600460099054906101000a900461ffff1661ffff16105b15611297576040518060400160405280600681526020017f6e6f726d616c00000000000000000000000000000000000000000000000000008152509050611831565b6101b3600460099054906101000a900461ffff1661ffff16101580156112d257506102c1600460099054906101000a900461ffff1661ffff16105b15611314576040518060400160405280600481526020017f72617265000000000000000000000000000000000000000000000000000000008152509050611831565b6102c1600460099054906101000a900461ffff1661ffff161015801561134f5750610389600460099054906101000a900461ffff1661ffff16105b15611391576040518060400160405280600681526020017f6d797468696300000000000000000000000000000000000000000000000000008152509050611831565b610389600460099054906101000a900461ffff1661ffff16101580156113cc57506103ed600460099054906101000a900461ffff1661ffff16105b1561140e576040518060400160405280600981526020017f6c6567656e6461727900000000000000000000000000000000000000000000008152509050611831565b611830565b6001600460019054906101000a900460ff1660ff1614156116265760006004600b9054906101000a900461ffff1661ffff16101580156114685750610d756004600b9054906101000a900461ffff1661ffff16105b156114aa576040518060400160405280600681526020017f6e6f726d616c00000000000000000000000000000000000000000000000000008152509050611831565b610d756004600b9054906101000a900461ffff1661ffff16101580156114e557506117486004600b9054906101000a900461ffff1661ffff16105b15611527576040518060400160405280600481526020017f72617265000000000000000000000000000000000000000000000000000000008152509050611831565b6117486004600b9054906101000a900461ffff1661ffff16101580156115625750611e826004600b9054906101000a900461ffff1661ffff16105b156115a4576040518060400160405280600681526020017f6d797468696300000000000000000000000000000000000000000000000000008152509050611831565b611e826004600b9054906101000a900461ffff1661ffff16101580156115df57506122ce6004600b9054906101000a900461ffff1661ffff16105b15611621576040518060400160405280600981526020017f6c6567656e6461727900000000000000000000000000000000000000000000008152509050611831565b61182f565b6002600460019054906101000a900460ff1660ff16141561182e5760006004600d9054906101000a900461ffff1661ffff161015801561167a575060326004600d9054906101000a900461ffff1661ffff16105b156116bc576040518060400160405280600681526020017f6e6f726d616c00000000000000000000000000000000000000000000000000008152509050611831565b60326004600d9054906101000a900461ffff1661ffff16101580156116f5575060466004600d9054906101000a900461ffff1661ffff16105b15611737576040518060400160405280600481526020017f72617265000000000000000000000000000000000000000000000000000000008152509050611831565b60466004600d9054906101000a900461ffff1661ffff1610158015611770575060506004600d9054906101000a900461ffff1661ffff16105b156117b2576040518060400160405280600681526020017f6d797468696300000000000000000000000000000000000000000000000000008152509050611831565b60506004600d9054906101000a900461ffff1661ffff16101580156117eb575060556004600d9054906101000a900461ffff1661ffff16105b1561182d576040518060400160405280600981526020017f6c6567656e6461727900000000000000000000000000000000000000000000008152509050611831565b5b5b5b5b90565b6004600d9054906101000a900461ffff1681565b806004601b6101000a81548161ffff021916908361ffff16021790555050565b80600460036101000a81548160ff021916908360ff16021790555050565b600460119054906101000a900461ffff1681565b806004806101000a81548160ff021916908360ff16021790555050565b80600460116101000a81548161ffff021916908361ffff16021790555050565b600460179054906101000a900461ffff1681565b80600460056101000a81548161ffff021916908361ffff16021790555050565b60048054906101000a900460ff1681565b80600460016101000a81548160ff021916908360ff16021790555050565b7f000000000000000000000000000000000000000000000000000000000000000073ffffffffffffffffffffffffffffffffffffffff163373ffffffffffffffffffffffffffffffffffffffff16146119c8576040517f08c379a00000000000000000000000000000000000000000000000000000000081526004016119bf906130c9565b60405180910390fd5b6119d282826127b9565b5050565b806004600d6101000a81548161ffff021916908361ffff16021790555050565b60606000600460009054906101000a900460ff1660ff161415611c0b576000600460059054906101000a900461ffff1661ffff1610158015611a4d5750610f9b600460059054906101000a900461ffff1661ffff16105b15611a8f576040518060400160405280600681526020017f6e6f726d616c00000000000000000000000000000000000000000000000000008152509050611e1c565b610f9b600460059054906101000a900461ffff1661ffff1610158015611aca5750611abd600460059054906101000a900461ffff1661ffff16105b15611b0c576040518060400160405280600481526020017f72617265000000000000000000000000000000000000000000000000000000008152509050611e1c565b611abd600460059054906101000a900461ffff1661ffff1610158015611b4757506120f8600460059054906101000a900461ffff1661ffff16105b15611b89576040518060400160405280600681526020017f6d797468696300000000000000000000000000000000000000000000000000008152509050611e1c565b6120f8600460059054906101000a900461ffff1661ffff1610158015611bc4575061245e600460059054906101000a900461ffff1661ffff16105b15611c06576040518060400160405280600981526020017f6c6567656e6461727900000000000000000000000000000000000000000000008152509050611e1c565b611e1b565b6001600460009054906101000a900460ff1660ff161415611e1a576000600460079054906101000a900461ffff1661ffff1610158015611c60575061016d600460079054906101000a900461ffff1661ffff16105b15611ca2576040518060400160405280600681526020017f6e6f726d616c00000000000000000000000000000000000000000000000000008152509050611e1c565b61016d600460079054906101000a900461ffff1661ffff1610158015611cdd575061021c600460079054906101000a900461ffff1661ffff16105b15611d1f576040518060400160405280600481526020017f72617265000000000000000000000000000000000000000000000000000000008152509050611e1c565b61021c600460079054906101000a900461ffff1661ffff1610158015611d5a5750610280600460079054906101000a900461ffff1661ffff16105b15611d9c576040518060400160405280600681526020017f6d797468696300000000000000000000000000000000000000000000000000008152509050611e1c565b610280600460079054906101000a900461ffff1661ffff1610158015611dd757506102b2600460079054906101000a900461ffff1661ffff16105b15611e19576040518060400160405280600981526020017f6c6567656e6461727900000000000000000000000000000000000000000000008152509050611e1c565b5b5b5b90565b600460079054906101000a900461ffff1681565b600460039054906101000a900460ff1681565b6004601b9054906101000a900461ffff1681565b60035481565b600460009054906101000a900460ff1681565b60606001600460039054906101000a900460ff1660ff161415612084576000600460179054906101000a900461ffff1661ffff1610158015611ec957506037600460179054906101000a900461ffff1661ffff16105b15611f0b576040518060400160405280600681526020017f6e6f726d616c000000000000000000000000000000000000000000000000000081525090506124a7565b6037600460179054906101000a900461ffff1661ffff1610158015611f445750608c600460179054906101000a900461ffff1661ffff16105b15611f86576040518060400160405280600481526020017f726172650000000000000000000000000000000000000000000000000000000081525090506124a7565b608c600460179054906101000a900461ffff1661ffff1610158015611fc05750610109600460179054906101000a900461ffff1661ffff16105b15612002576040518060400160405280600681526020017f6d7974686963000000000000000000000000000000000000000000000000000081525090506124a7565b610109600460179054906101000a900461ffff1661ffff161015801561203d57506101b8600460179054906101000a900461ffff1661ffff16105b1561207f576040518060400160405280600981526020017f6c6567656e64617279000000000000000000000000000000000000000000000081525090506124a7565b6124a6565b6002600460039054906101000a900460ff1660ff161415612295576000600460199054906101000a900461ffff1661ffff16101580156120d8575060eb600460199054906101000a900461ffff1661ffff16105b1561211a576040518060400160405280600681526020017f6e6f726d616c000000000000000000000000000000000000000000000000000081525090506124a7565b60eb600460199054906101000a900461ffff1661ffff16101580156121545750610258600460199054906101000a900461ffff1661ffff16105b15612196576040518060400160405280600481526020017f726172650000000000000000000000000000000000000000000000000000000081525090506124a7565b610258600460199054906101000a900461ffff1661ffff16101580156121d157506104ab600460199054906101000a900461ffff1661ffff16105b15612213576040518060400160405280600681526020017f6d7974686963000000000000000000000000000000000000000000000000000081525090506124a7565b6104ab600460199054906101000a900461ffff1661ffff161015801561224e57506107e4600460199054906101000a900461ffff1661ffff16105b15612290576040518060400160405280600981526020017f6c6567656e64617279000000000000000000000000000000000000000000000081525090506124a7565b6124a5565b6003600460039054906101000a900460ff1660ff1614156124a45760006004601b9054906101000a900461ffff1661ffff16101580156122ea5750610cdf6004601b9054906101000a900461ffff1661ffff16105b1561232c576040518060400160405280600681526020017f6e6f726d616c000000000000000000000000000000000000000000000000000081525090506124a7565b610cdf6004601b9054906101000a900461ffff1661ffff161015801561236757506115866004601b9054906101000a900461ffff1661ffff16105b156123a9576040518060400160405280600481526020017f726172650000000000000000000000000000000000000000000000000000000081525090506124a7565b6115866004601b9054906101000a900461ffff1661ffff16101580156123e45750611c116004601b9054906101000a900461ffff1661ffff16105b15612426576040518060400160405280600681526020017f6d7974686963000000000000000000000000000000000000000000000000000081525090506124a7565b611c116004601b9054906101000a900461ffff1661ffff16101580156124615750611d746004601b9054906101000a900461ffff1661ffff16105b156124a3576040518060400160405280600981526020017f6c6567656e64617279000000000000000000000000000000000000000000000081525090506124a7565b5b5b5b5b90565b600460199054906101000a900461ffff1681565b806004600b6101000a81548161ffff021916908361ffff16021790555050565b600460139054906101000a900461ffff1681565b600460159054906101000a900461ffff1681565b6004600b9054906101000a900461ffff1681565b600460099054906101000a900461ffff1681565b80600460176101000a81548161ffff021916908361ffff16021790555050565b80600460006101000a81548160ff021916908360ff16021790555050565b60006002547f000000000000000000000000000000000000000000000000000000000000000073ffffffffffffffffffffffffffffffffffffffff166370a08231306040518263ffffffff1660e01b81526004016125ca9190612f85565b60206040518083038186803b1580156125e257600080fd5b505afa1580156125f6573d6000803e3d6000fd5b505050506040513d601f19601f8201168201806040525081019061261a9190612db3565b101561265b576040517f08c379a000000000000000000000000000000000000000000000000000000000815260040161265290613089565b60405180910390fd5b612669600154600254612a9b565b905090565b600560009054906101000a900473ffffffffffffffffffffffffffffffffffffffff1673ffffffffffffffffffffffffffffffffffffffff163373ffffffffffffffffffffffffffffffffffffffff16146126fe576040517f08c379a00000000000000000000000000000000000000000000000000000000081526004016126f5906130a9565b60405180910390fd5b80600560006101000a81548173ffffffffffffffffffffffffffffffffffffffff021916908373ffffffffffffffffffffffffffffffffffffffff16021790555050565b600460019054906101000a900460ff1681565b80600460156101000a81548161ffff021916908361ffff16021790555050565b600560009054906101000a900473ffffffffffffffffffffffffffffffffffffffff1681565b80600460026101000a81548160ff021916908360ff16021790555050565b662386f26fc10000816127cc91906132b3565b6003819055506002816127df91906132b3565b600460006101000a81548160ff021916908360ff16021790555060038161280691906132b3565b600460016101000a81548160ff021916908360ff16021790555060048161282d91906132b3565b600460026101000a81548160ff021916908360ff160217905550600160038261285691906132b3565b61286091906131c8565b600460036101000a81548160ff021916908360ff16021790555060648161288791906132b3565b6004806101000a81548160ff021916908360ff16021790555061245e816128ae91906132b3565b600460056101000a81548161ffff021916908361ffff1602179055506102b2816128d891906132b3565b600460076101000a81548161ffff021916908361ffff1602179055506103ed8161290291906132b3565b600460096101000a81548161ffff021916908361ffff1602179055506122ce8161292c91906132b3565b6004600b6101000a81548161ffff021916908361ffff16021790555060558161295591906132b3565b6004600d6101000a81548161ffff021916908361ffff1602179055506101f98161297f91906132b3565b6004600f6101000a81548161ffff021916908361ffff1602179055506103ac816129a991906132b3565b600460116101000a81548161ffff021916908361ffff160217905550611fb3816129d391906132b3565b600460136101000a81548161ffff021916908361ffff1602179055506101b8816129fd91906132b3565b600460156101000a81548161ffff021916908361ffff1602179055506101b881612a2791906132b3565b600460176101000a81548161ffff021916908361ffff1602179055506107e481612a5191906132b3565b600460196101000a81548161ffff021916908361ffff160217905550611d7481612a7b91906132b3565b6004601b6101000a81548161ffff021916908361ffff1602179055505050565b60007f000000000000000000000000000000000000000000000000000000000000000073ffffffffffffffffffffffffffffffffffffffff16634000aea07f000000000000000000000000000000000000000000000000000000000000000084866000604051602001612b0f929190612ff9565b6040516020818303038152906040526040518463ffffffff1660e01b8152600401612b3c93929190612fa0565b602060405180830381600087803b158015612b5657600080fd5b505af1158015612b6a573d6000803e3d6000fd5b505050506040513d601f19601f82011682018060405250810190612b8e9190612d25565b506000612bb08460003060008089815260200190815260200160002054612bfa565b9050600160008086815260200190815260200160002054612bd19190613172565b60008086815260200190815260200160002081905550612bf18482612c36565b91505092915050565b600084848484604051602001612c139493929190613022565b6040516020818303038152906040528051906020012060001c9050949350505050565b60008282604051602001612c4b929190612f59565b60405160208183030381529060405280519060200120905092915050565b600081359050612c78816133f4565b92915050565b600081519050612c8d8161340b565b92915050565b600081359050612ca281613422565b92915050565b600081359050612cb781613439565b92915050565b600081359050612ccc81613450565b92915050565b600081519050612ce181613450565b92915050565b600081359050612cf681613467565b92915050565b600060208284031215612d0e57600080fd5b6000612d1c84828501612c69565b91505092915050565b600060208284031215612d3757600080fd5b6000612d4584828501612c7e565b91505092915050565b60008060408385031215612d6157600080fd5b6000612d6f85828601612c93565b9250506020612d8085828601612cbd565b9150509250929050565b600060208284031215612d9c57600080fd5b6000612daa84828501612ca8565b91505092915050565b600060208284031215612dc557600080fd5b6000612dd384828501612cd2565b91505092915050565b600060208284031215612dee57600080fd5b6000612dfc84828501612ce7565b91505092915050565b612e0e816131ff565b82525050565b612e1d8161321d565b82525050565b612e34612e2f8261321d565b61329f565b82525050565b6000612e458261313a565b612e4f8185613150565b9350612e5f81856020860161326c565b612e6881613342565b840191505092915050565b6000612e7e82613145565b612e888185613161565b9350612e9881856020860161326c565b612ea181613342565b840191505092915050565b6000612eb9602b83613161565b9150612ec482613353565b604082019050919050565b6000612edc601a83613161565b9150612ee7826133a2565b602082019050919050565b6000612eff601f83613161565b9150612f0a826133cb565b602082019050919050565b612f1e81613227565b82525050565b612f2d81613255565b82525050565b612f44612f3f82613255565b6132a9565b82525050565b612f538161325f565b82525050565b6000612f658285612e23565b602082019150612f758284612f33565b6020820191508190509392505050565b6000602082019050612f9a6000830184612e05565b92915050565b6000606082019050612fb56000830186612e05565b612fc26020830185612f24565b8181036040830152612fd48184612e3a565b9050949350505050565b6000602082019050612ff36000830184612e14565b92915050565b600060408201905061300e6000830185612e14565b61301b6020830184612f24565b9392505050565b60006080820190506130376000830187612e14565b6130446020830186612f24565b6130516040830185612e05565b61305e6060830184612f24565b95945050505050565b600060208201905081810360008301526130818184612e73565b905092915050565b600060208201905081810360008301526130a281612eac565b9050919050565b600060208201905081810360008301526130c281612ecf565b9050919050565b600060208201905081810360008301526130e281612ef2565b9050919050565b60006020820190506130fe6000830184612f15565b92915050565b60006020820190506131196000830184612f24565b92915050565b60006020820190506131346000830184612f4a565b92915050565b600081519050919050565b600081519050919050565b600082825260208201905092915050565b600082825260208201905092915050565b600061317d82613255565b915061318883613255565b9250827fffffffffffffffffffffffffffffffffffffffffffffffffffffffffffffffff038211156131bd576131bc6132e4565b5b828201905092915050565b60006131d38261325f565b91506131de8361325f565b92508260ff038211156131f4576131f36132e4565b5b828201905092915050565b600061320a82613235565b9050919050565b60008115159050919050565b6000819050919050565b600061ffff82169050919050565b600073ffffffffffffffffffffffffffffffffffffffff82169050919050565b6000819050919050565b600060ff82169050919050565b60005b8381101561328a57808201518184015260208101905061326f565b83811115613299576000848401525b50505050565b6000819050919050565b6000819050919050565b60006132be82613255565b91506132c983613255565b9250826132d9576132d8613313565b5b828206905092915050565b7f4e487b7100000000000000000000000000000000000000000000000000000000600052601160045260246000fd5b7f4e487b7100000000000000000000000000000000000000000000000000000000600052601260045260246000fd5b6000601f19601f8301169050919050565b7f4e6f7420656e6f756768204c494e4b202d2066696c6c20636f6e74726163742060008201527f7769746820666175636574000000000000000000000000000000000000000000602082015250565b7f4f6e6c792061646d696e2063616e206163636573732074686973000000000000600082015250565b7f4f6e6c7920565246436f6f7264696e61746f722063616e2066756c66696c6c00600082015250565b6133fd816131ff565b811461340857600080fd5b50565b61341481613211565b811461341f57600080fd5b50565b61342b8161321d565b811461343657600080fd5b50565b61344281613227565b811461344d57600080fd5b50565b61345981613255565b811461346457600080fd5b50565b6134708161325f565b811461347b57600080fd5b5056fea2646970667358221220cb563de3df5e8a62d602f355c626585af85863e66985534e090464303d2e85c364736f6c63430008040033",
  "immutableReferences": {
    "13701": [
      {
        "length": 32,
        "start": 9587
      },
      {
        "length": 32,
        "start": 10911
      }
    ],
    "13703": [
      {
        "length": 32,
        "start": 6460
      },
      {
        "length": 32,
        "start": 10971
      }
    ]
  },
  "source": "// SPDX-License-Identifier: MIT\r\npragma solidity ^0.8.0;\r\n\r\nimport \"@chainlink/contracts/src/v0.8/VRFConsumerBase.sol\";\r\n\r\n/**\r\n * THIS IS AN EXAMPLE CONTRACT WHICH USES HARDCODED VALUES FOR CLARITY.\r\n * PLEASE DO NOT USE THIS CODE IN PRODUCTION.\r\n */\r\n\r\n/**\r\n * Request testnet LINK and ETH here: https://faucets.chain.link/\r\n * Find information on LINK Token Contracts and get the latest ETH and LINK faucets here: https://docs.chain.link/docs/link-token-contracts/\r\n */\r\n\r\ncontract TestRandomNumberConsumer1 is VRFConsumerBase {\r\n    bytes32 internal keyHash;\r\n    uint256 internal fee;\r\n\r\n    uint256 public randomTokenId;\r\n    uint8 public commonBoxHeroProbability;\r\n    uint8 public rareBoxHeroProbability;\r\n    uint8 public epicBoxHeroProbability;\r\n    uint8 public legendaryBoxHeroProbability;\r\n    uint8 public weaponBoxRarityDrop;\r\n\r\n    //common box\r\n    uint16 public commonBoxCommonHeroSkinRarity;\r\n    uint16 public commonBoxRareHeroSkinRarity;\r\n\r\n    //rare box\r\n    uint16 public rareBoxCommonHeroSkinRarity;\r\n    uint16 public rareBoxRareHeroSkinRarity;\r\n    uint16 public rareBoxEpicHeroSkinRarity;\r\n\r\n    //epic box\r\n    uint16 public epicBoxCommonHeroSkinRarity;\r\n    uint16 public epicBoxRareHeroSkinRarity;\r\n    uint16 public epicBoxEpicHeroSkinRarity;\r\n    uint16 public epicBoxLegendarySkinRarity;\r\n\r\n    //legendary box\r\n    uint16 public legendaryBoxRareSkinRarity;\r\n    uint16 public legendaryBoxEpicSkinRarity;\r\n    uint16 public legendaryBoxLegendarySkinRarity;\r\n\r\n    address public admin;\r\n\r\n    /**\r\n     * Constructor inherits VRFConsumerBase\r\n     *\r\n     * Network: Kovan\r\n     * Chainlink VRF Coordinator address: 0xdD3782915140c8f3b190B5D67eAc6dc5760C46E9\r\n     * LINK token address:                0xa36085F69e2889c224210F603D836748e7dC0088\r\n     * Key Hash: 0x6c3699283bda56ad74f6b855546325b68d482e983852a7a82979cc4807b641f4\r\n     *\r\n     * Network: BSC testnet\r\n     * Chainlink VRF Coordinator address: 0xa555fC018435bef5A13C6c6870a9d4C11DEC329C\r\n     * LINK token address:                0x84b9B910527Ad5C03A9Ca831909E21e236EA7b06\r\n     * Key Hash: 0xcaf3c3727e033261d383b315559476f48034c13b18f8cafed4d871abe5049186\r\n     *\r\n     * Links\r\n     * https://docs.chain.link/docs/get-a-random-number/v1/\r\n     * https://docs.chain.link/docs/vrf-contracts/v1/\r\n     */\r\n    constructor()\r\n        VRFConsumerBase(\r\n            0xa555fC018435bef5A13C6c6870a9d4C11DEC329C, // VRF Coordinator\r\n            0x84b9B910527Ad5C03A9Ca831909E21e236EA7b06 // LINK Token\r\n        )\r\n    {\r\n        keyHash = 0xcaf3c3727e033261d383b315559476f48034c13b18f8cafed4d871abe5049186;\r\n        fee = 0.1 * 10**18; // 0.1 LINK (Varies by network)\r\n        admin = msg.sender;\r\n    }\r\n\r\n    modifier onlyAdmin() {\r\n        require(msg.sender == admin, \"Only admin can access this\");\r\n        _;\r\n    }\r\n\r\n    function updateAdmin(address _admin) public onlyAdmin {\r\n        admin = _admin;\r\n    }\r\n\r\n    /**\r\n     * Requests randomness\r\n     */\r\n    function getRandomNumber() public returns (bytes32 requestId) {\r\n        require(\r\n            LINK.balanceOf(address(this)) >= fee,\r\n            \"Not enough LINK - fill contract with faucet\"\r\n        );\r\n        return requestRandomness(keyHash, fee);\r\n    }\r\n\r\n    /**\r\n     * Callback function used by VRF Coordinator\r\n     */\r\n    function fulfillRandomness(bytes32 requestId, uint256 randomness)\r\n        internal\r\n        override\r\n    {\r\n        randomTokenId = (randomness % 10000000000000000);\r\n        commonBoxHeroProbability = uint8(randomness % 2);\r\n        rareBoxHeroProbability = uint8(randomness % 3);\r\n        epicBoxHeroProbability = uint8(randomness % 4);\r\n        legendaryBoxHeroProbability = uint8(randomness % 3) + 1;\r\n        weaponBoxRarityDrop = uint8(randomness % 100);\r\n\r\n        //common box\r\n        commonBoxCommonHeroSkinRarity = uint16(randomness % 9310);\r\n        commonBoxRareHeroSkinRarity = uint16(randomness % 690);\r\n\r\n        //rare box\r\n        rareBoxCommonHeroSkinRarity = uint16(randomness % 1005);\r\n        rareBoxRareHeroSkinRarity = uint16(randomness % 8910);\r\n        rareBoxEpicHeroSkinRarity = uint16(randomness % 85);\r\n\r\n        //epic box\r\n        epicBoxCommonHeroSkinRarity = uint16(randomness % 505);\r\n        epicBoxRareHeroSkinRarity = uint16(randomness % 940);\r\n        epicBoxEpicHeroSkinRarity = uint16(randomness % 8115);\r\n        epicBoxLegendarySkinRarity = uint16(randomness % 440);\r\n\r\n        //legendary box\r\n        legendaryBoxRareSkinRarity = uint16(randomness % 440);\r\n        legendaryBoxEpicSkinRarity = uint16(randomness % 2020);\r\n        legendaryBoxLegendarySkinRarity = uint16(randomness % 7540);\r\n        // randomResult = (randomness%1000);\r\n        // randomResult\r\n        // 0: uint256: 873\r\n        // 0x58dc868A54D09e8E15e6352e331682a817e1f0B3 kovan network (%1000)\r\n        // 0x6f0eBEd8C6c6e09eEaE9f01A5C7a62c16aF5f552 BSC testnet (%1000)\r\n        // probability\r\n        // 0: uint8: 44\r\n        // randomTokenId\r\n        // 0: uint256: 7638892244\r\n        // 0x47D2EA3828633F28048a7dBC179D78C38A0d6a20 BSC testnet (probability and randomTokenId)\r\n    }\r\n\r\n    // function withdrawLink() external {} - Implement a withdraw function to avoid locking your LINK in the contract\r\n\r\n    function getCommonBoxSkin() public view returns (string memory) {\r\n        if (commonBoxHeroProbability == 0) {\r\n            if (\r\n                commonBoxCommonHeroSkinRarity >= 0 &&\r\n                commonBoxCommonHeroSkinRarity < 3995\r\n            ) {\r\n                return \"normal\";\r\n            } else if (\r\n                commonBoxCommonHeroSkinRarity >= 3995 &&\r\n                commonBoxCommonHeroSkinRarity < 6845\r\n            ) {\r\n                return \"rare\";\r\n            } else if (\r\n                commonBoxCommonHeroSkinRarity >= 6845 &&\r\n                commonBoxCommonHeroSkinRarity < 8440\r\n            ) {\r\n                return \"mythic\";\r\n            } else if (\r\n                commonBoxCommonHeroSkinRarity >= 8440 &&\r\n                commonBoxCommonHeroSkinRarity < 9310\r\n            ) {\r\n                return \"legendary\";\r\n            }\r\n        } else if (commonBoxHeroProbability == 1) {\r\n            if (\r\n                commonBoxRareHeroSkinRarity >= 0 &&\r\n                commonBoxRareHeroSkinRarity < 365\r\n            ) {\r\n                return \"normal\";\r\n            } else if (\r\n                commonBoxRareHeroSkinRarity >= 365 &&\r\n                commonBoxRareHeroSkinRarity < 540\r\n            ) {\r\n                return \"rare\";\r\n            } else if (\r\n                commonBoxRareHeroSkinRarity >= 540 &&\r\n                commonBoxRareHeroSkinRarity < 640\r\n            ) {\r\n                return \"mythic\";\r\n            } else if (\r\n                commonBoxRareHeroSkinRarity >= 640 &&\r\n                commonBoxRareHeroSkinRarity < 690\r\n            ) {\r\n                return \"legendary\";\r\n            }\r\n        }\r\n    }\r\n\r\n    function getRareBoxSkin() public view returns (string memory) {\r\n        if (rareBoxHeroProbability == 0) {\r\n            if (\r\n                rareBoxCommonHeroSkinRarity >= 0 &&\r\n                rareBoxCommonHeroSkinRarity < 435\r\n            ) {\r\n                return \"normal\";\r\n            } else if (\r\n                rareBoxCommonHeroSkinRarity >= 435 &&\r\n                rareBoxCommonHeroSkinRarity < 705\r\n            ) {\r\n                return \"rare\";\r\n            } else if (\r\n                rareBoxCommonHeroSkinRarity >= 705 &&\r\n                rareBoxCommonHeroSkinRarity < 905\r\n            ) {\r\n                return \"mythic\";\r\n            } else if (\r\n                rareBoxCommonHeroSkinRarity >= 905 &&\r\n                rareBoxCommonHeroSkinRarity < 1005\r\n            ) {\r\n                return \"legendary\";\r\n            }\r\n        } else if (rareBoxHeroProbability == 1) {\r\n            if (\r\n                rareBoxRareHeroSkinRarity >= 0 &&\r\n                rareBoxRareHeroSkinRarity < 3445\r\n            ) {\r\n                return \"normal\";\r\n            } else if (\r\n                rareBoxRareHeroSkinRarity >= 3445 &&\r\n                rareBoxRareHeroSkinRarity < 5960\r\n            ) {\r\n                return \"rare\";\r\n            } else if (\r\n                rareBoxRareHeroSkinRarity >= 5960 &&\r\n                rareBoxRareHeroSkinRarity < 7810\r\n            ) {\r\n                return \"mythic\";\r\n            } else if (\r\n                rareBoxRareHeroSkinRarity >= 7810 &&\r\n                rareBoxRareHeroSkinRarity < 8910\r\n            ) {\r\n                return \"legendary\";\r\n            }\r\n        } else if (rareBoxHeroProbability == 2) {\r\n            if (\r\n                rareBoxEpicHeroSkinRarity >= 0 && rareBoxEpicHeroSkinRarity < 50\r\n            ) {\r\n                return \"normal\";\r\n            } else if (\r\n                rareBoxEpicHeroSkinRarity >= 50 &&\r\n                rareBoxEpicHeroSkinRarity < 70\r\n            ) {\r\n                return \"rare\";\r\n            } else if (\r\n                rareBoxEpicHeroSkinRarity >= 70 &&\r\n                rareBoxEpicHeroSkinRarity < 80\r\n            ) {\r\n                return \"mythic\";\r\n            } else if (\r\n                rareBoxEpicHeroSkinRarity >= 80 &&\r\n                rareBoxEpicHeroSkinRarity < 85\r\n            ) {\r\n                return \"legendary\";\r\n            }\r\n        }\r\n    }\r\n\r\n    function getEpicBoxSkin() public view returns (string memory) {\r\n        if (epicBoxHeroProbability == 0) {\r\n            if (\r\n                epicBoxCommonHeroSkinRarity >= 0 &&\r\n                epicBoxCommonHeroSkinRarity < 15\r\n            ) {\r\n                return \"normal\";\r\n            } else if (\r\n                epicBoxCommonHeroSkinRarity >= 15 &&\r\n                epicBoxCommonHeroSkinRarity < 40\r\n            ) {\r\n                return \"rare\";\r\n            } else if (\r\n                epicBoxCommonHeroSkinRarity >= 40 &&\r\n                epicBoxCommonHeroSkinRarity < 240\r\n            ) {\r\n                return \"mythic\";\r\n            } else if (\r\n                epicBoxCommonHeroSkinRarity >= 240 &&\r\n                epicBoxCommonHeroSkinRarity < 505\r\n            ) {\r\n                return \"legendary\";\r\n            }\r\n        } else if (epicBoxHeroProbability == 1) {\r\n            if (\r\n                epicBoxRareHeroSkinRarity >= 0 &&\r\n                epicBoxRareHeroSkinRarity < 515\r\n            ) {\r\n                return \"normal\";\r\n            } else if (\r\n                epicBoxRareHeroSkinRarity >= 515 &&\r\n                epicBoxRareHeroSkinRarity < 730\r\n            ) {\r\n                return \"rare\";\r\n            } else if (\r\n                epicBoxRareHeroSkinRarity >= 730 &&\r\n                epicBoxRareHeroSkinRarity < 855\r\n            ) {\r\n                return \"mythic\";\r\n            } else if (\r\n                epicBoxRareHeroSkinRarity >= 855 &&\r\n                epicBoxRareHeroSkinRarity < 940\r\n            ) {\r\n                return \"legendary\";\r\n            }\r\n        } else if (epicBoxHeroProbability == 2) {\r\n            if (\r\n                epicBoxEpicHeroSkinRarity >= 0 &&\r\n                epicBoxEpicHeroSkinRarity < 3295\r\n            ) {\r\n                return \"normal\";\r\n            } else if (\r\n                epicBoxEpicHeroSkinRarity >= 3295 &&\r\n                epicBoxEpicHeroSkinRarity < 5645\r\n            ) {\r\n                return \"rare\";\r\n            } else if (\r\n                epicBoxEpicHeroSkinRarity >= 5645 &&\r\n                epicBoxEpicHeroSkinRarity < 7150\r\n            ) {\r\n                return \"mythic\";\r\n            } else if (\r\n                epicBoxEpicHeroSkinRarity >= 7150 &&\r\n                epicBoxEpicHeroSkinRarity < 8115\r\n            ) {\r\n                return \"legendary\";\r\n            }\r\n        } else if (epicBoxHeroProbability == 3) {\r\n            if (\r\n                epicBoxLegendarySkinRarity >= 0 &&\r\n                epicBoxLegendarySkinRarity < 225\r\n            ) {\r\n                return \"normal\";\r\n            } else if (\r\n                epicBoxLegendarySkinRarity >= 225 &&\r\n                epicBoxLegendarySkinRarity < 400\r\n            ) {\r\n                return \"rare\";\r\n            } else if (\r\n                epicBoxLegendarySkinRarity >= 400 &&\r\n                epicBoxLegendarySkinRarity < 435\r\n            ) {\r\n                return \"mythic\";\r\n            } else if (\r\n                epicBoxLegendarySkinRarity >= 435 &&\r\n                epicBoxLegendarySkinRarity < 440\r\n            ) {\r\n                return \"legendary\";\r\n            }\r\n        }\r\n    }\r\n\r\n    function getLegendaryBoxSkin() public view returns (string memory) {\r\n        if (legendaryBoxHeroProbability == 1) {\r\n            if (\r\n                legendaryBoxRareSkinRarity >= 0 &&\r\n                legendaryBoxRareSkinRarity < 55\r\n            ) {\r\n                return \"normal\";\r\n            } else if (\r\n                legendaryBoxRareSkinRarity >= 55 &&\r\n                legendaryBoxRareSkinRarity < 140\r\n            ) {\r\n                return \"rare\";\r\n            } else if (\r\n                legendaryBoxRareSkinRarity >= 140 &&\r\n                legendaryBoxRareSkinRarity < 265\r\n            ) {\r\n                return \"mythic\";\r\n            } else if (\r\n                legendaryBoxRareSkinRarity >= 265 &&\r\n                legendaryBoxRareSkinRarity < 440\r\n            ) {\r\n                return \"legendary\";\r\n            }\r\n        } else if (legendaryBoxHeroProbability == 2) {\r\n            if (\r\n                legendaryBoxEpicSkinRarity >= 0 &&\r\n                legendaryBoxEpicSkinRarity < 235\r\n            ) {\r\n                return \"normal\";\r\n            } else if (\r\n                legendaryBoxEpicSkinRarity >= 235 &&\r\n                legendaryBoxEpicSkinRarity < 600\r\n            ) {\r\n                return \"rare\";\r\n            } else if (\r\n                legendaryBoxEpicSkinRarity >= 600 &&\r\n                legendaryBoxEpicSkinRarity < 1195\r\n            ) {\r\n                return \"mythic\";\r\n            } else if (\r\n                legendaryBoxEpicSkinRarity >= 1195 &&\r\n                legendaryBoxEpicSkinRarity < 2020\r\n            ) {\r\n                return \"legendary\";\r\n            }\r\n        } else if (legendaryBoxHeroProbability == 3) {\r\n            if (\r\n                legendaryBoxLegendarySkinRarity >= 0 &&\r\n                legendaryBoxLegendarySkinRarity < 3295\r\n            ) {\r\n                return \"normal\";\r\n            } else if (\r\n                legendaryBoxLegendarySkinRarity >= 3295 &&\r\n                legendaryBoxLegendarySkinRarity < 5510\r\n            ) {\r\n                return \"rare\";\r\n            } else if (\r\n                legendaryBoxLegendarySkinRarity >= 5510 &&\r\n                legendaryBoxLegendarySkinRarity < 7185\r\n            ) {\r\n                return \"mythic\";\r\n            } else if (\r\n                legendaryBoxLegendarySkinRarity >= 7185 &&\r\n                legendaryBoxLegendarySkinRarity < 7540\r\n            ) {\r\n                return \"legendary\";\r\n            }\r\n        }\r\n    }\r\n\r\n    function getWeaponBoxRarityDrop() public view returns (string memory) {\r\n        if (weaponBoxRarityDrop >= 0 && weaponBoxRarityDrop < 78) {\r\n            return \"rare\";\r\n        } else if (weaponBoxRarityDrop >= 78 && weaponBoxRarityDrop < 98) {\r\n            return \"epic\";\r\n        } else if (weaponBoxRarityDrop >= 98 && weaponBoxRarityDrop < 100) {\r\n            return \"legendary\";\r\n        }\r\n    }\r\n\r\n    function setCommonBoxHeroProbability(uint8 _commonBoxHeroProbability)\r\n        public\r\n    {\r\n        commonBoxHeroProbability = _commonBoxHeroProbability;\r\n    }\r\n\r\n    function setRareBoxHeroProbability(uint8 _rareBoxHeroProbability) public {\r\n        rareBoxHeroProbability = _rareBoxHeroProbability;\r\n    }\r\n\r\n    function setEpicBoxHeroProbability(uint8 _epicBoxHeroProbability) public {\r\n        epicBoxHeroProbability = _epicBoxHeroProbability;\r\n    }\r\n\r\n    function setLegendaryBoxHeroProbability(uint8 _legendaryBoxHeroProbability)\r\n        public\r\n    {\r\n        legendaryBoxHeroProbability = _legendaryBoxHeroProbability;\r\n    }\r\n\r\n    function setWeaponBoxRarityDrop(uint8 _weaponBoxRarityDrop) public {\r\n        weaponBoxRarityDrop = _weaponBoxRarityDrop;\r\n    }\r\n\r\n    //common box skin rarity\r\n    function setCommonBoxCommonHeroSkinRarity(uint16 _commonBoxCommonHeroSkinRarity) public {\r\n        commonBoxCommonHeroSkinRarity = _commonBoxCommonHeroSkinRarity;\r\n    }\r\n\r\n    function setCommonBoxRareHeroSkinRarity(uint16 _commonBoxRareHeroSkinRarity) public {\r\n        commonBoxRareHeroSkinRarity = _commonBoxRareHeroSkinRarity;\r\n    }\r\n\r\n    //rare box skin rarity\r\n    function setRareBoxCommonHeroSkinRarity(uint16 _rareBoxCommonHeroSkinRarity) public {\r\n        rareBoxCommonHeroSkinRarity = _rareBoxCommonHeroSkinRarity;\r\n    }\r\n\r\n    function setRareBoxRareHeroSkinRarity(uint16 _rareBoxRareHeroSkinRarity) public {\r\n        rareBoxRareHeroSkinRarity = _rareBoxRareHeroSkinRarity;\r\n    }\r\n\r\n    function setRareBoxEpicHeroSkinRarity(uint16 _rareBoxEpicHeroSkinRarity) public {\r\n        rareBoxEpicHeroSkinRarity = _rareBoxEpicHeroSkinRarity;\r\n    }\r\n\r\n    //epic box skin rarity\r\n    function setEpicBoxCommonHeroSkinRarity(uint16 _epicBoxCommonHeroSkinRarity) public {\r\n        epicBoxCommonHeroSkinRarity = _epicBoxCommonHeroSkinRarity;\r\n    }\r\n\r\n    function setEpicBoxRareHeroSkinRarity(uint16 _epicBoxRareHeroSkinRarity) public {\r\n        epicBoxRareHeroSkinRarity = _epicBoxRareHeroSkinRarity;\r\n    }\r\n\r\n    function setEpicBoxEpicHeroSkinRarity(uint16 _epicBoxEpicHeroSkinRarity) public {\r\n        epicBoxEpicHeroSkinRarity = _epicBoxEpicHeroSkinRarity;\r\n    }\r\n\r\n    function setEpicBoxLegendarySkinRarity(uint16 _epicBoxLegendarySkinRarity) public {\r\n        epicBoxLegendarySkinRarity = _epicBoxLegendarySkinRarity;\r\n    }\r\n\r\n    //legendary box skin rarity\r\n    function setLegendaryBoxRareSkinRarity(uint16 _legendaryBoxRareSkinRarity) public {\r\n        legendaryBoxRareSkinRarity = _legendaryBoxRareSkinRarity;\r\n    }\r\n\r\n    function setLegendaryBoxEpicSkinRarity(uint16 _legendaryBoxEpicSkinRarity) public {\r\n        legendaryBoxEpicSkinRarity = _legendaryBoxEpicSkinRarity;\r\n    }\r\n\r\n    function setLegendaryBoxLegendarySkinRarity(uint16 _legendaryBoxLegendarySkinRarity) public {\r\n        legendaryBoxLegendarySkinRarity = _legendaryBoxLegendarySkinRarity;\r\n    }\r\n}\r\n",
  "sourcePath": "D:/Desktop/immense/crypto/defi application/test (NFT marketplace)/NFT game/src/contracts/testChainlink1.sol",
  "compiler": {
    "name": "solc",
    "version": "0.8.4+commit.c7e474f2.Emscripten.clang"
  },
  "schemaVersion": "3.2.3",
  "updatedAt": "2022-05-27T06:37:04.960Z",
  "devdoc": {
    "kind": "dev",
    "methods": {},
    "version": 1
  },
  "userdoc": {
    "kind": "user",
    "methods": {
      "constructor": {
        "notice": "Constructor inherits VRFConsumerBase Network: Kovan Chainlink VRF Coordinator address: 0xdD3782915140c8f3b190B5D67eAc6dc5760C46E9 LINK token address:                0xa36085F69e2889c224210F603D836748e7dC0088 Key Hash: 0x6c3699283bda56ad74f6b855546325b68d482e983852a7a82979cc4807b641f4 Network: BSC testnet Chainlink VRF Coordinator address: 0xa555fC018435bef5A13C6c6870a9d4C11DEC329C LINK token address:                0x84b9B910527Ad5C03A9Ca831909E21e236EA7b06 Key Hash: 0xcaf3c3727e033261d383b315559476f48034c13b18f8cafed4d871abe5049186 Links https://docs.chain.link/docs/get-a-random-number/v1/ https://docs.chain.link/docs/vrf-contracts/v1/"
      },
      "getRandomNumber()": {
        "notice": "Requests randomness"
      }
    },
    "notice": "Request testnet LINK and ETH here: https://faucets.chain.link/ Find information on LINK Token Contracts and get the latest ETH and LINK faucets here: https://docs.chain.link/docs/link-token-contracts/",
    "version": 1
  }
}