{
  "contractName": "UpgradeHero",
  "abi": [
    {
      "inputs": [],
      "stateMutability": "nonpayable",
      "type": "constructor"
    },
    {
      "anonymous": false,
      "inputs": [
        {
          "indexed": true,
          "internalType": "address",
          "name": "previousOwner",
          "type": "address"
        },
        {
          "indexed": true,
          "internalType": "address",
          "name": "newOwner",
          "type": "address"
        }
      ],
      "name": "OwnershipTransferred",
      "type": "event"
    },
    {
      "anonymous": false,
      "inputs": [
        {
          "indexed": false,
          "internalType": "uint256",
          "name": "price",
          "type": "uint256"
        },
        {
          "indexed": false,
          "internalType": "address",
          "name": "paymentToken",
          "type": "address"
        }
      ],
      "name": "UpgradeHeroPaid",
      "type": "event"
    },
    {
      "inputs": [],
      "name": "owner",
      "outputs": [
        {
          "internalType": "address",
          "name": "",
          "type": "address"
        }
      ],
      "stateMutability": "view",
      "type": "function"
    },
    {
      "inputs": [],
      "name": "paymentReceivedAddress",
      "outputs": [
        {
          "internalType": "address",
          "name": "",
          "type": "address"
        }
      ],
      "stateMutability": "view",
      "type": "function"
    },
    {
      "inputs": [],
      "name": "platformCommission",
      "outputs": [
        {
          "internalType": "uint256",
          "name": "",
          "type": "uint256"
        }
      ],
      "stateMutability": "view",
      "type": "function"
    },
    {
      "inputs": [],
      "name": "renounceOwnership",
      "outputs": [],
      "stateMutability": "nonpayable",
      "type": "function"
    },
    {
      "inputs": [
        {
          "internalType": "address",
          "name": "newOwner",
          "type": "address"
        }
      ],
      "name": "transferOwnership",
      "outputs": [],
      "stateMutability": "nonpayable",
      "type": "function"
    },
    {
      "inputs": [
        {
          "internalType": "address",
          "name": "_paymentReceivedAddress",
          "type": "address"
        }
      ],
      "name": "setPaymentReceivedAddress",
      "outputs": [],
      "stateMutability": "nonpayable",
      "type": "function"
    },
    {
      "inputs": [
        {
          "internalType": "uint256",
          "name": "price",
          "type": "uint256"
        },
        {
          "internalType": "address",
          "name": "paymentErc20",
          "type": "address"
        }
      ],
      "name": "upgradeHeroPayment",
      "outputs": [],
      "stateMutability": "nonpayable",
      "type": "function"
    }
  ],
  "bytecode": "0x608060405234801561001057600080fd5b5061002d61002261007360201b60201c565b61007b60201b60201c565b33600160006101000a81548173ffffffffffffffffffffffffffffffffffffffff021916908373ffffffffffffffffffffffffffffffffffffffff16021790555061013f565b600033905090565b60008060009054906101000a900473ffffffffffffffffffffffffffffffffffffffff169050816000806101000a81548173ffffffffffffffffffffffffffffffffffffffff021916908373ffffffffffffffffffffffffffffffffffffffff1602179055508173ffffffffffffffffffffffffffffffffffffffff168173ffffffffffffffffffffffffffffffffffffffff167f8be0079c531659141344cd1fd0a4f28419497f9722a3daafe3b4186f6b6457e060405160405180910390a35050565b6111a38061014e6000396000f3fe608060405234801561001057600080fd5b506004361061007d5760003560e01c8063715018a61161005b578063715018a6146100da5780638da5cb5b146100e4578063ef0e801614610102578063f2fde38b1461011e5761007d565b806312905ef91461008257806348af22a7146100a0578063694e91b8146100bc575b600080fd5b61008a61013a565b6040516100979190610c5d565b60405180910390f35b6100ba60048036038101906100b591906109ef565b610160565b005b6100c4610220565b6040516100d19190610dfa565b60405180910390f35b6100e2610226565b005b6100ec6102ae565b6040516100f99190610c5d565b60405180910390f35b61011c60048036038101906101179190610a6a565b6102d7565b005b610138600480360381019061013391906109ef565b6104c8565b005b600160009054906101000a900473ffffffffffffffffffffffffffffffffffffffff1681565b6101686105c0565b73ffffffffffffffffffffffffffffffffffffffff166101866102ae565b73ffffffffffffffffffffffffffffffffffffffff16146101dc576040517f08c379a00000000000000000000000000000000000000000000000000000000081526004016101d390610d7a565b60405180910390fd5b80600160006101000a81548173ffffffffffffffffffffffffffffffffffffffff021916908373ffffffffffffffffffffffffffffffffffffffff16021790555050565b60025481565b61022e6105c0565b73ffffffffffffffffffffffffffffffffffffffff1661024c6102ae565b73ffffffffffffffffffffffffffffffffffffffff16146102a2576040517f08c379a000000000000000000000000000000000000000000000000000000000815260040161029990610d7a565b60405180910390fd5b6102ac60006105c8565b565b60008060009054906101000a900473ffffffffffffffffffffffffffffffffffffffff16905090565b6102e03361068c565b15610320576040517f08c379a000000000000000000000000000000000000000000000000000000000815260040161031790610d3a565b60405180910390fd5b60008211610363576040517f08c379a000000000000000000000000000000000000000000000000000000000815260040161035a90610d9a565b60405180910390fd5b600081905060008173ffffffffffffffffffffffffffffffffffffffff1663dd62ed3e33306040518363ffffffff1660e01b81526004016103a5929190610c78565b60206040518083038186803b1580156103bd57600080fd5b505afa1580156103d1573d6000803e3d6000fd5b505050506040513d601f19601f820116820180604052508101906103f59190610a41565b90508381101561043a576040517f08c379a000000000000000000000000000000000000000000000000000000000815260040161043190610d5a565b60405180910390fd5b61048933600160009054906101000a900473ffffffffffffffffffffffffffffffffffffffff16868573ffffffffffffffffffffffffffffffffffffffff166106a5909392919063ffffffff16565b7f0b55875dd04f96e2da32fa5c15daa9aed71a6d671e468c0114ba4bc61d3b24a884846040516104ba929190610e15565b60405180910390a150505050565b6104d06105c0565b73ffffffffffffffffffffffffffffffffffffffff166104ee6102ae565b73ffffffffffffffffffffffffffffffffffffffff1614610544576040517f08c379a000000000000000000000000000000000000000000000000000000000815260040161053b90610d7a565b60405180910390fd5b600073ffffffffffffffffffffffffffffffffffffffff168173ffffffffffffffffffffffffffffffffffffffff1614156105b4576040517f08c379a00000000000000000000000000000000000000000000000000000000081526004016105ab90610cfa565b60405180910390fd5b6105bd816105c8565b50565b600033905090565b60008060009054906101000a900473ffffffffffffffffffffffffffffffffffffffff169050816000806101000a81548173ffffffffffffffffffffffffffffffffffffffff021916908373ffffffffffffffffffffffffffffffffffffffff1602179055508173ffffffffffffffffffffffffffffffffffffffff168173ffffffffffffffffffffffffffffffffffffffff167f8be0079c531659141344cd1fd0a4f28419497f9722a3daafe3b4186f6b6457e060405160405180910390a35050565b600080823b905060008163ffffffff1611915050919050565b610728846323b872dd60e01b8585856040516024016106c693929190610ca1565b604051602081830303815290604052907bffffffffffffffffffffffffffffffffffffffffffffffffffffffff19166020820180517bffffffffffffffffffffffffffffffffffffffffffffffffffffffff838183161783525050505061072e565b50505050565b6000610790826040518060400160405280602081526020017f5361666545524332303a206c6f772d6c6576656c2063616c6c206661696c65648152508573ffffffffffffffffffffffffffffffffffffffff166107f59092919063ffffffff16565b90506000815111156107f057808060200190518101906107b09190610a18565b6107ef576040517f08c379a00000000000000000000000000000000000000000000000000000000081526004016107e690610dda565b60405180910390fd5b5b505050565b6060610804848460008561080d565b90509392505050565b606082471015610852576040517f08c379a000000000000000000000000000000000000000000000000000000000815260040161084990610d1a565b60405180910390fd5b61085b85610921565b61089a576040517f08c379a000000000000000000000000000000000000000000000000000000000815260040161089190610dba565b60405180910390fd5b6000808673ffffffffffffffffffffffffffffffffffffffff1685876040516108c39190610c46565b60006040518083038185875af1925050503d8060008114610900576040519150601f19603f3d011682016040523d82523d6000602084013e610905565b606091505b5091509150610915828286610934565b92505050949350505050565b600080823b905060008111915050919050565b6060831561094457829050610994565b6000835111156109575782518084602001fd5b816040517f08c379a000000000000000000000000000000000000000000000000000000000815260040161098b9190610cd8565b60405180910390fd5b9392505050565b6000813590506109aa81611128565b92915050565b6000815190506109bf8161113f565b92915050565b6000813590506109d481611156565b92915050565b6000815190506109e981611156565b92915050565b600060208284031215610a0157600080fd5b6000610a0f8482850161099b565b91505092915050565b600060208284031215610a2a57600080fd5b6000610a38848285016109b0565b91505092915050565b600060208284031215610a5357600080fd5b6000610a61848285016109da565b91505092915050565b60008060408385031215610a7d57600080fd5b6000610a8b858286016109c5565b9250506020610a9c8582860161099b565b9150509250929050565b610aaf81610e70565b82525050565b6000610ac082610e3e565b610aca8185610e54565b9350610ada818560208601610eb8565b80840191505092915050565b6000610af182610e49565b610afb8185610e5f565b9350610b0b818560208601610eb8565b610b1481610eeb565b840191505092915050565b6000610b2c602683610e5f565b9150610b3782610efc565b604082019050919050565b6000610b4f602683610e5f565b9150610b5a82610f4b565b604082019050919050565b6000610b72603383610e5f565b9150610b7d82610f9a565b604082019050919050565b6000610b95602b83610e5f565b9150610ba082610fe9565b604082019050919050565b6000610bb8602083610e5f565b9150610bc382611038565b602082019050919050565b6000610bdb602a83610e5f565b9150610be682611061565b604082019050919050565b6000610bfe601d83610e5f565b9150610c09826110b0565b602082019050919050565b6000610c21602a83610e5f565b9150610c2c826110d9565b604082019050919050565b610c4081610eae565b82525050565b6000610c528284610ab5565b915081905092915050565b6000602082019050610c726000830184610aa6565b92915050565b6000604082019050610c8d6000830185610aa6565b610c9a6020830184610aa6565b9392505050565b6000606082019050610cb66000830186610aa6565b610cc36020830185610aa6565b610cd06040830184610c37565b949350505050565b60006020820190508181036000830152610cf28184610ae6565b905092915050565b60006020820190508181036000830152610d1381610b1f565b9050919050565b60006020820190508181036000830152610d3381610b42565b9050919050565b60006020820190508181036000830152610d5381610b65565b9050919050565b60006020820190508181036000830152610d7381610b88565b9050919050565b60006020820190508181036000830152610d9381610bab565b9050919050565b60006020820190508181036000830152610db381610bce565b9050919050565b60006020820190508181036000830152610dd381610bf1565b9050919050565b60006020820190508181036000830152610df381610c14565b9050919050565b6000602082019050610e0f6000830184610c37565b92915050565b6000604082019050610e2a6000830185610c37565b610e376020830184610aa6565b9392505050565b600081519050919050565b600081519050919050565b600081905092915050565b600082825260208201905092915050565b6000610e7b82610e8e565b9050919050565b60008115159050919050565b600073ffffffffffffffffffffffffffffffffffffffff82169050919050565b6000819050919050565b60005b83811015610ed6578082015181840152602081019050610ebb565b83811115610ee5576000848401525b50505050565b6000601f19601f8301169050919050565b7f4f776e61626c653a206e6577206f776e657220697320746865207a65726f206160008201527f6464726573730000000000000000000000000000000000000000000000000000602082015250565b7f416464726573733a20696e73756666696369656e742062616c616e636520666f60008201527f722063616c6c0000000000000000000000000000000000000000000000000000602082015250565b7f426f785061796d656e743a204f6e6c792075736572206164647265737320697360008201527f20616c6c6f77656420746f2062757920626f7800000000000000000000000000602082015250565b7f557067726164654865726f5061796d656e743a20496e76616c696420746f6b6560008201527f6e20616c6c6f77616e6365000000000000000000000000000000000000000000602082015250565b7f4f776e61626c653a2063616c6c6572206973206e6f7420746865206f776e6572600082015250565b7f557067726164654865726f5061796d656e743a20496e76616c6964207061796d60008201527f656e7420616d6f756e7400000000000000000000000000000000000000000000602082015250565b7f416464726573733a2063616c6c20746f206e6f6e2d636f6e7472616374000000600082015250565b7f5361666545524332303a204552433230206f7065726174696f6e20646964206e60008201527f6f74207375636365656400000000000000000000000000000000000000000000602082015250565b61113181610e70565b811461113c57600080fd5b50565b61114881610e82565b811461115357600080fd5b50565b61115f81610eae565b811461116a57600080fd5b5056fea2646970667358221220a206442253d4936edadba2e27758ee884c06aec333ef3174d2bbe24a4e7f03cf64736f6c63430008040033",
  "immutableReferences": {},
  "source": "// SPDX-License-Identifier: MIT\r\npragma solidity ^0.8.0;\r\n\r\nimport \"@openzeppelin/contracts/token/ERC20/IERC20.sol\";\r\nimport \"@openzeppelin/contracts/token/ERC20/utils/SafeERC20.sol\";\r\nimport \"@openzeppelin/contracts/access/Ownable.sol\";\r\n\r\n// import \"./HasSignature.sol\";\r\n\r\ncontract UpgradeHero is Ownable {\r\n    using SafeERC20 for IERC20;\r\n\r\n    event UpgradeHeroPaid(uint256 price, address paymentToken);\r\n\r\n    address public paymentReceivedAddress;\r\n    uint256 public platformCommission;\r\n\r\n    constructor() {\r\n        paymentReceivedAddress = msg.sender;\r\n    }\r\n\r\n    function setPaymentReceivedAddress(address _paymentReceivedAddress)\r\n        public\r\n        onlyOwner\r\n    {\r\n        paymentReceivedAddress = _paymentReceivedAddress;\r\n    }\r\n\r\n    /**\r\n     * @dev  box payment buy function\r\n     */\r\n    function upgradeHeroPayment(uint256 price, address paymentErc20) external {\r\n        require(\r\n            !isContract(msg.sender),\r\n            \"BoxPayment: Only user address is allowed to buy box\"\r\n        );\r\n        require(price > 0, \"UpgradeHeroPayment: Invalid payment amount\");\r\n\r\n        IERC20 paymentToken = IERC20(paymentErc20);\r\n        uint256 allowToPayAmount = paymentToken.allowance(\r\n            msg.sender,\r\n            address(this)\r\n        );\r\n        require(\r\n            allowToPayAmount >= price,\r\n            \"UpgradeHeroPayment: Invalid token allowance\"\r\n        );\r\n        // Transfer payment\r\n        paymentToken.safeTransferFrom(\r\n            msg.sender,\r\n            paymentReceivedAddress,\r\n            price\r\n        );\r\n        // Emit payment event\r\n        emit UpgradeHeroPaid(price, paymentErc20);\r\n    }\r\n\r\n    /**\r\n     * @dev Identify an address is user address or contract address\r\n     */\r\n    function isContract(address _address) private view returns (bool) {\r\n        uint32 size;\r\n        assembly {\r\n            size := extcodesize(_address)\r\n        }\r\n        return (size > 0);\r\n    }\r\n}\r\n",
  "sourcePath": "D:\\Desktop\\immense\\crypto\\defi application\\test (NFT marketplace)\\NFT game\\src\\contracts\\UpgradeHero.sol",
  "compiler": {
    "name": "solc",
    "version": "0.8.4+commit.c7e474f2.Emscripten.clang"
  },
  "schemaVersion": "3.4.7",
  "updatedAt": "2022-06-09T08:31:54.716Z",
  "networkType": "ethereum",
  "devdoc": {
    "kind": "dev",
    "methods": {
      "owner()": {
        "details": "Returns the address of the current owner."
      },
      "renounceOwnership()": {
        "details": "Leaves the contract without owner. It will not be possible to call `onlyOwner` functions anymore. Can only be called by the current owner. NOTE: Renouncing ownership will leave the contract without an owner, thereby removing any functionality that is only available to the owner."
      },
      "transferOwnership(address)": {
        "details": "Transfers ownership of the contract to a new account (`newOwner`). Can only be called by the current owner."
      },
      "upgradeHeroPayment(uint256,address)": {
        "details": "box payment buy function"
      }
    },
    "version": 1
  },
  "userdoc": {
    "kind": "user",
    "methods": {},
    "version": 1
  }
}