{
  "contractName": "VerifySig",
  "abi": [
    {
      "inputs": [
        {
          "internalType": "address",
          "name": "_signer",
          "type": "address"
        },
        {
          "internalType": "uint256",
          "name": "_type",
          "type": "uint256"
        },
        {
          "internalType": "uint256",
          "name": "price",
          "type": "uint256"
        },
        {
          "internalType": "address",
          "name": "paymentErc20",
          "type": "address"
        },
        {
          "internalType": "bytes",
          "name": "_sig",
          "type": "bytes"
        }
      ],
      "name": "verify",
      "outputs": [
        {
          "internalType": "bool",
          "name": "",
          "type": "bool"
        }
      ],
      "stateMutability": "pure",
      "type": "function"
    },
    {
      "inputs": [
        {
          "internalType": "uint256",
          "name": "_boxType",
          "type": "uint256"
        },
        {
          "internalType": "address",
          "name": "_paymentErc20",
          "type": "address"
        },
        {
          "internalType": "uint256",
          "name": "_price",
          "type": "uint256"
        }
      ],
      "name": "getMessageHash",
      "outputs": [
        {
          "internalType": "bytes32",
          "name": "",
          "type": "bytes32"
        }
      ],
      "stateMutability": "pure",
      "type": "function"
    },
    {
      "inputs": [
        {
          "internalType": "bytes32",
          "name": "_messageHash",
          "type": "bytes32"
        }
      ],
      "name": "getETHSignedMessageHash",
      "outputs": [
        {
          "internalType": "bytes32",
          "name": "",
          "type": "bytes32"
        }
      ],
      "stateMutability": "pure",
      "type": "function"
    },
    {
      "inputs": [
        {
          "internalType": "bytes32",
          "name": "_ethSignedMessageHash",
          "type": "bytes32"
        },
        {
          "internalType": "bytes",
          "name": "_sig",
          "type": "bytes"
        }
      ],
      "name": "recover",
      "outputs": [
        {
          "internalType": "address",
          "name": "",
          "type": "address"
        }
      ],
      "stateMutability": "pure",
      "type": "function"
    }
  ],
  "bytecode": "0x608060405234801561001057600080fd5b506108f5806100206000396000f3fe608060405234801561001057600080fd5b506004361061004c5760003560e01c80630d7b475d1461005157806319045a25146100815780637ffc9094146100b1578063cbb816c5146100e1575b600080fd5b61006b600480360381019061006691906103e6565b610111565b6040516100789190610612565b60405180910390f35b61009b6004803603810190610096919061040f565b610141565b6040516100a891906105dc565b60405180910390f35b6100cb60048036038101906100c69190610357565b6101b0565b6040516100d891906105f7565b60405180910390f35b6100fb60048036038101906100f69190610463565b610212565b6040516101089190610612565b60405180910390f35b6000816040516020016101249190610579565b604051602081830303815290604052805190602001209050919050565b60008060008061015085610248565b92509250925060018682858560405160008152602001604052604051610179949392919061062d565b6020604051602081039080840390855afa15801561019b573d6000803e3d6000fd5b50505060206040510351935050505092915050565b6000806101be868587610212565b905060006101cb82610111565b90508773ffffffffffffffffffffffffffffffffffffffff166101ee8286610141565b73ffffffffffffffffffffffffffffffffffffffff16149250505095945050505050565b60008383836040516020016102299392919061059f565b6040516020818303038152906040528051906020012090509392505050565b60008060006041845114610291576040517f08c379a000000000000000000000000000000000000000000000000000000000815260040161028890610672565b60405180910390fd5b6020840151925060408401519150606084015160001a90509193909250565b60006102c36102be846106b7565b610692565b9050828152602081018484840111156102db57600080fd5b6102e6848285610763565b509392505050565b6000813590506102fd8161087a565b92915050565b60008135905061031281610891565b92915050565b600082601f83011261032957600080fd5b81356103398482602086016102b0565b91505092915050565b600081359050610351816108a8565b92915050565b600080600080600060a0868803121561036f57600080fd5b600061037d888289016102ee565b955050602061038e88828901610342565b945050604061039f88828901610342565b93505060606103b0888289016102ee565b925050608086013567ffffffffffffffff8111156103cd57600080fd5b6103d988828901610318565b9150509295509295909350565b6000602082840312156103f857600080fd5b600061040684828501610303565b91505092915050565b6000806040838503121561042257600080fd5b600061043085828601610303565b925050602083013567ffffffffffffffff81111561044d57600080fd5b61045985828601610318565b9150509250929050565b60008060006060848603121561047857600080fd5b600061048686828701610342565b9350506020610497868287016102ee565b92505060406104a886828701610342565b9150509250925092565b6104bb81610704565b82525050565b6104d26104cd82610704565b6107a3565b82525050565b6104e181610716565b82525050565b6104f081610722565b82525050565b61050761050282610722565b6107b5565b82525050565b600061051a601c836106f9565b915061052582610828565b601c82019050919050565b600061053d6018836106e8565b915061054882610851565b602082019050919050565b61056461055f8261074c565b6107d1565b82525050565b61057381610756565b82525050565b60006105848261050d565b915061059082846104f6565b60208201915081905092915050565b60006105ab8286610553565b6020820191506105bb82856104c1565b6014820191506105cb8284610553565b602082019150819050949350505050565b60006020820190506105f160008301846104b2565b92915050565b600060208201905061060c60008301846104d8565b92915050565b600060208201905061062760008301846104e7565b92915050565b600060808201905061064260008301876104e7565b61064f602083018661056a565b61065c60408301856104e7565b61066960608301846104e7565b95945050505050565b6000602082019050818103600083015261068b81610530565b9050919050565b600061069c6106ad565b90506106a88282610772565b919050565b6000604051905090565b600067ffffffffffffffff8211156106d2576106d16107db565b5b6106db8261080a565b9050602081019050919050565b600082825260208201905092915050565b600081905092915050565b600061070f8261072c565b9050919050565b60008115159050919050565b6000819050919050565b600073ffffffffffffffffffffffffffffffffffffffff82169050919050565b6000819050919050565b600060ff82169050919050565b82818337600083830152505050565b61077b8261080a565b810181811067ffffffffffffffff8211171561079a576107996107db565b5b80604052505050565b60006107ae826107bf565b9050919050565b6000819050919050565b60006107ca8261081b565b9050919050565b6000819050919050565b7f4e487b7100000000000000000000000000000000000000000000000000000000600052604160045260246000fd5b6000601f19601f8301169050919050565b60008160601b9050919050565b7f19457468657265756d205369676e6564204d6573736167653a0a333200000000600082015250565b7f696e76616c6964207369676e6174757265206c656e6774680000000000000000600082015250565b61088381610704565b811461088e57600080fd5b50565b61089a81610722565b81146108a557600080fd5b50565b6108b18161074c565b81146108bc57600080fd5b5056fea2646970667358221220bed26eac9398ff1e90bb52d3ddc7cd6faea159dc5bbff9dc7fe08867d522840364736f6c63430008040033",
  "immutableReferences": {},
  "source": "// SPDX-License-Identifier: MIT\r\npragma solidity ^0.8.0;\r\n\r\ncontract VerifySig {\r\n    function verify(\r\n        address _signer,\r\n        uint256 _type,\r\n        uint256 price,\r\n        address paymentErc20,\r\n        bytes memory _sig\r\n    ) external pure returns (bool) {\r\n        bytes32 messageHash = getMessageHash(_type, paymentErc20, price);\r\n        bytes32 ethSignedmessageHash = getETHSignedMessageHash(messageHash);\r\n\r\n        return recover(ethSignedmessageHash, _sig) == _signer;\r\n    }\r\n\r\n    function getMessageHash(\r\n        uint256 _boxType,\r\n        address _paymentErc20,\r\n        uint256 _price\r\n    ) public pure returns (bytes32) {\r\n        return keccak256(abi.encodePacked(_boxType, _paymentErc20, _price));\r\n    }\r\n\r\n    function getETHSignedMessageHash(bytes32 _messageHash)\r\n        public\r\n        pure\r\n        returns (bytes32)\r\n    {\r\n        return\r\n            keccak256(\r\n                abi.encodePacked(\r\n                    \"\\x19Ethereum Signed Message:\\n32\",\r\n                    _messageHash\r\n                )\r\n            );\r\n    }\r\n\r\n    function recover(bytes32 _ethSignedMessageHash, bytes memory _sig)\r\n        public\r\n        pure\r\n        returns (address)\r\n    {\r\n        (bytes32 r, bytes32 s, uint8 v) = _split(_sig);\r\n        return ecrecover(_ethSignedMessageHash, v, r, s);\r\n    }\r\n\r\n    function _split(bytes memory _sig)\r\n        internal\r\n        pure\r\n        returns (\r\n            bytes32 r,\r\n            bytes32 s,\r\n            uint8 v\r\n        )\r\n    {\r\n        require(_sig.length == 65, \"invalid signature length\");\r\n\r\n        assembly {\r\n            // first 32 bytes, after the length prefix\r\n            r := mload(add(_sig, 32))\r\n            // second 32 bytes\r\n            s := mload(add(_sig, 64))\r\n            // final byte (first byte of the next 32 bytes)\r\n            v := byte(0, mload(add(_sig, 96)))\r\n        }\r\n    }\r\n}\r\n",
  "sourcePath": "D:/Desktop/immense/crypto/defi application/test (NFT marketplace)/NFT game/src/contracts/thetanSignature.sol",
  "compiler": {
    "name": "solc",
    "version": "0.8.4+commit.c7e474f2.Emscripten.clang"
  },
  "schemaVersion": "3.2.3",
  "updatedAt": "2022-05-12T12:27:54.197Z",
  "devdoc": {
    "kind": "dev",
    "methods": {},
    "version": 1
  },
  "userdoc": {
    "kind": "user",
    "methods": {},
    "version": 1
  }
}