{
  "contractName": "VerifySig1",
  "abi": [
    {
      "inputs": [
        {
          "internalType": "address",
          "name": "_signer",
          "type": "address"
        },
        {
          "internalType": "string",
          "name": "_message",
          "type": "string"
        },
        {
          "internalType": "bytes",
          "name": "_sig",
          "type": "bytes"
        }
      ],
      "name": "verify",
      "outputs": [
        {
          "internalType": "bool",
          "name": "",
          "type": "bool"
        }
      ],
      "stateMutability": "pure",
      "type": "function"
    },
    {
      "inputs": [
        {
          "internalType": "string",
          "name": "_message",
          "type": "string"
        }
      ],
      "name": "getMessageHash",
      "outputs": [
        {
          "internalType": "bytes32",
          "name": "",
          "type": "bytes32"
        }
      ],
      "stateMutability": "pure",
      "type": "function"
    },
    {
      "inputs": [
        {
          "internalType": "bytes32",
          "name": "_messageHash",
          "type": "bytes32"
        }
      ],
      "name": "getETHSignedMessageHash",
      "outputs": [
        {
          "internalType": "bytes32",
          "name": "",
          "type": "bytes32"
        }
      ],
      "stateMutability": "pure",
      "type": "function"
    },
    {
      "inputs": [
        {
          "internalType": "bytes32",
          "name": "_ethSignedMessageHash",
          "type": "bytes32"
        },
        {
          "internalType": "bytes",
          "name": "_sig",
          "type": "bytes"
        }
      ],
      "name": "recover",
      "outputs": [
        {
          "internalType": "address",
          "name": "",
          "type": "address"
        }
      ],
      "stateMutability": "pure",
      "type": "function"
    }
  ],
  "bytecode": "0x608060405234801561001057600080fd5b50610910806100206000396000f3fe608060405234801561001057600080fd5b506004361061004c5760003560e01c80630d7b475d1461005157806319045a25146100815780632dd34f0f146100b1578063b446f3b2146100e1575b600080fd5b61006b6004803603810190610066919061041f565b610111565b604051610078919061061a565b60405180910390f35b61009b60048036038101906100969190610448565b610141565b6040516100a891906105e4565b60405180910390f35b6100cb60048036038101906100c691906103a0565b6101b0565b6040516100d891906105ff565b60405180910390f35b6100fb60048036038101906100f6919061049c565b61020e565b604051610108919061061a565b60405180910390f35b60008160405160200161012491906105be565b604051602081830303815290604052805190602001209050919050565b6000806000806101508561023e565b925092509250600186828585604051600081526020016040526040516101799493929190610635565b6020604051602081039080840390855afa15801561019b573d6000803e3d6000fd5b50505060206040510351935050505092915050565b6000806101bc8461020e565b905060006101c982610111565b90508573ffffffffffffffffffffffffffffffffffffffff166101ec8286610141565b73ffffffffffffffffffffffffffffffffffffffff1614925050509392505050565b60008160405160200161022191906105a7565b604051602081830303815290604052805190602001209050919050565b60008060006041845114610287576040517f08c379a000000000000000000000000000000000000000000000000000000000815260040161027e9061067a565b60405180910390fd5b6020840151925060408401519150606084015160001a90509193909250565b60006102b96102b4846106bf565b61069a565b9050828152602081018484840111156102d157600080fd5b6102dc84828561079d565b509392505050565b60006102f76102f2846106f0565b61069a565b90508281526020810184848401111561030f57600080fd5b61031a84828561079d565b509392505050565b600081359050610331816108ac565b92915050565b600081359050610346816108c3565b92915050565b600082601f83011261035d57600080fd5b813561036d8482602086016102a6565b91505092915050565b600082601f83011261038757600080fd5b81356103978482602086016102e4565b91505092915050565b6000806000606084860312156103b557600080fd5b60006103c386828701610322565b935050602084013567ffffffffffffffff8111156103e057600080fd5b6103ec86828701610376565b925050604084013567ffffffffffffffff81111561040957600080fd5b6104158682870161034c565b9150509250925092565b60006020828403121561043157600080fd5b600061043f84828501610337565b91505092915050565b6000806040838503121561045b57600080fd5b600061046985828601610337565b925050602083013567ffffffffffffffff81111561048657600080fd5b6104928582860161034c565b9150509250929050565b6000602082840312156104ae57600080fd5b600082013567ffffffffffffffff8111156104c857600080fd5b6104d484828501610376565b91505092915050565b6104e681610748565b82525050565b6104f58161075a565b82525050565b61050481610766565b82525050565b61051b61051682610766565b610810565b82525050565b600061052c82610721565b610536818561073d565b93506105468185602086016107ac565b80840191505092915050565b600061055f601c8361073d565b915061056a8261085a565b601c82019050919050565b600061058260188361072c565b915061058d82610883565b602082019050919050565b6105a181610790565b82525050565b60006105b38284610521565b915081905092915050565b60006105c982610552565b91506105d5828461050a565b60208201915081905092915050565b60006020820190506105f960008301846104dd565b92915050565b600060208201905061061460008301846104ec565b92915050565b600060208201905061062f60008301846104fb565b92915050565b600060808201905061064a60008301876104fb565b6106576020830186610598565b61066460408301856104fb565b61067160608301846104fb565b95945050505050565b6000602082019050818103600083015261069381610575565b9050919050565b60006106a46106b5565b90506106b082826107df565b919050565b6000604051905090565b600067ffffffffffffffff8211156106da576106d961081a565b5b6106e382610849565b9050602081019050919050565b600067ffffffffffffffff82111561070b5761070a61081a565b5b61071482610849565b9050602081019050919050565b600081519050919050565b600082825260208201905092915050565b600081905092915050565b600061075382610770565b9050919050565b60008115159050919050565b6000819050919050565b600073ffffffffffffffffffffffffffffffffffffffff82169050919050565b600060ff82169050919050565b82818337600083830152505050565b60005b838110156107ca5780820151818401526020810190506107af565b838111156107d9576000848401525b50505050565b6107e882610849565b810181811067ffffffffffffffff821117156108075761080661081a565b5b80604052505050565b6000819050919050565b7f4e487b7100000000000000000000000000000000000000000000000000000000600052604160045260246000fd5b6000601f19601f8301169050919050565b7f19457468657265756d205369676e6564204d6573736167653a0a333200000000600082015250565b7f696e76616c6964207369676e6174757265206c656e6774680000000000000000600082015250565b6108b581610748565b81146108c057600080fd5b50565b6108cc81610766565b81146108d757600080fd5b5056fea2646970667358221220cb44624f74c1faa00692d8465c0162982494d7e6173e45768c7ae5078e87ffae64736f6c63430008040033",
  "immutableReferences": {},
  "source": "// SPDX-License-Identifier: MIT\r\npragma solidity ^0.8.0;\r\n\r\ncontract VerifySig1 {\r\n    function verify(\r\n        address _signer,\r\n        string memory _message,\r\n        bytes memory _sig\r\n    ) external pure returns (bool) {\r\n        bytes32 messageHash = getMessageHash(_message);\r\n        bytes32 ethSignedmessageHash = getETHSignedMessageHash(messageHash);\r\n\r\n        return recover(ethSignedmessageHash, _sig) == _signer;\r\n    }\r\n\r\n    function getMessageHash(string memory _message)\r\n        public\r\n        pure\r\n        returns (bytes32)\r\n    {\r\n        return keccak256(abi.encodePacked(_message));\r\n    }\r\n\r\n    function getETHSignedMessageHash(bytes32 _messageHash)\r\n        public\r\n        pure\r\n        returns (bytes32)\r\n    {\r\n        return\r\n            keccak256(\r\n                abi.encodePacked(\r\n                    \"\\x19Ethereum Signed Message:\\n32\",\r\n                    _messageHash\r\n                )\r\n            );\r\n    }\r\n\r\n    function recover(bytes32 _ethSignedMessageHash, bytes memory _sig)\r\n        public\r\n        pure\r\n        returns (address)\r\n    {\r\n        (bytes32 r, bytes32 s, uint8 v) = _split(_sig);\r\n        return ecrecover(_ethSignedMessageHash, v, r, s);\r\n    }\r\n\r\n    function _split(bytes memory _sig)\r\n        internal\r\n        pure\r\n        returns (\r\n            bytes32 r,\r\n            bytes32 s,\r\n            uint8 v\r\n        )\r\n    {\r\n        require(_sig.length == 65, \"invalid signature length\");\r\n\r\n        assembly {\r\n            // first 32 bytes, after the length prefix\r\n            r := mload(add(_sig, 32))\r\n            // second 32 bytes\r\n            s := mload(add(_sig, 64))\r\n            // final byte (first byte of the next 32 bytes)\r\n            v := byte(0, mload(add(_sig, 96)))\r\n        }\r\n    }\r\n}\r\n",
  "sourcePath": "D:/Desktop/immense/crypto/defi application/test (NFT marketplace)/NFT game/src/contracts/signature.sol",
  "compiler": {
    "name": "solc",
    "version": "0.8.4+commit.c7e474f2.Emscripten.clang"
  },
  "schemaVersion": "3.2.3",
  "updatedAt": "2022-05-12T12:27:54.193Z",
  "devdoc": {
    "kind": "dev",
    "methods": {},
    "version": 1
  },
  "userdoc": {
    "kind": "user",
    "methods": {},
    "version": 1
  }
}